{
  "_format": "hh-sol-artifact-1",
  "contractName": "KaboomFactory",
  "sourceName": "src/KaboomFactory.sol",
  "abi": [
    {
      "inputs": [
        {
          "internalType": "address",
          "name": "wCELO_",
          "type": "address"
        },
        {
          "internalType": "address",
          "name": "feeVault_",
          "type": "address"
        },
        {
          "internalType": "address",
          "name": "platformWallet_",
          "type": "address"
        }
      ],
      "stateMutability": "nonpayable",
      "type": "constructor"
    },
    {
      "inputs": [],
      "name": "CreatorFeeExceedsMax",
      "type": "error"
    },
    {
      "inputs": [],
      "name": "InvalidCreator",
      "type": "error"
    },
    {
      "inputs": [],
      "name": "InvalidName",
      "type": "error"
    },
    {
      "inputs": [],
      "name": "InvalidSymbol",
      "type": "error"
    },
    {
      "inputs": [],
      "name": "InvalidVaultDuration",
      "type": "error"
    },
    {
      "inputs": [],
      "name": "ZeroAddress",
      "type": "error"
    },
    {
      "anonymous": false,
      "inputs": [
        {
          "indexed": false,
          "internalType": "uint256",
          "name": "oldFee",
          "type": "uint256"
        },
        {
          "indexed": false,
          "internalType": "uint256",
          "name": "newFee",
          "type": "uint256"
        }
      ],
      "name": "PlatformFeeUpdated",
      "type": "event"
    },
    {
      "anonymous": false,
      "inputs": [
        {
          "indexed": false,
          "internalType": "address",
          "name": "oldWallet",
          "type": "address"
        },
        {
          "indexed": false,
          "internalType": "address",
          "name": "newWallet",
          "type": "address"
        }
      ],
      "name": "PlatformWalletUpdated",
      "type": "event"
    },
    {
      "anonymous": false,
      "inputs": [
        {
          "indexed": true,
          "internalType": "address",
          "name": "token",
          "type": "address"
        },
        {
          "indexed": true,
          "internalType": "address",
          "name": "creator",
          "type": "address"
        },
        {
          "indexed": false,
          "internalType": "address",
          "name": "lpVault",
          "type": "address"
        },
        {
          "indexed": false,
          "internalType": "address",
          "name": "feeVault",
          "type": "address"
        },
        {
          "indexed": false,
          "internalType": "uint256",
          "name": "totalSupply",
          "type": "uint256"
        },
        {
          "indexed": false,
          "internalType": "uint256",
          "name": "virtualPrice",
          "type": "uint256"
        },
        {
          "indexed": false,
          "internalType": "uint256",
          "name": "virtualMarketCap",
          "type": "uint256"
        },
        {
          "indexed": false,
          "internalType": "uint256",
          "name": "timestamp",
          "type": "uint256"
        }
      ],
      "name": "TokenLaunched",
      "type": "event"
    },
    {
      "anonymous": false,
      "inputs": [
        {
          "indexed": true,
          "internalType": "address",
          "name": "token",
          "type": "address"
        },
        {
          "indexed": false,
          "internalType": "string",
          "name": "twitterLink",
          "type": "string"
        },
        {
          "indexed": false,
          "internalType": "string",
          "name": "telegramLink",
          "type": "string"
        },
        {
          "indexed": false,
          "internalType": "string",
          "name": "websiteLink",
          "type": "string"
        },
        {
          "indexed": false,
          "internalType": "string",
          "name": "farcasterLink",
          "type": "string"
        }
      ],
      "name": "TokenMetadataSet",
      "type": "event"
    },
    {
      "inputs": [],
      "name": "VIRTUAL_MARKET_CAP",
      "outputs": [
        {
          "internalType": "uint256",
          "name": "",
          "type": "uint256"
        }
      ],
      "stateMutability": "view",
      "type": "function"
    },
    {
      "inputs": [],
      "name": "VIRTUAL_PRICE",
      "outputs": [
        {
          "internalType": "uint256",
          "name": "",
          "type": "uint256"
        }
      ],
      "stateMutability": "view",
      "type": "function"
    },
    {
      "inputs": [
        {
          "internalType": "uint256",
          "name": "",
          "type": "uint256"
        }
      ],
      "name": "allTokens",
      "outputs": [
        {
          "internalType": "address",
          "name": "",
          "type": "address"
        }
      ],
      "stateMutability": "view",
      "type": "function"
    },
    {
      "inputs": [
        {
          "internalType": "address",
          "name": "",
          "type": "address"
        },
        {
          "internalType": "uint256",
          "name": "",
          "type": "uint256"
        }
      ],
      "name": "creatorTokens",
      "outputs": [
        {
          "internalType": "address",
          "name": "",
          "type": "address"
        }
      ],
      "stateMutability": "view",
      "type": "function"
    },
    {
      "inputs": [],
      "name": "feeVault",
      "outputs": [
        {
          "internalType": "address",
          "name": "",
          "type": "address"
        }
      ],
      "stateMutability": "view",
      "type": "function"
    },
    {
      "inputs": [],
      "name": "getAllTokens",
      "outputs": [
        {
          "internalType": "address[]",
          "name": "",
          "type": "address[]"
        }
      ],
      "stateMutability": "view",
      "type": "function"
    },
    {
      "inputs": [],
      "name": "getTokenCount",
      "outputs": [
        {
          "internalType": "uint256",
          "name": "",
          "type": "uint256"
        }
      ],
      "stateMutability": "view",
      "type": "function"
    },
    {
      "inputs": [
        {
          "internalType": "address",
          "name": "token",
          "type": "address"
        }
      ],
      "name": "getTokenInfo",
      "outputs": [
        {
          "internalType": "address",
          "name": "creator",
          "type": "address"
        },
        {
          "internalType": "address",
          "name": "lpVault",
          "type": "address"
        },
        {
          "internalType": "address",
          "name": "feeVaultAddr",
          "type": "address"
        },
        {
          "internalType": "uint256",
          "name": "virtualPrice",
          "type": "uint256"
        },
        {
          "internalType": "uint256",
          "name": "virtualMarketCap",
          "type": "uint256"
        },
        {
          "internalType": "uint256",
          "name": "creatorFee",
          "type": "uint256"
        },
        {
          "internalType": "uint256",
          "name": "launchTime",
          "type": "uint256"
        }
      ],
      "stateMutability": "view",
      "type": "function"
    },
    {
      "inputs": [
        {
          "internalType": "address",
          "name": "token",
          "type": "address"
        }
      ],
      "name": "getTokenSocials",
      "outputs": [
        {
          "internalType": "string",
          "name": "twitterLink",
          "type": "string"
        },
        {
          "internalType": "string",
          "name": "telegramLink",
          "type": "string"
        },
        {
          "internalType": "string",
          "name": "websiteLink",
          "type": "string"
        },
        {
          "internalType": "string",
          "name": "farcasterLink",
          "type": "string"
        }
      ],
      "stateMutability": "view",
      "type": "function"
    },
    {
      "inputs": [
        {
          "internalType": "address",
          "name": "creator",
          "type": "address"
        }
      ],
      "name": "getTokensByCreator",
      "outputs": [
        {
          "internalType": "address[]",
          "name": "",
          "type": "address[]"
        }
      ],
      "stateMutability": "view",
      "type": "function"
    },
    {
      "inputs": [
        {
          "internalType": "address",
          "name": "",
          "type": "address"
        }
      ],
      "name": "isKaboomToken",
      "outputs": [
        {
          "internalType": "bool",
          "name": "",
          "type": "bool"
        }
      ],
      "stateMutability": "view",
      "type": "function"
    },
    {
      "inputs": [
        {
          "internalType": "string",
          "name": "name",
          "type": "string"
        },
        {
          "internalType": "string",
          "name": "symbol",
          "type": "string"
        },
        {
          "internalType": "uint256",
          "name": "creatorFee",
          "type": "uint256"
        },
        {
          "internalType": "uint256",
          "name": "vaultDuration",
          "type": "uint256"
        },
        {
          "internalType": "string",
          "name": "twitterLink",
          "type": "string"
        },
        {
          "internalType": "string",
          "name": "telegramLink",
          "type": "string"
        },
        {
          "internalType": "string",
          "name": "websiteLink",
          "type": "string"
        },
        {
          "internalType": "string",
          "name": "farcasterLink",
          "type": "string"
        }
      ],
      "name": "launchToken",
      "outputs": [
        {
          "internalType": "address",
          "name": "token",
          "type": "address"
        }
      ],
      "stateMutability": "nonpayable",
      "type": "function"
    },
    {
      "inputs": [],
      "name": "platformWallet",
      "outputs": [
        {
          "internalType": "address",
          "name": "",
          "type": "address"
        }
      ],
      "stateMutability": "view",
      "type": "function"
    },
    {
      "inputs": [
        {
          "internalType": "address",
          "name": "",
          "type": "address"
        }
      ],
      "name": "tokenInfo",
      "outputs": [
        {
          "internalType": "address",
          "name": "creator",
          "type": "address"
        },
        {
          "internalType": "address",
          "name": "lpVault",
          "type": "address"
        },
        {
          "internalType": "address",
          "name": "creatorVault",
          "type": "address"
        },
        {
          "internalType": "uint256",
          "name": "virtualPrice",
          "type": "uint256"
        },
        {
          "internalType": "uint256",
          "name": "virtualMarketCap",
          "type": "uint256"
        },
        {
          "internalType": "uint256",
          "name": "creatorFee",
          "type": "uint256"
        },
        {
          "internalType": "uint256",
          "name": "launchTime",
          "type": "uint256"
        },
        {
          "internalType": "string",
          "name": "twitterLink",
          "type": "string"
        },
        {
          "internalType": "string",
          "name": "telegramLink",
          "type": "string"
        },
        {
          "internalType": "string",
          "name": "websiteLink",
          "type": "string"
        },
        {
          "internalType": "string",
          "name": "farcasterLink",
          "type": "string"
        }
      ],
      "stateMutability": "view",
      "type": "function"
    },
    {
      "inputs": [],
      "name": "wCELO",
      "outputs": [
        {
          "internalType": "address",
          "name": "",
          "type": "address"
        }
      ],
      "stateMutability": "view",
      "type": "function"
    }
  ],
  "bytecode": "0x60c034620000fb57601f6200339238819003918201601f191683019291906001600160401b0384118385101762000100578160609284926040968752833981010312620000fb57620000518162000116565b906200006d83620000656020840162000116565b920162000116565b6001600160a01b039083821615620000ea5781831615620000ea5716918215620000d95760805260a052600080546001600160a01b0319169190911790555161326690816200012c823960805181611004015260a0518181816105e30152818161110d01526112eb0152f35b835163d92e233d60e01b8152600490fd5b845163d92e233d60e01b8152600490fd5b600080fd5b634e487b7160e01b600052604160045260246000fd5b51906001600160a01b0382168203620000fb5756fe60808060405260043610156200001457600080fd5b600090813560e01c9081631f69565f14620011e957508063273f691d14620011c25780632a5c792a146200113c578063478222c214620010f5578063634282af146200109657806378a895671462001076578063918a5f3a1462001033578063930c79761462000fec578063934544d61462000ef5578063b82b2576146200032c578063c6c54925146200030a578063d5c712751462000279578063db3fa4cc1462000217578063f5dab71114620001015763fa2af9da14620000d657600080fd5b34620000fe5780600319360112620000fe57546040516001600160a01b039091168152602090f35b80fd5b5034620000fe576020366003190112620000fe576001600160a01b0390816200012962001326565b1681526004602052604090208181541690826001820154169260028201541690600381015460048201546005830154600684015490600785016200016d9062001521565b926200017c6008870162001521565b946200018b6009880162001521565b96600a016200019a9062001521565b976040519a8b9a8b5260208b015260408a01526060890152608088015260a087015260c08601526101608060e08701528501620001d791620013a1565b848103610100860152620001eb91620013a1565b838103610120850152620001ff91620013a1565b8281036101408401526200021391620013a1565b0390f35b5034620000fe576040366003190112620000fe576200023562001326565b6001600160a01b03908116825260016020526040822080546024359390841015620000fe5750602092620002699162001388565b9190546040519260031b1c168152f35b5034620000fe5760208060031936011262000306576001600160a01b039182620002a262001326565b16815260018083526040822093604051908194808754938481520196855280852094915b838310620002ee576200021387620002e1818b038262001467565b6040519182918262001342565b855481168852968101969484019491840191620002c6565b5080fd5b5034620000fe5780600319360112620000fe57602060405164746a5288008152f35b5034620000fe57610100366003190112620000fe576004356001600160401b03811162000306576200036390369060040162001489565b906024356001600160401b03811162000306576200038690369060040162001489565b916084356001600160401b03811162000ef157620003a990369060040162001489565b60a4356001600160401b03811162000eed57620003cb90369060040162001489565b60c4356001600160401b03811162000ee957620003ed90369060040162001489565b9160e4356001600160401b03811162000ee5576200041090369060040162001489565b9284511562000ed35786511562000ec15761012c6044351162000eaf576040516109da808201908282106001600160401b0383111762000e71576080918391620015d4833989815233602082015260643560408201526b3077b58d5d37839198000000606082015203019087f094851562000ea457604051806105698101106001600160401b036105698301111762000e905761056962001fae82396105698101888152602081018990523060408201528190036060019088f0801562000e85576040516001600160a01b03978816999190971696916001600160401b03610d1a84019081119084111762000e71578291620005256200053c92610d1a62002517863960a0610d1a86018181520190620013a1565b90610d1a840182036020610d1a86010152620013a1565b336040610d1a84010152876060610d1a84010152896080610d1a84010152039087f095861562000e6557873b15620000fe5760405163189acdbd60e31b81526001600160a01b0390971660048801819052968181602481838d5af1801562000e305762000e53575b50853b15620000fe5760405163485cc95560e01b81528760048201528160248201528181604481838b5af1801562000e305790829162000e3b575b50507f00000000000000000000000000000000000000000000000000000000000000006001600160a01b0316803b15620003065781809160646040518094819363b6f7134b60e01b83528d600484015233602484015260443560448401525af1801562000e305790829162000e18575b50506040516200065f8162001436565b33815286602082015288604082015264746a528800606082015269054b40b1f852bda00000608082015260443560a08201524260c08201528360e08201528461010082015282610120820152856101408201528782526004602052604082209060018060a01b038151166001600160601b0360a01b8354161782556001820160018060a01b036020830151166001600160601b0360a01b8254161790556002820160018060a01b036040830151166001600160601b0360a01b825416179055606081015160038301556080810151600483015560a0810151600583015560c0810151600683015560e08101518051906001600160401b03821162000c5a5781906200076e6007860154620014e4565b601f811162000dc3575b50602090601f831160011462000d4f57869262000d43575b50508160011b916000199060031b1c19161760078301555b6101008101518051906001600160401b03821162000c5a578190620007d16008860154620014e4565b601f811162000cee575b50602090601f831160011462000c7a57869262000c6e575b50508160011b916000199060031b1c19161760088301555b6101208101518051906001600160401b03821162000c5a57620008326009850154620014e4565b601f811162000c11575b50602090601f831160011462000b9b5761014093929186918362000b8f575b50508160011b916000199060031b1c19161760098401555b01518051906001600160401b03821162000b7b5762000896600a840154620014e4565b601f811162000b32575b50602090601f831160011462000abc579180600a928695946040979262000ab0575b50508160011b916000199060031b1c1916179101555b8781526002602052818120600160ff198254161790553381526001602052208054600160401b81101562000a9a57620009179160018201815562001388565b8154600391821b89811b6001600160a01b0390911b19909116179091555494600160401b86101562000a9a57600186018060035586101562000a8457602097879660036000527fc2575a0e9e593c00f959f8c92f12db2869c3395a3b0502d05e2516446f71f85b01876001600160601b0360a01b825416179055604051918252888201526ba18f07d736b90be550000000604082015264746a528800606082015269054b40b1f852bda0000060808201524260a0820152857ff4c3200878843061fde29a1e720af29fbd78ae4989067a9a862c82cebe54bfaf60c03393a381511580159062000a79575b801562000a6e575b801562000a63575b62000a21575b8685604051908152f35b7f21cddc21be364de168a977a1ed3e8668cc6019151ec9cd7a3b90de137163110c9362000a559160405194859485620013e3565b0390a2803880808062000a17565b508351151562000a11565b508051151562000a09565b508251151562000a01565b634e487b7160e01b600052603260045260246000fd5b634e487b7160e01b600052604160045260246000fd5b015190503880620008c2565b90600a840185526020852091855b601f198516811062000b19575092600a92600192604097969583601f1981161062000aff575b505050811b01910155620008d8565b015160001960f88460031b161c1916905538808062000af0565b9192602060018192868501518155019401920162000aca565b600a8401855260208520601f840160051c81016020851062000b73575b601f830160051c8201811062000b67575050620008a0565b86815560010162000b4f565b508062000b4f565b634e487b7160e01b84526041600452602484fd5b0151905038806200085b565b906009850186526020862091865b601f198516811062000bf857509183916001936101409695601f1981161062000bde575b505050811b01600984015562000873565b015160001960f88460031b161c1916905538808062000bcd565b9192602060018192868501518155019401920162000ba9565b60098501865260208620601f840160051c81016020851062000c52575b601f830160051c8201811062000c465750506200083c565b87815560010162000c2e565b508062000c2e565b634e487b7160e01b85526041600452602485fd5b015190503880620007f3565b9250600885018652602086209086935b601f198416851062000cd2576001945083601f1981161062000cb8575b505050811b0160088301556200080b565b015160001960f88460031b161c1916905538808062000ca7565b8181015183556020948501946001909301929091019062000c8a565b90915060088501865260208620601f840160051c81016020851062000d3b575b90849392915b601f830160051c8201811062000d2c575050620007db565b88815585945060010162000d14565b508062000d0e565b01519050388062000790565b9250600785018652602086209086935b601f198416851062000da7576001945083601f1981161062000d8d575b505050811b016007830155620007a8565b015160001960f88460031b161c1916905538808062000d7c565b8181015183556020948501946001909301929091019062000d5f565b90915060078501865260208620601f840160051c81016020851062000e10575b90849392915b601f830160051c8201811062000e0157505062000778565b88815585945060010162000de9565b508062000de3565b62000e239062001453565b620000fe5780386200064f565b6040513d84823e3d90fd5b62000e469062001453565b620000fe578038620005df565b62000e5e9062001453565b38620005a4565b604051903d90823e3d90fd5b634e487b7160e01b89526041600452602489fd5b6040513d89823e3d90fd5b634e487b7160e01b88526041600452602488fd5b6040513d88823e3d90fd5b60405163f72bc5d560e01b8152600490fd5b60405163010466f160e21b8152600490fd5b60405163430f13b360e01b8152600490fd5b8580fd5b8480fd5b8380fd5b8280fd5b5034620000fe576020366003190112620000fe576001600160a01b03906040908262000f2062001326565b168152600460205220906040519062000f398262001436565b80835416825280600184015416602083015260028301541660408201526003820154606082015260048201546080820152600582015460a0820152600682015460c08201526200021361014062000f936007850162001521565b60e0840190815262000fa86008860162001521565b93610100810194855262000fd5600a62000fc56009890162001521565b9761012084019889520162001521565b9283910152519251935160405194859485620013e3565b5034620000fe5780600319360112620000fe576040517f00000000000000000000000000000000000000000000000000000000000000006001600160a01b03168152602090f35b5034620000fe576020366003190112620000fe5760209060ff906040906001600160a01b036200106262001326565b168152600284522054166040519015158152f35b5034620000fe5780600319360112620000fe576020600354604051908152f35b5034620000fe576020366003190112620000fe57600435600354811015620003065760039091527fc2575a0e9e593c00f959f8c92f12db2869c3395a3b0502d05e2516446f71f85b01546040516001600160a01b039091168152602090f35b5034620000fe5780600319360112620000fe576040517f00000000000000000000000000000000000000000000000000000000000000006001600160a01b03168152602090f35b5034620000fe5780600319360112620000fe57604051600380548083529083526020808301937fc2575a0e9e593c00f959f8c92f12db2869c3395a3b0502d05e2516446f71f85b92915b828210620011a1576200021385620002e18189038262001467565b83546001600160a01b03168652948501946001938401939091019062001186565b5034620000fe5780600319360112620000fe57602060405169054b40b1f852bda000008152f35b90503462000306576020366003190112620003065760e0916001600160a01b0390604090826200121862001326565b1681526004602052206200122c8362001436565b8181541683528160018201541692602081019384528260028301541660408201526003820154926060820193845260048301549060808301918252808060058601549460a08101958652620012ca600a60068901549860c08401998a52620012976007820162001521565b8d850152620012a96008820162001521565b610100850152620012bd6009820162001521565b6101208501520162001521565b610140820152511696511694519151925193519460405196875260208701527f00000000000000000000000000000000000000000000000000000000000000001660408601526060850152608084015260a083015260c0820152f35b600435906001600160a01b03821682036200133d57565b600080fd5b6020908160408183019282815285518094520193019160005b8281106200136a575050505090565b83516001600160a01b0316855293810193928101926001016200135b565b805482101562000a845760005260206000200190600090565b919082519283825260005b848110620013ce575050826000602080949584010152601f8019910116010190565b602081830181015184830182015201620013ac565b9262001415620014339593620014066200142494608088526080880190620013a1565b908682036020880152620013a1565b908482036040860152620013a1565b916060818403910152620013a1565b90565b61016081019081106001600160401b0382111762000a9a57604052565b6001600160401b03811162000a9a57604052565b90601f801991011681019081106001600160401b0382111762000a9a57604052565b81601f820112156200133d578035906001600160401b03821162000a9a5760405192620014c1601f8401601f19166020018562001467565b828452602083830101116200133d57816000926020809301838601378301015290565b90600182811c9216801562001516575b60208310146200150057565b634e487b7160e01b600052602260045260246000fd5b91607f1691620014f4565b90604051918260008254926200153784620014e4565b908184526001948581169081600014620015ae575060011462001567575b5050620015659250038362001467565b565b9093915060005260209081600020936000915b81831062001595575050620015659350820101388062001555565b855488840185015294850194879450918301916200157a565b9150506200156594506020925060ff191682840152151560051b82010138806200155556fe6101403461017757601f6109da38819003918201601f19168301916001600160401b0383118484101761017c578084926080946040528339810103126101775761004881610192565b5061005560208201610192565b60606040830151920151908215158061016a575b8061015d575b80610150575b80610142575b610130576080523360a0524260c0528160e0526101009182526101209081526040519061083392836101a784396080518381816103860152610664015260a0518381816101bc0152610256015260c05183818161016f015281816104d20152610702015260e0518381816104b10152818161062d01526106d80152518281816104fc015281816105f2015261073a0152518181816103460152818161054901528181610763015281816107a201526107ce0152f35b604051637616640160e01b8152600490fd5b506301e1338083141561007b565b5062ed4e00831415610075565b5062278d0083141561006f565b5062093a80831415610069565b600080fd5b634e487b7160e01b600052604160045260246000fd5b51906001600160a01b03821682036101775756fe608060408181526004918236101561001657600080fd5b600092833560e01c91826302d05d3f146106505750816304554443146106155781631514617e146105da578163158ef93e146105b657816344b1231f146105995781634e69d5601461049a5781634e71d92d1461036957816379203dc41461032e57816382816125146103105781638cb7d625146102f25781638e14af1c146102d3578163af38d757146102a3578163afb70ba114610285578163c45a015514610241578163c4d66de81461019257508063cf09e0d014610158578063e834a8341461013a578063ef475a49146101205763fc0c546a146100f657600080fd5b3461011c578160031936011261011c57905490516001600160a01b039091168152602090f35b5080fd5b503461011c578160031936011261011c5751908152602090f35b503461011c578160031936011261011c576020906001549051908152f35b503461011c578160031936011261011c57602090517f00000000000000000000000000000000000000000000000000000000000000008152f35b83833461011c57602036600319011261011c5782356001600160a01b038181169182900361023d577f000000000000000000000000000000000000000000000000000000000000000016330361022e576002549160ff8316610220578115610211575082546001600160a01b03191617825560ff191660011760025580f35b5163d92e233d60e01b81528490fd5b5162dc149f60e41b81528490fd5b81516282b42960e81b81528490fd5b8380fd5b50503461011c578160031936011261011c57517f00000000000000000000000000000000000000000000000000000000000000006001600160a01b03168152602090f35b50503461011c578160031936011261011c576020905162ed4e008152f35b50503461011c578160031936011261011c576020906102cc6102c36106d6565b60015490610693565b9051908152f35b50503461011c578160031936011261011c57602090516301e133808152f35b50503461011c578160031936011261011c576020905162093a808152f35b50503461011c578160031936011261011c576020905162278d008152f35b50503461011c578160031936011261011c57602090517f00000000000000000000000000000000000000000000000000000000000000008152f35b919050346104965782600319360112610496576001600160a01b037f000000000000000000000000000000000000000000000000000000000000000081169233849003610489576103b86106d6565b916103c66001548094610693565b92831561047957836103d7916107f0565b60015585541683519163a9059cbb60e01b87528581528360245260208760448180865af1600188511481161561045a575b8386521561044757505050907f9923b4306c6c030f2bdfbf156517d5983b87e15b96176da122cd4f2effa4ba7b9160015482519182526020820152a280f35b635274afe760e01b835282015260249150fd5b600181151661047057823b15153d151616610408565b833d89823e3d90fd5b84516312d37ee560e31b81528390fd5b82516282b42960e81b8152fd5b8280fd5b83833461011c578160031936011261011c576104f67f00000000000000000000000000000000000000000000000000000000000000007f00000000000000000000000000000000000000000000000000000000000000006107f0565b916105217f0000000000000000000000000000000000000000000000000000000000000000846107f0565b9061052a6106d6565b9060648202918083046064149015171561058657506080945061056e907f0000000000000000000000000000000000000000000000000000000000000000906106b6565b91805193804210855260208501528301526060820152f35b634e487b7160e01b815260118652602490fd5b50503461011c578160031936011261011c576020906102cc6106d6565b50503461011c578160031936011261011c5760209060ff6002541690519015158152f35b50503461011c578160031936011261011c57602090517f00000000000000000000000000000000000000000000000000000000000000008152f35b50503461011c578160031936011261011c57602090517f00000000000000000000000000000000000000000000000000000000000000008152f35b84903461011c578160031936011261011c577f00000000000000000000000000000000000000000000000000000000000000006001600160a01b03168152602090f35b919082039182116106a057565b634e487b7160e01b600052601160045260246000fd5b81156106c0570490565b634e487b7160e01b600052601260045260246000fd5b7f000000000000000000000000000000000000000000000000000000000000000080156107cb576107277f000000000000000000000000000000000000000000000000000000000000000042610693565b908082106107c45761073891610693565b7f00000000000000000000000000000000000000000000000000000000000000008082101561079e577f00000000000000000000000000000000000000000000000000000000000000008281029281840414901517156106a05761079b916106b6565b90565b50507f000000000000000000000000000000000000000000000000000000000000000090565b5050600090565b507f000000000000000000000000000000000000000000000000000000000000000090565b919082018092116106a05756fea26469706673582212201fa915c455c13e6aa7e15fb272a54c3f71599bcab72e349de7190a433142e4bd64736f6c6343000814003360a0346100ae57601f61056938819003918201601f19168301916001600160401b038311848410176100b3578084926060946040528339810103126100ae57610047816100c9565b61005f6040610058602085016100c9565b93016100c9565b9160018060a01b03908160018060a01b031993168360005416176000551690600154161760015560805260405161048b90816100de823960805181818160c60152818161023a01526102ef0152f35b600080fd5b634e487b7160e01b600052604160045260246000fd5b51906001600160a01b03821682036100ae5756fe608060408181526004918236101561001657600080fd5b600092833560e01c918263158ef93e146104315750816316f0115b1461040857816340519a53146102ce578163485cc955146102015781636f43f17b14610139575080637b80889b1461011b578063a4e2d634146100f5578063c45a0155146100b25763fc0c546a1461008857600080fd5b346100ae57816003193601126100ae57905490516001600160a01b039091168152602090f35b5080fd5b50346100ae57816003193601126100ae57517f00000000000000000000000000000000000000000000000000000000000000006001600160a01b03168152602090f35b50346100ae57816003193601126100ae5760209060ff60015460a01c1690519015158152f35b50346100ae57816003193601126100ae576020906002549051908152f35b919050346101d857826003193601126101d85760015481516370a0823160e01b8152308482015290602090829060249082906001600160a01b03165afa9283156101f757849361018e575b6020848451908152f35b909192506020903d82116101ef575b601f8201601f191683019067ffffffffffffffff8211848310176101dc575060209183918552810103126101d8576020925051903880610184565b8280fd5b634e487b7160e01b865260419052602485fd5b3d915061019d565b82513d86823e3d90fd5b9050346101d857816003193601126101d8576001600160a01b0390803582811691908290036102ca57602435928084168094036102c6577f00000000000000000000000000000000000000000000000000000000000000001633036102b9576001549360ff8560a81c166102ad5782156102a057505083546001600160a01b031916178355600161ff0160a01b031990911617600160a81b1760015580f35b5163d92e233d60e01b8152fd5b5162dc149f60e41b8152fd5b83516282b42960e81b8152fd5b8580fd5b8480fd5b9050346101d85760203660031901126101d8576001600160a01b03908035907f0000000000000000000000000000000000000000000000000000000000000000831633036102b95760015460ff8160a01c166103fa5782156103eb5760ff60a01b198116600160a01b17600155600283905584516323b872dd60e01b8752338352306024526044849052919084169060208760648180865af160018851148116156103cc575b83875287606052156103b95750505060207f104290e1e459304b774d131c3ac0fa84947303c64b8ae6cce786374e13448942918386541693600154169451908152a380f35b635274afe760e01b835282015260249150fd5b60018115166103e257823b15153d151616610374565b833d89823e3d90fd5b508351631f2a200560e01b8152fd5b50835162dc149f60e41b8152fd5b5050346100ae57816003193601126100ae5760015490516001600160a01b039091168152602090f35b8490346100ae57816003193601126100ae5760209060ff60015460a81c1615158152f3fea2646970667358221220bf05ff60a61e22ec80ee1f1b6ef2835f0308df53cbba6cdbea7a37dc067b213d64736f6c63430008140033604060e08152346200044f5762000d1a803803806200001e8162000454565b92833981019160a0828403126200044f5781516001600160401b0393908481116200044f5781620000519185016200047a565b9260209182820151908682116200044f576200006f9183016200047a565b936200007d848301620004ec565b906200009a60806200009260608601620004ec565b9401620004ec565b9681518181116200034f576003908154906001948583811c9316801562000444575b898410146200042e578190601f93848111620003d8575b508990848311600114620003715760009262000365575b505060001982851b1c191690851b1782555b88519283116200034f5760049889548581811c9116801562000344575b898210146200032f57828111620002e4575b508791841160011462000279579383949184926000956200026d575b50501b92600019911b1c19161785555b6080523360a0524260c0526001600160a01b039081169485156200025657600254956b71175249d9818853b80000009687810180911162000241578495969760009160025582825281865287822081815401905587519081527fddf252ad1be2c89b69c2b068fc378daa952ba7f163c4a11628f55a4df523b3ef958691a31691821562000256576002546b3077b58d5d378391980000009081810180911162000241576000949596506002558484528382528584208181540190558551908152a35161081890816200050282396080518161065b015260a0518161014f015260c0518161030c0152f35b601187634e487b7160e01b6000525260246000fd5b835163ec442f0560e01b8152600081870152602490fd5b01519350388062000147565b9190601f198416928a60005284896000209460005b8b89838310620002cc5750505010620002b1575b50505050811b01855562000157565b01519060f884600019921b161c1916905538808080620002a2565b8686015189559097019694850194889350016200028e565b8a600052886000208380870160051c8201928b881062000325575b0160051c019086905b828110620003185750506200012b565b6000815501869062000308565b92508192620002ff565b60228b634e487b7160e01b6000525260246000fd5b90607f169062000119565b634e487b7160e01b600052604160045260246000fd5b015190503880620000ea565b90879350601f19831691866000528b6000209260005b8d828210620003c15750508411620003a8575b505050811b018255620000fc565b015160001983871b60f8161c191690553880806200039a565b8385015186558b9790950194938401930162000387565b90915084600052896000208480850160051c8201928c861062000424575b918991869594930160051c01915b82811062000414575050620000d3565b6000815585945089910162000404565b92508192620003f6565b634e487b7160e01b600052602260045260246000fd5b92607f1692620000bc565b600080fd5b6040519190601f01601f191682016001600160401b038111838210176200034f57604052565b919080601f840112156200044f5782516001600160401b0381116200034f57602090620004b0601f8201601f1916830162000454565b928184528282870101116200044f5760005b818110620004d857508260009394955001015290565b8581018301518482018401528201620004c2565b51906001600160a01b03821682036200044f5756fe608060408181526004918236101561001657600080fd5b600092833560e01c91826302d05d3f146106475750816306fdde031461056d578163095ea7b3146104bf57816318160ddd146104a057816323b872dd146103a95781632bc7306314610382578163313ce5671461036657816370a082311461032f578163790ca413146102f4578163902d55a5146102cd57816395d89b41146101ae57508063a9059cbb1461017e578063c45a01551461013b578063dd62ed3e146100f35763ebda16eb146100ca57600080fd5b346100ef57816003193601126100ef57602090516b71175249d9818853b80000008152f35b5080fd5b50346100ef57806003193601126100ef57806020926101106106d3565b6101186106ee565b6001600160a01b0391821683526001865283832091168252845220549051908152f35b50346100ef57816003193601126100ef57517f00000000000000000000000000000000000000000000000000000000000000006001600160a01b03168152602090f35b50346100ef57806003193601126100ef576020906101a761019d6106d3565b6024359033610704565b5160018152f35b8383346100ef57816003193601126100ef57805190828454600181811c908083169283156102c3575b60209384841081146102b057838852908115610294575060011461023f575b505050829003601f01601f191682019267ffffffffffffffff84118385101761022c575082918261022892528261068a565b0390f35b634e487b7160e01b815260418552602490fd5b8787529192508591837f8a35acfbc15ff81a39ae7d344fd709f28e8600b4aa8c65c6b64bfe7fe36bd19b5b83851061028057505050508301018580806101f6565b80548886018301529301928490820161026a565b60ff1916878501525050151560051b84010190508580806101f6565b634e487b7160e01b895260228a52602489fd5b91607f16916101d7565b5050346100ef57816003193601126100ef57602090516ba18f07d736b90be5500000008152f35b5050346100ef57816003193601126100ef57602090517f00000000000000000000000000000000000000000000000000000000000000008152f35b5050346100ef5760203660031901126100ef5760209181906001600160a01b036103576106d3565b16815280845220549051908152f35b5050346100ef57816003193601126100ef576020905160128152f35b5050346100ef57816003193601126100ef57602090516b3077b58d5d378391980000008152f35b9050823461049d57606036600319011261049d576103c56106d3565b6103cd6106ee565b916044359360018060a01b038316808352600160205286832033845260205286832054916000198310610409575b6020886101a7898989610704565b86831061047157811561045a573315610443575082526001602090815286832033845281529186902090859003905582906101a7876103fb565b8751634a1406b160e11b8152908101849052602490fd5b875163e602df0560e01b8152908101849052602490fd5b8751637dc7a0d960e11b8152339181019182526020820193909352604081018790528291506060010390fd5b80fd5b5050346100ef57816003193601126100ef576020906002549051908152f35b9050346105695781600319360112610569576104d96106d3565b602435903315610552576001600160a01b031691821561053b57508083602095338152600187528181208582528752205582519081527f8c5be1e5ebec7d5bd14f71427d1e84f3dd0314c0f7b2291e5b200ac8c7c3b925843392a35160018152f35b8351634a1406b160e11b8152908101859052602490fd5b835163e602df0560e01b8152808401869052602490fd5b8280fd5b8383346100ef57816003193601126100ef5780519082600354600181811c9080831692831561063d575b60209384841081146102b05783885290811561029457506001146105e757505050829003601f01601f191682019267ffffffffffffffff84118385101761022c575082918261022892528261068a565b600387529192508591837fc2575a0e9e593c00f959f8c92f12db2869c3395a3b0502d05e2516446f71f85b5b83851061062957505050508301018580806101f6565b805488860183015293019284908201610613565b91607f1691610597565b8490346100ef57816003193601126100ef577f00000000000000000000000000000000000000000000000000000000000000006001600160a01b03168152602090f35b6020808252825181830181905290939260005b8281106106bf57505060409293506000838284010152601f8019910116010190565b81810186015184820160400152850161069d565b600435906001600160a01b03821682036106e957565b600080fd5b602435906001600160a01b03821682036106e957565b916001600160a01b038084169283156107c957169283156107b0576000908382528160205260408220549083821061077e575091604082827fddf252ad1be2c89b69c2b068fc378daa952ba7f163c4a11628f55a4df523b3ef958760209652828652038282205586815220818154019055604051908152a3565b60405163391434e360e21b81526001600160a01b03919091166004820152602481019190915260448101839052606490fd5b60405163ec442f0560e01b815260006004820152602490fd5b604051634b637e8f60e11b815260006004820152602490fdfea264697066735822122054fb941f351134ef0f0db49cfd9791664e2f634f4ecec1ab40bca0bc240b184c64736f6c63430008140033a26469706673582212205588df671703b8929d8ce3b9f43fda13b5eb0f75eb83dd1b1097554ef507902b64736f6c63430008140033",
  "linkReferences": {},
  "deployedLinkReferences": {}
}