{
  "_format": "hh-sol-artifact-1",
  "contractName": "KaboomFeeVault",
  "sourceName": "src/KaboomFeeVault.sol",
  "abi": [
    {
      "inputs": [
        {
          "internalType": "address",
          "name": "feeToken_",
          "type": "address"
        },
        {
          "internalType": "address",
          "name": "platformWallet_",
          "type": "address"
        },
        {
          "internalType": "address",
          "name": "factory_",
          "type": "address"
        }
      ],
      "stateMutability": "nonpayable",
      "type": "constructor"
    },
    {
      "inputs": [],
      "name": "InsufficientBalance",
      "type": "error"
    },
    {
      "inputs": [],
      "name": "InvalidCreatorFee",
      "type": "error"
    },
    {
      "inputs": [
        {
          "internalType": "address",
          "name": "token",
          "type": "address"
        }
      ],
      "name": "SafeERC20FailedOperation",
      "type": "error"
    },
    {
      "inputs": [],
      "name": "Unauthorized",
      "type": "error"
    },
    {
      "inputs": [],
      "name": "ZeroAddress",
      "type": "error"
    },
    {
      "inputs": [],
      "name": "ZeroAmount",
      "type": "error"
    },
    {
      "anonymous": false,
      "inputs": [
        {
          "indexed": true,
          "internalType": "address",
          "name": "token",
          "type": "address"
        },
        {
          "indexed": true,
          "internalType": "address",
          "name": "to",
          "type": "address"
        },
        {
          "indexed": false,
          "internalType": "uint256",
          "name": "amount",
          "type": "uint256"
        }
      ],
      "name": "CreatorFeesClaimed",
      "type": "event"
    },
    {
      "anonymous": false,
      "inputs": [
        {
          "indexed": true,
          "internalType": "address",
          "name": "token",
          "type": "address"
        },
        {
          "indexed": false,
          "internalType": "uint256",
          "name": "tradeAmount",
          "type": "uint256"
        },
        {
          "indexed": false,
          "internalType": "uint256",
          "name": "platformFee",
          "type": "uint256"
        },
        {
          "indexed": false,
          "internalType": "uint256",
          "name": "creatorFee",
          "type": "uint256"
        }
      ],
      "name": "FeesCollected",
      "type": "event"
    },
    {
      "anonymous": false,
      "inputs": [
        {
          "indexed": true,
          "internalType": "address",
          "name": "to",
          "type": "address"
        },
        {
          "indexed": false,
          "internalType": "uint256",
          "name": "amount",
          "type": "uint256"
        }
      ],
      "name": "PlatformFeesClaimed",
      "type": "event"
    },
    {
      "anonymous": false,
      "inputs": [
        {
          "indexed": true,
          "internalType": "address",
          "name": "admin",
          "type": "address"
        },
        {
          "indexed": false,
          "internalType": "bool",
          "name": "enabled",
          "type": "bool"
        }
      ],
      "name": "SetAdmin",
      "type": "event"
    },
    {
      "inputs": [],
      "name": "BPS_DENOMINATOR",
      "outputs": [
        {
          "internalType": "uint256",
          "name": "",
          "type": "uint256"
        }
      ],
      "stateMutability": "view",
      "type": "function"
    },
    {
      "inputs": [],
      "name": "MAX_CREATOR_FEE_BPS",
      "outputs": [
        {
          "internalType": "uint256",
          "name": "",
          "type": "uint256"
        }
      ],
      "stateMutability": "view",
      "type": "function"
    },
    {
      "inputs": [],
      "name": "PLATFORM_FEE_BPS",
      "outputs": [
        {
          "internalType": "uint256",
          "name": "",
          "type": "uint256"
        }
      ],
      "stateMutability": "view",
      "type": "function"
    },
    {
      "inputs": [
        {
          "internalType": "address",
          "name": "token",
          "type": "address"
        },
        {
          "internalType": "address",
          "name": "to",
          "type": "address"
        }
      ],
      "name": "claimCreatorFees",
      "outputs": [],
      "stateMutability": "nonpayable",
      "type": "function"
    },
    {
      "inputs": [
        {
          "internalType": "address",
          "name": "to",
          "type": "address"
        }
      ],
      "name": "claimPlatformFees",
      "outputs": [],
      "stateMutability": "nonpayable",
      "type": "function"
    },
    {
      "inputs": [
        {
          "internalType": "address",
          "name": "token",
          "type": "address"
        },
        {
          "internalType": "uint256",
          "name": "amount",
          "type": "uint256"
        }
      ],
      "name": "collectFees",
      "outputs": [],
      "stateMutability": "nonpayable",
      "type": "function"
    },
    {
      "inputs": [],
      "name": "factory",
      "outputs": [
        {
          "internalType": "address",
          "name": "",
          "type": "address"
        }
      ],
      "stateMutability": "view",
      "type": "function"
    },
    {
      "inputs": [
        {
          "internalType": "address",
          "name": "",
          "type": "address"
        }
      ],
      "name": "isAdmin",
      "outputs": [
        {
          "internalType": "bool",
          "name": "",
          "type": "bool"
        }
      ],
      "stateMutability": "view",
      "type": "function"
    },
    {
      "inputs": [
        {
          "internalType": "address",
          "name": "",
          "type": "address"
        }
      ],
      "name": "pendingCreatorFees",
      "outputs": [
        {
          "internalType": "uint256",
          "name": "",
          "type": "uint256"
        }
      ],
      "stateMutability": "view",
      "type": "function"
    },
    {
      "inputs": [],
      "name": "pendingPlatformFees",
      "outputs": [
        {
          "internalType": "uint256",
          "name": "",
          "type": "uint256"
        }
      ],
      "stateMutability": "view",
      "type": "function"
    },
    {
      "inputs": [],
      "name": "platformWallet",
      "outputs": [
        {
          "internalType": "address",
          "name": "",
          "type": "address"
        }
      ],
      "stateMutability": "view",
      "type": "function"
    },
    {
      "inputs": [
        {
          "internalType": "address",
          "name": "token",
          "type": "address"
        },
        {
          "internalType": "address",
          "name": "creator",
          "type": "address"
        },
        {
          "internalType": "uint256",
          "name": "creatorFeeBps",
          "type": "uint256"
        }
      ],
      "name": "registerToken",
      "outputs": [],
      "stateMutability": "nonpayable",
      "type": "function"
    },
    {
      "inputs": [
        {
          "internalType": "address",
          "name": "admin",
          "type": "address"
        },
        {
          "internalType": "bool",
          "name": "enabled",
          "type": "bool"
        }
      ],
      "name": "setAdmin",
      "outputs": [],
      "stateMutability": "nonpayable",
      "type": "function"
    },
    {
      "inputs": [
        {
          "internalType": "address",
          "name": "newFactory",
          "type": "address"
        }
      ],
      "name": "setFactory",
      "outputs": [],
      "stateMutability": "nonpayable",
      "type": "function"
    },
    {
      "inputs": [
        {
          "internalType": "address",
          "name": "newWallet",
          "type": "address"
        }
      ],
      "name": "setPlatformWallet",
      "outputs": [],
      "stateMutability": "nonpayable",
      "type": "function"
    },
    {
      "inputs": [
        {
          "internalType": "address",
          "name": "",
          "type": "address"
        }
      ],
      "name": "tokenCreator",
      "outputs": [
        {
          "internalType": "address",
          "name": "",
          "type": "address"
        }
      ],
      "stateMutability": "view",
      "type": "function"
    },
    {
      "inputs": [
        {
          "internalType": "address",
          "name": "",
          "type": "address"
        }
      ],
      "name": "tokenCreatorFee",
      "outputs": [
        {
          "internalType": "uint256",
          "name": "",
          "type": "uint256"
        }
      ],
      "stateMutability": "view",
      "type": "function"
    },
    {
      "inputs": [],
      "name": "wCELO",
      "outputs": [
        {
          "internalType": "address",
          "name": "",
          "type": "address"
        }
      ],
      "stateMutability": "view",
      "type": "function"
    }
  ],
  "bytecode": "0x60a0346100fa57601f610a5f38819003918201601f19168301916001600160401b038311848410176100ff578084926060946040528339810103126100fa5761004781610115565b61005f604061005860208501610115565b9301610115565b6001600160a01b03918083161580156100f0575b6100de576080528160018060a01b03199316836001541617600155169060005416176000553360005260026020526040600020600160ff19825416179055604051610935908161012a823960805181818161022f015281816103a70152818161051401526106390152f35b60405163d92e233d60e01b8152600490fd5b5082841615610073565b600080fd5b634e487b7160e01b600052604160045260246000fd5b51906001600160a01b03821682036100fa5756fe608060408181526004918236101561001657600080fd5b600092833560e01c91826323774af2146107f25750816324d7806c146107b45781632f98c9e8146107955781634b0bddd2146106e1578163539aa77f146106c55781635bb47808146106725781635fa65a04146105ba5781638831e9cf14610543578163930c7976146104ff5781639eff1609146104c7578163a033fcd414610336578163a844a13414610319578163b6f7134b14610286578163b947efcb14610194578163c45a01551461016c578163c598b2f91461013257508063e1a45218146101165763fa2af9da146100eb57600080fd5b3461011257816003193601126101125760015490516001600160a01b039091168152602090f35b5080fd5b5034610112578160031936011261011257602090516127108152f35b9050346101685760203660031901126101685760209282916001600160a01b0361015a61082a565b168252845220549051908152f35b8280fd5b505034610112578160031936011261011257905490516001600160a01b039091168152602090f35b919050346101685780600319360112610168576101af61082a565b916101b8610845565b6001600160a01b0393841680865260066020528386205490939190851633036102795784811694851561026a57848752836020528287205493841561025c57847faa4ecfd5324d73e3b54d038b3ae8ac8f88866d49dc334dc1f02fe36e0f93574895936020959361025493898c5287528a858120557f00000000000000000000000000000000000000000000000000000000000000001661087e565b51908152a380f35b8351631e9acf1760e31b8152fd5b50505163d92e233d60e01b8152fd5b50516282b42960e81b8152fd5b91905034610168576060366003190112610168576102a261082a565b916102ab610845565b84546044359491926001600160a01b0392918316330361030c5761012c86116102fe575081168552600660205282852091166bffffffffffffffffffffffff60a01b825416179055600560205282205580f35b8451630cba035d60e11b8152fd5b84516282b42960e81b8152fd5b5050346101125781600319360112610112576020905161012c8152f35b9190503461016857806003193601126101685761035161082a565b6024359182156104b85760288302938385046028036104a5576001600160a01b03928316808752600560205282872054909561271090819004929186810290878204036104925704936103a4858461085b565b907f0000000000000000000000000000000000000000000000000000000000000000168451916323b872dd60e01b8a523384523060245260445260208960648180855af160018a5114811615610473575b828652896060521561046157505091817facf5781f729863816d01e6d77635b13f2998b176b9a3550306ac6363f601bc2b95936104376060969460035461085b565b60035587895260205281882061044e84825461085b565b905581519384526020840152820152a280f35b602492635274afe760e01b8352820152fd5b600181151661048957813b15153d1516166103f5565b823d8b823e3d90fd5b634e487b7160e01b895260118352602489fd5b634e487b7160e01b865260119052602485fd5b51631f2a200560e01b81528390fd5b5050346101125760203660031901126101125760209181906001600160a01b036104ef61082a565b1681526005845220549051908152f35b505034610112578160031936011261011257517f00000000000000000000000000000000000000000000000000000000000000006001600160a01b03168152602090f35b9050346101685760203660031901126101685761055e61082a565b338452600260205260ff8385205416156105ac576001600160a01b031691821561059f5750506bffffffffffffffffffffffff60a01b600154161760015580f35b5163d92e233d60e01b8152fd5b5090516282b42960e81b8152fd5b905034610168576020366003190112610168576105d561082a565b91338452600260205260ff818520541615610666576001600160a01b038381169390841561026a5760035493841561025c57509161065e847f0636f1043cff5f4c437926a4412416778ddc5e970feb177685b587e81dad90959593602095896003557f00000000000000000000000000000000000000000000000000000000000000001661087e565b51908152a280f35b516282b42960e81b8152fd5b9050346101685760203660031901126101685761068d61082a565b338452600260205260ff8385205416156105ac576001600160a01b031691821561059f57505081546001600160a01b03191617815580f35b5050346101125781600319360112610112576020905160288152f35b919050346101685780600319360112610168576106fc61082a565b906024359182151580930361079157338552600260205260ff828620541615610782576001600160a01b031692831561077457507f55a5194bc0174fcaf12b2978bef43911466bf63b34db8d1dd1a0d5dcd5c41bea916020918486526002835280862060ff1981541660ff841617905551908152a280f35b905163d92e233d60e01b8152fd5b81516282b42960e81b81528490fd5b8480fd5b5050346101125781600319360112610112576020906003549051908152f35b5050346101125760203660031901126101125760209160ff9082906001600160a01b036107df61082a565b1681526002855220541690519015158152f35b84908434610168576020366003190112610168576020926001600160a01b0391908261081c61082a565b168152600685522054168152f35b600435906001600160a01b038216820361084057565b600080fd5b602435906001600160a01b038216820361084057565b9190820180921161086857565b634e487b7160e01b600052601160045260246000fd5b60405163a9059cbb60e01b60009081526001600160a01b039384166004526024949094529260209060448180855af16001600051148116156108df575b83604052156108c957505050565b635274afe760e01b835216600482015260249150fd5b60018115166108f557813b15153d1516166108bb565b833d6000823e3d90fdfea2646970667358221220927c2c850744a909fecde8646b30a177f89a5b4f3814d5ba569270df630c991e64736f6c63430008140033",
  "linkReferences": {},
  "deployedLinkReferences": {}
}