{
  "_format": "hh-sol-artifact-1",
  "contractName": "KaboomCreatorVault",
  "sourceName": "src/KaboomCreatorVault.sol",
  "abi": [
    {
      "inputs": [
        {
          "internalType": "address",
          "name": "token_",
          "type": "address"
        },
        {
          "internalType": "address",
          "name": "creator_",
          "type": "address"
        },
        {
          "internalType": "uint256",
          "name": "lockDuration_",
          "type": "uint256"
        },
        {
          "internalType": "uint256",
          "name": "allocation_",
          "type": "uint256"
        }
      ],
      "stateMutability": "nonpayable",
      "type": "constructor"
    },
    {
      "inputs": [],
      "name": "AlreadyInitialized",
      "type": "error"
    },
    {
      "inputs": [],
      "name": "InvalidDuration",
      "type": "error"
    },
    {
      "inputs": [],
      "name": "NothingToClaim",
      "type": "error"
    },
    {
      "inputs": [
        {
          "internalType": "address",
          "name": "token",
          "type": "address"
        }
      ],
      "name": "SafeERC20FailedOperation",
      "type": "error"
    },
    {
      "inputs": [],
      "name": "Unauthorized",
      "type": "error"
    },
    {
      "inputs": [],
      "name": "ZeroAddress",
      "type": "error"
    },
    {
      "anonymous": false,
      "inputs": [
        {
          "indexed": true,
          "internalType": "address",
          "name": "creator",
          "type": "address"
        },
        {
          "indexed": false,
          "internalType": "uint256",
          "name": "amount",
          "type": "uint256"
        },
        {
          "indexed": false,
          "internalType": "uint256",
          "name": "totalClaimed",
          "type": "uint256"
        }
      ],
      "name": "TokensClaimed",
      "type": "event"
    },
    {
      "inputs": [],
      "name": "DURATION_180_DAYS",
      "outputs": [
        {
          "internalType": "uint256",
          "name": "",
          "type": "uint256"
        }
      ],
      "stateMutability": "view",
      "type": "function"
    },
    {
      "inputs": [],
      "name": "DURATION_30_DAYS",
      "outputs": [
        {
          "internalType": "uint256",
          "name": "",
          "type": "uint256"
        }
      ],
      "stateMutability": "view",
      "type": "function"
    },
    {
      "inputs": [],
      "name": "DURATION_365_DAYS",
      "outputs": [
        {
          "internalType": "uint256",
          "name": "",
          "type": "uint256"
        }
      ],
      "stateMutability": "view",
      "type": "function"
    },
    {
      "inputs": [],
      "name": "DURATION_7_DAYS",
      "outputs": [
        {
          "internalType": "uint256",
          "name": "",
          "type": "uint256"
        }
      ],
      "stateMutability": "view",
      "type": "function"
    },
    {
      "inputs": [],
      "name": "DURATION_INSTANT",
      "outputs": [
        {
          "internalType": "uint256",
          "name": "",
          "type": "uint256"
        }
      ],
      "stateMutability": "view",
      "type": "function"
    },
    {
      "inputs": [],
      "name": "claim",
      "outputs": [],
      "stateMutability": "nonpayable",
      "type": "function"
    },
    {
      "inputs": [],
      "name": "claimable",
      "outputs": [
        {
          "internalType": "uint256",
          "name": "",
          "type": "uint256"
        }
      ],
      "stateMutability": "view",
      "type": "function"
    },
    {
      "inputs": [],
      "name": "claimed",
      "outputs": [
        {
          "internalType": "uint256",
          "name": "",
          "type": "uint256"
        }
      ],
      "stateMutability": "view",
      "type": "function"
    },
    {
      "inputs": [],
      "name": "createdAt",
      "outputs": [
        {
          "internalType": "uint256",
          "name": "",
          "type": "uint256"
        }
      ],
      "stateMutability": "view",
      "type": "function"
    },
    {
      "inputs": [],
      "name": "creator",
      "outputs": [
        {
          "internalType": "address",
          "name": "",
          "type": "address"
        }
      ],
      "stateMutability": "view",
      "type": "function"
    },
    {
      "inputs": [],
      "name": "factory",
      "outputs": [
        {
          "internalType": "address",
          "name": "",
          "type": "address"
        }
      ],
      "stateMutability": "view",
      "type": "function"
    },
    {
      "inputs": [],
      "name": "getStatus",
      "outputs": [
        {
          "internalType": "bool",
          "name": "isLocked",
          "type": "bool"
        },
        {
          "internalType": "uint256",
          "name": "lockEndsAt",
          "type": "uint256"
        },
        {
          "internalType": "uint256",
          "name": "vestingEndsAt",
          "type": "uint256"
        },
        {
          "internalType": "uint256",
          "name": "percentVested",
          "type": "uint256"
        }
      ],
      "stateMutability": "view",
      "type": "function"
    },
    {
      "inputs": [
        {
          "internalType": "address",
          "name": "token_",
          "type": "address"
        }
      ],
      "name": "initialize",
      "outputs": [],
      "stateMutability": "nonpayable",
      "type": "function"
    },
    {
      "inputs": [],
      "name": "initialized",
      "outputs": [
        {
          "internalType": "bool",
          "name": "",
          "type": "bool"
        }
      ],
      "stateMutability": "view",
      "type": "function"
    },
    {
      "inputs": [],
      "name": "lockDuration",
      "outputs": [
        {
          "internalType": "uint256",
          "name": "",
          "type": "uint256"
        }
      ],
      "stateMutability": "view",
      "type": "function"
    },
    {
      "inputs": [],
      "name": "token",
      "outputs": [
        {
          "internalType": "address",
          "name": "",
          "type": "address"
        }
      ],
      "stateMutability": "view",
      "type": "function"
    },
    {
      "inputs": [],
      "name": "totalAllocation",
      "outputs": [
        {
          "internalType": "uint256",
          "name": "",
          "type": "uint256"
        }
      ],
      "stateMutability": "view",
      "type": "function"
    },
    {
      "inputs": [],
      "name": "vestedAmount",
      "outputs": [
        {
          "internalType": "uint256",
          "name": "",
          "type": "uint256"
        }
      ],
      "stateMutability": "view",
      "type": "function"
    },
    {
      "inputs": [],
      "name": "vestingDuration",
      "outputs": [
        {
          "internalType": "uint256",
          "name": "",
          "type": "uint256"
        }
      ],
      "stateMutability": "view",
      "type": "function"
    }
  ],
  "bytecode": "0x6101403461017757601f6109da38819003918201601f19168301916001600160401b0383118484101761017c578084926080946040528339810103126101775761004881610192565b5061005560208201610192565b60606040830151920151908215158061016a575b8061015d575b80610150575b80610142575b610130576080523360a0524260c0528160e0526101009182526101209081526040519061083392836101a784396080518381816103860152610664015260a0518381816101bc0152610256015260c05183818161016f015281816104d20152610702015260e0518381816104b10152818161062d01526106d80152518281816104fc015281816105f2015261073a0152518181816103460152818161054901528181610763015281816107a201526107ce0152f35b604051637616640160e01b8152600490fd5b506301e1338083141561007b565b5062ed4e00831415610075565b5062278d0083141561006f565b5062093a80831415610069565b600080fd5b634e487b7160e01b600052604160045260246000fd5b51906001600160a01b03821682036101775756fe608060408181526004918236101561001657600080fd5b600092833560e01c91826302d05d3f146106505750816304554443146106155781631514617e146105da578163158ef93e146105b657816344b1231f146105995781634e69d5601461049a5781634e71d92d1461036957816379203dc41461032e57816382816125146103105781638cb7d625146102f25781638e14af1c146102d3578163af38d757146102a3578163afb70ba114610285578163c45a015514610241578163c4d66de81461019257508063cf09e0d014610158578063e834a8341461013a578063ef475a49146101205763fc0c546a146100f657600080fd5b3461011c578160031936011261011c57905490516001600160a01b039091168152602090f35b5080fd5b503461011c578160031936011261011c5751908152602090f35b503461011c578160031936011261011c576020906001549051908152f35b503461011c578160031936011261011c57602090517f00000000000000000000000000000000000000000000000000000000000000008152f35b83833461011c57602036600319011261011c5782356001600160a01b038181169182900361023d577f000000000000000000000000000000000000000000000000000000000000000016330361022e576002549160ff8316610220578115610211575082546001600160a01b03191617825560ff191660011760025580f35b5163d92e233d60e01b81528490fd5b5162dc149f60e41b81528490fd5b81516282b42960e81b81528490fd5b8380fd5b50503461011c578160031936011261011c57517f00000000000000000000000000000000000000000000000000000000000000006001600160a01b03168152602090f35b50503461011c578160031936011261011c576020905162ed4e008152f35b50503461011c578160031936011261011c576020906102cc6102c36106d6565b60015490610693565b9051908152f35b50503461011c578160031936011261011c57602090516301e133808152f35b50503461011c578160031936011261011c576020905162093a808152f35b50503461011c578160031936011261011c576020905162278d008152f35b50503461011c578160031936011261011c57602090517f00000000000000000000000000000000000000000000000000000000000000008152f35b919050346104965782600319360112610496576001600160a01b037f000000000000000000000000000000000000000000000000000000000000000081169233849003610489576103b86106d6565b916103c66001548094610693565b92831561047957836103d7916107f0565b60015585541683519163a9059cbb60e01b87528581528360245260208760448180865af1600188511481161561045a575b8386521561044757505050907f9923b4306c6c030f2bdfbf156517d5983b87e15b96176da122cd4f2effa4ba7b9160015482519182526020820152a280f35b635274afe760e01b835282015260249150fd5b600181151661047057823b15153d151616610408565b833d89823e3d90fd5b84516312d37ee560e31b81528390fd5b82516282b42960e81b8152fd5b8280fd5b83833461011c578160031936011261011c576104f67f00000000000000000000000000000000000000000000000000000000000000007f00000000000000000000000000000000000000000000000000000000000000006107f0565b916105217f0000000000000000000000000000000000000000000000000000000000000000846107f0565b9061052a6106d6565b9060648202918083046064149015171561058657506080945061056e907f0000000000000000000000000000000000000000000000000000000000000000906106b6565b91805193804210855260208501528301526060820152f35b634e487b7160e01b815260118652602490fd5b50503461011c578160031936011261011c576020906102cc6106d6565b50503461011c578160031936011261011c5760209060ff6002541690519015158152f35b50503461011c578160031936011261011c57602090517f00000000000000000000000000000000000000000000000000000000000000008152f35b50503461011c578160031936011261011c57602090517f00000000000000000000000000000000000000000000000000000000000000008152f35b84903461011c578160031936011261011c577f00000000000000000000000000000000000000000000000000000000000000006001600160a01b03168152602090f35b919082039182116106a057565b634e487b7160e01b600052601160045260246000fd5b81156106c0570490565b634e487b7160e01b600052601260045260246000fd5b7f000000000000000000000000000000000000000000000000000000000000000080156107cb576107277f000000000000000000000000000000000000000000000000000000000000000042610693565b908082106107c45761073891610693565b7f00000000000000000000000000000000000000000000000000000000000000008082101561079e577f00000000000000000000000000000000000000000000000000000000000000008281029281840414901517156106a05761079b916106b6565b90565b50507f000000000000000000000000000000000000000000000000000000000000000090565b5050600090565b507f000000000000000000000000000000000000000000000000000000000000000090565b919082018092116106a05756fea26469706673582212201fa915c455c13e6aa7e15fb272a54c3f71599bcab72e349de7190a433142e4bd64736f6c63430008140033",
  "linkReferences": {},
  "deployedLinkReferences": {}
}