{
  "_format": "hh-sol-artifact-1",
  "contractName": "KaboomToken",
  "sourceName": "src/KaboomToken.sol",
  "abi": [
    {
      "inputs": [
        {
          "internalType": "string",
          "name": "name_",
          "type": "string"
        },
        {
          "internalType": "string",
          "name": "symbol_",
          "type": "string"
        },
        {
          "internalType": "address",
          "name": "creator_",
          "type": "address"
        },
        {
          "internalType": "address",
          "name": "lpVault_",
          "type": "address"
        },
        {
          "internalType": "address",
          "name": "creatorVault_",
          "type": "address"
        }
      ],
      "stateMutability": "nonpayable",
      "type": "constructor"
    },
    {
      "inputs": [
        {
          "internalType": "address",
          "name": "spender",
          "type": "address"
        },
        {
          "internalType": "uint256",
          "name": "allowance",
          "type": "uint256"
        },
        {
          "internalType": "uint256",
          "name": "needed",
          "type": "uint256"
        }
      ],
      "name": "ERC20InsufficientAllowance",
      "type": "error"
    },
    {
      "inputs": [
        {
          "internalType": "address",
          "name": "sender",
          "type": "address"
        },
        {
          "internalType": "uint256",
          "name": "balance",
          "type": "uint256"
        },
        {
          "internalType": "uint256",
          "name": "needed",
          "type": "uint256"
        }
      ],
      "name": "ERC20InsufficientBalance",
      "type": "error"
    },
    {
      "inputs": [
        {
          "internalType": "address",
          "name": "approver",
          "type": "address"
        }
      ],
      "name": "ERC20InvalidApprover",
      "type": "error"
    },
    {
      "inputs": [
        {
          "internalType": "address",
          "name": "receiver",
          "type": "address"
        }
      ],
      "name": "ERC20InvalidReceiver",
      "type": "error"
    },
    {
      "inputs": [
        {
          "internalType": "address",
          "name": "sender",
          "type": "address"
        }
      ],
      "name": "ERC20InvalidSender",
      "type": "error"
    },
    {
      "inputs": [
        {
          "internalType": "address",
          "name": "spender",
          "type": "address"
        }
      ],
      "name": "ERC20InvalidSpender",
      "type": "error"
    },
    {
      "anonymous": false,
      "inputs": [
        {
          "indexed": true,
          "internalType": "address",
          "name": "owner",
          "type": "address"
        },
        {
          "indexed": true,
          "internalType": "address",
          "name": "spender",
          "type": "address"
        },
        {
          "indexed": false,
          "internalType": "uint256",
          "name": "value",
          "type": "uint256"
        }
      ],
      "name": "Approval",
      "type": "event"
    },
    {
      "anonymous": false,
      "inputs": [
        {
          "indexed": true,
          "internalType": "address",
          "name": "from",
          "type": "address"
        },
        {
          "indexed": true,
          "internalType": "address",
          "name": "to",
          "type": "address"
        },
        {
          "indexed": false,
          "internalType": "uint256",
          "name": "value",
          "type": "uint256"
        }
      ],
      "name": "Transfer",
      "type": "event"
    },
    {
      "inputs": [],
      "name": "CREATOR_ALLOCATION",
      "outputs": [
        {
          "internalType": "uint256",
          "name": "",
          "type": "uint256"
        }
      ],
      "stateMutability": "view",
      "type": "function"
    },
    {
      "inputs": [],
      "name": "LP_ALLOCATION",
      "outputs": [
        {
          "internalType": "uint256",
          "name": "",
          "type": "uint256"
        }
      ],
      "stateMutability": "view",
      "type": "function"
    },
    {
      "inputs": [],
      "name": "TOTAL_SUPPLY",
      "outputs": [
        {
          "internalType": "uint256",
          "name": "",
          "type": "uint256"
        }
      ],
      "stateMutability": "view",
      "type": "function"
    },
    {
      "inputs": [
        {
          "internalType": "address",
          "name": "owner",
          "type": "address"
        },
        {
          "internalType": "address",
          "name": "spender",
          "type": "address"
        }
      ],
      "name": "allowance",
      "outputs": [
        {
          "internalType": "uint256",
          "name": "",
          "type": "uint256"
        }
      ],
      "stateMutability": "view",
      "type": "function"
    },
    {
      "inputs": [
        {
          "internalType": "address",
          "name": "spender",
          "type": "address"
        },
        {
          "internalType": "uint256",
          "name": "value",
          "type": "uint256"
        }
      ],
      "name": "approve",
      "outputs": [
        {
          "internalType": "bool",
          "name": "",
          "type": "bool"
        }
      ],
      "stateMutability": "nonpayable",
      "type": "function"
    },
    {
      "inputs": [
        {
          "internalType": "address",
          "name": "account",
          "type": "address"
        }
      ],
      "name": "balanceOf",
      "outputs": [
        {
          "internalType": "uint256",
          "name": "",
          "type": "uint256"
        }
      ],
      "stateMutability": "view",
      "type": "function"
    },
    {
      "inputs": [],
      "name": "creator",
      "outputs": [
        {
          "internalType": "address",
          "name": "",
          "type": "address"
        }
      ],
      "stateMutability": "view",
      "type": "function"
    },
    {
      "inputs": [],
      "name": "decimals",
      "outputs": [
        {
          "internalType": "uint8",
          "name": "",
          "type": "uint8"
        }
      ],
      "stateMutability": "view",
      "type": "function"
    },
    {
      "inputs": [],
      "name": "factory",
      "outputs": [
        {
          "internalType": "address",
          "name": "",
          "type": "address"
        }
      ],
      "stateMutability": "view",
      "type": "function"
    },
    {
      "inputs": [],
      "name": "launchTime",
      "outputs": [
        {
          "internalType": "uint256",
          "name": "",
          "type": "uint256"
        }
      ],
      "stateMutability": "view",
      "type": "function"
    },
    {
      "inputs": [],
      "name": "name",
      "outputs": [
        {
          "internalType": "string",
          "name": "",
          "type": "string"
        }
      ],
      "stateMutability": "view",
      "type": "function"
    },
    {
      "inputs": [],
      "name": "symbol",
      "outputs": [
        {
          "internalType": "string",
          "name": "",
          "type": "string"
        }
      ],
      "stateMutability": "view",
      "type": "function"
    },
    {
      "inputs": [],
      "name": "totalSupply",
      "outputs": [
        {
          "internalType": "uint256",
          "name": "",
          "type": "uint256"
        }
      ],
      "stateMutability": "view",
      "type": "function"
    },
    {
      "inputs": [
        {
          "internalType": "address",
          "name": "to",
          "type": "address"
        },
        {
          "internalType": "uint256",
          "name": "value",
          "type": "uint256"
        }
      ],
      "name": "transfer",
      "outputs": [
        {
          "internalType": "bool",
          "name": "",
          "type": "bool"
        }
      ],
      "stateMutability": "nonpayable",
      "type": "function"
    },
    {
      "inputs": [
        {
          "internalType": "address",
          "name": "from",
          "type": "address"
        },
        {
          "internalType": "address",
          "name": "to",
          "type": "address"
        },
        {
          "internalType": "uint256",
          "name": "value",
          "type": "uint256"
        }
      ],
      "name": "transferFrom",
      "outputs": [
        {
          "internalType": "bool",
          "name": "",
          "type": "bool"
        }
      ],
      "stateMutability": "nonpayable",
      "type": "function"
    }
  ],
  "bytecode": "0x604060e08152346200044f5762000d1a803803806200001e8162000454565b92833981019160a0828403126200044f5781516001600160401b0393908481116200044f5781620000519185016200047a565b9260209182820151908682116200044f576200006f9183016200047a565b936200007d848301620004ec565b906200009a60806200009260608601620004ec565b9401620004ec565b9681518181116200034f576003908154906001948583811c9316801562000444575b898410146200042e578190601f93848111620003d8575b508990848311600114620003715760009262000365575b505060001982851b1c191690851b1782555b88519283116200034f5760049889548581811c9116801562000344575b898210146200032f57828111620002e4575b508791841160011462000279579383949184926000956200026d575b50501b92600019911b1c19161785555b6080523360a0524260c0526001600160a01b039081169485156200025657600254956b71175249d9818853b80000009687810180911162000241578495969760009160025582825281865287822081815401905587519081527fddf252ad1be2c89b69c2b068fc378daa952ba7f163c4a11628f55a4df523b3ef958691a31691821562000256576002546b3077b58d5d378391980000009081810180911162000241576000949596506002558484528382528584208181540190558551908152a35161081890816200050282396080518161065b015260a0518161014f015260c0518161030c0152f35b601187634e487b7160e01b6000525260246000fd5b835163ec442f0560e01b8152600081870152602490fd5b01519350388062000147565b9190601f198416928a60005284896000209460005b8b89838310620002cc5750505010620002b1575b50505050811b01855562000157565b01519060f884600019921b161c1916905538808080620002a2565b8686015189559097019694850194889350016200028e565b8a600052886000208380870160051c8201928b881062000325575b0160051c019086905b828110620003185750506200012b565b6000815501869062000308565b92508192620002ff565b60228b634e487b7160e01b6000525260246000fd5b90607f169062000119565b634e487b7160e01b600052604160045260246000fd5b015190503880620000ea565b90879350601f19831691866000528b6000209260005b8d828210620003c15750508411620003a8575b505050811b018255620000fc565b015160001983871b60f8161c191690553880806200039a565b8385015186558b9790950194938401930162000387565b90915084600052896000208480850160051c8201928c861062000424575b918991869594930160051c01915b82811062000414575050620000d3565b6000815585945089910162000404565b92508192620003f6565b634e487b7160e01b600052602260045260246000fd5b92607f1692620000bc565b600080fd5b6040519190601f01601f191682016001600160401b038111838210176200034f57604052565b919080601f840112156200044f5782516001600160401b0381116200034f57602090620004b0601f8201601f1916830162000454565b928184528282870101116200044f5760005b818110620004d857508260009394955001015290565b8581018301518482018401528201620004c2565b51906001600160a01b03821682036200044f5756fe608060408181526004918236101561001657600080fd5b600092833560e01c91826302d05d3f146106475750816306fdde031461056d578163095ea7b3146104bf57816318160ddd146104a057816323b872dd146103a95781632bc7306314610382578163313ce5671461036657816370a082311461032f578163790ca413146102f4578163902d55a5146102cd57816395d89b41146101ae57508063a9059cbb1461017e578063c45a01551461013b578063dd62ed3e146100f35763ebda16eb146100ca57600080fd5b346100ef57816003193601126100ef57602090516b71175249d9818853b80000008152f35b5080fd5b50346100ef57806003193601126100ef57806020926101106106d3565b6101186106ee565b6001600160a01b0391821683526001865283832091168252845220549051908152f35b50346100ef57816003193601126100ef57517f00000000000000000000000000000000000000000000000000000000000000006001600160a01b03168152602090f35b50346100ef57806003193601126100ef576020906101a761019d6106d3565b6024359033610704565b5160018152f35b8383346100ef57816003193601126100ef57805190828454600181811c908083169283156102c3575b60209384841081146102b057838852908115610294575060011461023f575b505050829003601f01601f191682019267ffffffffffffffff84118385101761022c575082918261022892528261068a565b0390f35b634e487b7160e01b815260418552602490fd5b8787529192508591837f8a35acfbc15ff81a39ae7d344fd709f28e8600b4aa8c65c6b64bfe7fe36bd19b5b83851061028057505050508301018580806101f6565b80548886018301529301928490820161026a565b60ff1916878501525050151560051b84010190508580806101f6565b634e487b7160e01b895260228a52602489fd5b91607f16916101d7565b5050346100ef57816003193601126100ef57602090516ba18f07d736b90be5500000008152f35b5050346100ef57816003193601126100ef57602090517f00000000000000000000000000000000000000000000000000000000000000008152f35b5050346100ef5760203660031901126100ef5760209181906001600160a01b036103576106d3565b16815280845220549051908152f35b5050346100ef57816003193601126100ef576020905160128152f35b5050346100ef57816003193601126100ef57602090516b3077b58d5d378391980000008152f35b9050823461049d57606036600319011261049d576103c56106d3565b6103cd6106ee565b916044359360018060a01b038316808352600160205286832033845260205286832054916000198310610409575b6020886101a7898989610704565b86831061047157811561045a573315610443575082526001602090815286832033845281529186902090859003905582906101a7876103fb565b8751634a1406b160e11b8152908101849052602490fd5b875163e602df0560e01b8152908101849052602490fd5b8751637dc7a0d960e11b8152339181019182526020820193909352604081018790528291506060010390fd5b80fd5b5050346100ef57816003193601126100ef576020906002549051908152f35b9050346105695781600319360112610569576104d96106d3565b602435903315610552576001600160a01b031691821561053b57508083602095338152600187528181208582528752205582519081527f8c5be1e5ebec7d5bd14f71427d1e84f3dd0314c0f7b2291e5b200ac8c7c3b925843392a35160018152f35b8351634a1406b160e11b8152908101859052602490fd5b835163e602df0560e01b8152808401869052602490fd5b8280fd5b8383346100ef57816003193601126100ef5780519082600354600181811c9080831692831561063d575b60209384841081146102b05783885290811561029457506001146105e757505050829003601f01601f191682019267ffffffffffffffff84118385101761022c575082918261022892528261068a565b600387529192508591837fc2575a0e9e593c00f959f8c92f12db2869c3395a3b0502d05e2516446f71f85b5b83851061062957505050508301018580806101f6565b805488860183015293019284908201610613565b91607f1691610597565b8490346100ef57816003193601126100ef577f00000000000000000000000000000000000000000000000000000000000000006001600160a01b03168152602090f35b6020808252825181830181905290939260005b8281106106bf57505060409293506000838284010152601f8019910116010190565b81810186015184820160400152850161069d565b600435906001600160a01b03821682036106e957565b600080fd5b602435906001600160a01b03821682036106e957565b916001600160a01b038084169283156107c957169283156107b0576000908382528160205260408220549083821061077e575091604082827fddf252ad1be2c89b69c2b068fc378daa952ba7f163c4a11628f55a4df523b3ef958760209652828652038282205586815220818154019055604051908152a3565b60405163391434e360e21b81526001600160a01b03919091166004820152602481019190915260448101839052606490fd5b60405163ec442f0560e01b815260006004820152602490fd5b604051634b637e8f60e11b815260006004820152602490fdfea264697066735822122054fb941f351134ef0f0db49cfd9791664e2f634f4ecec1ab40bca0bc240b184c64736f6c63430008140033",
  "linkReferences": {},
  "deployedLinkReferences": {}
}