{"src/KaboomFactory.sol":{"KaboomFactory":{"abi":[{"inputs":[{"internalType":"address","name":"wCELO_","type":"address"},{"internalType":"address","name":"feeVault_","type":"address"},{"internalType":"address","name":"platformWallet_","type":"address"}],"stateMutability":"nonpayable","type":"constructor"},{"inputs":[],"name":"CreatorFeeExceedsMax","type":"error"},{"inputs":[],"name":"InvalidCreator","type":"error"},{"inputs":[],"name":"InvalidName","type":"error"},{"inputs":[],"name":"InvalidSymbol","type":"error"},{"inputs":[],"name":"InvalidVaultDuration","type":"error"},{"inputs":[],"name":"ZeroAddress","type":"error"},{"anonymous":false,"inputs":[{"indexed":false,"internalType":"uint256","name":"oldFee","type":"uint256"},{"indexed":false,"internalType":"uint256","name":"newFee","type":"uint256"}],"name":"PlatformFeeUpdated","type":"event"},{"anonymous":false,"inputs":[{"indexed":false,"internalType":"address","name":"oldWallet","type":"address"},{"indexed":false,"internalType":"address","name":"newWallet","type":"address"}],"name":"PlatformWalletUpdated","type":"event"},{"anonymous":false,"inputs":[{"indexed":true,"internalType":"address","name":"token","type":"address"},{"indexed":true,"internalType":"address","name":"creator","type":"address"},{"indexed":false,"internalType":"address","name":"lpVault","type":"address"},{"indexed":false,"internalType":"address","name":"feeVault","type":"address"},{"indexed":false,"internalType":"uint256","name":"totalSupply","type":"uint256"},{"indexed":false,"internalType":"uint256","name":"virtualPrice","type":"uint256"},{"indexed":false,"internalType":"uint256","name":"virtualMarketCap","type":"uint256"},{"indexed":false,"internalType":"uint256","name":"timestamp","type":"uint256"}],"name":"TokenLaunched","type":"event"},{"anonymous":false,"inputs":[{"indexed":true,"internalType":"address","name":"token","type":"address"},{"indexed":false,"internalType":"string","name":"twitterLink","type":"string"},{"indexed":false,"internalType":"string","name":"telegramLink","type":"string"},{"indexed":false,"internalType":"string","name":"websiteLink","type":"string"},{"indexed":false,"internalType":"string","name":"farcasterLink","type":"string"}],"name":"TokenMetadataSet","type":"event"},{"inputs":[],"name":"VIRTUAL_MARKET_CAP","outputs":[{"internalType":"uint256","name":"","type":"uint256"}],"stateMutability":"view","type":"function"},{"inputs":[],"name":"VIRTUAL_PRICE","outputs":[{"internalType":"uint256","name":"","type":"uint256"}],"stateMutability":"view","type":"function"},{"inputs":[{"internalType":"uint256","name":"","type":"uint256"}],"name":"allTokens","outputs":[{"internalType":"address","name":"","type":"address"}],"stateMutability":"view","type":"function"},{"inputs":[{"internalType":"address","name":"","type":"address"},{"internalType":"uint256","name":"","type":"uint256"}],"name":"creatorTokens","outputs":[{"internalType":"address","name":"","type":"address"}],"stateMutability":"view","type":"function"},{"inputs":[],"name":"feeVault","outputs":[{"internalType":"address","name":"","type":"address"}],"stateMutability":"view","type":"function"},{"inputs":[],"name":"getAllTokens","outputs":[{"internalType":"address[]","name":"","type":"address[]"}],"stateMutability":"view","type":"function"},{"inputs":[],"name":"getTokenCount","outputs":[{"internalType":"uint256","name":"","type":"uint256"}],"stateMutability":"view","type":"function"},{"inputs":[{"internalType":"address","name":"token","type":"address"}],"name":"getTokenInfo","outputs":[{"internalType":"address","name":"creator","type":"address"},{"internalType":"address","name":"lpVault","type":"address"},{"internalType":"address","name":"feeVaultAddr","type":"address"},{"internalType":"uint256","name":"virtualPrice","type":"uint256"},{"internalType":"uint256","name":"virtualMarketCap","type":"uint256"},{"internalType":"uint256","name":"creatorFee","type":"uint256"},{"internalType":"uint256","name":"launchTime","type":"uint256"}],"stateMutability":"view","type":"function"},{"inputs":[{"internalType":"address","name":"token","type":"address"}],"name":"getTokenSocials","outputs":[{"internalType":"string","name":"twitterLink","type":"string"},{"internalType":"string","name":"telegramLink","type":"string"},{"internalType":"string","name":"websiteLink","type":"string"},{"internalType":"string","name":"farcasterLink","type":"string"}],"stateMutability":"view","type":"function"},{"inputs":[{"internalType":"address","name":"creator","type":"address"}],"name":"getTokensByCreator","outputs":[{"internalType":"address[]","name":"","type":"address[]"}],"stateMutability":"view","type":"function"},{"inputs":[{"internalType":"address","name":"","type":"address"}],"name":"isKaboomToken","outputs":[{"internalType":"bool","name":"","type":"bool"}],"stateMutability":"view","type":"function"},{"inputs":[{"internalType":"string","name":"name","type":"string"},{"internalType":"string","name":"symbol","type":"string"},{"internalType":"uint256","name":"creatorFee","type":"uint256"},{"internalType":"uint256","name":"vaultDuration","type":"uint256"},{"internalType":"string","name":"twitterLink","type":"string"},{"internalType":"string","name":"telegramLink","type":"string"},{"internalType":"string","name":"websiteLink","type":"string"},{"internalType":"string","name":"farcasterLink","type":"string"}],"name":"launchToken","outputs":[{"internalType":"address","name":"token","type":"address"}],"stateMutability":"nonpayable","type":"function"},{"inputs":[],"name":"platformWallet","outputs":[{"internalType":"address","name":"","type":"address"}],"stateMutability":"view","type":"function"},{"inputs":[{"internalType":"address","name":"","type":"address"}],"name":"tokenInfo","outputs":[{"internalType":"address","name":"creator","type":"address"},{"internalType":"address","name":"lpVault","type":"address"},{"internalType":"address","name":"creatorVault","type":"address"},{"internalType":"uint256","name":"virtualPrice","type":"uint256"},{"internalType":"uint256","name":"virtualMarketCap","type":"uint256"},{"internalType":"uint256","name":"creatorFee","type":"uint256"},{"internalType":"uint256","name":"launchTime","type":"uint256"},{"internalType":"string","name":"twitterLink","type":"string"},{"internalType":"string","name":"telegramLink","type":"string"},{"internalType":"string","name":"websiteLink","type":"string"},{"internalType":"string","name":"farcasterLink","type":"string"}],"stateMutability":"view","type":"function"},{"inputs":[],"name":"wCELO","outputs":[{"internalType":"address","name":"","type":"address"}],"stateMutability":"view","type":"function"}],"evm":{"bytecode":{"linkReferences":{},"object":"60c034620000fb57601f6200339238819003918201601f191683019291906001600160401b0384118385101762000100578160609284926040968752833981010312620000fb57620000518162000116565b906200006d83620000656020840162000116565b920162000116565b6001600160a01b039083821615620000ea5781831615620000ea5716918215620000d95760805260a052600080546001600160a01b0319169190911790555161326690816200012c823960805181611004015260a0518181816105e30152818161110d01526112eb0152f35b835163d92e233d60e01b8152600490fd5b845163d92e233d60e01b8152600490fd5b600080fd5b634e487b7160e01b600052604160045260246000fd5b51906001600160a01b0382168203620000fb5756fe60808060405260043610156200001457600080fd5b600090813560e01c9081631f69565f14620011e957508063273f691d14620011c25780632a5c792a146200113c578063478222c214620010f5578063634282af146200109657806378a895671462001076578063918a5f3a1462001033578063930c79761462000fec578063934544d61462000ef5578063b82b2576146200032c578063c6c54925146200030a578063d5c712751462000279578063db3fa4cc1462000217578063f5dab71114620001015763fa2af9da14620000d657600080fd5b34620000fe5780600319360112620000fe57546040516001600160a01b039091168152602090f35b80fd5b5034620000fe576020366003190112620000fe576001600160a01b0390816200012962001326565b1681526004602052604090208181541690826001820154169260028201541690600381015460048201546005830154600684015490600785016200016d9062001521565b926200017c6008870162001521565b946200018b6009880162001521565b96600a016200019a9062001521565b976040519a8b9a8b5260208b015260408a01526060890152608088015260a087015260c08601526101608060e08701528501620001d791620013a1565b848103610100860152620001eb91620013a1565b838103610120850152620001ff91620013a1565b8281036101408401526200021391620013a1565b0390f35b5034620000fe576040366003190112620000fe576200023562001326565b6001600160a01b03908116825260016020526040822080546024359390841015620000fe5750602092620002699162001388565b9190546040519260031b1c168152f35b5034620000fe5760208060031936011262000306576001600160a01b039182620002a262001326565b16815260018083526040822093604051908194808754938481520196855280852094915b838310620002ee576200021387620002e1818b038262001467565b6040519182918262001342565b855481168852968101969484019491840191620002c6565b5080fd5b5034620000fe5780600319360112620000fe57602060405164746a5288008152f35b5034620000fe57610100366003190112620000fe576004356001600160401b03811162000306576200036390369060040162001489565b906024356001600160401b03811162000306576200038690369060040162001489565b916084356001600160401b03811162000ef157620003a990369060040162001489565b60a4356001600160401b03811162000eed57620003cb90369060040162001489565b60c4356001600160401b03811162000ee957620003ed90369060040162001489565b9160e4356001600160401b03811162000ee5576200041090369060040162001489565b9284511562000ed35786511562000ec15761012c6044351162000eaf576040516109da808201908282106001600160401b0383111762000e71576080918391620015d4833989815233602082015260643560408201526b3077b58d5d37839198000000606082015203019087f094851562000ea457604051806105698101106001600160401b036105698301111762000e905761056962001fae82396105698101888152602081018990523060408201528190036060019088f0801562000e85576040516001600160a01b03978816999190971696916001600160401b03610d1a84019081119084111762000e71578291620005256200053c92610d1a62002517863960a0610d1a86018181520190620013a1565b90610d1a840182036020610d1a86010152620013a1565b336040610d1a84010152876060610d1a84010152896080610d1a84010152039087f095861562000e6557873b15620000fe5760405163189acdbd60e31b81526001600160a01b0390971660048801819052968181602481838d5af1801562000e305762000e53575b50853b15620000fe5760405163485cc95560e01b81528760048201528160248201528181604481838b5af1801562000e305790829162000e3b575b50507f00000000000000000000000000000000000000000000000000000000000000006001600160a01b0316803b15620003065781809160646040518094819363b6f7134b60e01b83528d600484015233602484015260443560448401525af1801562000e305790829162000e18575b50506040516200065f8162001436565b33815286602082015288604082015264746a528800606082015269054b40b1f852bda00000608082015260443560a08201524260c08201528360e08201528461010082015282610120820152856101408201528782526004602052604082209060018060a01b038151166001600160601b0360a01b8354161782556001820160018060a01b036020830151166001600160601b0360a01b8254161790556002820160018060a01b036040830151166001600160601b0360a01b825416179055606081015160038301556080810151600483015560a0810151600583015560c0810151600683015560e08101518051906001600160401b03821162000c5a5781906200076e6007860154620014e4565b601f811162000dc3575b50602090601f831160011462000d4f57869262000d43575b50508160011b916000199060031b1c19161760078301555b6101008101518051906001600160401b03821162000c5a578190620007d16008860154620014e4565b601f811162000cee575b50602090601f831160011462000c7a57869262000c6e575b50508160011b916000199060031b1c19161760088301555b6101208101518051906001600160401b03821162000c5a57620008326009850154620014e4565b601f811162000c11575b50602090601f831160011462000b9b5761014093929186918362000b8f575b50508160011b916000199060031b1c19161760098401555b01518051906001600160401b03821162000b7b5762000896600a840154620014e4565b601f811162000b32575b50602090601f831160011462000abc579180600a928695946040979262000ab0575b50508160011b916000199060031b1c1916179101555b8781526002602052818120600160ff198254161790553381526001602052208054600160401b81101562000a9a57620009179160018201815562001388565b8154600391821b89811b6001600160a01b0390911b19909116179091555494600160401b86101562000a9a57600186018060035586101562000a8457602097879660036000527fc2575a0e9e593c00f959f8c92f12db2869c3395a3b0502d05e2516446f71f85b01876001600160601b0360a01b825416179055604051918252888201526ba18f07d736b90be550000000604082015264746a528800606082015269054b40b1f852bda0000060808201524260a0820152857ff4c3200878843061fde29a1e720af29fbd78ae4989067a9a862c82cebe54bfaf60c03393a381511580159062000a79575b801562000a6e575b801562000a63575b62000a21575b8685604051908152f35b7f21cddc21be364de168a977a1ed3e8668cc6019151ec9cd7a3b90de137163110c9362000a559160405194859485620013e3565b0390a2803880808062000a17565b508351151562000a11565b508051151562000a09565b508251151562000a01565b634e487b7160e01b600052603260045260246000fd5b634e487b7160e01b600052604160045260246000fd5b015190503880620008c2565b90600a840185526020852091855b601f198516811062000b19575092600a92600192604097969583601f1981161062000aff575b505050811b01910155620008d8565b015160001960f88460031b161c1916905538808062000af0565b9192602060018192868501518155019401920162000aca565b600a8401855260208520601f840160051c81016020851062000b73575b601f830160051c8201811062000b67575050620008a0565b86815560010162000b4f565b508062000b4f565b634e487b7160e01b84526041600452602484fd5b0151905038806200085b565b906009850186526020862091865b601f198516811062000bf857509183916001936101409695601f1981161062000bde575b505050811b01600984015562000873565b015160001960f88460031b161c1916905538808062000bcd565b9192602060018192868501518155019401920162000ba9565b60098501865260208620601f840160051c81016020851062000c52575b601f830160051c8201811062000c465750506200083c565b87815560010162000c2e565b508062000c2e565b634e487b7160e01b85526041600452602485fd5b015190503880620007f3565b9250600885018652602086209086935b601f198416851062000cd2576001945083601f1981161062000cb8575b505050811b0160088301556200080b565b015160001960f88460031b161c1916905538808062000ca7565b8181015183556020948501946001909301929091019062000c8a565b90915060088501865260208620601f840160051c81016020851062000d3b575b90849392915b601f830160051c8201811062000d2c575050620007db565b88815585945060010162000d14565b508062000d0e565b01519050388062000790565b9250600785018652602086209086935b601f198416851062000da7576001945083601f1981161062000d8d575b505050811b016007830155620007a8565b015160001960f88460031b161c1916905538808062000d7c565b8181015183556020948501946001909301929091019062000d5f565b90915060078501865260208620601f840160051c81016020851062000e10575b90849392915b601f830160051c8201811062000e0157505062000778565b88815585945060010162000de9565b508062000de3565b62000e239062001453565b620000fe5780386200064f565b6040513d84823e3d90fd5b62000e469062001453565b620000fe578038620005df565b62000e5e9062001453565b38620005a4565b604051903d90823e3d90fd5b634e487b7160e01b89526041600452602489fd5b6040513d89823e3d90fd5b634e487b7160e01b88526041600452602488fd5b6040513d88823e3d90fd5b60405163f72bc5d560e01b8152600490fd5b60405163010466f160e21b8152600490fd5b60405163430f13b360e01b8152600490fd5b8580fd5b8480fd5b8380fd5b8280fd5b5034620000fe576020366003190112620000fe576001600160a01b03906040908262000f2062001326565b168152600460205220906040519062000f398262001436565b80835416825280600184015416602083015260028301541660408201526003820154606082015260048201546080820152600582015460a0820152600682015460c08201526200021361014062000f936007850162001521565b60e0840190815262000fa86008860162001521565b93610100810194855262000fd5600a62000fc56009890162001521565b9761012084019889520162001521565b9283910152519251935160405194859485620013e3565b5034620000fe5780600319360112620000fe576040517f00000000000000000000000000000000000000000000000000000000000000006001600160a01b03168152602090f35b5034620000fe576020366003190112620000fe5760209060ff906040906001600160a01b036200106262001326565b168152600284522054166040519015158152f35b5034620000fe5780600319360112620000fe576020600354604051908152f35b5034620000fe576020366003190112620000fe57600435600354811015620003065760039091527fc2575a0e9e593c00f959f8c92f12db2869c3395a3b0502d05e2516446f71f85b01546040516001600160a01b039091168152602090f35b5034620000fe5780600319360112620000fe576040517f00000000000000000000000000000000000000000000000000000000000000006001600160a01b03168152602090f35b5034620000fe5780600319360112620000fe57604051600380548083529083526020808301937fc2575a0e9e593c00f959f8c92f12db2869c3395a3b0502d05e2516446f71f85b92915b828210620011a1576200021385620002e18189038262001467565b83546001600160a01b03168652948501946001938401939091019062001186565b5034620000fe5780600319360112620000fe57602060405169054b40b1f852bda000008152f35b90503462000306576020366003190112620003065760e0916001600160a01b0390604090826200121862001326565b1681526004602052206200122c8362001436565b8181541683528160018201541692602081019384528260028301541660408201526003820154926060820193845260048301549060808301918252808060058601549460a08101958652620012ca600a60068901549860c08401998a52620012976007820162001521565b8d850152620012a96008820162001521565b610100850152620012bd6009820162001521565b6101208501520162001521565b610140820152511696511694519151925193519460405196875260208701527f00000000000000000000000000000000000000000000000000000000000000001660408601526060850152608084015260a083015260c0820152f35b600435906001600160a01b03821682036200133d57565b600080fd5b6020908160408183019282815285518094520193019160005b8281106200136a575050505090565b83516001600160a01b0316855293810193928101926001016200135b565b805482101562000a845760005260206000200190600090565b919082519283825260005b848110620013ce575050826000602080949584010152601f8019910116010190565b602081830181015184830182015201620013ac565b9262001415620014339593620014066200142494608088526080880190620013a1565b908682036020880152620013a1565b908482036040860152620013a1565b916060818403910152620013a1565b90565b61016081019081106001600160401b0382111762000a9a57604052565b6001600160401b03811162000a9a57604052565b90601f801991011681019081106001600160401b0382111762000a9a57604052565b81601f820112156200133d578035906001600160401b03821162000a9a5760405192620014c1601f8401601f19166020018562001467565b828452602083830101116200133d57816000926020809301838601378301015290565b90600182811c9216801562001516575b60208310146200150057565b634e487b7160e01b600052602260045260246000fd5b91607f1691620014f4565b90604051918260008254926200153784620014e4565b908184526001948581169081600014620015ae575060011462001567575b5050620015659250038362001467565b565b9093915060005260209081600020936000915b81831062001595575050620015659350820101388062001555565b855488840185015294850194879450918301916200157a565b9150506200156594506020925060ff191682840152151560051b82010138806200155556fe6101403461017757601f6109da38819003918201601f19168301916001600160401b0383118484101761017c578084926080946040528339810103126101775761004881610192565b5061005560208201610192565b60606040830151920151908215158061016a575b8061015d575b80610150575b80610142575b610130576080523360a0524260c0528160e0526101009182526101209081526040519061083392836101a784396080518381816103860152610664015260a0518381816101bc0152610256015260c05183818161016f015281816104d20152610702015260e0518381816104b10152818161062d01526106d80152518281816104fc015281816105f2015261073a0152518181816103460152818161054901528181610763015281816107a201526107ce0152f35b604051637616640160e01b8152600490fd5b506301e1338083141561007b565b5062ed4e00831415610075565b5062278d0083141561006f565b5062093a80831415610069565b600080fd5b634e487b7160e01b600052604160045260246000fd5b51906001600160a01b03821682036101775756fe608060408181526004918236101561001657600080fd5b600092833560e01c91826302d05d3f146106505750816304554443146106155781631514617e146105da578163158ef93e146105b657816344b1231f146105995781634e69d5601461049a5781634e71d92d1461036957816379203dc41461032e57816382816125146103105781638cb7d625146102f25781638e14af1c146102d3578163af38d757146102a3578163afb70ba114610285578163c45a015514610241578163c4d66de81461019257508063cf09e0d014610158578063e834a8341461013a578063ef475a49146101205763fc0c546a146100f657600080fd5b3461011c578160031936011261011c57905490516001600160a01b039091168152602090f35b5080fd5b503461011c578160031936011261011c5751908152602090f35b503461011c578160031936011261011c576020906001549051908152f35b503461011c578160031936011261011c57602090517f00000000000000000000000000000000000000000000000000000000000000008152f35b83833461011c57602036600319011261011c5782356001600160a01b038181169182900361023d577f000000000000000000000000000000000000000000000000000000000000000016330361022e576002549160ff8316610220578115610211575082546001600160a01b03191617825560ff191660011760025580f35b5163d92e233d60e01b81528490fd5b5162dc149f60e41b81528490fd5b81516282b42960e81b81528490fd5b8380fd5b50503461011c578160031936011261011c57517f00000000000000000000000000000000000000000000000000000000000000006001600160a01b03168152602090f35b50503461011c578160031936011261011c576020905162ed4e008152f35b50503461011c578160031936011261011c576020906102cc6102c36106d6565b60015490610693565b9051908152f35b50503461011c578160031936011261011c57602090516301e133808152f35b50503461011c578160031936011261011c576020905162093a808152f35b50503461011c578160031936011261011c576020905162278d008152f35b50503461011c578160031936011261011c57602090517f00000000000000000000000000000000000000000000000000000000000000008152f35b919050346104965782600319360112610496576001600160a01b037f000000000000000000000000000000000000000000000000000000000000000081169233849003610489576103b86106d6565b916103c66001548094610693565b92831561047957836103d7916107f0565b60015585541683519163a9059cbb60e01b87528581528360245260208760448180865af1600188511481161561045a575b8386521561044757505050907f9923b4306c6c030f2bdfbf156517d5983b87e15b96176da122cd4f2effa4ba7b9160015482519182526020820152a280f35b635274afe760e01b835282015260249150fd5b600181151661047057823b15153d151616610408565b833d89823e3d90fd5b84516312d37ee560e31b81528390fd5b82516282b42960e81b8152fd5b8280fd5b83833461011c578160031936011261011c576104f67f00000000000000000000000000000000000000000000000000000000000000007f00000000000000000000000000000000000000000000000000000000000000006107f0565b916105217f0000000000000000000000000000000000000000000000000000000000000000846107f0565b9061052a6106d6565b9060648202918083046064149015171561058657506080945061056e907f0000000000000000000000000000000000000000000000000000000000000000906106b6565b91805193804210855260208501528301526060820152f35b634e487b7160e01b815260118652602490fd5b50503461011c578160031936011261011c576020906102cc6106d6565b50503461011c578160031936011261011c5760209060ff6002541690519015158152f35b50503461011c578160031936011261011c57602090517f00000000000000000000000000000000000000000000000000000000000000008152f35b50503461011c578160031936011261011c57602090517f00000000000000000000000000000000000000000000000000000000000000008152f35b84903461011c578160031936011261011c577f00000000000000000000000000000000000000000000000000000000000000006001600160a01b03168152602090f35b919082039182116106a057565b634e487b7160e01b600052601160045260246000fd5b81156106c0570490565b634e487b7160e01b600052601260045260246000fd5b7f000000000000000000000000000000000000000000000000000000000000000080156107cb576107277f000000000000000000000000000000000000000000000000000000000000000042610693565b908082106107c45761073891610693565b7f00000000000000000000000000000000000000000000000000000000000000008082101561079e577f00000000000000000000000000000000000000000000000000000000000000008281029281840414901517156106a05761079b916106b6565b90565b50507f000000000000000000000000000000000000000000000000000000000000000090565b5050600090565b507f000000000000000000000000000000000000000000000000000000000000000090565b919082018092116106a05756fea26469706673582212201fa915c455c13e6aa7e15fb272a54c3f71599bcab72e349de7190a433142e4bd64736f6c6343000814003360a0346100ae57601f61056938819003918201601f19168301916001600160401b038311848410176100b3578084926060946040528339810103126100ae57610047816100c9565b61005f6040610058602085016100c9565b93016100c9565b9160018060a01b03908160018060a01b031993168360005416176000551690600154161760015560805260405161048b90816100de823960805181818160c60152818161023a01526102ef0152f35b600080fd5b634e487b7160e01b600052604160045260246000fd5b51906001600160a01b03821682036100ae5756fe608060408181526004918236101561001657600080fd5b600092833560e01c918263158ef93e146104315750816316f0115b1461040857816340519a53146102ce578163485cc955146102015781636f43f17b14610139575080637b80889b1461011b578063a4e2d634146100f5578063c45a0155146100b25763fc0c546a1461008857600080fd5b346100ae57816003193601126100ae57905490516001600160a01b039091168152602090f35b5080fd5b50346100ae57816003193601126100ae57517f00000000000000000000000000000000000000000000000000000000000000006001600160a01b03168152602090f35b50346100ae57816003193601126100ae5760209060ff60015460a01c1690519015158152f35b50346100ae57816003193601126100ae576020906002549051908152f35b919050346101d857826003193601126101d85760015481516370a0823160e01b8152308482015290602090829060249082906001600160a01b03165afa9283156101f757849361018e575b6020848451908152f35b909192506020903d82116101ef575b601f8201601f191683019067ffffffffffffffff8211848310176101dc575060209183918552810103126101d8576020925051903880610184565b8280fd5b634e487b7160e01b865260419052602485fd5b3d915061019d565b82513d86823e3d90fd5b9050346101d857816003193601126101d8576001600160a01b0390803582811691908290036102ca57602435928084168094036102c6577f00000000000000000000000000000000000000000000000000000000000000001633036102b9576001549360ff8560a81c166102ad5782156102a057505083546001600160a01b031916178355600161ff0160a01b031990911617600160a81b1760015580f35b5163d92e233d60e01b8152fd5b5162dc149f60e41b8152fd5b83516282b42960e81b8152fd5b8580fd5b8480fd5b9050346101d85760203660031901126101d8576001600160a01b03908035907f0000000000000000000000000000000000000000000000000000000000000000831633036102b95760015460ff8160a01c166103fa5782156103eb5760ff60a01b198116600160a01b17600155600283905584516323b872dd60e01b8752338352306024526044849052919084169060208760648180865af160018851148116156103cc575b83875287606052156103b95750505060207f104290e1e459304b774d131c3ac0fa84947303c64b8ae6cce786374e13448942918386541693600154169451908152a380f35b635274afe760e01b835282015260249150fd5b60018115166103e257823b15153d151616610374565b833d89823e3d90fd5b508351631f2a200560e01b8152fd5b50835162dc149f60e41b8152fd5b5050346100ae57816003193601126100ae5760015490516001600160a01b039091168152602090f35b8490346100ae57816003193601126100ae5760209060ff60015460a81c1615158152f3fea2646970667358221220bf05ff60a61e22ec80ee1f1b6ef2835f0308df53cbba6cdbea7a37dc067b213d64736f6c63430008140033604060e08152346200044f5762000d1a803803806200001e8162000454565b92833981019160a0828403126200044f5781516001600160401b0393908481116200044f5781620000519185016200047a565b9260209182820151908682116200044f576200006f9183016200047a565b936200007d848301620004ec565b906200009a60806200009260608601620004ec565b9401620004ec565b9681518181116200034f576003908154906001948583811c9316801562000444575b898410146200042e578190601f93848111620003d8575b508990848311600114620003715760009262000365575b505060001982851b1c191690851b1782555b88519283116200034f5760049889548581811c9116801562000344575b898210146200032f57828111620002e4575b508791841160011462000279579383949184926000956200026d575b50501b92600019911b1c19161785555b6080523360a0524260c0526001600160a01b039081169485156200025657600254956b71175249d9818853b80000009687810180911162000241578495969760009160025582825281865287822081815401905587519081527fddf252ad1be2c89b69c2b068fc378daa952ba7f163c4a11628f55a4df523b3ef958691a31691821562000256576002546b3077b58d5d378391980000009081810180911162000241576000949596506002558484528382528584208181540190558551908152a35161081890816200050282396080518161065b015260a0518161014f015260c0518161030c0152f35b601187634e487b7160e01b6000525260246000fd5b835163ec442f0560e01b8152600081870152602490fd5b01519350388062000147565b9190601f198416928a60005284896000209460005b8b89838310620002cc5750505010620002b1575b50505050811b01855562000157565b01519060f884600019921b161c1916905538808080620002a2565b8686015189559097019694850194889350016200028e565b8a600052886000208380870160051c8201928b881062000325575b0160051c019086905b828110620003185750506200012b565b6000815501869062000308565b92508192620002ff565b60228b634e487b7160e01b6000525260246000fd5b90607f169062000119565b634e487b7160e01b600052604160045260246000fd5b015190503880620000ea565b90879350601f19831691866000528b6000209260005b8d828210620003c15750508411620003a8575b505050811b018255620000fc565b015160001983871b60f8161c191690553880806200039a565b8385015186558b9790950194938401930162000387565b90915084600052896000208480850160051c8201928c861062000424575b918991869594930160051c01915b82811062000414575050620000d3565b6000815585945089910162000404565b92508192620003f6565b634e487b7160e01b600052602260045260246000fd5b92607f1692620000bc565b600080fd5b6040519190601f01601f191682016001600160401b038111838210176200034f57604052565b919080601f840112156200044f5782516001600160401b0381116200034f57602090620004b0601f8201601f1916830162000454565b928184528282870101116200044f5760005b818110620004d857508260009394955001015290565b8581018301518482018401528201620004c2565b51906001600160a01b03821682036200044f5756fe608060408181526004918236101561001657600080fd5b600092833560e01c91826302d05d3f146106475750816306fdde031461056d578163095ea7b3146104bf57816318160ddd146104a057816323b872dd146103a95781632bc7306314610382578163313ce5671461036657816370a082311461032f578163790ca413146102f4578163902d55a5146102cd57816395d89b41146101ae57508063a9059cbb1461017e578063c45a01551461013b578063dd62ed3e146100f35763ebda16eb146100ca57600080fd5b346100ef57816003193601126100ef57602090516b71175249d9818853b80000008152f35b5080fd5b50346100ef57806003193601126100ef57806020926101106106d3565b6101186106ee565b6001600160a01b0391821683526001865283832091168252845220549051908152f35b50346100ef57816003193601126100ef57517f00000000000000000000000000000000000000000000000000000000000000006001600160a01b03168152602090f35b50346100ef57806003193601126100ef576020906101a761019d6106d3565b6024359033610704565b5160018152f35b8383346100ef57816003193601126100ef57805190828454600181811c908083169283156102c3575b60209384841081146102b057838852908115610294575060011461023f575b505050829003601f01601f191682019267ffffffffffffffff84118385101761022c575082918261022892528261068a565b0390f35b634e487b7160e01b815260418552602490fd5b8787529192508591837f8a35acfbc15ff81a39ae7d344fd709f28e8600b4aa8c65c6b64bfe7fe36bd19b5b83851061028057505050508301018580806101f6565b80548886018301529301928490820161026a565b60ff1916878501525050151560051b84010190508580806101f6565b634e487b7160e01b895260228a52602489fd5b91607f16916101d7565b5050346100ef57816003193601126100ef57602090516ba18f07d736b90be5500000008152f35b5050346100ef57816003193601126100ef57602090517f00000000000000000000000000000000000000000000000000000000000000008152f35b5050346100ef5760203660031901126100ef5760209181906001600160a01b036103576106d3565b16815280845220549051908152f35b5050346100ef57816003193601126100ef576020905160128152f35b5050346100ef57816003193601126100ef57602090516b3077b58d5d378391980000008152f35b9050823461049d57606036600319011261049d576103c56106d3565b6103cd6106ee565b916044359360018060a01b038316808352600160205286832033845260205286832054916000198310610409575b6020886101a7898989610704565b86831061047157811561045a573315610443575082526001602090815286832033845281529186902090859003905582906101a7876103fb565b8751634a1406b160e11b8152908101849052602490fd5b875163e602df0560e01b8152908101849052602490fd5b8751637dc7a0d960e11b8152339181019182526020820193909352604081018790528291506060010390fd5b80fd5b5050346100ef57816003193601126100ef576020906002549051908152f35b9050346105695781600319360112610569576104d96106d3565b602435903315610552576001600160a01b031691821561053b57508083602095338152600187528181208582528752205582519081527f8c5be1e5ebec7d5bd14f71427d1e84f3dd0314c0f7b2291e5b200ac8c7c3b925843392a35160018152f35b8351634a1406b160e11b8152908101859052602490fd5b835163e602df0560e01b8152808401869052602490fd5b8280fd5b8383346100ef57816003193601126100ef5780519082600354600181811c9080831692831561063d575b60209384841081146102b05783885290811561029457506001146105e757505050829003601f01601f191682019267ffffffffffffffff84118385101761022c575082918261022892528261068a565b600387529192508591837fc2575a0e9e593c00f959f8c92f12db2869c3395a3b0502d05e2516446f71f85b5b83851061062957505050508301018580806101f6565b805488860183015293019284908201610613565b91607f1691610597565b8490346100ef57816003193601126100ef577f00000000000000000000000000000000000000000000000000000000000000006001600160a01b03168152602090f35b6020808252825181830181905290939260005b8281106106bf57505060409293506000838284010152601f8019910116010190565b81810186015184820160400152850161069d565b600435906001600160a01b03821682036106e957565b600080fd5b602435906001600160a01b03821682036106e957565b916001600160a01b038084169283156107c957169283156107b0576000908382528160205260408220549083821061077e575091604082827fddf252ad1be2c89b69c2b068fc378daa952ba7f163c4a11628f55a4df523b3ef958760209652828652038282205586815220818154019055604051908152a3565b60405163391434e360e21b81526001600160a01b03919091166004820152602481019190915260448101839052606490fd5b60405163ec442f0560e01b815260006004820152602490fd5b604051634b637e8f60e11b815260006004820152602490fdfea264697066735822122054fb941f351134ef0f0db49cfd9791664e2f634f4ecec1ab40bca0bc240b184c64736f6c63430008140033a26469706673582212205588df671703b8929d8ce3b9f43fda13b5eb0f75eb83dd1b1097554ef507902b64736f6c63430008140033","opcodes":"PUSH1 0xC0 CALLVALUE PUSH3 0xFB JUMPI PUSH1 0x1F PUSH3 0x3392 CODESIZE DUP2 SWAP1 SUB SWAP2 DUP3 ADD PUSH1 0x1F NOT AND DUP4 ADD SWAP3 SWAP2 SWAP1 PUSH1 0x1 PUSH1 0x1 PUSH1 0x40 SHL SUB DUP5 GT DUP4 DUP6 LT OR PUSH3 0x100 JUMPI DUP2 PUSH1 0x60 SWAP3 DUP5 SWAP3 PUSH1 0x40 SWAP7 DUP8 MSTORE DUP4 CODECOPY DUP2 ADD SUB SLT PUSH3 0xFB JUMPI PUSH3 0x51 DUP2 PUSH3 0x116 JUMP JUMPDEST SWAP1 PUSH3 0x6D DUP4 PUSH3 0x65 PUSH1 0x20 DUP5 ADD PUSH3 0x116 JUMP JUMPDEST SWAP3 ADD PUSH3 0x116 JUMP JUMPDEST PUSH1 0x1 PUSH1 0x1 PUSH1 0xA0 SHL SUB SWAP1 DUP4 DUP3 AND ISZERO PUSH3 0xEA JUMPI DUP2 DUP4 AND ISZERO PUSH3 0xEA JUMPI AND SWAP2 DUP3 ISZERO PUSH3 0xD9 JUMPI PUSH1 0x80 MSTORE PUSH1 0xA0 MSTORE PUSH1 0x0 DUP1 SLOAD PUSH1 0x1 PUSH1 0x1 PUSH1 0xA0 SHL SUB NOT AND SWAP2 SWAP1 SWAP2 OR SWAP1 SSTORE MLOAD PUSH2 0x3266 SWAP1 DUP2 PUSH3 0x12C DUP3 CODECOPY PUSH1 0x80 MLOAD DUP2 PUSH2 0x1004 ADD MSTORE PUSH1 0xA0 MLOAD DUP2 DUP2 DUP2 PUSH2 0x5E3 ADD MSTORE DUP2 DUP2 PUSH2 0x110D ADD MSTORE PUSH2 0x12EB ADD MSTORE RETURN JUMPDEST DUP4 MLOAD PUSH4 0xD92E233D PUSH1 0xE0 SHL DUP2 MSTORE PUSH1 0x4 SWAP1 REVERT JUMPDEST DUP5 MLOAD PUSH4 0xD92E233D PUSH1 0xE0 SHL DUP2 MSTORE PUSH1 0x4 SWAP1 REVERT JUMPDEST PUSH1 0x0 DUP1 REVERT JUMPDEST PUSH4 0x4E487B71 PUSH1 0xE0 SHL PUSH1 0x0 MSTORE PUSH1 0x41 PUSH1 0x4 MSTORE PUSH1 0x24 PUSH1 0x0 REVERT JUMPDEST MLOAD SWAP1 PUSH1 0x1 PUSH1 0x1 PUSH1 0xA0 SHL SUB DUP3 AND DUP3 SUB PUSH3 0xFB JUMPI JUMP INVALID PUSH1 0x80 DUP1 PUSH1 0x40 MSTORE PUSH1 0x4 CALLDATASIZE LT ISZERO PUSH3 0x14 JUMPI PUSH1 0x0 DUP1 REVERT JUMPDEST PUSH1 0x0 SWAP1 DUP2 CALLDATALOAD PUSH1 0xE0 SHR SWAP1 DUP2 PUSH4 0x1F69565F EQ PUSH3 0x11E9 JUMPI POP DUP1 PUSH4 0x273F691D EQ PUSH3 0x11C2 JUMPI DUP1 PUSH4 0x2A5C792A EQ PUSH3 0x113C JUMPI DUP1 PUSH4 0x478222C2 EQ PUSH3 0x10F5 JUMPI DUP1 PUSH4 0x634282AF EQ PUSH3 0x1096 JUMPI DUP1 PUSH4 0x78A89567 EQ PUSH3 0x1076 JUMPI DUP1 PUSH4 0x918A5F3A EQ PUSH3 0x1033 JUMPI DUP1 PUSH4 0x930C7976 EQ PUSH3 0xFEC JUMPI DUP1 PUSH4 0x934544D6 EQ PUSH3 0xEF5 JUMPI DUP1 PUSH4 0xB82B2576 EQ PUSH3 0x32C JUMPI DUP1 PUSH4 0xC6C54925 EQ PUSH3 0x30A JUMPI DUP1 PUSH4 0xD5C71275 EQ PUSH3 0x279 JUMPI DUP1 PUSH4 0xDB3FA4CC EQ PUSH3 0x217 JUMPI DUP1 PUSH4 0xF5DAB711 EQ PUSH3 0x101 JUMPI PUSH4 0xFA2AF9DA EQ PUSH3 0xD6 JUMPI PUSH1 0x0 DUP1 REVERT JUMPDEST CALLVALUE PUSH3 0xFE JUMPI DUP1 PUSH1 0x3 NOT CALLDATASIZE ADD SLT PUSH3 0xFE JUMPI SLOAD PUSH1 0x40 MLOAD PUSH1 0x1 PUSH1 0x1 PUSH1 0xA0 SHL SUB SWAP1 SWAP2 AND DUP2 MSTORE PUSH1 0x20 SWAP1 RETURN JUMPDEST DUP1 REVERT JUMPDEST POP CALLVALUE PUSH3 0xFE JUMPI PUSH1 0x20 CALLDATASIZE PUSH1 0x3 NOT ADD SLT PUSH3 0xFE JUMPI PUSH1 0x1 PUSH1 0x1 PUSH1 0xA0 SHL SUB SWAP1 DUP2 PUSH3 0x129 PUSH3 0x1326 JUMP JUMPDEST AND DUP2 MSTORE PUSH1 0x4 PUSH1 0x20 MSTORE PUSH1 0x40 SWAP1 KECCAK256 DUP2 DUP2 SLOAD AND SWAP1 DUP3 PUSH1 0x1 DUP3 ADD SLOAD AND SWAP3 PUSH1 0x2 DUP3 ADD SLOAD AND SWAP1 PUSH1 0x3 DUP2 ADD SLOAD PUSH1 0x4 DUP3 ADD SLOAD PUSH1 0x5 DUP4 ADD SLOAD PUSH1 0x6 DUP5 ADD SLOAD SWAP1 PUSH1 0x7 DUP6 ADD PUSH3 0x16D SWAP1 PUSH3 0x1521 JUMP JUMPDEST SWAP3 PUSH3 0x17C PUSH1 0x8 DUP8 ADD PUSH3 0x1521 JUMP JUMPDEST SWAP5 PUSH3 0x18B PUSH1 0x9 DUP9 ADD PUSH3 0x1521 JUMP JUMPDEST SWAP7 PUSH1 0xA ADD PUSH3 0x19A SWAP1 PUSH3 0x1521 JUMP JUMPDEST SWAP8 PUSH1 0x40 MLOAD SWAP11 DUP12 SWAP11 DUP12 MSTORE PUSH1 0x20 DUP12 ADD MSTORE PUSH1 0x40 DUP11 ADD MSTORE PUSH1 0x60 DUP10 ADD MSTORE PUSH1 0x80 DUP9 ADD MSTORE PUSH1 0xA0 DUP8 ADD MSTORE PUSH1 0xC0 DUP7 ADD MSTORE PUSH2 0x160 DUP1 PUSH1 0xE0 DUP8 ADD MSTORE DUP6 ADD PUSH3 0x1D7 SWAP2 PUSH3 0x13A1 JUMP JUMPDEST DUP5 DUP2 SUB PUSH2 0x100 DUP7 ADD MSTORE PUSH3 0x1EB SWAP2 PUSH3 0x13A1 JUMP JUMPDEST DUP4 DUP2 SUB PUSH2 0x120 DUP6 ADD MSTORE PUSH3 0x1FF SWAP2 PUSH3 0x13A1 JUMP JUMPDEST DUP3 DUP2 SUB PUSH2 0x140 DUP5 ADD MSTORE PUSH3 0x213 SWAP2 PUSH3 0x13A1 JUMP JUMPDEST SUB SWAP1 RETURN JUMPDEST POP CALLVALUE PUSH3 0xFE JUMPI PUSH1 0x40 CALLDATASIZE PUSH1 0x3 NOT ADD SLT PUSH3 0xFE JUMPI PUSH3 0x235 PUSH3 0x1326 JUMP JUMPDEST PUSH1 0x1 PUSH1 0x1 PUSH1 0xA0 SHL SUB SWAP1 DUP2 AND DUP3 MSTORE PUSH1 0x1 PUSH1 0x20 MSTORE PUSH1 0x40 DUP3 KECCAK256 DUP1 SLOAD PUSH1 0x24 CALLDATALOAD SWAP4 SWAP1 DUP5 LT ISZERO PUSH3 0xFE JUMPI POP PUSH1 0x20 SWAP3 PUSH3 0x269 SWAP2 PUSH3 0x1388 JUMP JUMPDEST SWAP2 SWAP1 SLOAD PUSH1 0x40 MLOAD SWAP3 PUSH1 0x3 SHL SHR AND DUP2 MSTORE RETURN JUMPDEST POP CALLVALUE PUSH3 0xFE JUMPI PUSH1 0x20 DUP1 PUSH1 0x3 NOT CALLDATASIZE ADD SLT PUSH3 0x306 JUMPI PUSH1 0x1 PUSH1 0x1 PUSH1 0xA0 SHL SUB SWAP2 DUP3 PUSH3 0x2A2 PUSH3 0x1326 JUMP JUMPDEST AND DUP2 MSTORE PUSH1 0x1 DUP1 DUP4 MSTORE PUSH1 0x40 DUP3 KECCAK256 SWAP4 PUSH1 0x40 MLOAD SWAP1 DUP2 SWAP5 DUP1 DUP8 SLOAD SWAP4 DUP5 DUP2 MSTORE ADD SWAP7 DUP6 MSTORE DUP1 DUP6 KECCAK256 SWAP5 SWAP2 JUMPDEST DUP4 DUP4 LT PUSH3 0x2EE JUMPI PUSH3 0x213 DUP8 PUSH3 0x2E1 DUP2 DUP12 SUB DUP3 PUSH3 0x1467 JUMP JUMPDEST PUSH1 0x40 MLOAD SWAP2 DUP3 SWAP2 DUP3 PUSH3 0x1342 JUMP JUMPDEST DUP6 SLOAD DUP2 AND DUP9 MSTORE SWAP7 DUP2 ADD SWAP7 SWAP5 DUP5 ADD SWAP5 SWAP2 DUP5 ADD SWAP2 PUSH3 0x2C6 JUMP JUMPDEST POP DUP1 REVERT JUMPDEST POP CALLVALUE PUSH3 0xFE JUMPI DUP1 PUSH1 0x3 NOT CALLDATASIZE ADD SLT PUSH3 0xFE JUMPI PUSH1 0x20 PUSH1 0x40 MLOAD PUSH5 0x746A528800 DUP2 MSTORE RETURN JUMPDEST POP CALLVALUE PUSH3 0xFE JUMPI PUSH2 0x100 CALLDATASIZE PUSH1 0x3 NOT ADD SLT PUSH3 0xFE JUMPI PUSH1 0x4 CALLDATALOAD PUSH1 0x1 PUSH1 0x1 PUSH1 0x40 SHL SUB DUP2 GT PUSH3 0x306 JUMPI PUSH3 0x363 SWAP1 CALLDATASIZE SWAP1 PUSH1 0x4 ADD PUSH3 0x1489 JUMP JUMPDEST SWAP1 PUSH1 0x24 CALLDATALOAD PUSH1 0x1 PUSH1 0x1 PUSH1 0x40 SHL SUB DUP2 GT PUSH3 0x306 JUMPI PUSH3 0x386 SWAP1 CALLDATASIZE SWAP1 PUSH1 0x4 ADD PUSH3 0x1489 JUMP JUMPDEST SWAP2 PUSH1 0x84 CALLDATALOAD PUSH1 0x1 PUSH1 0x1 PUSH1 0x40 SHL SUB DUP2 GT PUSH3 0xEF1 JUMPI PUSH3 0x3A9 SWAP1 CALLDATASIZE SWAP1 PUSH1 0x4 ADD PUSH3 0x1489 JUMP JUMPDEST PUSH1 0xA4 CALLDATALOAD PUSH1 0x1 PUSH1 0x1 PUSH1 0x40 SHL SUB DUP2 GT PUSH3 0xEED JUMPI PUSH3 0x3CB SWAP1 CALLDATASIZE SWAP1 PUSH1 0x4 ADD PUSH3 0x1489 JUMP JUMPDEST PUSH1 0xC4 CALLDATALOAD PUSH1 0x1 PUSH1 0x1 PUSH1 0x40 SHL SUB DUP2 GT PUSH3 0xEE9 JUMPI PUSH3 0x3ED SWAP1 CALLDATASIZE SWAP1 PUSH1 0x4 ADD PUSH3 0x1489 JUMP JUMPDEST SWAP2 PUSH1 0xE4 CALLDATALOAD PUSH1 0x1 PUSH1 0x1 PUSH1 0x40 SHL SUB DUP2 GT PUSH3 0xEE5 JUMPI PUSH3 0x410 SWAP1 CALLDATASIZE SWAP1 PUSH1 0x4 ADD PUSH3 0x1489 JUMP JUMPDEST SWAP3 DUP5 MLOAD ISZERO PUSH3 0xED3 JUMPI DUP7 MLOAD ISZERO PUSH3 0xEC1 JUMPI PUSH2 0x12C PUSH1 0x44 CALLDATALOAD GT PUSH3 0xEAF JUMPI PUSH1 0x40 MLOAD PUSH2 0x9DA DUP1 DUP3 ADD SWAP1 DUP3 DUP3 LT PUSH1 0x1 PUSH1 0x1 PUSH1 0x40 SHL SUB DUP4 GT OR PUSH3 0xE71 JUMPI PUSH1 0x80 SWAP2 DUP4 SWAP2 PUSH3 0x15D4 DUP4 CODECOPY DUP10 DUP2 MSTORE CALLER PUSH1 0x20 DUP3 ADD MSTORE PUSH1 0x64 CALLDATALOAD PUSH1 0x40 DUP3 ADD MSTORE PUSH12 0x3077B58D5D37839198000000 PUSH1 0x60 DUP3 ADD MSTORE SUB ADD SWAP1 DUP8 CREATE SWAP5 DUP6 ISZERO PUSH3 0xEA4 JUMPI PUSH1 0x40 MLOAD DUP1 PUSH2 0x569 DUP2 ADD LT PUSH1 0x1 PUSH1 0x1 PUSH1 0x40 SHL SUB PUSH2 0x569 DUP4 ADD GT OR PUSH3 0xE90 JUMPI PUSH2 0x569 PUSH3 0x1FAE DUP3 CODECOPY PUSH2 0x569 DUP2 ADD DUP9 DUP2 MSTORE PUSH1 0x20 DUP2 ADD DUP10 SWAP1 MSTORE ADDRESS PUSH1 0x40 DUP3 ADD MSTORE DUP2 SWAP1 SUB PUSH1 0x60 ADD SWAP1 DUP9 CREATE DUP1 ISZERO PUSH3 0xE85 JUMPI PUSH1 0x40 MLOAD PUSH1 0x1 PUSH1 0x1 PUSH1 0xA0 SHL SUB SWAP8 DUP9 AND SWAP10 SWAP2 SWAP1 SWAP8 AND SWAP7 SWAP2 PUSH1 0x1 PUSH1 0x1 PUSH1 0x40 SHL SUB PUSH2 0xD1A DUP5 ADD SWAP1 DUP2 GT SWAP1 DUP5 GT OR PUSH3 0xE71 JUMPI DUP3 SWAP2 PUSH3 0x525 PUSH3 0x53C SWAP3 PUSH2 0xD1A PUSH3 0x2517 DUP7 CODECOPY PUSH1 0xA0 PUSH2 0xD1A DUP7 ADD DUP2 DUP2 MSTORE ADD SWAP1 PUSH3 0x13A1 JUMP JUMPDEST SWAP1 PUSH2 0xD1A DUP5 ADD DUP3 SUB PUSH1 0x20 PUSH2 0xD1A DUP7 ADD ADD MSTORE PUSH3 0x13A1 JUMP JUMPDEST CALLER PUSH1 0x40 PUSH2 0xD1A DUP5 ADD ADD MSTORE DUP8 PUSH1 0x60 PUSH2 0xD1A DUP5 ADD ADD MSTORE DUP10 PUSH1 0x80 PUSH2 0xD1A DUP5 ADD ADD MSTORE SUB SWAP1 DUP8 CREATE SWAP6 DUP7 ISZERO PUSH3 0xE65 JUMPI DUP8 EXTCODESIZE ISZERO PUSH3 0xFE JUMPI PUSH1 0x40 MLOAD PUSH4 0x189ACDBD PUSH1 0xE3 SHL DUP2 MSTORE PUSH1 0x1 PUSH1 0x1 PUSH1 0xA0 SHL SUB SWAP1 SWAP8 AND PUSH1 0x4 DUP9 ADD DUP2 SWAP1 MSTORE SWAP7 DUP2 DUP2 PUSH1 0x24 DUP2 DUP4 DUP14 GAS CALL DUP1 ISZERO PUSH3 0xE30 JUMPI PUSH3 0xE53 JUMPI JUMPDEST POP DUP6 EXTCODESIZE ISZERO PUSH3 0xFE JUMPI PUSH1 0x40 MLOAD PUSH4 0x485CC955 PUSH1 0xE0 SHL DUP2 MSTORE DUP8 PUSH1 0x4 DUP3 ADD MSTORE DUP2 PUSH1 0x24 DUP3 ADD MSTORE DUP2 DUP2 PUSH1 0x44 DUP2 DUP4 DUP12 GAS CALL DUP1 ISZERO PUSH3 0xE30 JUMPI SWAP1 DUP3 SWAP2 PUSH3 0xE3B JUMPI JUMPDEST POP POP PUSH32 0x0 PUSH1 0x1 PUSH1 0x1 PUSH1 0xA0 SHL SUB AND DUP1 EXTCODESIZE ISZERO PUSH3 0x306 JUMPI DUP2 DUP1 SWAP2 PUSH1 0x64 PUSH1 0x40 MLOAD DUP1 SWAP5 DUP2 SWAP4 PUSH4 0xB6F7134B PUSH1 0xE0 SHL DUP4 MSTORE DUP14 PUSH1 0x4 DUP5 ADD MSTORE CALLER PUSH1 0x24 DUP5 ADD MSTORE PUSH1 0x44 CALLDATALOAD PUSH1 0x44 DUP5 ADD MSTORE GAS CALL DUP1 ISZERO PUSH3 0xE30 JUMPI SWAP1 DUP3 SWAP2 PUSH3 0xE18 JUMPI JUMPDEST POP POP PUSH1 0x40 MLOAD PUSH3 0x65F DUP2 PUSH3 0x1436 JUMP JUMPDEST CALLER DUP2 MSTORE DUP7 PUSH1 0x20 DUP3 ADD MSTORE DUP9 PUSH1 0x40 DUP3 ADD MSTORE PUSH5 0x746A528800 PUSH1 0x60 DUP3 ADD MSTORE PUSH10 0x54B40B1F852BDA00000 PUSH1 0x80 DUP3 ADD MSTORE PUSH1 0x44 CALLDATALOAD PUSH1 0xA0 DUP3 ADD MSTORE TIMESTAMP PUSH1 0xC0 DUP3 ADD MSTORE DUP4 PUSH1 0xE0 DUP3 ADD MSTORE DUP5 PUSH2 0x100 DUP3 ADD MSTORE DUP3 PUSH2 0x120 DUP3 ADD MSTORE DUP6 PUSH2 0x140 DUP3 ADD MSTORE DUP8 DUP3 MSTORE PUSH1 0x4 PUSH1 0x20 MSTORE PUSH1 0x40 DUP3 KECCAK256 SWAP1 PUSH1 0x1 DUP1 PUSH1 0xA0 SHL SUB DUP2 MLOAD AND PUSH1 0x1 PUSH1 0x1 PUSH1 0x60 SHL SUB PUSH1 0xA0 SHL DUP4 SLOAD AND OR DUP3 SSTORE PUSH1 0x1 DUP3 ADD PUSH1 0x1 DUP1 PUSH1 0xA0 SHL SUB PUSH1 0x20 DUP4 ADD MLOAD AND PUSH1 0x1 PUSH1 0x1 PUSH1 0x60 SHL SUB PUSH1 0xA0 SHL DUP3 SLOAD AND OR SWAP1 SSTORE PUSH1 0x2 DUP3 ADD PUSH1 0x1 DUP1 PUSH1 0xA0 SHL SUB PUSH1 0x40 DUP4 ADD MLOAD AND PUSH1 0x1 PUSH1 0x1 PUSH1 0x60 SHL SUB PUSH1 0xA0 SHL DUP3 SLOAD AND OR SWAP1 SSTORE PUSH1 0x60 DUP2 ADD MLOAD PUSH1 0x3 DUP4 ADD SSTORE PUSH1 0x80 DUP2 ADD MLOAD PUSH1 0x4 DUP4 ADD SSTORE PUSH1 0xA0 DUP2 ADD MLOAD PUSH1 0x5 DUP4 ADD SSTORE PUSH1 0xC0 DUP2 ADD MLOAD PUSH1 0x6 DUP4 ADD SSTORE PUSH1 0xE0 DUP2 ADD MLOAD DUP1 MLOAD SWAP1 PUSH1 0x1 PUSH1 0x1 PUSH1 0x40 SHL SUB DUP3 GT PUSH3 0xC5A JUMPI DUP2 SWAP1 PUSH3 0x76E PUSH1 0x7 DUP7 ADD SLOAD PUSH3 0x14E4 JUMP JUMPDEST PUSH1 0x1F DUP2 GT PUSH3 0xDC3 JUMPI JUMPDEST POP PUSH1 0x20 SWAP1 PUSH1 0x1F DUP4 GT PUSH1 0x1 EQ PUSH3 0xD4F JUMPI DUP7 SWAP3 PUSH3 0xD43 JUMPI JUMPDEST POP POP DUP2 PUSH1 0x1 SHL SWAP2 PUSH1 0x0 NOT SWAP1 PUSH1 0x3 SHL SHR NOT AND OR PUSH1 0x7 DUP4 ADD SSTORE JUMPDEST PUSH2 0x100 DUP2 ADD MLOAD DUP1 MLOAD SWAP1 PUSH1 0x1 PUSH1 0x1 PUSH1 0x40 SHL SUB DUP3 GT PUSH3 0xC5A JUMPI DUP2 SWAP1 PUSH3 0x7D1 PUSH1 0x8 DUP7 ADD SLOAD PUSH3 0x14E4 JUMP JUMPDEST PUSH1 0x1F DUP2 GT PUSH3 0xCEE JUMPI JUMPDEST POP PUSH1 0x20 SWAP1 PUSH1 0x1F DUP4 GT PUSH1 0x1 EQ PUSH3 0xC7A JUMPI DUP7 SWAP3 PUSH3 0xC6E JUMPI JUMPDEST POP POP DUP2 PUSH1 0x1 SHL SWAP2 PUSH1 0x0 NOT SWAP1 PUSH1 0x3 SHL SHR NOT AND OR PUSH1 0x8 DUP4 ADD SSTORE JUMPDEST PUSH2 0x120 DUP2 ADD MLOAD DUP1 MLOAD SWAP1 PUSH1 0x1 PUSH1 0x1 PUSH1 0x40 SHL SUB DUP3 GT PUSH3 0xC5A JUMPI PUSH3 0x832 PUSH1 0x9 DUP6 ADD SLOAD PUSH3 0x14E4 JUMP JUMPDEST PUSH1 0x1F DUP2 GT PUSH3 0xC11 JUMPI JUMPDEST POP PUSH1 0x20 SWAP1 PUSH1 0x1F DUP4 GT PUSH1 0x1 EQ PUSH3 0xB9B JUMPI PUSH2 0x140 SWAP4 SWAP3 SWAP2 DUP7 SWAP2 DUP4 PUSH3 0xB8F JUMPI JUMPDEST POP POP DUP2 PUSH1 0x1 SHL SWAP2 PUSH1 0x0 NOT SWAP1 PUSH1 0x3 SHL SHR NOT AND OR PUSH1 0x9 DUP5 ADD SSTORE JUMPDEST ADD MLOAD DUP1 MLOAD SWAP1 PUSH1 0x1 PUSH1 0x1 PUSH1 0x40 SHL SUB DUP3 GT PUSH3 0xB7B JUMPI PUSH3 0x896 PUSH1 0xA DUP5 ADD SLOAD PUSH3 0x14E4 JUMP JUMPDEST PUSH1 0x1F DUP2 GT PUSH3 0xB32 JUMPI JUMPDEST POP PUSH1 0x20 SWAP1 PUSH1 0x1F DUP4 GT PUSH1 0x1 EQ PUSH3 0xABC JUMPI SWAP2 DUP1 PUSH1 0xA SWAP3 DUP7 SWAP6 SWAP5 PUSH1 0x40 SWAP8 SWAP3 PUSH3 0xAB0 JUMPI JUMPDEST POP POP DUP2 PUSH1 0x1 SHL SWAP2 PUSH1 0x0 NOT SWAP1 PUSH1 0x3 SHL SHR NOT AND OR SWAP2 ADD SSTORE JUMPDEST DUP8 DUP2 MSTORE PUSH1 0x2 PUSH1 0x20 MSTORE DUP2 DUP2 KECCAK256 PUSH1 0x1 PUSH1 0xFF NOT DUP3 SLOAD AND OR SWAP1 SSTORE CALLER DUP2 MSTORE PUSH1 0x1 PUSH1 0x20 MSTORE KECCAK256 DUP1 SLOAD PUSH1 0x1 PUSH1 0x40 SHL DUP2 LT ISZERO PUSH3 0xA9A JUMPI PUSH3 0x917 SWAP2 PUSH1 0x1 DUP3 ADD DUP2 SSTORE PUSH3 0x1388 JUMP JUMPDEST DUP2 SLOAD PUSH1 0x3 SWAP2 DUP3 SHL DUP10 DUP2 SHL PUSH1 0x1 PUSH1 0x1 PUSH1 0xA0 SHL SUB SWAP1 SWAP2 SHL NOT SWAP1 SWAP2 AND OR SWAP1 SWAP2 SSTORE SLOAD SWAP5 PUSH1 0x1 PUSH1 0x40 SHL DUP7 LT ISZERO PUSH3 0xA9A JUMPI PUSH1 0x1 DUP7 ADD DUP1 PUSH1 0x3 SSTORE DUP7 LT ISZERO PUSH3 0xA84 JUMPI PUSH1 0x20 SWAP8 DUP8 SWAP7 PUSH1 0x3 PUSH1 0x0 MSTORE PUSH32 0xC2575A0E9E593C00F959F8C92F12DB2869C3395A3B0502D05E2516446F71F85B ADD DUP8 PUSH1 0x1 PUSH1 0x1 PUSH1 0x60 SHL SUB PUSH1 0xA0 SHL DUP3 SLOAD AND OR SWAP1 SSTORE PUSH1 0x40 MLOAD SWAP2 DUP3 MSTORE DUP9 DUP3 ADD MSTORE PUSH12 0xA18F07D736B90BE550000000 PUSH1 0x40 DUP3 ADD MSTORE PUSH5 0x746A528800 PUSH1 0x60 DUP3 ADD MSTORE PUSH10 0x54B40B1F852BDA00000 PUSH1 0x80 DUP3 ADD MSTORE TIMESTAMP PUSH1 0xA0 DUP3 ADD MSTORE DUP6 PUSH32 0xF4C3200878843061FDE29A1E720AF29FBD78AE4989067A9A862C82CEBE54BFAF PUSH1 0xC0 CALLER SWAP4 LOG3 DUP2 MLOAD ISZERO DUP1 ISZERO SWAP1 PUSH3 0xA79 JUMPI JUMPDEST DUP1 ISZERO PUSH3 0xA6E JUMPI JUMPDEST DUP1 ISZERO PUSH3 0xA63 JUMPI JUMPDEST PUSH3 0xA21 JUMPI JUMPDEST DUP7 DUP6 PUSH1 0x40 MLOAD SWAP1 DUP2 MSTORE RETURN JUMPDEST PUSH32 0x21CDDC21BE364DE168A977A1ED3E8668CC6019151EC9CD7A3B90DE137163110C SWAP4 PUSH3 0xA55 SWAP2 PUSH1 0x40 MLOAD SWAP5 DUP6 SWAP5 DUP6 PUSH3 0x13E3 JUMP JUMPDEST SUB SWAP1 LOG2 DUP1 CODESIZE DUP1 DUP1 DUP1 PUSH3 0xA17 JUMP JUMPDEST POP DUP4 MLOAD ISZERO ISZERO PUSH3 0xA11 JUMP JUMPDEST POP DUP1 MLOAD ISZERO ISZERO PUSH3 0xA09 JUMP JUMPDEST POP DUP3 MLOAD ISZERO ISZERO PUSH3 0xA01 JUMP JUMPDEST PUSH4 0x4E487B71 PUSH1 0xE0 SHL PUSH1 0x0 MSTORE PUSH1 0x32 PUSH1 0x4 MSTORE PUSH1 0x24 PUSH1 0x0 REVERT JUMPDEST PUSH4 0x4E487B71 PUSH1 0xE0 SHL PUSH1 0x0 MSTORE PUSH1 0x41 PUSH1 0x4 MSTORE PUSH1 0x24 PUSH1 0x0 REVERT JUMPDEST ADD MLOAD SWAP1 POP CODESIZE DUP1 PUSH3 0x8C2 JUMP JUMPDEST SWAP1 PUSH1 0xA DUP5 ADD DUP6 MSTORE PUSH1 0x20 DUP6 KECCAK256 SWAP2 DUP6 JUMPDEST PUSH1 0x1F NOT DUP6 AND DUP2 LT PUSH3 0xB19 JUMPI POP SWAP3 PUSH1 0xA SWAP3 PUSH1 0x1 SWAP3 PUSH1 0x40 SWAP8 SWAP7 SWAP6 DUP4 PUSH1 0x1F NOT DUP2 AND LT PUSH3 0xAFF JUMPI JUMPDEST POP POP POP DUP2 SHL ADD SWAP2 ADD SSTORE PUSH3 0x8D8 JUMP JUMPDEST ADD MLOAD PUSH1 0x0 NOT PUSH1 0xF8 DUP5 PUSH1 0x3 SHL AND SHR NOT AND SWAP1 SSTORE CODESIZE DUP1 DUP1 PUSH3 0xAF0 JUMP JUMPDEST SWAP2 SWAP3 PUSH1 0x20 PUSH1 0x1 DUP2 SWAP3 DUP7 DUP6 ADD MLOAD DUP2 SSTORE ADD SWAP5 ADD SWAP3 ADD PUSH3 0xACA JUMP JUMPDEST PUSH1 0xA DUP5 ADD DUP6 MSTORE PUSH1 0x20 DUP6 KECCAK256 PUSH1 0x1F DUP5 ADD PUSH1 0x5 SHR DUP2 ADD PUSH1 0x20 DUP6 LT PUSH3 0xB73 JUMPI JUMPDEST PUSH1 0x1F DUP4 ADD PUSH1 0x5 SHR DUP3 ADD DUP2 LT PUSH3 0xB67 JUMPI POP POP PUSH3 0x8A0 JUMP JUMPDEST DUP7 DUP2 SSTORE PUSH1 0x1 ADD PUSH3 0xB4F JUMP JUMPDEST POP DUP1 PUSH3 0xB4F JUMP JUMPDEST PUSH4 0x4E487B71 PUSH1 0xE0 SHL DUP5 MSTORE PUSH1 0x41 PUSH1 0x4 MSTORE PUSH1 0x24 DUP5 REVERT JUMPDEST ADD MLOAD SWAP1 POP CODESIZE DUP1 PUSH3 0x85B JUMP JUMPDEST SWAP1 PUSH1 0x9 DUP6 ADD DUP7 MSTORE PUSH1 0x20 DUP7 KECCAK256 SWAP2 DUP7 JUMPDEST PUSH1 0x1F NOT DUP6 AND DUP2 LT PUSH3 0xBF8 JUMPI POP SWAP2 DUP4 SWAP2 PUSH1 0x1 SWAP4 PUSH2 0x140 SWAP7 SWAP6 PUSH1 0x1F NOT DUP2 AND LT PUSH3 0xBDE JUMPI JUMPDEST POP POP POP DUP2 SHL ADD PUSH1 0x9 DUP5 ADD SSTORE PUSH3 0x873 JUMP JUMPDEST ADD MLOAD PUSH1 0x0 NOT PUSH1 0xF8 DUP5 PUSH1 0x3 SHL AND SHR NOT AND SWAP1 SSTORE CODESIZE DUP1 DUP1 PUSH3 0xBCD JUMP JUMPDEST SWAP2 SWAP3 PUSH1 0x20 PUSH1 0x1 DUP2 SWAP3 DUP7 DUP6 ADD MLOAD DUP2 SSTORE ADD SWAP5 ADD SWAP3 ADD PUSH3 0xBA9 JUMP JUMPDEST PUSH1 0x9 DUP6 ADD DUP7 MSTORE PUSH1 0x20 DUP7 KECCAK256 PUSH1 0x1F DUP5 ADD PUSH1 0x5 SHR DUP2 ADD PUSH1 0x20 DUP6 LT PUSH3 0xC52 JUMPI JUMPDEST PUSH1 0x1F DUP4 ADD PUSH1 0x5 SHR DUP3 ADD DUP2 LT PUSH3 0xC46 JUMPI POP POP PUSH3 0x83C JUMP JUMPDEST DUP8 DUP2 SSTORE PUSH1 0x1 ADD PUSH3 0xC2E JUMP JUMPDEST POP DUP1 PUSH3 0xC2E JUMP JUMPDEST PUSH4 0x4E487B71 PUSH1 0xE0 SHL DUP6 MSTORE PUSH1 0x41 PUSH1 0x4 MSTORE PUSH1 0x24 DUP6 REVERT JUMPDEST ADD MLOAD SWAP1 POP CODESIZE DUP1 PUSH3 0x7F3 JUMP JUMPDEST SWAP3 POP PUSH1 0x8 DUP6 ADD DUP7 MSTORE PUSH1 0x20 DUP7 KECCAK256 SWAP1 DUP7 SWAP4 JUMPDEST PUSH1 0x1F NOT DUP5 AND DUP6 LT PUSH3 0xCD2 JUMPI PUSH1 0x1 SWAP5 POP DUP4 PUSH1 0x1F NOT DUP2 AND LT PUSH3 0xCB8 JUMPI JUMPDEST POP POP POP DUP2 SHL ADD PUSH1 0x8 DUP4 ADD SSTORE PUSH3 0x80B JUMP JUMPDEST ADD MLOAD PUSH1 0x0 NOT PUSH1 0xF8 DUP5 PUSH1 0x3 SHL AND SHR NOT AND SWAP1 SSTORE CODESIZE DUP1 DUP1 PUSH3 0xCA7 JUMP JUMPDEST DUP2 DUP2 ADD MLOAD DUP4 SSTORE PUSH1 0x20 SWAP5 DUP6 ADD SWAP5 PUSH1 0x1 SWAP1 SWAP4 ADD SWAP3 SWAP1 SWAP2 ADD SWAP1 PUSH3 0xC8A JUMP JUMPDEST SWAP1 SWAP2 POP PUSH1 0x8 DUP6 ADD DUP7 MSTORE PUSH1 0x20 DUP7 KECCAK256 PUSH1 0x1F DUP5 ADD PUSH1 0x5 SHR DUP2 ADD PUSH1 0x20 DUP6 LT PUSH3 0xD3B JUMPI JUMPDEST SWAP1 DUP5 SWAP4 SWAP3 SWAP2 JUMPDEST PUSH1 0x1F DUP4 ADD PUSH1 0x5 SHR DUP3 ADD DUP2 LT PUSH3 0xD2C JUMPI POP POP PUSH3 0x7DB JUMP JUMPDEST DUP9 DUP2 SSTORE DUP6 SWAP5 POP PUSH1 0x1 ADD PUSH3 0xD14 JUMP JUMPDEST POP DUP1 PUSH3 0xD0E JUMP JUMPDEST ADD MLOAD SWAP1 POP CODESIZE DUP1 PUSH3 0x790 JUMP JUMPDEST SWAP3 POP PUSH1 0x7 DUP6 ADD DUP7 MSTORE PUSH1 0x20 DUP7 KECCAK256 SWAP1 DUP7 SWAP4 JUMPDEST PUSH1 0x1F NOT DUP5 AND DUP6 LT PUSH3 0xDA7 JUMPI PUSH1 0x1 SWAP5 POP DUP4 PUSH1 0x1F NOT DUP2 AND LT PUSH3 0xD8D JUMPI JUMPDEST POP POP POP DUP2 SHL ADD PUSH1 0x7 DUP4 ADD SSTORE PUSH3 0x7A8 JUMP JUMPDEST ADD MLOAD PUSH1 0x0 NOT PUSH1 0xF8 DUP5 PUSH1 0x3 SHL AND SHR NOT AND SWAP1 SSTORE CODESIZE DUP1 DUP1 PUSH3 0xD7C JUMP JUMPDEST DUP2 DUP2 ADD MLOAD DUP4 SSTORE PUSH1 0x20 SWAP5 DUP6 ADD SWAP5 PUSH1 0x1 SWAP1 SWAP4 ADD SWAP3 SWAP1 SWAP2 ADD SWAP1 PUSH3 0xD5F JUMP JUMPDEST SWAP1 SWAP2 POP PUSH1 0x7 DUP6 ADD DUP7 MSTORE PUSH1 0x20 DUP7 KECCAK256 PUSH1 0x1F DUP5 ADD PUSH1 0x5 SHR DUP2 ADD PUSH1 0x20 DUP6 LT PUSH3 0xE10 JUMPI JUMPDEST SWAP1 DUP5 SWAP4 SWAP3 SWAP2 JUMPDEST PUSH1 0x1F DUP4 ADD PUSH1 0x5 SHR DUP3 ADD DUP2 LT PUSH3 0xE01 JUMPI POP POP PUSH3 0x778 JUMP JUMPDEST DUP9 DUP2 SSTORE DUP6 SWAP5 POP PUSH1 0x1 ADD PUSH3 0xDE9 JUMP JUMPDEST POP DUP1 PUSH3 0xDE3 JUMP JUMPDEST PUSH3 0xE23 SWAP1 PUSH3 0x1453 JUMP JUMPDEST PUSH3 0xFE JUMPI DUP1 CODESIZE PUSH3 0x64F JUMP JUMPDEST PUSH1 0x40 MLOAD RETURNDATASIZE DUP5 DUP3 RETURNDATACOPY RETURNDATASIZE SWAP1 REVERT JUMPDEST PUSH3 0xE46 SWAP1 PUSH3 0x1453 JUMP JUMPDEST PUSH3 0xFE JUMPI DUP1 CODESIZE PUSH3 0x5DF JUMP JUMPDEST PUSH3 0xE5E SWAP1 PUSH3 0x1453 JUMP JUMPDEST CODESIZE PUSH3 0x5A4 JUMP JUMPDEST PUSH1 0x40 MLOAD SWAP1 RETURNDATASIZE SWAP1 DUP3 RETURNDATACOPY RETURNDATASIZE SWAP1 REVERT JUMPDEST PUSH4 0x4E487B71 PUSH1 0xE0 SHL DUP10 MSTORE PUSH1 0x41 PUSH1 0x4 MSTORE PUSH1 0x24 DUP10 REVERT JUMPDEST PUSH1 0x40 MLOAD RETURNDATASIZE DUP10 DUP3 RETURNDATACOPY RETURNDATASIZE SWAP1 REVERT JUMPDEST PUSH4 0x4E487B71 PUSH1 0xE0 SHL DUP9 MSTORE PUSH1 0x41 PUSH1 0x4 MSTORE PUSH1 0x24 DUP9 REVERT JUMPDEST PUSH1 0x40 MLOAD RETURNDATASIZE DUP9 DUP3 RETURNDATACOPY RETURNDATASIZE SWAP1 REVERT JUMPDEST PUSH1 0x40 MLOAD PUSH4 0xF72BC5D5 PUSH1 0xE0 SHL DUP2 MSTORE PUSH1 0x4 SWAP1 REVERT JUMPDEST PUSH1 0x40 MLOAD PUSH4 0x10466F1 PUSH1 0xE2 SHL DUP2 MSTORE PUSH1 0x4 SWAP1 REVERT JUMPDEST PUSH1 0x40 MLOAD PUSH4 0x430F13B3 PUSH1 0xE0 SHL DUP2 MSTORE PUSH1 0x4 SWAP1 REVERT JUMPDEST DUP6 DUP1 REVERT JUMPDEST DUP5 DUP1 REVERT JUMPDEST DUP4 DUP1 REVERT JUMPDEST DUP3 DUP1 REVERT JUMPDEST POP CALLVALUE PUSH3 0xFE JUMPI PUSH1 0x20 CALLDATASIZE PUSH1 0x3 NOT ADD SLT PUSH3 0xFE JUMPI PUSH1 0x1 PUSH1 0x1 PUSH1 0xA0 SHL SUB SWAP1 PUSH1 0x40 SWAP1 DUP3 PUSH3 0xF20 PUSH3 0x1326 JUMP JUMPDEST AND DUP2 MSTORE PUSH1 0x4 PUSH1 0x20 MSTORE KECCAK256 SWAP1 PUSH1 0x40 MLOAD SWAP1 PUSH3 0xF39 DUP3 PUSH3 0x1436 JUMP JUMPDEST DUP1 DUP4 SLOAD AND DUP3 MSTORE DUP1 PUSH1 0x1 DUP5 ADD SLOAD AND PUSH1 0x20 DUP4 ADD MSTORE PUSH1 0x2 DUP4 ADD SLOAD AND PUSH1 0x40 DUP3 ADD MSTORE PUSH1 0x3 DUP3 ADD SLOAD PUSH1 0x60 DUP3 ADD MSTORE PUSH1 0x4 DUP3 ADD SLOAD PUSH1 0x80 DUP3 ADD MSTORE PUSH1 0x5 DUP3 ADD SLOAD PUSH1 0xA0 DUP3 ADD MSTORE PUSH1 0x6 DUP3 ADD SLOAD PUSH1 0xC0 DUP3 ADD MSTORE PUSH3 0x213 PUSH2 0x140 PUSH3 0xF93 PUSH1 0x7 DUP6 ADD PUSH3 0x1521 JUMP JUMPDEST PUSH1 0xE0 DUP5 ADD SWAP1 DUP2 MSTORE PUSH3 0xFA8 PUSH1 0x8 DUP7 ADD PUSH3 0x1521 JUMP JUMPDEST SWAP4 PUSH2 0x100 DUP2 ADD SWAP5 DUP6 MSTORE PUSH3 0xFD5 PUSH1 0xA PUSH3 0xFC5 PUSH1 0x9 DUP10 ADD PUSH3 0x1521 JUMP JUMPDEST SWAP8 PUSH2 0x120 DUP5 ADD SWAP9 DUP10 MSTORE ADD PUSH3 0x1521 JUMP JUMPDEST SWAP3 DUP4 SWAP2 ADD MSTORE MLOAD SWAP3 MLOAD SWAP4 MLOAD PUSH1 0x40 MLOAD SWAP5 DUP6 SWAP5 DUP6 PUSH3 0x13E3 JUMP JUMPDEST POP CALLVALUE PUSH3 0xFE JUMPI DUP1 PUSH1 0x3 NOT CALLDATASIZE ADD SLT PUSH3 0xFE JUMPI PUSH1 0x40 MLOAD PUSH32 0x0 PUSH1 0x1 PUSH1 0x1 PUSH1 0xA0 SHL SUB AND DUP2 MSTORE PUSH1 0x20 SWAP1 RETURN JUMPDEST POP CALLVALUE PUSH3 0xFE JUMPI PUSH1 0x20 CALLDATASIZE PUSH1 0x3 NOT ADD SLT PUSH3 0xFE JUMPI PUSH1 0x20 SWAP1 PUSH1 0xFF SWAP1 PUSH1 0x40 SWAP1 PUSH1 0x1 PUSH1 0x1 PUSH1 0xA0 SHL SUB PUSH3 0x1062 PUSH3 0x1326 JUMP JUMPDEST AND DUP2 MSTORE PUSH1 0x2 DUP5 MSTORE KECCAK256 SLOAD AND PUSH1 0x40 MLOAD SWAP1 ISZERO ISZERO DUP2 MSTORE RETURN JUMPDEST POP CALLVALUE PUSH3 0xFE JUMPI DUP1 PUSH1 0x3 NOT CALLDATASIZE ADD SLT PUSH3 0xFE JUMPI PUSH1 0x20 PUSH1 0x3 SLOAD PUSH1 0x40 MLOAD SWAP1 DUP2 MSTORE RETURN JUMPDEST POP CALLVALUE PUSH3 0xFE JUMPI PUSH1 0x20 CALLDATASIZE PUSH1 0x3 NOT ADD SLT PUSH3 0xFE JUMPI PUSH1 0x4 CALLDATALOAD PUSH1 0x3 SLOAD DUP2 LT ISZERO PUSH3 0x306 JUMPI PUSH1 0x3 SWAP1 SWAP2 MSTORE PUSH32 0xC2575A0E9E593C00F959F8C92F12DB2869C3395A3B0502D05E2516446F71F85B ADD SLOAD PUSH1 0x40 MLOAD PUSH1 0x1 PUSH1 0x1 PUSH1 0xA0 SHL SUB SWAP1 SWAP2 AND DUP2 MSTORE PUSH1 0x20 SWAP1 RETURN JUMPDEST POP CALLVALUE PUSH3 0xFE JUMPI DUP1 PUSH1 0x3 NOT CALLDATASIZE ADD SLT PUSH3 0xFE JUMPI PUSH1 0x40 MLOAD PUSH32 0x0 PUSH1 0x1 PUSH1 0x1 PUSH1 0xA0 SHL SUB AND DUP2 MSTORE PUSH1 0x20 SWAP1 RETURN JUMPDEST POP CALLVALUE PUSH3 0xFE JUMPI DUP1 PUSH1 0x3 NOT CALLDATASIZE ADD SLT PUSH3 0xFE JUMPI PUSH1 0x40 MLOAD PUSH1 0x3 DUP1 SLOAD DUP1 DUP4 MSTORE SWAP1 DUP4 MSTORE PUSH1 0x20 DUP1 DUP4 ADD SWAP4 PUSH32 0xC2575A0E9E593C00F959F8C92F12DB2869C3395A3B0502D05E2516446F71F85B SWAP3 SWAP2 JUMPDEST DUP3 DUP3 LT PUSH3 0x11A1 JUMPI PUSH3 0x213 DUP6 PUSH3 0x2E1 DUP2 DUP10 SUB DUP3 PUSH3 0x1467 JUMP JUMPDEST DUP4 SLOAD PUSH1 0x1 PUSH1 0x1 PUSH1 0xA0 SHL SUB AND DUP7 MSTORE SWAP5 DUP6 ADD SWAP5 PUSH1 0x1 SWAP4 DUP5 ADD SWAP4 SWAP1 SWAP2 ADD SWAP1 PUSH3 0x1186 JUMP JUMPDEST POP CALLVALUE PUSH3 0xFE JUMPI DUP1 PUSH1 0x3 NOT CALLDATASIZE ADD SLT PUSH3 0xFE JUMPI PUSH1 0x20 PUSH1 0x40 MLOAD PUSH10 0x54B40B1F852BDA00000 DUP2 MSTORE RETURN JUMPDEST SWAP1 POP CALLVALUE PUSH3 0x306 JUMPI PUSH1 0x20 CALLDATASIZE PUSH1 0x3 NOT ADD SLT PUSH3 0x306 JUMPI PUSH1 0xE0 SWAP2 PUSH1 0x1 PUSH1 0x1 PUSH1 0xA0 SHL SUB SWAP1 PUSH1 0x40 SWAP1 DUP3 PUSH3 0x1218 PUSH3 0x1326 JUMP JUMPDEST AND DUP2 MSTORE PUSH1 0x4 PUSH1 0x20 MSTORE KECCAK256 PUSH3 0x122C DUP4 PUSH3 0x1436 JUMP JUMPDEST DUP2 DUP2 SLOAD AND DUP4 MSTORE DUP2 PUSH1 0x1 DUP3 ADD SLOAD AND SWAP3 PUSH1 0x20 DUP2 ADD SWAP4 DUP5 MSTORE DUP3 PUSH1 0x2 DUP4 ADD SLOAD AND PUSH1 0x40 DUP3 ADD MSTORE PUSH1 0x3 DUP3 ADD SLOAD SWAP3 PUSH1 0x60 DUP3 ADD SWAP4 DUP5 MSTORE PUSH1 0x4 DUP4 ADD SLOAD SWAP1 PUSH1 0x80 DUP4 ADD SWAP2 DUP3 MSTORE DUP1 DUP1 PUSH1 0x5 DUP7 ADD SLOAD SWAP5 PUSH1 0xA0 DUP2 ADD SWAP6 DUP7 MSTORE PUSH3 0x12CA PUSH1 0xA PUSH1 0x6 DUP10 ADD SLOAD SWAP9 PUSH1 0xC0 DUP5 ADD SWAP10 DUP11 MSTORE PUSH3 0x1297 PUSH1 0x7 DUP3 ADD PUSH3 0x1521 JUMP JUMPDEST DUP14 DUP6 ADD MSTORE PUSH3 0x12A9 PUSH1 0x8 DUP3 ADD PUSH3 0x1521 JUMP JUMPDEST PUSH2 0x100 DUP6 ADD MSTORE PUSH3 0x12BD PUSH1 0x9 DUP3 ADD PUSH3 0x1521 JUMP JUMPDEST PUSH2 0x120 DUP6 ADD MSTORE ADD PUSH3 0x1521 JUMP JUMPDEST PUSH2 0x140 DUP3 ADD MSTORE MLOAD AND SWAP7 MLOAD AND SWAP5 MLOAD SWAP2 MLOAD SWAP3 MLOAD SWAP4 MLOAD SWAP5 PUSH1 0x40 MLOAD SWAP7 DUP8 MSTORE PUSH1 0x20 DUP8 ADD MSTORE PUSH32 0x0 AND PUSH1 0x40 DUP7 ADD MSTORE PUSH1 0x60 DUP6 ADD MSTORE PUSH1 0x80 DUP5 ADD MSTORE PUSH1 0xA0 DUP4 ADD MSTORE PUSH1 0xC0 DUP3 ADD MSTORE RETURN JUMPDEST PUSH1 0x4 CALLDATALOAD SWAP1 PUSH1 0x1 PUSH1 0x1 PUSH1 0xA0 SHL SUB DUP3 AND DUP3 SUB PUSH3 0x133D JUMPI JUMP JUMPDEST PUSH1 0x0 DUP1 REVERT JUMPDEST PUSH1 0x20 SWAP1 DUP2 PUSH1 0x40 DUP2 DUP4 ADD SWAP3 DUP3 DUP2 MSTORE DUP6 MLOAD DUP1 SWAP5 MSTORE ADD SWAP4 ADD SWAP2 PUSH1 0x0 JUMPDEST DUP3 DUP2 LT PUSH3 0x136A JUMPI POP POP POP POP SWAP1 JUMP JUMPDEST DUP4 MLOAD PUSH1 0x1 PUSH1 0x1 PUSH1 0xA0 SHL SUB AND DUP6 MSTORE SWAP4 DUP2 ADD SWAP4 SWAP3 DUP2 ADD SWAP3 PUSH1 0x1 ADD PUSH3 0x135B JUMP JUMPDEST DUP1 SLOAD DUP3 LT ISZERO PUSH3 0xA84 JUMPI PUSH1 0x0 MSTORE PUSH1 0x20 PUSH1 0x0 KECCAK256 ADD SWAP1 PUSH1 0x0 SWAP1 JUMP JUMPDEST SWAP2 SWAP1 DUP3 MLOAD SWAP3 DUP4 DUP3 MSTORE PUSH1 0x0 JUMPDEST DUP5 DUP2 LT PUSH3 0x13CE JUMPI POP POP DUP3 PUSH1 0x0 PUSH1 0x20 DUP1 SWAP5 SWAP6 DUP5 ADD ADD MSTORE PUSH1 0x1F DUP1 NOT SWAP2 ADD AND ADD ADD SWAP1 JUMP JUMPDEST PUSH1 0x20 DUP2 DUP4 ADD DUP2 ADD MLOAD DUP5 DUP4 ADD DUP3 ADD MSTORE ADD PUSH3 0x13AC JUMP JUMPDEST SWAP3 PUSH3 0x1415 PUSH3 0x1433 SWAP6 SWAP4 PUSH3 0x1406 PUSH3 0x1424 SWAP5 PUSH1 0x80 DUP9 MSTORE PUSH1 0x80 DUP9 ADD SWAP1 PUSH3 0x13A1 JUMP JUMPDEST SWAP1 DUP7 DUP3 SUB PUSH1 0x20 DUP9 ADD MSTORE PUSH3 0x13A1 JUMP JUMPDEST SWAP1 DUP5 DUP3 SUB PUSH1 0x40 DUP7 ADD MSTORE PUSH3 0x13A1 JUMP JUMPDEST SWAP2 PUSH1 0x60 DUP2 DUP5 SUB SWAP2 ADD MSTORE PUSH3 0x13A1 JUMP JUMPDEST SWAP1 JUMP JUMPDEST PUSH2 0x160 DUP2 ADD SWAP1 DUP2 LT PUSH1 0x1 PUSH1 0x1 PUSH1 0x40 SHL SUB DUP3 GT OR PUSH3 0xA9A JUMPI PUSH1 0x40 MSTORE JUMP JUMPDEST PUSH1 0x1 PUSH1 0x1 PUSH1 0x40 SHL SUB DUP2 GT PUSH3 0xA9A JUMPI PUSH1 0x40 MSTORE JUMP JUMPDEST SWAP1 PUSH1 0x1F DUP1 NOT SWAP2 ADD AND DUP2 ADD SWAP1 DUP2 LT PUSH1 0x1 PUSH1 0x1 PUSH1 0x40 SHL SUB DUP3 GT OR PUSH3 0xA9A JUMPI PUSH1 0x40 MSTORE JUMP JUMPDEST DUP2 PUSH1 0x1F DUP3 ADD SLT ISZERO PUSH3 0x133D JUMPI DUP1 CALLDATALOAD SWAP1 PUSH1 0x1 PUSH1 0x1 PUSH1 0x40 SHL SUB DUP3 GT PUSH3 0xA9A JUMPI PUSH1 0x40 MLOAD SWAP3 PUSH3 0x14C1 PUSH1 0x1F DUP5 ADD PUSH1 0x1F NOT AND PUSH1 0x20 ADD DUP6 PUSH3 0x1467 JUMP JUMPDEST DUP3 DUP5 MSTORE PUSH1 0x20 DUP4 DUP4 ADD ADD GT PUSH3 0x133D JUMPI DUP2 PUSH1 0x0 SWAP3 PUSH1 0x20 DUP1 SWAP4 ADD DUP4 DUP7 ADD CALLDATACOPY DUP4 ADD ADD MSTORE SWAP1 JUMP JUMPDEST SWAP1 PUSH1 0x1 DUP3 DUP2 SHR SWAP3 AND DUP1 ISZERO PUSH3 0x1516 JUMPI JUMPDEST PUSH1 0x20 DUP4 LT EQ PUSH3 0x1500 JUMPI JUMP JUMPDEST PUSH4 0x4E487B71 PUSH1 0xE0 SHL PUSH1 0x0 MSTORE PUSH1 0x22 PUSH1 0x4 MSTORE PUSH1 0x24 PUSH1 0x0 REVERT JUMPDEST SWAP2 PUSH1 0x7F AND SWAP2 PUSH3 0x14F4 JUMP JUMPDEST SWAP1 PUSH1 0x40 MLOAD SWAP2 DUP3 PUSH1 0x0 DUP3 SLOAD SWAP3 PUSH3 0x1537 DUP5 PUSH3 0x14E4 JUMP JUMPDEST SWAP1 DUP2 DUP5 MSTORE PUSH1 0x1 SWAP5 DUP6 DUP2 AND SWAP1 DUP2 PUSH1 0x0 EQ PUSH3 0x15AE JUMPI POP PUSH1 0x1 EQ PUSH3 0x1567 JUMPI JUMPDEST POP POP PUSH3 0x1565 SWAP3 POP SUB DUP4 PUSH3 0x1467 JUMP JUMPDEST JUMP JUMPDEST SWAP1 SWAP4 SWAP2 POP PUSH1 0x0 MSTORE PUSH1 0x20 SWAP1 DUP2 PUSH1 0x0 KECCAK256 SWAP4 PUSH1 0x0 SWAP2 JUMPDEST DUP2 DUP4 LT PUSH3 0x1595 JUMPI POP POP PUSH3 0x1565 SWAP4 POP DUP3 ADD ADD CODESIZE DUP1 PUSH3 0x1555 JUMP JUMPDEST DUP6 SLOAD DUP9 DUP5 ADD DUP6 ADD MSTORE SWAP5 DUP6 ADD SWAP5 DUP8 SWAP5 POP SWAP2 DUP4 ADD SWAP2 PUSH3 0x157A JUMP JUMPDEST SWAP2 POP POP PUSH3 0x1565 SWAP5 POP PUSH1 0x20 SWAP3 POP PUSH1 0xFF NOT AND DUP3 DUP5 ADD MSTORE ISZERO ISZERO PUSH1 0x5 SHL DUP3 ADD ADD CODESIZE DUP1 PUSH3 0x1555 JUMP INVALID PUSH2 0x140 CALLVALUE PUSH2 0x177 JUMPI PUSH1 0x1F PUSH2 0x9DA CODESIZE DUP2 SWAP1 SUB SWAP2 DUP3 ADD PUSH1 0x1F NOT AND DUP4 ADD SWAP2 PUSH1 0x1 PUSH1 0x1 PUSH1 0x40 SHL SUB DUP4 GT DUP5 DUP5 LT OR PUSH2 0x17C JUMPI DUP1 DUP5 SWAP3 PUSH1 0x80 SWAP5 PUSH1 0x40 MSTORE DUP4 CODECOPY DUP2 ADD SUB SLT PUSH2 0x177 JUMPI PUSH2 0x48 DUP2 PUSH2 0x192 JUMP JUMPDEST POP PUSH2 0x55 PUSH1 0x20 DUP3 ADD PUSH2 0x192 JUMP JUMPDEST PUSH1 0x60 PUSH1 0x40 DUP4 ADD MLOAD SWAP3 ADD MLOAD SWAP1 DUP3 ISZERO ISZERO DUP1 PUSH2 0x16A JUMPI JUMPDEST DUP1 PUSH2 0x15D JUMPI JUMPDEST DUP1 PUSH2 0x150 JUMPI JUMPDEST DUP1 PUSH2 0x142 JUMPI JUMPDEST PUSH2 0x130 JUMPI PUSH1 0x80 MSTORE CALLER PUSH1 0xA0 MSTORE TIMESTAMP PUSH1 0xC0 MSTORE DUP2 PUSH1 0xE0 MSTORE PUSH2 0x100 SWAP2 DUP3 MSTORE PUSH2 0x120 SWAP1 DUP2 MSTORE PUSH1 0x40 MLOAD SWAP1 PUSH2 0x833 SWAP3 DUP4 PUSH2 0x1A7 DUP5 CODECOPY PUSH1 0x80 MLOAD DUP4 DUP2 DUP2 PUSH2 0x386 ADD MSTORE PUSH2 0x664 ADD MSTORE PUSH1 0xA0 MLOAD DUP4 DUP2 DUP2 PUSH2 0x1BC ADD MSTORE PUSH2 0x256 ADD MSTORE PUSH1 0xC0 MLOAD DUP4 DUP2 DUP2 PUSH2 0x16F ADD MSTORE DUP2 DUP2 PUSH2 0x4D2 ADD MSTORE PUSH2 0x702 ADD MSTORE PUSH1 0xE0 MLOAD DUP4 DUP2 DUP2 PUSH2 0x4B1 ADD MSTORE DUP2 DUP2 PUSH2 0x62D ADD MSTORE PUSH2 0x6D8 ADD MSTORE MLOAD DUP3 DUP2 DUP2 PUSH2 0x4FC ADD MSTORE DUP2 DUP2 PUSH2 0x5F2 ADD MSTORE PUSH2 0x73A ADD MSTORE MLOAD DUP2 DUP2 DUP2 PUSH2 0x346 ADD MSTORE DUP2 DUP2 PUSH2 0x549 ADD MSTORE DUP2 DUP2 PUSH2 0x763 ADD MSTORE DUP2 DUP2 PUSH2 0x7A2 ADD MSTORE PUSH2 0x7CE ADD MSTORE RETURN JUMPDEST PUSH1 0x40 MLOAD PUSH4 0x76166401 PUSH1 0xE0 SHL DUP2 MSTORE PUSH1 0x4 SWAP1 REVERT JUMPDEST POP PUSH4 0x1E13380 DUP4 EQ ISZERO PUSH2 0x7B JUMP JUMPDEST POP PUSH3 0xED4E00 DUP4 EQ ISZERO PUSH2 0x75 JUMP JUMPDEST POP PUSH3 0x278D00 DUP4 EQ ISZERO PUSH2 0x6F JUMP JUMPDEST POP PUSH3 0x93A80 DUP4 EQ ISZERO PUSH2 0x69 JUMP JUMPDEST PUSH1 0x0 DUP1 REVERT JUMPDEST PUSH4 0x4E487B71 PUSH1 0xE0 SHL PUSH1 0x0 MSTORE PUSH1 0x41 PUSH1 0x4 MSTORE PUSH1 0x24 PUSH1 0x0 REVERT JUMPDEST MLOAD SWAP1 PUSH1 0x1 PUSH1 0x1 PUSH1 0xA0 SHL SUB DUP3 AND DUP3 SUB PUSH2 0x177 JUMPI JUMP INVALID PUSH1 0x80 PUSH1 0x40 DUP2 DUP2 MSTORE PUSH1 0x4 SWAP2 DUP3 CALLDATASIZE LT ISZERO PUSH2 0x16 JUMPI PUSH1 0x0 DUP1 REVERT JUMPDEST PUSH1 0x0 SWAP3 DUP4 CALLDATALOAD PUSH1 0xE0 SHR SWAP2 DUP3 PUSH4 0x2D05D3F EQ PUSH2 0x650 JUMPI POP DUP2 PUSH4 0x4554443 EQ PUSH2 0x615 JUMPI DUP2 PUSH4 0x1514617E EQ PUSH2 0x5DA JUMPI DUP2 PUSH4 0x158EF93E EQ PUSH2 0x5B6 JUMPI DUP2 PUSH4 0x44B1231F EQ PUSH2 0x599 JUMPI DUP2 PUSH4 0x4E69D560 EQ PUSH2 0x49A JUMPI DUP2 PUSH4 0x4E71D92D EQ PUSH2 0x369 JUMPI DUP2 PUSH4 0x79203DC4 EQ PUSH2 0x32E JUMPI DUP2 PUSH4 0x82816125 EQ PUSH2 0x310 JUMPI DUP2 PUSH4 0x8CB7D625 EQ PUSH2 0x2F2 JUMPI DUP2 PUSH4 0x8E14AF1C EQ PUSH2 0x2D3 JUMPI DUP2 PUSH4 0xAF38D757 EQ PUSH2 0x2A3 JUMPI DUP2 PUSH4 0xAFB70BA1 EQ PUSH2 0x285 JUMPI DUP2 PUSH4 0xC45A0155 EQ PUSH2 0x241 JUMPI DUP2 PUSH4 0xC4D66DE8 EQ PUSH2 0x192 JUMPI POP DUP1 PUSH4 0xCF09E0D0 EQ PUSH2 0x158 JUMPI DUP1 PUSH4 0xE834A834 EQ PUSH2 0x13A JUMPI DUP1 PUSH4 0xEF475A49 EQ PUSH2 0x120 JUMPI PUSH4 0xFC0C546A EQ PUSH2 0xF6 JUMPI PUSH1 0x0 DUP1 REVERT JUMPDEST CALLVALUE PUSH2 0x11C JUMPI DUP2 PUSH1 0x3 NOT CALLDATASIZE ADD SLT PUSH2 0x11C JUMPI SWAP1 SLOAD SWAP1 MLOAD PUSH1 0x1 PUSH1 0x1 PUSH1 0xA0 SHL SUB SWAP1 SWAP2 AND DUP2 MSTORE PUSH1 0x20 SWAP1 RETURN JUMPDEST POP DUP1 REVERT JUMPDEST POP CALLVALUE PUSH2 0x11C JUMPI DUP2 PUSH1 0x3 NOT CALLDATASIZE ADD SLT PUSH2 0x11C JUMPI MLOAD SWAP1 DUP2 MSTORE PUSH1 0x20 SWAP1 RETURN JUMPDEST POP CALLVALUE PUSH2 0x11C JUMPI DUP2 PUSH1 0x3 NOT CALLDATASIZE ADD SLT PUSH2 0x11C JUMPI PUSH1 0x20 SWAP1 PUSH1 0x1 SLOAD SWAP1 MLOAD SWAP1 DUP2 MSTORE RETURN JUMPDEST POP CALLVALUE PUSH2 0x11C JUMPI DUP2 PUSH1 0x3 NOT CALLDATASIZE ADD SLT PUSH2 0x11C JUMPI PUSH1 0x20 SWAP1 MLOAD PUSH32 0x0 DUP2 MSTORE RETURN JUMPDEST DUP4 DUP4 CALLVALUE PUSH2 0x11C JUMPI PUSH1 0x20 CALLDATASIZE PUSH1 0x3 NOT ADD SLT PUSH2 0x11C JUMPI DUP3 CALLDATALOAD PUSH1 0x1 PUSH1 0x1 PUSH1 0xA0 SHL SUB DUP2 DUP2 AND SWAP2 DUP3 SWAP1 SUB PUSH2 0x23D JUMPI PUSH32 0x0 AND CALLER SUB PUSH2 0x22E JUMPI PUSH1 0x2 SLOAD SWAP2 PUSH1 0xFF DUP4 AND PUSH2 0x220 JUMPI DUP2 ISZERO PUSH2 0x211 JUMPI POP DUP3 SLOAD PUSH1 0x1 PUSH1 0x1 PUSH1 0xA0 SHL SUB NOT AND OR DUP3 SSTORE PUSH1 0xFF NOT AND PUSH1 0x1 OR PUSH1 0x2 SSTORE DUP1 RETURN JUMPDEST MLOAD PUSH4 0xD92E233D PUSH1 0xE0 SHL DUP2 MSTORE DUP5 SWAP1 REVERT JUMPDEST MLOAD PUSH3 0xDC149F PUSH1 0xE4 SHL DUP2 MSTORE DUP5 SWAP1 REVERT JUMPDEST DUP2 MLOAD PUSH3 0x82B429 PUSH1 0xE8 SHL DUP2 MSTORE DUP5 SWAP1 REVERT JUMPDEST DUP4 DUP1 REVERT JUMPDEST POP POP CALLVALUE PUSH2 0x11C JUMPI DUP2 PUSH1 0x3 NOT CALLDATASIZE ADD SLT PUSH2 0x11C JUMPI MLOAD PUSH32 0x0 PUSH1 0x1 PUSH1 0x1 PUSH1 0xA0 SHL SUB AND DUP2 MSTORE PUSH1 0x20 SWAP1 RETURN JUMPDEST POP POP CALLVALUE PUSH2 0x11C JUMPI DUP2 PUSH1 0x3 NOT CALLDATASIZE ADD SLT PUSH2 0x11C JUMPI PUSH1 0x20 SWAP1 MLOAD PUSH3 0xED4E00 DUP2 MSTORE RETURN JUMPDEST POP POP CALLVALUE PUSH2 0x11C JUMPI DUP2 PUSH1 0x3 NOT CALLDATASIZE ADD SLT PUSH2 0x11C JUMPI PUSH1 0x20 SWAP1 PUSH2 0x2CC PUSH2 0x2C3 PUSH2 0x6D6 JUMP JUMPDEST PUSH1 0x1 SLOAD SWAP1 PUSH2 0x693 JUMP JUMPDEST SWAP1 MLOAD SWAP1 DUP2 MSTORE RETURN JUMPDEST POP POP CALLVALUE PUSH2 0x11C JUMPI DUP2 PUSH1 0x3 NOT CALLDATASIZE ADD SLT PUSH2 0x11C JUMPI PUSH1 0x20 SWAP1 MLOAD PUSH4 0x1E13380 DUP2 MSTORE RETURN JUMPDEST POP POP CALLVALUE PUSH2 0x11C JUMPI DUP2 PUSH1 0x3 NOT CALLDATASIZE ADD SLT PUSH2 0x11C JUMPI PUSH1 0x20 SWAP1 MLOAD PUSH3 0x93A80 DUP2 MSTORE RETURN JUMPDEST POP POP CALLVALUE PUSH2 0x11C JUMPI DUP2 PUSH1 0x3 NOT CALLDATASIZE ADD SLT PUSH2 0x11C JUMPI PUSH1 0x20 SWAP1 MLOAD PUSH3 0x278D00 DUP2 MSTORE RETURN JUMPDEST POP POP CALLVALUE PUSH2 0x11C JUMPI DUP2 PUSH1 0x3 NOT CALLDATASIZE ADD SLT PUSH2 0x11C JUMPI PUSH1 0x20 SWAP1 MLOAD PUSH32 0x0 DUP2 MSTORE RETURN JUMPDEST SWAP2 SWAP1 POP CALLVALUE PUSH2 0x496 JUMPI DUP3 PUSH1 0x3 NOT CALLDATASIZE ADD SLT PUSH2 0x496 JUMPI PUSH1 0x1 PUSH1 0x1 PUSH1 0xA0 SHL SUB PUSH32 0x0 DUP2 AND SWAP3 CALLER DUP5 SWAP1 SUB PUSH2 0x489 JUMPI PUSH2 0x3B8 PUSH2 0x6D6 JUMP JUMPDEST SWAP2 PUSH2 0x3C6 PUSH1 0x1 SLOAD DUP1 SWAP5 PUSH2 0x693 JUMP JUMPDEST SWAP3 DUP4 ISZERO PUSH2 0x479 JUMPI DUP4 PUSH2 0x3D7 SWAP2 PUSH2 0x7F0 JUMP JUMPDEST PUSH1 0x1 SSTORE DUP6 SLOAD AND DUP4 MLOAD SWAP2 PUSH4 0xA9059CBB PUSH1 0xE0 SHL DUP8 MSTORE DUP6 DUP2 MSTORE DUP4 PUSH1 0x24 MSTORE PUSH1 0x20 DUP8 PUSH1 0x44 DUP2 DUP1 DUP7 GAS CALL PUSH1 0x1 DUP9 MLOAD EQ DUP2 AND ISZERO PUSH2 0x45A JUMPI JUMPDEST DUP4 DUP7 MSTORE ISZERO PUSH2 0x447 JUMPI POP POP POP SWAP1 PUSH32 0x9923B4306C6C030F2BDFBF156517D5983B87E15B96176DA122CD4F2EFFA4BA7B SWAP2 PUSH1 0x1 SLOAD DUP3 MLOAD SWAP2 DUP3 MSTORE PUSH1 0x20 DUP3 ADD MSTORE LOG2 DUP1 RETURN JUMPDEST PUSH4 0x5274AFE7 PUSH1 0xE0 SHL DUP4 MSTORE DUP3 ADD MSTORE PUSH1 0x24 SWAP2 POP REVERT JUMPDEST PUSH1 0x1 DUP2 ISZERO AND PUSH2 0x470 JUMPI DUP3 EXTCODESIZE ISZERO ISZERO RETURNDATASIZE ISZERO AND AND PUSH2 0x408 JUMP JUMPDEST DUP4 RETURNDATASIZE DUP10 DUP3 RETURNDATACOPY RETURNDATASIZE SWAP1 REVERT JUMPDEST DUP5 MLOAD PUSH4 0x12D37EE5 PUSH1 0xE3 SHL DUP2 MSTORE DUP4 SWAP1 REVERT JUMPDEST DUP3 MLOAD PUSH3 0x82B429 PUSH1 0xE8 SHL DUP2 MSTORE REVERT JUMPDEST DUP3 DUP1 REVERT JUMPDEST DUP4 DUP4 CALLVALUE PUSH2 0x11C JUMPI DUP2 PUSH1 0x3 NOT CALLDATASIZE ADD SLT PUSH2 0x11C JUMPI PUSH2 0x4F6 PUSH32 0x0 PUSH32 0x0 PUSH2 0x7F0 JUMP JUMPDEST SWAP2 PUSH2 0x521 PUSH32 0x0 DUP5 PUSH2 0x7F0 JUMP JUMPDEST SWAP1 PUSH2 0x52A PUSH2 0x6D6 JUMP JUMPDEST SWAP1 PUSH1 0x64 DUP3 MUL SWAP2 DUP1 DUP4 DIV PUSH1 0x64 EQ SWAP1 ISZERO OR ISZERO PUSH2 0x586 JUMPI POP PUSH1 0x80 SWAP5 POP PUSH2 0x56E SWAP1 PUSH32 0x0 SWAP1 PUSH2 0x6B6 JUMP JUMPDEST SWAP2 DUP1 MLOAD SWAP4 DUP1 TIMESTAMP LT DUP6 MSTORE PUSH1 0x20 DUP6 ADD MSTORE DUP4 ADD MSTORE PUSH1 0x60 DUP3 ADD MSTORE RETURN JUMPDEST PUSH4 0x4E487B71 PUSH1 0xE0 SHL DUP2 MSTORE PUSH1 0x11 DUP7 MSTORE PUSH1 0x24 SWAP1 REVERT JUMPDEST POP POP CALLVALUE PUSH2 0x11C JUMPI DUP2 PUSH1 0x3 NOT CALLDATASIZE ADD SLT PUSH2 0x11C JUMPI PUSH1 0x20 SWAP1 PUSH2 0x2CC PUSH2 0x6D6 JUMP JUMPDEST POP POP CALLVALUE PUSH2 0x11C JUMPI DUP2 PUSH1 0x3 NOT CALLDATASIZE ADD SLT PUSH2 0x11C JUMPI PUSH1 0x20 SWAP1 PUSH1 0xFF PUSH1 0x2 SLOAD AND SWAP1 MLOAD SWAP1 ISZERO ISZERO DUP2 MSTORE RETURN JUMPDEST POP POP CALLVALUE PUSH2 0x11C JUMPI DUP2 PUSH1 0x3 NOT CALLDATASIZE ADD SLT PUSH2 0x11C JUMPI PUSH1 0x20 SWAP1 MLOAD PUSH32 0x0 DUP2 MSTORE RETURN JUMPDEST POP POP CALLVALUE PUSH2 0x11C JUMPI DUP2 PUSH1 0x3 NOT CALLDATASIZE ADD SLT PUSH2 0x11C JUMPI PUSH1 0x20 SWAP1 MLOAD PUSH32 0x0 DUP2 MSTORE RETURN JUMPDEST DUP5 SWAP1 CALLVALUE PUSH2 0x11C JUMPI DUP2 PUSH1 0x3 NOT CALLDATASIZE ADD SLT PUSH2 0x11C JUMPI PUSH32 0x0 PUSH1 0x1 PUSH1 0x1 PUSH1 0xA0 SHL SUB AND DUP2 MSTORE PUSH1 0x20 SWAP1 RETURN JUMPDEST SWAP2 SWAP1 DUP3 SUB SWAP2 DUP3 GT PUSH2 0x6A0 JUMPI JUMP JUMPDEST PUSH4 0x4E487B71 PUSH1 0xE0 SHL PUSH1 0x0 MSTORE PUSH1 0x11 PUSH1 0x4 MSTORE PUSH1 0x24 PUSH1 0x0 REVERT JUMPDEST DUP2 ISZERO PUSH2 0x6C0 JUMPI DIV SWAP1 JUMP JUMPDEST PUSH4 0x4E487B71 PUSH1 0xE0 SHL PUSH1 0x0 MSTORE PUSH1 0x12 PUSH1 0x4 MSTORE PUSH1 0x24 PUSH1 0x0 REVERT JUMPDEST PUSH32 0x0 DUP1 ISZERO PUSH2 0x7CB JUMPI PUSH2 0x727 PUSH32 0x0 TIMESTAMP PUSH2 0x693 JUMP JUMPDEST SWAP1 DUP1 DUP3 LT PUSH2 0x7C4 JUMPI PUSH2 0x738 SWAP2 PUSH2 0x693 JUMP JUMPDEST PUSH32 0x0 DUP1 DUP3 LT ISZERO PUSH2 0x79E JUMPI PUSH32 0x0 DUP3 DUP2 MUL SWAP3 DUP2 DUP5 DIV EQ SWAP1 ISZERO OR ISZERO PUSH2 0x6A0 JUMPI PUSH2 0x79B SWAP2 PUSH2 0x6B6 JUMP JUMPDEST SWAP1 JUMP JUMPDEST POP POP PUSH32 0x0 SWAP1 JUMP JUMPDEST POP POP PUSH1 0x0 SWAP1 JUMP JUMPDEST POP PUSH32 0x0 SWAP1 JUMP JUMPDEST SWAP2 SWAP1 DUP3 ADD DUP1 SWAP3 GT PUSH2 0x6A0 JUMPI JUMP INVALID LOG2 PUSH5 0x6970667358 0x22 SLT KECCAK256 0x1F 0xA9 ISZERO 0xC4 SSTORE 0xC1 RETURNDATACOPY PUSH11 0xA7E15FB272A54C3F71599B 0xCA 0xB7 0x2E CALLVALUE SWAP14 0xE7 NOT EXP NUMBER BALANCE TIMESTAMP 0xE4 0xBD PUSH5 0x736F6C6343 STOP ADDMOD EQ STOP CALLER PUSH1 0xA0 CALLVALUE PUSH2 0xAE JUMPI PUSH1 0x1F PUSH2 0x569 CODESIZE DUP2 SWAP1 SUB SWAP2 DUP3 ADD PUSH1 0x1F NOT AND DUP4 ADD SWAP2 PUSH1 0x1 PUSH1 0x1 PUSH1 0x40 SHL SUB DUP4 GT DUP5 DUP5 LT OR PUSH2 0xB3 JUMPI DUP1 DUP5 SWAP3 PUSH1 0x60 SWAP5 PUSH1 0x40 MSTORE DUP4 CODECOPY DUP2 ADD SUB SLT PUSH2 0xAE JUMPI PUSH2 0x47 DUP2 PUSH2 0xC9 JUMP JUMPDEST PUSH2 0x5F PUSH1 0x40 PUSH2 0x58 PUSH1 0x20 DUP6 ADD PUSH2 0xC9 JUMP JUMPDEST SWAP4 ADD PUSH2 0xC9 JUMP JUMPDEST SWAP2 PUSH1 0x1 DUP1 PUSH1 0xA0 SHL SUB SWAP1 DUP2 PUSH1 0x1 DUP1 PUSH1 0xA0 SHL SUB NOT SWAP4 AND DUP4 PUSH1 0x0 SLOAD AND OR PUSH1 0x0 SSTORE AND SWAP1 PUSH1 0x1 SLOAD AND OR PUSH1 0x1 SSTORE PUSH1 0x80 MSTORE PUSH1 0x40 MLOAD PUSH2 0x48B SWAP1 DUP2 PUSH2 0xDE DUP3 CODECOPY PUSH1 0x80 MLOAD DUP2 DUP2 DUP2 PUSH1 0xC6 ADD MSTORE DUP2 DUP2 PUSH2 0x23A ADD MSTORE PUSH2 0x2EF ADD MSTORE RETURN JUMPDEST PUSH1 0x0 DUP1 REVERT JUMPDEST PUSH4 0x4E487B71 PUSH1 0xE0 SHL PUSH1 0x0 MSTORE PUSH1 0x41 PUSH1 0x4 MSTORE PUSH1 0x24 PUSH1 0x0 REVERT JUMPDEST MLOAD SWAP1 PUSH1 0x1 PUSH1 0x1 PUSH1 0xA0 SHL SUB DUP3 AND DUP3 SUB PUSH2 0xAE JUMPI JUMP INVALID PUSH1 0x80 PUSH1 0x40 DUP2 DUP2 MSTORE PUSH1 0x4 SWAP2 DUP3 CALLDATASIZE LT ISZERO PUSH2 0x16 JUMPI PUSH1 0x0 DUP1 REVERT JUMPDEST PUSH1 0x0 SWAP3 DUP4 CALLDATALOAD PUSH1 0xE0 SHR SWAP2 DUP3 PUSH4 0x158EF93E EQ PUSH2 0x431 JUMPI POP DUP2 PUSH4 0x16F0115B EQ PUSH2 0x408 JUMPI DUP2 PUSH4 0x40519A53 EQ PUSH2 0x2CE JUMPI DUP2 PUSH4 0x485CC955 EQ PUSH2 0x201 JUMPI DUP2 PUSH4 0x6F43F17B EQ PUSH2 0x139 JUMPI POP DUP1 PUSH4 0x7B80889B EQ PUSH2 0x11B JUMPI DUP1 PUSH4 0xA4E2D634 EQ PUSH2 0xF5 JUMPI DUP1 PUSH4 0xC45A0155 EQ PUSH2 0xB2 JUMPI PUSH4 0xFC0C546A EQ PUSH2 0x88 JUMPI PUSH1 0x0 DUP1 REVERT JUMPDEST CALLVALUE PUSH2 0xAE JUMPI DUP2 PUSH1 0x3 NOT CALLDATASIZE ADD SLT PUSH2 0xAE JUMPI SWAP1 SLOAD SWAP1 MLOAD PUSH1 0x1 PUSH1 0x1 PUSH1 0xA0 SHL SUB SWAP1 SWAP2 AND DUP2 MSTORE PUSH1 0x20 SWAP1 RETURN JUMPDEST POP DUP1 REVERT JUMPDEST POP CALLVALUE PUSH2 0xAE JUMPI DUP2 PUSH1 0x3 NOT CALLDATASIZE ADD SLT PUSH2 0xAE JUMPI MLOAD PUSH32 0x0 PUSH1 0x1 PUSH1 0x1 PUSH1 0xA0 SHL SUB AND DUP2 MSTORE PUSH1 0x20 SWAP1 RETURN JUMPDEST POP CALLVALUE PUSH2 0xAE JUMPI DUP2 PUSH1 0x3 NOT CALLDATASIZE ADD SLT PUSH2 0xAE JUMPI PUSH1 0x20 SWAP1 PUSH1 0xFF PUSH1 0x1 SLOAD PUSH1 0xA0 SHR AND SWAP1 MLOAD SWAP1 ISZERO ISZERO DUP2 MSTORE RETURN JUMPDEST POP CALLVALUE PUSH2 0xAE JUMPI DUP2 PUSH1 0x3 NOT CALLDATASIZE ADD SLT PUSH2 0xAE JUMPI PUSH1 0x20 SWAP1 PUSH1 0x2 SLOAD SWAP1 MLOAD SWAP1 DUP2 MSTORE RETURN JUMPDEST SWAP2 SWAP1 POP CALLVALUE PUSH2 0x1D8 JUMPI DUP3 PUSH1 0x3 NOT CALLDATASIZE ADD SLT PUSH2 0x1D8 JUMPI PUSH1 0x1 SLOAD DUP2 MLOAD PUSH4 0x70A08231 PUSH1 0xE0 SHL DUP2 MSTORE ADDRESS DUP5 DUP3 ADD MSTORE SWAP1 PUSH1 0x20 SWAP1 DUP3 SWAP1 PUSH1 0x24 SWAP1 DUP3 SWAP1 PUSH1 0x1 PUSH1 0x1 PUSH1 0xA0 SHL SUB AND GAS STATICCALL SWAP3 DUP4 ISZERO PUSH2 0x1F7 JUMPI DUP5 SWAP4 PUSH2 0x18E JUMPI JUMPDEST PUSH1 0x20 DUP5 DUP5 MLOAD SWAP1 DUP2 MSTORE RETURN JUMPDEST SWAP1 SWAP2 SWAP3 POP PUSH1 0x20 SWAP1 RETURNDATASIZE DUP3 GT PUSH2 0x1EF JUMPI JUMPDEST PUSH1 0x1F DUP3 ADD PUSH1 0x1F NOT AND DUP4 ADD SWAP1 PUSH8 0xFFFFFFFFFFFFFFFF DUP3 GT DUP5 DUP4 LT OR PUSH2 0x1DC JUMPI POP PUSH1 0x20 SWAP2 DUP4 SWAP2 DUP6 MSTORE DUP2 ADD SUB SLT PUSH2 0x1D8 JUMPI PUSH1 0x20 SWAP3 POP MLOAD SWAP1 CODESIZE DUP1 PUSH2 0x184 JUMP JUMPDEST DUP3 DUP1 REVERT JUMPDEST PUSH4 0x4E487B71 PUSH1 0xE0 SHL DUP7 MSTORE PUSH1 0x41 SWAP1 MSTORE PUSH1 0x24 DUP6 REVERT JUMPDEST RETURNDATASIZE SWAP2 POP PUSH2 0x19D JUMP JUMPDEST DUP3 MLOAD RETURNDATASIZE DUP7 DUP3 RETURNDATACOPY RETURNDATASIZE SWAP1 REVERT JUMPDEST SWAP1 POP CALLVALUE PUSH2 0x1D8 JUMPI DUP2 PUSH1 0x3 NOT CALLDATASIZE ADD SLT PUSH2 0x1D8 JUMPI PUSH1 0x1 PUSH1 0x1 PUSH1 0xA0 SHL SUB SWAP1 DUP1 CALLDATALOAD DUP3 DUP2 AND SWAP2 SWAP1 DUP3 SWAP1 SUB PUSH2 0x2CA JUMPI PUSH1 0x24 CALLDATALOAD SWAP3 DUP1 DUP5 AND DUP1 SWAP5 SUB PUSH2 0x2C6 JUMPI PUSH32 0x0 AND CALLER SUB PUSH2 0x2B9 JUMPI PUSH1 0x1 SLOAD SWAP4 PUSH1 0xFF DUP6 PUSH1 0xA8 SHR AND PUSH2 0x2AD JUMPI DUP3 ISZERO PUSH2 0x2A0 JUMPI POP POP DUP4 SLOAD PUSH1 0x1 PUSH1 0x1 PUSH1 0xA0 SHL SUB NOT AND OR DUP4 SSTORE PUSH1 0x1 PUSH2 0xFF01 PUSH1 0xA0 SHL SUB NOT SWAP1 SWAP2 AND OR PUSH1 0x1 PUSH1 0xA8 SHL OR PUSH1 0x1 SSTORE DUP1 RETURN JUMPDEST MLOAD PUSH4 0xD92E233D PUSH1 0xE0 SHL DUP2 MSTORE REVERT JUMPDEST MLOAD PUSH3 0xDC149F PUSH1 0xE4 SHL DUP2 MSTORE REVERT JUMPDEST DUP4 MLOAD PUSH3 0x82B429 PUSH1 0xE8 SHL DUP2 MSTORE REVERT JUMPDEST DUP6 DUP1 REVERT JUMPDEST DUP5 DUP1 REVERT JUMPDEST SWAP1 POP CALLVALUE PUSH2 0x1D8 JUMPI PUSH1 0x20 CALLDATASIZE PUSH1 0x3 NOT ADD SLT PUSH2 0x1D8 JUMPI PUSH1 0x1 PUSH1 0x1 PUSH1 0xA0 SHL SUB SWAP1 DUP1 CALLDATALOAD SWAP1 PUSH32 0x0 DUP4 AND CALLER SUB PUSH2 0x2B9 JUMPI PUSH1 0x1 SLOAD PUSH1 0xFF DUP2 PUSH1 0xA0 SHR AND PUSH2 0x3FA JUMPI DUP3 ISZERO PUSH2 0x3EB JUMPI PUSH1 0xFF PUSH1 0xA0 SHL NOT DUP2 AND PUSH1 0x1 PUSH1 0xA0 SHL OR PUSH1 0x1 SSTORE PUSH1 0x2 DUP4 SWAP1 SSTORE DUP5 MLOAD PUSH4 0x23B872DD PUSH1 0xE0 SHL DUP8 MSTORE CALLER DUP4 MSTORE ADDRESS PUSH1 0x24 MSTORE PUSH1 0x44 DUP5 SWAP1 MSTORE SWAP2 SWAP1 DUP5 AND SWAP1 PUSH1 0x20 DUP8 PUSH1 0x64 DUP2 DUP1 DUP7 GAS CALL PUSH1 0x1 DUP9 MLOAD EQ DUP2 AND ISZERO PUSH2 0x3CC JUMPI JUMPDEST DUP4 DUP8 MSTORE DUP8 PUSH1 0x60 MSTORE ISZERO PUSH2 0x3B9 JUMPI POP POP POP PUSH1 0x20 PUSH32 0x104290E1E459304B774D131C3AC0FA84947303C64B8AE6CCE786374E13448942 SWAP2 DUP4 DUP7 SLOAD AND SWAP4 PUSH1 0x1 SLOAD AND SWAP5 MLOAD SWAP1 DUP2 MSTORE LOG3 DUP1 RETURN JUMPDEST PUSH4 0x5274AFE7 PUSH1 0xE0 SHL DUP4 MSTORE DUP3 ADD MSTORE PUSH1 0x24 SWAP2 POP REVERT JUMPDEST PUSH1 0x1 DUP2 ISZERO AND PUSH2 0x3E2 JUMPI DUP3 EXTCODESIZE ISZERO ISZERO RETURNDATASIZE ISZERO AND AND PUSH2 0x374 JUMP JUMPDEST DUP4 RETURNDATASIZE DUP10 DUP3 RETURNDATACOPY RETURNDATASIZE SWAP1 REVERT JUMPDEST POP DUP4 MLOAD PUSH4 0x1F2A2005 PUSH1 0xE0 SHL DUP2 MSTORE REVERT JUMPDEST POP DUP4 MLOAD PUSH3 0xDC149F PUSH1 0xE4 SHL DUP2 MSTORE REVERT JUMPDEST POP POP CALLVALUE PUSH2 0xAE JUMPI DUP2 PUSH1 0x3 NOT CALLDATASIZE ADD SLT PUSH2 0xAE JUMPI PUSH1 0x1 SLOAD SWAP1 MLOAD PUSH1 0x1 PUSH1 0x1 PUSH1 0xA0 SHL SUB SWAP1 SWAP2 AND DUP2 MSTORE PUSH1 0x20 SWAP1 RETURN JUMPDEST DUP5 SWAP1 CALLVALUE PUSH2 0xAE JUMPI DUP2 PUSH1 0x3 NOT CALLDATASIZE ADD SLT PUSH2 0xAE JUMPI PUSH1 0x20 SWAP1 PUSH1 0xFF PUSH1 0x1 SLOAD PUSH1 0xA8 SHR AND ISZERO ISZERO DUP2 MSTORE RETURN INVALID LOG2 PUSH5 0x6970667358 0x22 SLT KECCAK256 0xBF SDIV SELFDESTRUCT PUSH1 0xA6 0x1E 0x22 0xEC DUP1 0xEE 0x1F SHL PUSH15 0xF2835F0308DF53CBBA6CDBEA7A37DC MOD PUSH28 0x213D64736F6C63430008140033604060E08152346200044F5762000D BYTE DUP1 CODESIZE SUB DUP1 PUSH3 0x1E DUP2 PUSH3 0x454 JUMP JUMPDEST SWAP3 DUP4 CODECOPY DUP2 ADD SWAP2 PUSH1 0xA0 DUP3 DUP5 SUB SLT PUSH3 0x44F JUMPI DUP2 MLOAD PUSH1 0x1 PUSH1 0x1 PUSH1 0x40 SHL SUB SWAP4 SWAP1 DUP5 DUP2 GT PUSH3 0x44F JUMPI DUP2 PUSH3 0x51 SWAP2 DUP6 ADD PUSH3 0x47A JUMP JUMPDEST SWAP3 PUSH1 0x20 SWAP2 DUP3 DUP3 ADD MLOAD SWAP1 DUP7 DUP3 GT PUSH3 0x44F JUMPI PUSH3 0x6F SWAP2 DUP4 ADD PUSH3 0x47A JUMP JUMPDEST SWAP4 PUSH3 0x7D DUP5 DUP4 ADD PUSH3 0x4EC JUMP JUMPDEST SWAP1 PUSH3 0x9A PUSH1 0x80 PUSH3 0x92 PUSH1 0x60 DUP7 ADD PUSH3 0x4EC JUMP JUMPDEST SWAP5 ADD PUSH3 0x4EC JUMP JUMPDEST SWAP7 DUP2 MLOAD DUP2 DUP2 GT PUSH3 0x34F JUMPI PUSH1 0x3 SWAP1 DUP2 SLOAD SWAP1 PUSH1 0x1 SWAP5 DUP6 DUP4 DUP2 SHR SWAP4 AND DUP1 ISZERO PUSH3 0x444 JUMPI JUMPDEST DUP10 DUP5 LT EQ PUSH3 0x42E JUMPI DUP2 SWAP1 PUSH1 0x1F SWAP4 DUP5 DUP2 GT PUSH3 0x3D8 JUMPI JUMPDEST POP DUP10 SWAP1 DUP5 DUP4 GT PUSH1 0x1 EQ PUSH3 0x371 JUMPI PUSH1 0x0 SWAP3 PUSH3 0x365 JUMPI JUMPDEST POP POP PUSH1 0x0 NOT DUP3 DUP6 SHL SHR NOT AND SWAP1 DUP6 SHL OR DUP3 SSTORE JUMPDEST DUP9 MLOAD SWAP3 DUP4 GT PUSH3 0x34F JUMPI PUSH1 0x4 SWAP9 DUP10 SLOAD DUP6 DUP2 DUP2 SHR SWAP2 AND DUP1 ISZERO PUSH3 0x344 JUMPI JUMPDEST DUP10 DUP3 LT EQ PUSH3 0x32F JUMPI DUP3 DUP2 GT PUSH3 0x2E4 JUMPI JUMPDEST POP DUP8 SWAP2 DUP5 GT PUSH1 0x1 EQ PUSH3 0x279 JUMPI SWAP4 DUP4 SWAP5 SWAP2 DUP5 SWAP3 PUSH1 0x0 SWAP6 PUSH3 0x26D JUMPI JUMPDEST POP POP SHL SWAP3 PUSH1 0x0 NOT SWAP2 SHL SHR NOT AND OR DUP6 SSTORE JUMPDEST PUSH1 0x80 MSTORE CALLER PUSH1 0xA0 MSTORE TIMESTAMP PUSH1 0xC0 MSTORE PUSH1 0x1 PUSH1 0x1 PUSH1 0xA0 SHL SUB SWAP1 DUP2 AND SWAP5 DUP6 ISZERO PUSH3 0x256 JUMPI PUSH1 0x2 SLOAD SWAP6 PUSH12 0x71175249D9818853B8000000 SWAP7 DUP8 DUP2 ADD DUP1 SWAP2 GT PUSH3 0x241 JUMPI DUP5 SWAP6 SWAP7 SWAP8 PUSH1 0x0 SWAP2 PUSH1 0x2 SSTORE DUP3 DUP3 MSTORE DUP2 DUP7 MSTORE DUP8 DUP3 KECCAK256 DUP2 DUP2 SLOAD ADD SWAP1 SSTORE DUP8 MLOAD SWAP1 DUP2 MSTORE PUSH32 0xDDF252AD1BE2C89B69C2B068FC378DAA952BA7F163C4A11628F55A4DF523B3EF SWAP6 DUP7 SWAP2 LOG3 AND SWAP2 DUP3 ISZERO PUSH3 0x256 JUMPI PUSH1 0x2 SLOAD PUSH12 0x3077B58D5D37839198000000 SWAP1 DUP2 DUP2 ADD DUP1 SWAP2 GT PUSH3 0x241 JUMPI PUSH1 0x0 SWAP5 SWAP6 SWAP7 POP PUSH1 0x2 SSTORE DUP5 DUP5 MSTORE DUP4 DUP3 MSTORE DUP6 DUP5 KECCAK256 DUP2 DUP2 SLOAD ADD SWAP1 SSTORE DUP6 MLOAD SWAP1 DUP2 MSTORE LOG3 MLOAD PUSH2 0x818 SWAP1 DUP2 PUSH3 0x502 DUP3 CODECOPY PUSH1 0x80 MLOAD DUP2 PUSH2 0x65B ADD MSTORE PUSH1 0xA0 MLOAD DUP2 PUSH2 0x14F ADD MSTORE PUSH1 0xC0 MLOAD DUP2 PUSH2 0x30C ADD MSTORE RETURN JUMPDEST PUSH1 0x11 DUP8 PUSH4 0x4E487B71 PUSH1 0xE0 SHL PUSH1 0x0 MSTORE MSTORE PUSH1 0x24 PUSH1 0x0 REVERT JUMPDEST DUP4 MLOAD PUSH4 0xEC442F05 PUSH1 0xE0 SHL DUP2 MSTORE PUSH1 0x0 DUP2 DUP8 ADD MSTORE PUSH1 0x24 SWAP1 REVERT JUMPDEST ADD MLOAD SWAP4 POP CODESIZE DUP1 PUSH3 0x147 JUMP JUMPDEST SWAP2 SWAP1 PUSH1 0x1F NOT DUP5 AND SWAP3 DUP11 PUSH1 0x0 MSTORE DUP5 DUP10 PUSH1 0x0 KECCAK256 SWAP5 PUSH1 0x0 JUMPDEST DUP12 DUP10 DUP4 DUP4 LT PUSH3 0x2CC JUMPI POP POP POP LT PUSH3 0x2B1 JUMPI JUMPDEST POP POP POP POP DUP2 SHL ADD DUP6 SSTORE PUSH3 0x157 JUMP JUMPDEST ADD MLOAD SWAP1 PUSH1 0xF8 DUP5 PUSH1 0x0 NOT SWAP3 SHL AND SHR NOT AND SWAP1 SSTORE CODESIZE DUP1 DUP1 DUP1 PUSH3 0x2A2 JUMP JUMPDEST DUP7 DUP7 ADD MLOAD DUP10 SSTORE SWAP1 SWAP8 ADD SWAP7 SWAP5 DUP6 ADD SWAP5 DUP9 SWAP4 POP ADD PUSH3 0x28E JUMP JUMPDEST DUP11 PUSH1 0x0 MSTORE DUP9 PUSH1 0x0 KECCAK256 DUP4 DUP1 DUP8 ADD PUSH1 0x5 SHR DUP3 ADD SWAP3 DUP12 DUP9 LT PUSH3 0x325 JUMPI JUMPDEST ADD PUSH1 0x5 SHR ADD SWAP1 DUP7 SWAP1 JUMPDEST DUP3 DUP2 LT PUSH3 0x318 JUMPI POP POP PUSH3 0x12B JUMP JUMPDEST PUSH1 0x0 DUP2 SSTORE ADD DUP7 SWAP1 PUSH3 0x308 JUMP JUMPDEST SWAP3 POP DUP2 SWAP3 PUSH3 0x2FF JUMP JUMPDEST PUSH1 0x22 DUP12 PUSH4 0x4E487B71 PUSH1 0xE0 SHL PUSH1 0x0 MSTORE MSTORE PUSH1 0x24 PUSH1 0x0 REVERT JUMPDEST SWAP1 PUSH1 0x7F AND SWAP1 PUSH3 0x119 JUMP JUMPDEST PUSH4 0x4E487B71 PUSH1 0xE0 SHL PUSH1 0x0 MSTORE PUSH1 0x41 PUSH1 0x4 MSTORE PUSH1 0x24 PUSH1 0x0 REVERT JUMPDEST ADD MLOAD SWAP1 POP CODESIZE DUP1 PUSH3 0xEA JUMP JUMPDEST SWAP1 DUP8 SWAP4 POP PUSH1 0x1F NOT DUP4 AND SWAP2 DUP7 PUSH1 0x0 MSTORE DUP12 PUSH1 0x0 KECCAK256 SWAP3 PUSH1 0x0 JUMPDEST DUP14 DUP3 DUP3 LT PUSH3 0x3C1 JUMPI POP POP DUP5 GT PUSH3 0x3A8 JUMPI JUMPDEST POP POP POP DUP2 SHL ADD DUP3 SSTORE PUSH3 0xFC JUMP JUMPDEST ADD MLOAD PUSH1 0x0 NOT DUP4 DUP8 SHL PUSH1 0xF8 AND SHR NOT AND SWAP1 SSTORE CODESIZE DUP1 DUP1 PUSH3 0x39A JUMP JUMPDEST DUP4 DUP6 ADD MLOAD DUP7 SSTORE DUP12 SWAP8 SWAP1 SWAP6 ADD SWAP5 SWAP4 DUP5 ADD SWAP4 ADD PUSH3 0x387 JUMP JUMPDEST SWAP1 SWAP2 POP DUP5 PUSH1 0x0 MSTORE DUP10 PUSH1 0x0 KECCAK256 DUP5 DUP1 DUP6 ADD PUSH1 0x5 SHR DUP3 ADD SWAP3 DUP13 DUP7 LT PUSH3 0x424 JUMPI JUMPDEST SWAP2 DUP10 SWAP2 DUP7 SWAP6 SWAP5 SWAP4 ADD PUSH1 0x5 SHR ADD SWAP2 JUMPDEST DUP3 DUP2 LT PUSH3 0x414 JUMPI POP POP PUSH3 0xD3 JUMP JUMPDEST PUSH1 0x0 DUP2 SSTORE DUP6 SWAP5 POP DUP10 SWAP2 ADD PUSH3 0x404 JUMP JUMPDEST SWAP3 POP DUP2 SWAP3 PUSH3 0x3F6 JUMP JUMPDEST PUSH4 0x4E487B71 PUSH1 0xE0 SHL PUSH1 0x0 MSTORE PUSH1 0x22 PUSH1 0x4 MSTORE PUSH1 0x24 PUSH1 0x0 REVERT JUMPDEST SWAP3 PUSH1 0x7F AND SWAP3 PUSH3 0xBC JUMP JUMPDEST PUSH1 0x0 DUP1 REVERT JUMPDEST PUSH1 0x40 MLOAD SWAP2 SWAP1 PUSH1 0x1F ADD PUSH1 0x1F NOT AND DUP3 ADD PUSH1 0x1 PUSH1 0x1 PUSH1 0x40 SHL SUB DUP2 GT DUP4 DUP3 LT OR PUSH3 0x34F JUMPI PUSH1 0x40 MSTORE JUMP JUMPDEST SWAP2 SWAP1 DUP1 PUSH1 0x1F DUP5 ADD SLT ISZERO PUSH3 0x44F JUMPI DUP3 MLOAD PUSH1 0x1 PUSH1 0x1 PUSH1 0x40 SHL SUB DUP2 GT PUSH3 0x34F JUMPI PUSH1 0x20 SWAP1 PUSH3 0x4B0 PUSH1 0x1F DUP3 ADD PUSH1 0x1F NOT AND DUP4 ADD PUSH3 0x454 JUMP JUMPDEST SWAP3 DUP2 DUP5 MSTORE DUP3 DUP3 DUP8 ADD ADD GT PUSH3 0x44F JUMPI PUSH1 0x0 JUMPDEST DUP2 DUP2 LT PUSH3 0x4D8 JUMPI POP DUP3 PUSH1 0x0 SWAP4 SWAP5 SWAP6 POP ADD ADD MSTORE SWAP1 JUMP JUMPDEST DUP6 DUP2 ADD DUP4 ADD MLOAD DUP5 DUP3 ADD DUP5 ADD MSTORE DUP3 ADD PUSH3 0x4C2 JUMP JUMPDEST MLOAD SWAP1 PUSH1 0x1 PUSH1 0x1 PUSH1 0xA0 SHL SUB DUP3 AND DUP3 SUB PUSH3 0x44F JUMPI JUMP INVALID PUSH1 0x80 PUSH1 0x40 DUP2 DUP2 MSTORE PUSH1 0x4 SWAP2 DUP3 CALLDATASIZE LT ISZERO PUSH2 0x16 JUMPI PUSH1 0x0 DUP1 REVERT JUMPDEST PUSH1 0x0 SWAP3 DUP4 CALLDATALOAD PUSH1 0xE0 SHR SWAP2 DUP3 PUSH4 0x2D05D3F EQ PUSH2 0x647 JUMPI POP DUP2 PUSH4 0x6FDDE03 EQ PUSH2 0x56D JUMPI DUP2 PUSH4 0x95EA7B3 EQ PUSH2 0x4BF JUMPI DUP2 PUSH4 0x18160DDD EQ PUSH2 0x4A0 JUMPI DUP2 PUSH4 0x23B872DD EQ PUSH2 0x3A9 JUMPI DUP2 PUSH4 0x2BC73063 EQ PUSH2 0x382 JUMPI DUP2 PUSH4 0x313CE567 EQ PUSH2 0x366 JUMPI DUP2 PUSH4 0x70A08231 EQ PUSH2 0x32F JUMPI DUP2 PUSH4 0x790CA413 EQ PUSH2 0x2F4 JUMPI DUP2 PUSH4 0x902D55A5 EQ PUSH2 0x2CD JUMPI DUP2 PUSH4 0x95D89B41 EQ PUSH2 0x1AE JUMPI POP DUP1 PUSH4 0xA9059CBB EQ PUSH2 0x17E JUMPI DUP1 PUSH4 0xC45A0155 EQ PUSH2 0x13B JUMPI DUP1 PUSH4 0xDD62ED3E EQ PUSH2 0xF3 JUMPI PUSH4 0xEBDA16EB EQ PUSH2 0xCA JUMPI PUSH1 0x0 DUP1 REVERT JUMPDEST CALLVALUE PUSH2 0xEF JUMPI DUP2 PUSH1 0x3 NOT CALLDATASIZE ADD SLT PUSH2 0xEF JUMPI PUSH1 0x20 SWAP1 MLOAD PUSH12 0x71175249D9818853B8000000 DUP2 MSTORE RETURN JUMPDEST POP DUP1 REVERT JUMPDEST POP CALLVALUE PUSH2 0xEF JUMPI DUP1 PUSH1 0x3 NOT CALLDATASIZE ADD SLT PUSH2 0xEF JUMPI DUP1 PUSH1 0x20 SWAP3 PUSH2 0x110 PUSH2 0x6D3 JUMP JUMPDEST PUSH2 0x118 PUSH2 0x6EE JUMP JUMPDEST PUSH1 0x1 PUSH1 0x1 PUSH1 0xA0 SHL SUB SWAP2 DUP3 AND DUP4 MSTORE PUSH1 0x1 DUP7 MSTORE DUP4 DUP4 KECCAK256 SWAP2 AND DUP3 MSTORE DUP5 MSTORE KECCAK256 SLOAD SWAP1 MLOAD SWAP1 DUP2 MSTORE RETURN JUMPDEST POP CALLVALUE PUSH2 0xEF JUMPI DUP2 PUSH1 0x3 NOT CALLDATASIZE ADD SLT PUSH2 0xEF JUMPI MLOAD PUSH32 0x0 PUSH1 0x1 PUSH1 0x1 PUSH1 0xA0 SHL SUB AND DUP2 MSTORE PUSH1 0x20 SWAP1 RETURN JUMPDEST POP CALLVALUE PUSH2 0xEF JUMPI DUP1 PUSH1 0x3 NOT CALLDATASIZE ADD SLT PUSH2 0xEF JUMPI PUSH1 0x20 SWAP1 PUSH2 0x1A7 PUSH2 0x19D PUSH2 0x6D3 JUMP JUMPDEST PUSH1 0x24 CALLDATALOAD SWAP1 CALLER PUSH2 0x704 JUMP JUMPDEST MLOAD PUSH1 0x1 DUP2 MSTORE RETURN JUMPDEST DUP4 DUP4 CALLVALUE PUSH2 0xEF JUMPI DUP2 PUSH1 0x3 NOT CALLDATASIZE ADD SLT PUSH2 0xEF JUMPI DUP1 MLOAD SWAP1 DUP3 DUP5 SLOAD PUSH1 0x1 DUP2 DUP2 SHR SWAP1 DUP1 DUP4 AND SWAP3 DUP4 ISZERO PUSH2 0x2C3 JUMPI JUMPDEST PUSH1 0x20 SWAP4 DUP5 DUP5 LT DUP2 EQ PUSH2 0x2B0 JUMPI DUP4 DUP9 MSTORE SWAP1 DUP2 ISZERO PUSH2 0x294 JUMPI POP PUSH1 0x1 EQ PUSH2 0x23F JUMPI JUMPDEST POP POP POP DUP3 SWAP1 SUB PUSH1 0x1F ADD PUSH1 0x1F NOT AND DUP3 ADD SWAP3 PUSH8 0xFFFFFFFFFFFFFFFF DUP5 GT DUP4 DUP6 LT OR PUSH2 0x22C JUMPI POP DUP3 SWAP2 DUP3 PUSH2 0x228 SWAP3 MSTORE DUP3 PUSH2 0x68A JUMP JUMPDEST SUB SWAP1 RETURN JUMPDEST PUSH4 0x4E487B71 PUSH1 0xE0 SHL DUP2 MSTORE PUSH1 0x41 DUP6 MSTORE PUSH1 0x24 SWAP1 REVERT JUMPDEST DUP8 DUP8 MSTORE SWAP2 SWAP3 POP DUP6 SWAP2 DUP4 PUSH32 0x8A35ACFBC15FF81A39AE7D344FD709F28E8600B4AA8C65C6B64BFE7FE36BD19B JUMPDEST DUP4 DUP6 LT PUSH2 0x280 JUMPI POP POP POP POP DUP4 ADD ADD DUP6 DUP1 DUP1 PUSH2 0x1F6 JUMP JUMPDEST DUP1 SLOAD DUP9 DUP7 ADD DUP4 ADD MSTORE SWAP4 ADD SWAP3 DUP5 SWAP1 DUP3 ADD PUSH2 0x26A JUMP JUMPDEST PUSH1 0xFF NOT AND DUP8 DUP6 ADD MSTORE POP POP ISZERO ISZERO PUSH1 0x5 SHL DUP5 ADD ADD SWAP1 POP DUP6 DUP1 DUP1 PUSH2 0x1F6 JUMP JUMPDEST PUSH4 0x4E487B71 PUSH1 0xE0 SHL DUP10 MSTORE PUSH1 0x22 DUP11 MSTORE PUSH1 0x24 DUP10 REVERT JUMPDEST SWAP2 PUSH1 0x7F AND SWAP2 PUSH2 0x1D7 JUMP JUMPDEST POP POP CALLVALUE PUSH2 0xEF JUMPI DUP2 PUSH1 0x3 NOT CALLDATASIZE ADD SLT PUSH2 0xEF JUMPI PUSH1 0x20 SWAP1 MLOAD PUSH12 0xA18F07D736B90BE550000000 DUP2 MSTORE RETURN JUMPDEST POP POP CALLVALUE PUSH2 0xEF JUMPI DUP2 PUSH1 0x3 NOT CALLDATASIZE ADD SLT PUSH2 0xEF JUMPI PUSH1 0x20 SWAP1 MLOAD PUSH32 0x0 DUP2 MSTORE RETURN JUMPDEST POP POP CALLVALUE PUSH2 0xEF JUMPI PUSH1 0x20 CALLDATASIZE PUSH1 0x3 NOT ADD SLT PUSH2 0xEF JUMPI PUSH1 0x20 SWAP2 DUP2 SWAP1 PUSH1 0x1 PUSH1 0x1 PUSH1 0xA0 SHL SUB PUSH2 0x357 PUSH2 0x6D3 JUMP JUMPDEST AND DUP2 MSTORE DUP1 DUP5 MSTORE KECCAK256 SLOAD SWAP1 MLOAD SWAP1 DUP2 MSTORE RETURN JUMPDEST POP POP CALLVALUE PUSH2 0xEF JUMPI DUP2 PUSH1 0x3 NOT CALLDATASIZE ADD SLT PUSH2 0xEF JUMPI PUSH1 0x20 SWAP1 MLOAD PUSH1 0x12 DUP2 MSTORE RETURN JUMPDEST POP POP CALLVALUE PUSH2 0xEF JUMPI DUP2 PUSH1 0x3 NOT CALLDATASIZE ADD SLT PUSH2 0xEF JUMPI PUSH1 0x20 SWAP1 MLOAD PUSH12 0x3077B58D5D37839198000000 DUP2 MSTORE RETURN JUMPDEST SWAP1 POP DUP3 CALLVALUE PUSH2 0x49D JUMPI PUSH1 0x60 CALLDATASIZE PUSH1 0x3 NOT ADD SLT PUSH2 0x49D JUMPI PUSH2 0x3C5 PUSH2 0x6D3 JUMP JUMPDEST PUSH2 0x3CD PUSH2 0x6EE JUMP JUMPDEST SWAP2 PUSH1 0x44 CALLDATALOAD SWAP4 PUSH1 0x1 DUP1 PUSH1 0xA0 SHL SUB DUP4 AND DUP1 DUP4 MSTORE PUSH1 0x1 PUSH1 0x20 MSTORE DUP7 DUP4 KECCAK256 CALLER DUP5 MSTORE PUSH1 0x20 MSTORE DUP7 DUP4 KECCAK256 SLOAD SWAP2 PUSH1 0x0 NOT DUP4 LT PUSH2 0x409 JUMPI JUMPDEST PUSH1 0x20 DUP9 PUSH2 0x1A7 DUP10 DUP10 DUP10 PUSH2 0x704 JUMP JUMPDEST DUP7 DUP4 LT PUSH2 0x471 JUMPI DUP2 ISZERO PUSH2 0x45A JUMPI CALLER ISZERO PUSH2 0x443 JUMPI POP DUP3 MSTORE PUSH1 0x1 PUSH1 0x20 SWAP1 DUP2 MSTORE DUP7 DUP4 KECCAK256 CALLER DUP5 MSTORE DUP2 MSTORE SWAP2 DUP7 SWAP1 KECCAK256 SWAP1 DUP6 SWAP1 SUB SWAP1 SSTORE DUP3 SWAP1 PUSH2 0x1A7 DUP8 PUSH2 0x3FB JUMP JUMPDEST DUP8 MLOAD PUSH4 0x4A1406B1 PUSH1 0xE1 SHL DUP2 MSTORE SWAP1 DUP2 ADD DUP5 SWAP1 MSTORE PUSH1 0x24 SWAP1 REVERT JUMPDEST DUP8 MLOAD PUSH4 0xE602DF05 PUSH1 0xE0 SHL DUP2 MSTORE SWAP1 DUP2 ADD DUP5 SWAP1 MSTORE PUSH1 0x24 SWAP1 REVERT JUMPDEST DUP8 MLOAD PUSH4 0x7DC7A0D9 PUSH1 0xE1 SHL DUP2 MSTORE CALLER SWAP2 DUP2 ADD SWAP2 DUP3 MSTORE PUSH1 0x20 DUP3 ADD SWAP4 SWAP1 SWAP4 MSTORE PUSH1 0x40 DUP2 ADD DUP8 SWAP1 MSTORE DUP3 SWAP2 POP PUSH1 0x60 ADD SUB SWAP1 REVERT JUMPDEST DUP1 REVERT JUMPDEST POP POP CALLVALUE PUSH2 0xEF JUMPI DUP2 PUSH1 0x3 NOT CALLDATASIZE ADD SLT PUSH2 0xEF JUMPI PUSH1 0x20 SWAP1 PUSH1 0x2 SLOAD SWAP1 MLOAD SWAP1 DUP2 MSTORE RETURN JUMPDEST SWAP1 POP CALLVALUE PUSH2 0x569 JUMPI DUP2 PUSH1 0x3 NOT CALLDATASIZE ADD SLT PUSH2 0x569 JUMPI PUSH2 0x4D9 PUSH2 0x6D3 JUMP JUMPDEST PUSH1 0x24 CALLDATALOAD SWAP1 CALLER ISZERO PUSH2 0x552 JUMPI PUSH1 0x1 PUSH1 0x1 PUSH1 0xA0 SHL SUB AND SWAP2 DUP3 ISZERO PUSH2 0x53B JUMPI POP DUP1 DUP4 PUSH1 0x20 SWAP6 CALLER DUP2 MSTORE PUSH1 0x1 DUP8 MSTORE DUP2 DUP2 KECCAK256 DUP6 DUP3 MSTORE DUP8 MSTORE KECCAK256 SSTORE DUP3 MLOAD SWAP1 DUP2 MSTORE PUSH32 0x8C5BE1E5EBEC7D5BD14F71427D1E84F3DD0314C0F7B2291E5B200AC8C7C3B925 DUP5 CALLER SWAP3 LOG3 MLOAD PUSH1 0x1 DUP2 MSTORE RETURN JUMPDEST DUP4 MLOAD PUSH4 0x4A1406B1 PUSH1 0xE1 SHL DUP2 MSTORE SWAP1 DUP2 ADD DUP6 SWAP1 MSTORE PUSH1 0x24 SWAP1 REVERT JUMPDEST DUP4 MLOAD PUSH4 0xE602DF05 PUSH1 0xE0 SHL DUP2 MSTORE DUP1 DUP5 ADD DUP7 SWAP1 MSTORE PUSH1 0x24 SWAP1 REVERT JUMPDEST DUP3 DUP1 REVERT JUMPDEST DUP4 DUP4 CALLVALUE PUSH2 0xEF JUMPI DUP2 PUSH1 0x3 NOT CALLDATASIZE ADD SLT PUSH2 0xEF JUMPI DUP1 MLOAD SWAP1 DUP3 PUSH1 0x3 SLOAD PUSH1 0x1 DUP2 DUP2 SHR SWAP1 DUP1 DUP4 AND SWAP3 DUP4 ISZERO PUSH2 0x63D JUMPI JUMPDEST PUSH1 0x20 SWAP4 DUP5 DUP5 LT DUP2 EQ PUSH2 0x2B0 JUMPI DUP4 DUP9 MSTORE SWAP1 DUP2 ISZERO PUSH2 0x294 JUMPI POP PUSH1 0x1 EQ PUSH2 0x5E7 JUMPI POP POP POP DUP3 SWAP1 SUB PUSH1 0x1F ADD PUSH1 0x1F NOT AND DUP3 ADD SWAP3 PUSH8 0xFFFFFFFFFFFFFFFF DUP5 GT DUP4 DUP6 LT OR PUSH2 0x22C JUMPI POP DUP3 SWAP2 DUP3 PUSH2 0x228 SWAP3 MSTORE DUP3 PUSH2 0x68A JUMP JUMPDEST PUSH1 0x3 DUP8 MSTORE SWAP2 SWAP3 POP DUP6 SWAP2 DUP4 PUSH32 0xC2575A0E9E593C00F959F8C92F12DB2869C3395A3B0502D05E2516446F71F85B JUMPDEST DUP4 DUP6 LT PUSH2 0x629 JUMPI POP POP POP POP DUP4 ADD ADD DUP6 DUP1 DUP1 PUSH2 0x1F6 JUMP JUMPDEST DUP1 SLOAD DUP9 DUP7 ADD DUP4 ADD MSTORE SWAP4 ADD SWAP3 DUP5 SWAP1 DUP3 ADD PUSH2 0x613 JUMP JUMPDEST SWAP2 PUSH1 0x7F AND SWAP2 PUSH2 0x597 JUMP JUMPDEST DUP5 SWAP1 CALLVALUE PUSH2 0xEF JUMPI DUP2 PUSH1 0x3 NOT CALLDATASIZE ADD SLT PUSH2 0xEF JUMPI PUSH32 0x0 PUSH1 0x1 PUSH1 0x1 PUSH1 0xA0 SHL SUB AND DUP2 MSTORE PUSH1 0x20 SWAP1 RETURN JUMPDEST PUSH1 0x20 DUP1 DUP3 MSTORE DUP3 MLOAD DUP2 DUP4 ADD DUP2 SWAP1 MSTORE SWAP1 SWAP4 SWAP3 PUSH1 0x0 JUMPDEST DUP3 DUP2 LT PUSH2 0x6BF JUMPI POP POP PUSH1 0x40 SWAP3 SWAP4 POP PUSH1 0x0 DUP4 DUP3 DUP5 ADD ADD MSTORE PUSH1 0x1F DUP1 NOT SWAP2 ADD AND ADD ADD SWAP1 JUMP JUMPDEST DUP2 DUP2 ADD DUP7 ADD MLOAD DUP5 DUP3 ADD PUSH1 0x40 ADD MSTORE DUP6 ADD PUSH2 0x69D JUMP JUMPDEST PUSH1 0x4 CALLDATALOAD SWAP1 PUSH1 0x1 PUSH1 0x1 PUSH1 0xA0 SHL SUB DUP3 AND DUP3 SUB PUSH2 0x6E9 JUMPI JUMP JUMPDEST PUSH1 0x0 DUP1 REVERT JUMPDEST PUSH1 0x24 CALLDATALOAD SWAP1 PUSH1 0x1 PUSH1 0x1 PUSH1 0xA0 SHL SUB DUP3 AND DUP3 SUB PUSH2 0x6E9 JUMPI JUMP JUMPDEST SWAP2 PUSH1 0x1 PUSH1 0x1 PUSH1 0xA0 SHL SUB DUP1 DUP5 AND SWAP3 DUP4 ISZERO PUSH2 0x7C9 JUMPI AND SWAP3 DUP4 ISZERO PUSH2 0x7B0 JUMPI PUSH1 0x0 SWAP1 DUP4 DUP3 MSTORE DUP2 PUSH1 0x20 MSTORE PUSH1 0x40 DUP3 KECCAK256 SLOAD SWAP1 DUP4 DUP3 LT PUSH2 0x77E JUMPI POP SWAP2 PUSH1 0x40 DUP3 DUP3 PUSH32 0xDDF252AD1BE2C89B69C2B068FC378DAA952BA7F163C4A11628F55A4DF523B3EF SWAP6 DUP8 PUSH1 0x20 SWAP7 MSTORE DUP3 DUP7 MSTORE SUB DUP3 DUP3 KECCAK256 SSTORE DUP7 DUP2 MSTORE KECCAK256 DUP2 DUP2 SLOAD ADD SWAP1 SSTORE PUSH1 0x40 MLOAD SWAP1 DUP2 MSTORE LOG3 JUMP JUMPDEST PUSH1 0x40 MLOAD PUSH4 0x391434E3 PUSH1 0xE2 SHL DUP2 MSTORE PUSH1 0x1 PUSH1 0x1 PUSH1 0xA0 SHL SUB SWAP2 SWAP1 SWAP2 AND PUSH1 0x4 DUP3 ADD MSTORE PUSH1 0x24 DUP2 ADD SWAP2 SWAP1 SWAP2 MSTORE PUSH1 0x44 DUP2 ADD DUP4 SWAP1 MSTORE PUSH1 0x64 SWAP1 REVERT JUMPDEST PUSH1 0x40 MLOAD PUSH4 0xEC442F05 PUSH1 0xE0 SHL DUP2 MSTORE PUSH1 0x0 PUSH1 0x4 DUP3 ADD MSTORE PUSH1 0x24 SWAP1 REVERT JUMPDEST PUSH1 0x40 MLOAD PUSH4 0x4B637E8F PUSH1 0xE1 SHL DUP2 MSTORE PUSH1 0x0 PUSH1 0x4 DUP3 ADD MSTORE PUSH1 0x24 SWAP1 REVERT INVALID LOG2 PUSH5 0x6970667358 0x22 SLT KECCAK256 SLOAD 0xFB SWAP5 0x1F CALLDATALOAD GT CALLVALUE 0xEF 0xF 0xD 0xB4 SWAP13 REVERT SWAP8 SWAP2 PUSH7 0x4E2F634F4ECEC1 0xAB BLOCKHASH 0xBC LOG0 0xBC 0x24 SIGNEXTEND XOR 0x4C PUSH5 0x736F6C6343 STOP ADDMOD EQ STOP CALLER LOG2 PUSH5 0x6970667358 0x22 SLT KECCAK256 SSTORE DUP9 0xDF PUSH8 0x1703B8929D8CE3B9 DELEGATECALL EXTCODEHASH 0xDA SGT 0xB5 0xEB 0xF PUSH22 0xEB83DD1B1097554EF507902B64736F6C634300081400 CALLER "},"methodIdentifiers":{"VIRTUAL_MARKET_CAP()":"273f691d","VIRTUAL_PRICE()":"c6c54925","allTokens(uint256)":"634282af","creatorTokens(address,uint256)":"db3fa4cc","feeVault()":"478222c2","getAllTokens()":"2a5c792a","getTokenCount()":"78a89567","getTokenInfo(address)":"1f69565f","getTokenSocials(address)":"934544d6","getTokensByCreator(address)":"d5c71275","isKaboomToken(address)":"918a5f3a","launchToken(string,string,uint256,uint256,string,string,string,string)":"b82b2576","platformWallet()":"fa2af9da","tokenInfo(address)":"f5dab711","wCELO()":"930c7976"}}}}}