{"src/KaboomCreatorVault.sol":{"KaboomCreatorVault":{"abi":[{"inputs":[{"internalType":"address","name":"token_","type":"address"},{"internalType":"address","name":"creator_","type":"address"},{"internalType":"uint256","name":"lockDuration_","type":"uint256"},{"internalType":"uint256","name":"allocation_","type":"uint256"}],"stateMutability":"nonpayable","type":"constructor"},{"inputs":[],"name":"AlreadyInitialized","type":"error"},{"inputs":[],"name":"InvalidDuration","type":"error"},{"inputs":[],"name":"NothingToClaim","type":"error"},{"inputs":[{"internalType":"address","name":"token","type":"address"}],"name":"SafeERC20FailedOperation","type":"error"},{"inputs":[],"name":"Unauthorized","type":"error"},{"inputs":[],"name":"ZeroAddress","type":"error"},{"anonymous":false,"inputs":[{"indexed":true,"internalType":"address","name":"creator","type":"address"},{"indexed":false,"internalType":"uint256","name":"amount","type":"uint256"},{"indexed":false,"internalType":"uint256","name":"totalClaimed","type":"uint256"}],"name":"TokensClaimed","type":"event"},{"inputs":[],"name":"DURATION_180_DAYS","outputs":[{"internalType":"uint256","name":"","type":"uint256"}],"stateMutability":"view","type":"function"},{"inputs":[],"name":"DURATION_30_DAYS","outputs":[{"internalType":"uint256","name":"","type":"uint256"}],"stateMutability":"view","type":"function"},{"inputs":[],"name":"DURATION_365_DAYS","outputs":[{"internalType":"uint256","name":"","type":"uint256"}],"stateMutability":"view","type":"function"},{"inputs":[],"name":"DURATION_7_DAYS","outputs":[{"internalType":"uint256","name":"","type":"uint256"}],"stateMutability":"view","type":"function"},{"inputs":[],"name":"DURATION_INSTANT","outputs":[{"internalType":"uint256","name":"","type":"uint256"}],"stateMutability":"view","type":"function"},{"inputs":[],"name":"claim","outputs":[],"stateMutability":"nonpayable","type":"function"},{"inputs":[],"name":"claimable","outputs":[{"internalType":"uint256","name":"","type":"uint256"}],"stateMutability":"view","type":"function"},{"inputs":[],"name":"claimed","outputs":[{"internalType":"uint256","name":"","type":"uint256"}],"stateMutability":"view","type":"function"},{"inputs":[],"name":"createdAt","outputs":[{"internalType":"uint256","name":"","type":"uint256"}],"stateMutability":"view","type":"function"},{"inputs":[],"name":"creator","outputs":[{"internalType":"address","name":"","type":"address"}],"stateMutability":"view","type":"function"},{"inputs":[],"name":"factory","outputs":[{"internalType":"address","name":"","type":"address"}],"stateMutability":"view","type":"function"},{"inputs":[],"name":"getStatus","outputs":[{"internalType":"bool","name":"isLocked","type":"bool"},{"internalType":"uint256","name":"lockEndsAt","type":"uint256"},{"internalType":"uint256","name":"vestingEndsAt","type":"uint256"},{"internalType":"uint256","name":"percentVested","type":"uint256"}],"stateMutability":"view","type":"function"},{"inputs":[{"internalType":"address","name":"token_","type":"address"}],"name":"initialize","outputs":[],"stateMutability":"nonpayable","type":"function"},{"inputs":[],"name":"initialized","outputs":[{"internalType":"bool","name":"","type":"bool"}],"stateMutability":"view","type":"function"},{"inputs":[],"name":"lockDuration","outputs":[{"internalType":"uint256","name":"","type":"uint256"}],"stateMutability":"view","type":"function"},{"inputs":[],"name":"token","outputs":[{"internalType":"address","name":"","type":"address"}],"stateMutability":"view","type":"function"},{"inputs":[],"name":"totalAllocation","outputs":[{"internalType":"uint256","name":"","type":"uint256"}],"stateMutability":"view","type":"function"},{"inputs":[],"name":"vestedAmount","outputs":[{"internalType":"uint256","name":"","type":"uint256"}],"stateMutability":"view","type":"function"},{"inputs":[],"name":"vestingDuration","outputs":[{"internalType":"uint256","name":"","type":"uint256"}],"stateMutability":"view","type":"function"}],"evm":{"bytecode":{"linkReferences":{},"object":"6101403461017757601f6109da38819003918201601f19168301916001600160401b0383118484101761017c578084926080946040528339810103126101775761004881610192565b5061005560208201610192565b60606040830151920151908215158061016a575b8061015d575b80610150575b80610142575b610130576080523360a0524260c0528160e0526101009182526101209081526040519061083392836101a784396080518381816103860152610664015260a0518381816101bc0152610256015260c05183818161016f015281816104d20152610702015260e0518381816104b10152818161062d01526106d80152518281816104fc015281816105f2015261073a0152518181816103460152818161054901528181610763015281816107a201526107ce0152f35b604051637616640160e01b8152600490fd5b506301e1338083141561007b565b5062ed4e00831415610075565b5062278d0083141561006f565b5062093a80831415610069565b600080fd5b634e487b7160e01b600052604160045260246000fd5b51906001600160a01b03821682036101775756fe608060408181526004918236101561001657600080fd5b600092833560e01c91826302d05d3f146106505750816304554443146106155781631514617e146105da578163158ef93e146105b657816344b1231f146105995781634e69d5601461049a5781634e71d92d1461036957816379203dc41461032e57816382816125146103105781638cb7d625146102f25781638e14af1c146102d3578163af38d757146102a3578163afb70ba114610285578163c45a015514610241578163c4d66de81461019257508063cf09e0d014610158578063e834a8341461013a578063ef475a49146101205763fc0c546a146100f657600080fd5b3461011c578160031936011261011c57905490516001600160a01b039091168152602090f35b5080fd5b503461011c578160031936011261011c5751908152602090f35b503461011c578160031936011261011c576020906001549051908152f35b503461011c578160031936011261011c57602090517f00000000000000000000000000000000000000000000000000000000000000008152f35b83833461011c57602036600319011261011c5782356001600160a01b038181169182900361023d577f000000000000000000000000000000000000000000000000000000000000000016330361022e576002549160ff8316610220578115610211575082546001600160a01b03191617825560ff191660011760025580f35b5163d92e233d60e01b81528490fd5b5162dc149f60e41b81528490fd5b81516282b42960e81b81528490fd5b8380fd5b50503461011c578160031936011261011c57517f00000000000000000000000000000000000000000000000000000000000000006001600160a01b03168152602090f35b50503461011c578160031936011261011c576020905162ed4e008152f35b50503461011c578160031936011261011c576020906102cc6102c36106d6565b60015490610693565b9051908152f35b50503461011c578160031936011261011c57602090516301e133808152f35b50503461011c578160031936011261011c576020905162093a808152f35b50503461011c578160031936011261011c576020905162278d008152f35b50503461011c578160031936011261011c57602090517f00000000000000000000000000000000000000000000000000000000000000008152f35b919050346104965782600319360112610496576001600160a01b037f000000000000000000000000000000000000000000000000000000000000000081169233849003610489576103b86106d6565b916103c66001548094610693565b92831561047957836103d7916107f0565b60015585541683519163a9059cbb60e01b87528581528360245260208760448180865af1600188511481161561045a575b8386521561044757505050907f9923b4306c6c030f2bdfbf156517d5983b87e15b96176da122cd4f2effa4ba7b9160015482519182526020820152a280f35b635274afe760e01b835282015260249150fd5b600181151661047057823b15153d151616610408565b833d89823e3d90fd5b84516312d37ee560e31b81528390fd5b82516282b42960e81b8152fd5b8280fd5b83833461011c578160031936011261011c576104f67f00000000000000000000000000000000000000000000000000000000000000007f00000000000000000000000000000000000000000000000000000000000000006107f0565b916105217f0000000000000000000000000000000000000000000000000000000000000000846107f0565b9061052a6106d6565b9060648202918083046064149015171561058657506080945061056e907f0000000000000000000000000000000000000000000000000000000000000000906106b6565b91805193804210855260208501528301526060820152f35b634e487b7160e01b815260118652602490fd5b50503461011c578160031936011261011c576020906102cc6106d6565b50503461011c578160031936011261011c5760209060ff6002541690519015158152f35b50503461011c578160031936011261011c57602090517f00000000000000000000000000000000000000000000000000000000000000008152f35b50503461011c578160031936011261011c57602090517f00000000000000000000000000000000000000000000000000000000000000008152f35b84903461011c578160031936011261011c577f00000000000000000000000000000000000000000000000000000000000000006001600160a01b03168152602090f35b919082039182116106a057565b634e487b7160e01b600052601160045260246000fd5b81156106c0570490565b634e487b7160e01b600052601260045260246000fd5b7f000000000000000000000000000000000000000000000000000000000000000080156107cb576107277f000000000000000000000000000000000000000000000000000000000000000042610693565b908082106107c45761073891610693565b7f00000000000000000000000000000000000000000000000000000000000000008082101561079e577f00000000000000000000000000000000000000000000000000000000000000008281029281840414901517156106a05761079b916106b6565b90565b50507f000000000000000000000000000000000000000000000000000000000000000090565b5050600090565b507f000000000000000000000000000000000000000000000000000000000000000090565b919082018092116106a05756fea26469706673582212201fa915c455c13e6aa7e15fb272a54c3f71599bcab72e349de7190a433142e4bd64736f6c63430008140033","opcodes":"PUSH2 0x140 CALLVALUE PUSH2 0x177 JUMPI PUSH1 0x1F PUSH2 0x9DA CODESIZE DUP2 SWAP1 SUB SWAP2 DUP3 ADD PUSH1 0x1F NOT AND DUP4 ADD SWAP2 PUSH1 0x1 PUSH1 0x1 PUSH1 0x40 SHL SUB DUP4 GT DUP5 DUP5 LT OR PUSH2 0x17C JUMPI DUP1 DUP5 SWAP3 PUSH1 0x80 SWAP5 PUSH1 0x40 MSTORE DUP4 CODECOPY DUP2 ADD SUB SLT PUSH2 0x177 JUMPI PUSH2 0x48 DUP2 PUSH2 0x192 JUMP JUMPDEST POP PUSH2 0x55 PUSH1 0x20 DUP3 ADD PUSH2 0x192 JUMP JUMPDEST PUSH1 0x60 PUSH1 0x40 DUP4 ADD MLOAD SWAP3 ADD MLOAD SWAP1 DUP3 ISZERO ISZERO DUP1 PUSH2 0x16A JUMPI JUMPDEST DUP1 PUSH2 0x15D JUMPI JUMPDEST DUP1 PUSH2 0x150 JUMPI JUMPDEST DUP1 PUSH2 0x142 JUMPI JUMPDEST PUSH2 0x130 JUMPI PUSH1 0x80 MSTORE CALLER PUSH1 0xA0 MSTORE TIMESTAMP PUSH1 0xC0 MSTORE DUP2 PUSH1 0xE0 MSTORE PUSH2 0x100 SWAP2 DUP3 MSTORE PUSH2 0x120 SWAP1 DUP2 MSTORE PUSH1 0x40 MLOAD SWAP1 PUSH2 0x833 SWAP3 DUP4 PUSH2 0x1A7 DUP5 CODECOPY PUSH1 0x80 MLOAD DUP4 DUP2 DUP2 PUSH2 0x386 ADD MSTORE PUSH2 0x664 ADD MSTORE PUSH1 0xA0 MLOAD DUP4 DUP2 DUP2 PUSH2 0x1BC ADD MSTORE PUSH2 0x256 ADD MSTORE PUSH1 0xC0 MLOAD DUP4 DUP2 DUP2 PUSH2 0x16F ADD MSTORE DUP2 DUP2 PUSH2 0x4D2 ADD MSTORE PUSH2 0x702 ADD MSTORE PUSH1 0xE0 MLOAD DUP4 DUP2 DUP2 PUSH2 0x4B1 ADD MSTORE DUP2 DUP2 PUSH2 0x62D ADD MSTORE PUSH2 0x6D8 ADD MSTORE MLOAD DUP3 DUP2 DUP2 PUSH2 0x4FC ADD MSTORE DUP2 DUP2 PUSH2 0x5F2 ADD MSTORE PUSH2 0x73A ADD MSTORE MLOAD DUP2 DUP2 DUP2 PUSH2 0x346 ADD MSTORE DUP2 DUP2 PUSH2 0x549 ADD MSTORE DUP2 DUP2 PUSH2 0x763 ADD MSTORE DUP2 DUP2 PUSH2 0x7A2 ADD MSTORE PUSH2 0x7CE ADD MSTORE RETURN JUMPDEST PUSH1 0x40 MLOAD PUSH4 0x76166401 PUSH1 0xE0 SHL DUP2 MSTORE PUSH1 0x4 SWAP1 REVERT JUMPDEST POP PUSH4 0x1E13380 DUP4 EQ ISZERO PUSH2 0x7B JUMP JUMPDEST POP PUSH3 0xED4E00 DUP4 EQ ISZERO PUSH2 0x75 JUMP JUMPDEST POP PUSH3 0x278D00 DUP4 EQ ISZERO PUSH2 0x6F JUMP JUMPDEST POP PUSH3 0x93A80 DUP4 EQ ISZERO PUSH2 0x69 JUMP JUMPDEST PUSH1 0x0 DUP1 REVERT JUMPDEST PUSH4 0x4E487B71 PUSH1 0xE0 SHL PUSH1 0x0 MSTORE PUSH1 0x41 PUSH1 0x4 MSTORE PUSH1 0x24 PUSH1 0x0 REVERT JUMPDEST MLOAD SWAP1 PUSH1 0x1 PUSH1 0x1 PUSH1 0xA0 SHL SUB DUP3 AND DUP3 SUB PUSH2 0x177 JUMPI JUMP INVALID PUSH1 0x80 PUSH1 0x40 DUP2 DUP2 MSTORE PUSH1 0x4 SWAP2 DUP3 CALLDATASIZE LT ISZERO PUSH2 0x16 JUMPI PUSH1 0x0 DUP1 REVERT JUMPDEST PUSH1 0x0 SWAP3 DUP4 CALLDATALOAD PUSH1 0xE0 SHR SWAP2 DUP3 PUSH4 0x2D05D3F EQ PUSH2 0x650 JUMPI POP DUP2 PUSH4 0x4554443 EQ PUSH2 0x615 JUMPI DUP2 PUSH4 0x1514617E EQ PUSH2 0x5DA JUMPI DUP2 PUSH4 0x158EF93E EQ PUSH2 0x5B6 JUMPI DUP2 PUSH4 0x44B1231F EQ PUSH2 0x599 JUMPI DUP2 PUSH4 0x4E69D560 EQ PUSH2 0x49A JUMPI DUP2 PUSH4 0x4E71D92D EQ PUSH2 0x369 JUMPI DUP2 PUSH4 0x79203DC4 EQ PUSH2 0x32E JUMPI DUP2 PUSH4 0x82816125 EQ PUSH2 0x310 JUMPI DUP2 PUSH4 0x8CB7D625 EQ PUSH2 0x2F2 JUMPI DUP2 PUSH4 0x8E14AF1C EQ PUSH2 0x2D3 JUMPI DUP2 PUSH4 0xAF38D757 EQ PUSH2 0x2A3 JUMPI DUP2 PUSH4 0xAFB70BA1 EQ PUSH2 0x285 JUMPI DUP2 PUSH4 0xC45A0155 EQ PUSH2 0x241 JUMPI DUP2 PUSH4 0xC4D66DE8 EQ PUSH2 0x192 JUMPI POP DUP1 PUSH4 0xCF09E0D0 EQ PUSH2 0x158 JUMPI DUP1 PUSH4 0xE834A834 EQ PUSH2 0x13A JUMPI DUP1 PUSH4 0xEF475A49 EQ PUSH2 0x120 JUMPI PUSH4 0xFC0C546A EQ PUSH2 0xF6 JUMPI PUSH1 0x0 DUP1 REVERT JUMPDEST CALLVALUE PUSH2 0x11C JUMPI DUP2 PUSH1 0x3 NOT CALLDATASIZE ADD SLT PUSH2 0x11C JUMPI SWAP1 SLOAD SWAP1 MLOAD PUSH1 0x1 PUSH1 0x1 PUSH1 0xA0 SHL SUB SWAP1 SWAP2 AND DUP2 MSTORE PUSH1 0x20 SWAP1 RETURN JUMPDEST POP DUP1 REVERT JUMPDEST POP CALLVALUE PUSH2 0x11C JUMPI DUP2 PUSH1 0x3 NOT CALLDATASIZE ADD SLT PUSH2 0x11C JUMPI MLOAD SWAP1 DUP2 MSTORE PUSH1 0x20 SWAP1 RETURN JUMPDEST POP CALLVALUE PUSH2 0x11C JUMPI DUP2 PUSH1 0x3 NOT CALLDATASIZE ADD SLT PUSH2 0x11C JUMPI PUSH1 0x20 SWAP1 PUSH1 0x1 SLOAD SWAP1 MLOAD SWAP1 DUP2 MSTORE RETURN JUMPDEST POP CALLVALUE PUSH2 0x11C JUMPI DUP2 PUSH1 0x3 NOT CALLDATASIZE ADD SLT PUSH2 0x11C JUMPI PUSH1 0x20 SWAP1 MLOAD PUSH32 0x0 DUP2 MSTORE RETURN JUMPDEST DUP4 DUP4 CALLVALUE PUSH2 0x11C JUMPI PUSH1 0x20 CALLDATASIZE PUSH1 0x3 NOT ADD SLT PUSH2 0x11C JUMPI DUP3 CALLDATALOAD PUSH1 0x1 PUSH1 0x1 PUSH1 0xA0 SHL SUB DUP2 DUP2 AND SWAP2 DUP3 SWAP1 SUB PUSH2 0x23D JUMPI PUSH32 0x0 AND CALLER SUB PUSH2 0x22E JUMPI PUSH1 0x2 SLOAD SWAP2 PUSH1 0xFF DUP4 AND PUSH2 0x220 JUMPI DUP2 ISZERO PUSH2 0x211 JUMPI POP DUP3 SLOAD PUSH1 0x1 PUSH1 0x1 PUSH1 0xA0 SHL SUB NOT AND OR DUP3 SSTORE PUSH1 0xFF NOT AND PUSH1 0x1 OR PUSH1 0x2 SSTORE DUP1 RETURN JUMPDEST MLOAD PUSH4 0xD92E233D PUSH1 0xE0 SHL DUP2 MSTORE DUP5 SWAP1 REVERT JUMPDEST MLOAD PUSH3 0xDC149F PUSH1 0xE4 SHL DUP2 MSTORE DUP5 SWAP1 REVERT JUMPDEST DUP2 MLOAD PUSH3 0x82B429 PUSH1 0xE8 SHL DUP2 MSTORE DUP5 SWAP1 REVERT JUMPDEST DUP4 DUP1 REVERT JUMPDEST POP POP CALLVALUE PUSH2 0x11C JUMPI DUP2 PUSH1 0x3 NOT CALLDATASIZE ADD SLT PUSH2 0x11C JUMPI MLOAD PUSH32 0x0 PUSH1 0x1 PUSH1 0x1 PUSH1 0xA0 SHL SUB AND DUP2 MSTORE PUSH1 0x20 SWAP1 RETURN JUMPDEST POP POP CALLVALUE PUSH2 0x11C JUMPI DUP2 PUSH1 0x3 NOT CALLDATASIZE ADD SLT PUSH2 0x11C JUMPI PUSH1 0x20 SWAP1 MLOAD PUSH3 0xED4E00 DUP2 MSTORE RETURN JUMPDEST POP POP CALLVALUE PUSH2 0x11C JUMPI DUP2 PUSH1 0x3 NOT CALLDATASIZE ADD SLT PUSH2 0x11C JUMPI PUSH1 0x20 SWAP1 PUSH2 0x2CC PUSH2 0x2C3 PUSH2 0x6D6 JUMP JUMPDEST PUSH1 0x1 SLOAD SWAP1 PUSH2 0x693 JUMP JUMPDEST SWAP1 MLOAD SWAP1 DUP2 MSTORE RETURN JUMPDEST POP POP CALLVALUE PUSH2 0x11C JUMPI DUP2 PUSH1 0x3 NOT CALLDATASIZE ADD SLT PUSH2 0x11C JUMPI PUSH1 0x20 SWAP1 MLOAD PUSH4 0x1E13380 DUP2 MSTORE RETURN JUMPDEST POP POP CALLVALUE PUSH2 0x11C JUMPI DUP2 PUSH1 0x3 NOT CALLDATASIZE ADD SLT PUSH2 0x11C JUMPI PUSH1 0x20 SWAP1 MLOAD PUSH3 0x93A80 DUP2 MSTORE RETURN JUMPDEST POP POP CALLVALUE PUSH2 0x11C JUMPI DUP2 PUSH1 0x3 NOT CALLDATASIZE ADD SLT PUSH2 0x11C JUMPI PUSH1 0x20 SWAP1 MLOAD PUSH3 0x278D00 DUP2 MSTORE RETURN JUMPDEST POP POP CALLVALUE PUSH2 0x11C JUMPI DUP2 PUSH1 0x3 NOT CALLDATASIZE ADD SLT PUSH2 0x11C JUMPI PUSH1 0x20 SWAP1 MLOAD PUSH32 0x0 DUP2 MSTORE RETURN JUMPDEST SWAP2 SWAP1 POP CALLVALUE PUSH2 0x496 JUMPI DUP3 PUSH1 0x3 NOT CALLDATASIZE ADD SLT PUSH2 0x496 JUMPI PUSH1 0x1 PUSH1 0x1 PUSH1 0xA0 SHL SUB PUSH32 0x0 DUP2 AND SWAP3 CALLER DUP5 SWAP1 SUB PUSH2 0x489 JUMPI PUSH2 0x3B8 PUSH2 0x6D6 JUMP JUMPDEST SWAP2 PUSH2 0x3C6 PUSH1 0x1 SLOAD DUP1 SWAP5 PUSH2 0x693 JUMP JUMPDEST SWAP3 DUP4 ISZERO PUSH2 0x479 JUMPI DUP4 PUSH2 0x3D7 SWAP2 PUSH2 0x7F0 JUMP JUMPDEST PUSH1 0x1 SSTORE DUP6 SLOAD AND DUP4 MLOAD SWAP2 PUSH4 0xA9059CBB PUSH1 0xE0 SHL DUP8 MSTORE DUP6 DUP2 MSTORE DUP4 PUSH1 0x24 MSTORE PUSH1 0x20 DUP8 PUSH1 0x44 DUP2 DUP1 DUP7 GAS CALL PUSH1 0x1 DUP9 MLOAD EQ DUP2 AND ISZERO PUSH2 0x45A JUMPI JUMPDEST DUP4 DUP7 MSTORE ISZERO PUSH2 0x447 JUMPI POP POP POP SWAP1 PUSH32 0x9923B4306C6C030F2BDFBF156517D5983B87E15B96176DA122CD4F2EFFA4BA7B SWAP2 PUSH1 0x1 SLOAD DUP3 MLOAD SWAP2 DUP3 MSTORE PUSH1 0x20 DUP3 ADD MSTORE LOG2 DUP1 RETURN JUMPDEST PUSH4 0x5274AFE7 PUSH1 0xE0 SHL DUP4 MSTORE DUP3 ADD MSTORE PUSH1 0x24 SWAP2 POP REVERT JUMPDEST PUSH1 0x1 DUP2 ISZERO AND PUSH2 0x470 JUMPI DUP3 EXTCODESIZE ISZERO ISZERO RETURNDATASIZE ISZERO AND AND PUSH2 0x408 JUMP JUMPDEST DUP4 RETURNDATASIZE DUP10 DUP3 RETURNDATACOPY RETURNDATASIZE SWAP1 REVERT JUMPDEST DUP5 MLOAD PUSH4 0x12D37EE5 PUSH1 0xE3 SHL DUP2 MSTORE DUP4 SWAP1 REVERT JUMPDEST DUP3 MLOAD PUSH3 0x82B429 PUSH1 0xE8 SHL DUP2 MSTORE REVERT JUMPDEST DUP3 DUP1 REVERT JUMPDEST DUP4 DUP4 CALLVALUE PUSH2 0x11C JUMPI DUP2 PUSH1 0x3 NOT CALLDATASIZE ADD SLT PUSH2 0x11C JUMPI PUSH2 0x4F6 PUSH32 0x0 PUSH32 0x0 PUSH2 0x7F0 JUMP JUMPDEST SWAP2 PUSH2 0x521 PUSH32 0x0 DUP5 PUSH2 0x7F0 JUMP JUMPDEST SWAP1 PUSH2 0x52A PUSH2 0x6D6 JUMP JUMPDEST SWAP1 PUSH1 0x64 DUP3 MUL SWAP2 DUP1 DUP4 DIV PUSH1 0x64 EQ SWAP1 ISZERO OR ISZERO PUSH2 0x586 JUMPI POP PUSH1 0x80 SWAP5 POP PUSH2 0x56E SWAP1 PUSH32 0x0 SWAP1 PUSH2 0x6B6 JUMP JUMPDEST SWAP2 DUP1 MLOAD SWAP4 DUP1 TIMESTAMP LT DUP6 MSTORE PUSH1 0x20 DUP6 ADD MSTORE DUP4 ADD MSTORE PUSH1 0x60 DUP3 ADD MSTORE RETURN JUMPDEST PUSH4 0x4E487B71 PUSH1 0xE0 SHL DUP2 MSTORE PUSH1 0x11 DUP7 MSTORE PUSH1 0x24 SWAP1 REVERT JUMPDEST POP POP CALLVALUE PUSH2 0x11C JUMPI DUP2 PUSH1 0x3 NOT CALLDATASIZE ADD SLT PUSH2 0x11C JUMPI PUSH1 0x20 SWAP1 PUSH2 0x2CC PUSH2 0x6D6 JUMP JUMPDEST POP POP CALLVALUE PUSH2 0x11C JUMPI DUP2 PUSH1 0x3 NOT CALLDATASIZE ADD SLT PUSH2 0x11C JUMPI PUSH1 0x20 SWAP1 PUSH1 0xFF PUSH1 0x2 SLOAD AND SWAP1 MLOAD SWAP1 ISZERO ISZERO DUP2 MSTORE RETURN JUMPDEST POP POP CALLVALUE PUSH2 0x11C JUMPI DUP2 PUSH1 0x3 NOT CALLDATASIZE ADD SLT PUSH2 0x11C JUMPI PUSH1 0x20 SWAP1 MLOAD PUSH32 0x0 DUP2 MSTORE RETURN JUMPDEST POP POP CALLVALUE PUSH2 0x11C JUMPI DUP2 PUSH1 0x3 NOT CALLDATASIZE ADD SLT PUSH2 0x11C JUMPI PUSH1 0x20 SWAP1 MLOAD PUSH32 0x0 DUP2 MSTORE RETURN JUMPDEST DUP5 SWAP1 CALLVALUE PUSH2 0x11C JUMPI DUP2 PUSH1 0x3 NOT CALLDATASIZE ADD SLT PUSH2 0x11C JUMPI PUSH32 0x0 PUSH1 0x1 PUSH1 0x1 PUSH1 0xA0 SHL SUB AND DUP2 MSTORE PUSH1 0x20 SWAP1 RETURN JUMPDEST SWAP2 SWAP1 DUP3 SUB SWAP2 DUP3 GT PUSH2 0x6A0 JUMPI JUMP JUMPDEST PUSH4 0x4E487B71 PUSH1 0xE0 SHL PUSH1 0x0 MSTORE PUSH1 0x11 PUSH1 0x4 MSTORE PUSH1 0x24 PUSH1 0x0 REVERT JUMPDEST DUP2 ISZERO PUSH2 0x6C0 JUMPI DIV SWAP1 JUMP JUMPDEST PUSH4 0x4E487B71 PUSH1 0xE0 SHL PUSH1 0x0 MSTORE PUSH1 0x12 PUSH1 0x4 MSTORE PUSH1 0x24 PUSH1 0x0 REVERT JUMPDEST PUSH32 0x0 DUP1 ISZERO PUSH2 0x7CB JUMPI PUSH2 0x727 PUSH32 0x0 TIMESTAMP PUSH2 0x693 JUMP JUMPDEST SWAP1 DUP1 DUP3 LT PUSH2 0x7C4 JUMPI PUSH2 0x738 SWAP2 PUSH2 0x693 JUMP JUMPDEST PUSH32 0x0 DUP1 DUP3 LT ISZERO PUSH2 0x79E JUMPI PUSH32 0x0 DUP3 DUP2 MUL SWAP3 DUP2 DUP5 DIV EQ SWAP1 ISZERO OR ISZERO PUSH2 0x6A0 JUMPI PUSH2 0x79B SWAP2 PUSH2 0x6B6 JUMP JUMPDEST SWAP1 JUMP JUMPDEST POP POP PUSH32 0x0 SWAP1 JUMP JUMPDEST POP POP PUSH1 0x0 SWAP1 JUMP JUMPDEST POP PUSH32 0x0 SWAP1 JUMP JUMPDEST SWAP2 SWAP1 DUP3 ADD DUP1 SWAP3 GT PUSH2 0x6A0 JUMPI JUMP INVALID LOG2 PUSH5 0x6970667358 0x22 SLT KECCAK256 0x1F 0xA9 ISZERO 0xC4 SSTORE 0xC1 RETURNDATACOPY PUSH11 0xA7E15FB272A54C3F71599B 0xCA 0xB7 0x2E CALLVALUE SWAP14 0xE7 NOT EXP NUMBER BALANCE TIMESTAMP 0xE4 0xBD PUSH5 0x736F6C6343 STOP ADDMOD EQ STOP CALLER "},"methodIdentifiers":{"DURATION_180_DAYS()":"afb70ba1","DURATION_30_DAYS()":"82816125","DURATION_365_DAYS()":"8e14af1c","DURATION_7_DAYS()":"8cb7d625","DURATION_INSTANT()":"ef475a49","claim()":"4e71d92d","claimable()":"af38d757","claimed()":"e834a834","createdAt()":"cf09e0d0","creator()":"02d05d3f","factory()":"c45a0155","getStatus()":"4e69d560","initialize(address)":"c4d66de8","initialized()":"158ef93e","lockDuration()":"04554443","token()":"fc0c546a","totalAllocation()":"79203dc4","vestedAmount()":"44b1231f","vestingDuration()":"1514617e"}}}}}