{"src/KaboomRouter.sol":{"KaboomRouter":{"abi":[{"inputs":[{"internalType":"address","name":"factory_","type":"address"},{"internalType":"address","name":"feeVault_","type":"address"},{"internalType":"address","name":"wCELO_","type":"address"}],"stateMutability":"nonpayable","type":"constructor"},{"inputs":[],"name":"InsufficientOutput","type":"error"},{"inputs":[],"name":"InvalidToken","type":"error"},{"inputs":[],"name":"ReentrancyGuardReentrantCall","type":"error"},{"inputs":[{"internalType":"address","name":"token","type":"address"}],"name":"SafeERC20FailedOperation","type":"error"},{"inputs":[],"name":"SlippageExceeded","type":"error"},{"inputs":[],"name":"ZeroAmount","type":"error"},{"anonymous":false,"inputs":[{"indexed":true,"internalType":"address","name":"token","type":"address"},{"indexed":true,"internalType":"address","name":"pool","type":"address"},{"indexed":false,"internalType":"uint256","name":"initialLiquidity","type":"uint256"},{"indexed":false,"internalType":"uint256","name":"timestamp","type":"uint256"}],"name":"PoolInitialized","type":"event"},{"anonymous":false,"inputs":[{"indexed":true,"internalType":"address","name":"token","type":"address"},{"indexed":true,"internalType":"address","name":"trader","type":"address"},{"indexed":false,"internalType":"bool","name":"isBuy","type":"bool"},{"indexed":false,"internalType":"uint256","name":"amountIn","type":"uint256"},{"indexed":false,"internalType":"uint256","name":"amountOut","type":"uint256"},{"indexed":false,"internalType":"uint256","name":"price","type":"uint256"},{"indexed":false,"internalType":"uint256","name":"timestamp","type":"uint256"}],"name":"Trade","type":"event"},{"inputs":[{"internalType":"address","name":"token","type":"address"},{"internalType":"uint256","name":"amountIn","type":"uint256"},{"internalType":"uint256","name":"minAmountOut","type":"uint256"}],"name":"buy","outputs":[{"internalType":"uint256","name":"amountOut","type":"uint256"}],"stateMutability":"nonpayable","type":"function"},{"inputs":[],"name":"factory","outputs":[{"internalType":"address","name":"","type":"address"}],"stateMutability":"view","type":"function"},{"inputs":[],"name":"feeVault","outputs":[{"internalType":"address","name":"","type":"address"}],"stateMutability":"view","type":"function"},{"inputs":[{"internalType":"address","name":"token","type":"address"},{"internalType":"uint256","name":"amountIn","type":"uint256"}],"name":"getBuyQuote","outputs":[{"internalType":"uint256","name":"amountOut","type":"uint256"},{"internalType":"uint256","name":"priceImpact","type":"uint256"}],"stateMutability":"view","type":"function"},{"inputs":[{"internalType":"address","name":"token","type":"address"},{"internalType":"uint256","name":"amountIn","type":"uint256"}],"name":"getSellQuote","outputs":[{"internalType":"uint256","name":"amountOut","type":"uint256"},{"internalType":"uint256","name":"priceImpact","type":"uint256"}],"stateMutability":"view","type":"function"},{"inputs":[{"internalType":"address","name":"token","type":"address"},{"internalType":"uint256","name":"amountIn","type":"uint256"},{"internalType":"uint256","name":"minAmountOut","type":"uint256"}],"name":"sell","outputs":[{"internalType":"uint256","name":"amountOut","type":"uint256"}],"stateMutability":"nonpayable","type":"function"},{"inputs":[],"name":"wCELO","outputs":[{"internalType":"address","name":"","type":"address"}],"stateMutability":"view","type":"function"}],"evm":{"bytecode":{"linkReferences":{},"object":"60e0346100f557601f610e6638819003918201601f19168301916001600160401b038311848410176100fa578084926060946040528339810103126100f55761004781610110565b90610060604061005960208401610110565b9201610110565b9160017f9b779b17422d0df92223018b32b4d1fa46e071723d6817e2486d003becc55f005560805260a05260c052604051610d419081610125823960805181818160880152818160fc015281816104c3015281816105b90152818161094c0152610c88015260a0518181816101860152818161061801526108bf015260c05181818161014c0152818161043701526106550152f35b600080fd5b634e487b7160e01b600052604160045260246000fd5b51906001600160a01b03821682036100f55756fe608060408181526004918236101561001657600080fd5b60009260e0908435821c9283631bf6e958146108ee57508263478222c2146108a95782636a272462146105745782638aaae30514610466578263930c797614610421578263a59ac6dd146100bb57505063c45a01551461007557600080fd5b346100b757816003193601126100b757517f00000000000000000000000000000000000000000000000000000000000000006001600160a01b03168152602090f35b5080fd5b8385913461039f576100cc366109f7565b949190926100d8610c05565b84516348c52f9d60e11b81526001600160a01b0383811683830181905260209990957f00000000000000000000000000000000000000000000000000000000000000008316939092908b81602481885afa9081156104175784916103fa575b50156103ea5787156103da57846101d18c8a847f00000000000000000000000000000000000000000000000000000000000000001661017882303384610b98565b8d5163095ea7b360e01b81527f00000000000000000000000000000000000000000000000000000000000000006001600160a01b038116968201968752602087019390935291949193849283918a918391604090910190565b03925af180156103d0576103a3575b5016803b1561039f57885163280cff3560e21b81526001600160a01b038716868201908152602081018a90529091849183919082908490829060400103925af1801561039557908391610381575b5050602887029287840460280361036e5790806024928a5193848092631f69565f60e01b82528b8a8301525afa928315610363576102959361029a959361029093610287939261032f575b50506127109182918b610a85565b04920488610b0a565b610b0a565b610c47565b95861061032157506102b6906102b1863385610b17565b610c5e565b8351926001845286840152848484015260608301524260808301527f9adcf0ad0cda63c4d50f26a48925cf6405df27d422a39c456b5f03f661c8298260a03393a360017f9b779b17422d0df92223018b32b4d1fa46e071723d6817e2486d003becc55f005551908152f35b8451638199f5f360e01b8152fd5b61034e9250803d1061035c575b6103468183610a4b565b810190610ac2565b509450505050508d80610279565b503d61033c565b8951903d90823e3d90fd5b634e487b7160e01b835260118552602483fd5b61038a90610a21565b6100b757818b61022e565b89513d85823e3d90fd5b8280fd5b6103c2908d803d106103c9575b6103ba8183610a4b565b810190610a6d565b508c6101e0565b503d6103b0565b8b513d87823e3d90fd5b8851631f2a200560e01b81528590fd5b885163c1ab6dc160e01b81528590fd5b61041191508c8d3d106103c9576103ba8183610a4b565b8c610137565b8a513d86823e3d90fd5b505050346100b757816003193601126100b757517f00000000000000000000000000000000000000000000000000000000000000006001600160a01b03168152602090f35b91509192346105715783600319360112610571576104826109dc565b6024359360288502938585046028148615171561055e578651631f69565f60e01b81526001600160a01b0393841691810191909152918190839060249082907f0000000000000000000000000000000000000000000000000000000000000000165afa9283156105535761051461051d94610295946105239794610290949261052f575b505061271091829189610a85565b04920486610b0a565b91610cea565b82519182526020820152f35b6105459250803d1061035c576103468183610a4b565b509450505050503880610506565b8651903d90823e3d90fd5b634e487b7160e01b845260119052602483fd5b80fd5b90929150346108a557610586366109f7565b94919092610592610c05565b84516348c52f9d60e11b81526001600160a01b0383811682840181905260209990959193927f0000000000000000000000000000000000000000000000000000000000000000851692908b81602481875afa90811561089b57839161087e575b501561086e57871561085e5761060a8830338a610b98565b885163095ea7b360e01b81527f00000000000000000000000000000000000000000000000000000000000000006001600160a01b0381168683019081526103e88b04602082018190527f00000000000000000000000000000000000000000000000000000000000000008916989095939092918f90829081906040010381878d5af1801561085457908f91610836575b505016803b156100b7578a5163280cff3560e21b81526001600160a01b038916818801908152602081018690529091839183919082908490829060400103925af1801561082c5761081d575b509060288302938385046028148415171561080a5790806024928c5193848092631f69565f60e01b82528d8b8301525afa9283156107ff579261074a9594926107419261029095926107db575b505061271091829184610a85565b04930490610b0a565b9687106107cd5750906102b186610762933390610b17565b8351926000845286840152848484015260608301524260808301527f9adcf0ad0cda63c4d50f26a48925cf6405df27d422a39c456b5f03f661c8298260a03393a360017f9b779b17422d0df92223018b32b4d1fa46e071723d6817e2486d003becc55f005551908152f35b8551638199f5f360e01b8152fd5b6107f19250803d1061035c576103468183610a4b565b509450505050503880610733565b8b51903d90823e3d90fd5b634e487b7160e01b835260118652602483fd5b61082690610a21565b386106e6565b8b513d84823e3d90fd5b8161084c92903d106103c9576103ba8183610a4b565b508d3861069a565b8d513d86823e3d90fd5b8851631f2a200560e01b81528490fd5b885163c1ab6dc160e01b81528490fd5b61089591508c8d3d106103c9576103ba8183610a4b565b386105f2565b8a513d85823e3d90fd5b8380fd5b505050346100b757816003193601126100b757517f00000000000000000000000000000000000000000000000000000000000000006001600160a01b03168152602090f35b849350853461057157846003193601126105715761090a6109dc565b91602435946103e88604936028850295858704602814861517156109c957631f69565f60e01b84526001600160a01b03918216908401528190839060249082907f0000000000000000000000000000000000000000000000000000000000000000165afa9283156109be5761052395936102909361051d9693610741939261099a57505061271091829184610a85565b6109b09250803d1061035c576103468183610a4b565b509450505050508980610733565b8751903d90823e3d90fd5b634e487b7160e01b855260119052602484fd5b600435906001600160a01b03821682036109f257565b600080fd5b60609060031901126109f2576004356001600160a01b03811681036109f257906024359060443590565b67ffffffffffffffff8111610a3557604052565b634e487b7160e01b600052604160045260246000fd5b90601f8019910116810190811067ffffffffffffffff821117610a3557604052565b908160209103126109f2575180151581036109f25790565b81810292918115918404141715610a9857565b634e487b7160e01b600052601160045260246000fd5b51906001600160a01b03821682036109f257565b908160e09103126109f257610ad681610aae565b91610ae360208301610aae565b91610af060408201610aae565b9160608201519160808101519160c060a083015192015190565b91908203918211610a9857565b60405163a9059cbb60e01b60009081526001600160a01b039384166004526024949094529260209060448180855af1600160005114811615610b78575b8360405215610b6257505050565b635274afe760e01b835216600482015260249150fd5b6001811516610b8e57813b15153d151616610b54565b833d6000823e3d90fd5b6040516323b872dd60e01b60009081526001600160a01b03938416600452938316602452604494909452909160209060648180855af1600160005114811615610bef575b83604052600060605215610b6257505050565b6001811516610b8e57813b15153d151616610bdc565b7f9b779b17422d0df92223018b32b4d1fa46e071723d6817e2486d003becc55f006002815414610c355760029055565b604051633ee5aeb560e01b8152600490fd5b6103e890818102918183041490151715610a985790565b604051631f69565f60e01b81526001600160a01b0391821660048201529060e090829060249082907f0000000000000000000000000000000000000000000000000000000000000000165afa908115610cde57600091610cbc575090565b610cd4915060e03d811161035c576103468183610a4b565b5050509250505090565b6040513d6000823e3d90fd5b670de0b6b3a76400009004600a810290808204600a1490151715610a98579056fea2646970667358221220b1f512875a40a5ccd1c2979b50a3dfb92a8354c02057120a4d45a4834ec14df264736f6c63430008140033","opcodes":"PUSH1 0xE0 CALLVALUE PUSH2 0xF5 JUMPI PUSH1 0x1F PUSH2 0xE66 CODESIZE DUP2 SWAP1 SUB SWAP2 DUP3 ADD PUSH1 0x1F NOT AND DUP4 ADD SWAP2 PUSH1 0x1 PUSH1 0x1 PUSH1 0x40 SHL SUB DUP4 GT DUP5 DUP5 LT OR PUSH2 0xFA JUMPI DUP1 DUP5 SWAP3 PUSH1 0x60 SWAP5 PUSH1 0x40 MSTORE DUP4 CODECOPY DUP2 ADD SUB SLT PUSH2 0xF5 JUMPI PUSH2 0x47 DUP2 PUSH2 0x110 JUMP JUMPDEST SWAP1 PUSH2 0x60 PUSH1 0x40 PUSH2 0x59 PUSH1 0x20 DUP5 ADD PUSH2 0x110 JUMP JUMPDEST SWAP3 ADD PUSH2 0x110 JUMP JUMPDEST SWAP2 PUSH1 0x1 PUSH32 0x9B779B17422D0DF92223018B32B4D1FA46E071723D6817E2486D003BECC55F00 SSTORE PUSH1 0x80 MSTORE PUSH1 0xA0 MSTORE PUSH1 0xC0 MSTORE PUSH1 0x40 MLOAD PUSH2 0xD41 SWAP1 DUP2 PUSH2 0x125 DUP3 CODECOPY PUSH1 0x80 MLOAD DUP2 DUP2 DUP2 PUSH1 0x88 ADD MSTORE DUP2 DUP2 PUSH1 0xFC ADD MSTORE DUP2 DUP2 PUSH2 0x4C3 ADD MSTORE DUP2 DUP2 PUSH2 0x5B9 ADD MSTORE DUP2 DUP2 PUSH2 0x94C ADD MSTORE PUSH2 0xC88 ADD MSTORE PUSH1 0xA0 MLOAD DUP2 DUP2 DUP2 PUSH2 0x186 ADD MSTORE DUP2 DUP2 PUSH2 0x618 ADD MSTORE PUSH2 0x8BF ADD MSTORE PUSH1 0xC0 MLOAD DUP2 DUP2 DUP2 PUSH2 0x14C ADD MSTORE DUP2 DUP2 PUSH2 0x437 ADD MSTORE PUSH2 0x655 ADD MSTORE RETURN JUMPDEST PUSH1 0x0 DUP1 REVERT JUMPDEST PUSH4 0x4E487B71 PUSH1 0xE0 SHL PUSH1 0x0 MSTORE PUSH1 0x41 PUSH1 0x4 MSTORE PUSH1 0x24 PUSH1 0x0 REVERT JUMPDEST MLOAD SWAP1 PUSH1 0x1 PUSH1 0x1 PUSH1 0xA0 SHL SUB DUP3 AND DUP3 SUB PUSH2 0xF5 JUMPI JUMP INVALID PUSH1 0x80 PUSH1 0x40 DUP2 DUP2 MSTORE PUSH1 0x4 SWAP2 DUP3 CALLDATASIZE LT ISZERO PUSH2 0x16 JUMPI PUSH1 0x0 DUP1 REVERT JUMPDEST PUSH1 0x0 SWAP3 PUSH1 0xE0 SWAP1 DUP5 CALLDATALOAD DUP3 SHR SWAP3 DUP4 PUSH4 0x1BF6E958 EQ PUSH2 0x8EE JUMPI POP DUP3 PUSH4 0x478222C2 EQ PUSH2 0x8A9 JUMPI DUP3 PUSH4 0x6A272462 EQ PUSH2 0x574 JUMPI DUP3 PUSH4 0x8AAAE305 EQ PUSH2 0x466 JUMPI DUP3 PUSH4 0x930C7976 EQ PUSH2 0x421 JUMPI DUP3 PUSH4 0xA59AC6DD EQ PUSH2 0xBB JUMPI POP POP PUSH4 0xC45A0155 EQ PUSH2 0x75 JUMPI PUSH1 0x0 DUP1 REVERT JUMPDEST CALLVALUE PUSH2 0xB7 JUMPI DUP2 PUSH1 0x3 NOT CALLDATASIZE ADD SLT PUSH2 0xB7 JUMPI MLOAD PUSH32 0x0 PUSH1 0x1 PUSH1 0x1 PUSH1 0xA0 SHL SUB AND DUP2 MSTORE PUSH1 0x20 SWAP1 RETURN JUMPDEST POP DUP1 REVERT JUMPDEST DUP4 DUP6 SWAP2 CALLVALUE PUSH2 0x39F JUMPI PUSH2 0xCC CALLDATASIZE PUSH2 0x9F7 JUMP JUMPDEST SWAP5 SWAP2 SWAP1 SWAP3 PUSH2 0xD8 PUSH2 0xC05 JUMP JUMPDEST DUP5 MLOAD PUSH4 0x48C52F9D PUSH1 0xE1 SHL DUP2 MSTORE PUSH1 0x1 PUSH1 0x1 PUSH1 0xA0 SHL SUB DUP4 DUP2 AND DUP4 DUP4 ADD DUP2 SWAP1 MSTORE PUSH1 0x20 SWAP10 SWAP1 SWAP6 PUSH32 0x0 DUP4 AND SWAP4 SWAP1 SWAP3 SWAP1 DUP12 DUP2 PUSH1 0x24 DUP2 DUP9 GAS STATICCALL SWAP1 DUP2 ISZERO PUSH2 0x417 JUMPI DUP5 SWAP2 PUSH2 0x3FA JUMPI JUMPDEST POP ISZERO PUSH2 0x3EA JUMPI DUP8 ISZERO PUSH2 0x3DA JUMPI DUP5 PUSH2 0x1D1 DUP13 DUP11 DUP5 PUSH32 0x0 AND PUSH2 0x178 DUP3 ADDRESS CALLER DUP5 PUSH2 0xB98 JUMP JUMPDEST DUP14 MLOAD PUSH4 0x95EA7B3 PUSH1 0xE0 SHL DUP2 MSTORE PUSH32 0x0 PUSH1 0x1 PUSH1 0x1 PUSH1 0xA0 SHL SUB DUP2 AND SWAP7 DUP3 ADD SWAP7 DUP8 MSTORE PUSH1 0x20 DUP8 ADD SWAP4 SWAP1 SWAP4 MSTORE SWAP2 SWAP5 SWAP2 SWAP4 DUP5 SWAP3 DUP4 SWAP2 DUP11 SWAP2 DUP4 SWAP2 PUSH1 0x40 SWAP1 SWAP2 ADD SWAP1 JUMP JUMPDEST SUB SWAP3 GAS CALL DUP1 ISZERO PUSH2 0x3D0 JUMPI PUSH2 0x3A3 JUMPI JUMPDEST POP AND DUP1 EXTCODESIZE ISZERO PUSH2 0x39F JUMPI DUP9 MLOAD PUSH4 0x280CFF35 PUSH1 0xE2 SHL DUP2 MSTORE PUSH1 0x1 PUSH1 0x1 PUSH1 0xA0 SHL SUB DUP8 AND DUP7 DUP3 ADD SWAP1 DUP2 MSTORE PUSH1 0x20 DUP2 ADD DUP11 SWAP1 MSTORE SWAP1 SWAP2 DUP5 SWAP2 DUP4 SWAP2 SWAP1 DUP3 SWAP1 DUP5 SWAP1 DUP3 SWAP1 PUSH1 0x40 ADD SUB SWAP3 GAS CALL DUP1 ISZERO PUSH2 0x395 JUMPI SWAP1 DUP4 SWAP2 PUSH2 0x381 JUMPI JUMPDEST POP POP PUSH1 0x28 DUP8 MUL SWAP3 DUP8 DUP5 DIV PUSH1 0x28 SUB PUSH2 0x36E JUMPI SWAP1 DUP1 PUSH1 0x24 SWAP3 DUP11 MLOAD SWAP4 DUP5 DUP1 SWAP3 PUSH4 0x1F69565F PUSH1 0xE0 SHL DUP3 MSTORE DUP12 DUP11 DUP4 ADD MSTORE GAS STATICCALL SWAP3 DUP4 ISZERO PUSH2 0x363 JUMPI PUSH2 0x295 SWAP4 PUSH2 0x29A SWAP6 SWAP4 PUSH2 0x290 SWAP4 PUSH2 0x287 SWAP4 SWAP3 PUSH2 0x32F JUMPI JUMPDEST POP POP PUSH2 0x2710 SWAP2 DUP3 SWAP2 DUP12 PUSH2 0xA85 JUMP JUMPDEST DIV SWAP3 DIV DUP9 PUSH2 0xB0A JUMP JUMPDEST PUSH2 0xB0A JUMP JUMPDEST PUSH2 0xC47 JUMP JUMPDEST SWAP6 DUP7 LT PUSH2 0x321 JUMPI POP PUSH2 0x2B6 SWAP1 PUSH2 0x2B1 DUP7 CALLER DUP6 PUSH2 0xB17 JUMP JUMPDEST PUSH2 0xC5E JUMP JUMPDEST DUP4 MLOAD SWAP3 PUSH1 0x1 DUP5 MSTORE DUP7 DUP5 ADD MSTORE DUP5 DUP5 DUP5 ADD MSTORE PUSH1 0x60 DUP4 ADD MSTORE TIMESTAMP PUSH1 0x80 DUP4 ADD MSTORE PUSH32 0x9ADCF0AD0CDA63C4D50F26A48925CF6405DF27D422A39C456B5F03F661C82982 PUSH1 0xA0 CALLER SWAP4 LOG3 PUSH1 0x1 PUSH32 0x9B779B17422D0DF92223018B32B4D1FA46E071723D6817E2486D003BECC55F00 SSTORE MLOAD SWAP1 DUP2 MSTORE RETURN JUMPDEST DUP5 MLOAD PUSH4 0x8199F5F3 PUSH1 0xE0 SHL DUP2 MSTORE REVERT JUMPDEST PUSH2 0x34E SWAP3 POP DUP1 RETURNDATASIZE LT PUSH2 0x35C JUMPI JUMPDEST PUSH2 0x346 DUP2 DUP4 PUSH2 0xA4B JUMP JUMPDEST DUP2 ADD SWAP1 PUSH2 0xAC2 JUMP JUMPDEST POP SWAP5 POP POP POP POP POP DUP14 DUP1 PUSH2 0x279 JUMP JUMPDEST POP RETURNDATASIZE PUSH2 0x33C JUMP JUMPDEST DUP10 MLOAD SWAP1 RETURNDATASIZE SWAP1 DUP3 RETURNDATACOPY RETURNDATASIZE SWAP1 REVERT JUMPDEST PUSH4 0x4E487B71 PUSH1 0xE0 SHL DUP4 MSTORE PUSH1 0x11 DUP6 MSTORE PUSH1 0x24 DUP4 REVERT JUMPDEST PUSH2 0x38A SWAP1 PUSH2 0xA21 JUMP JUMPDEST PUSH2 0xB7 JUMPI DUP2 DUP12 PUSH2 0x22E JUMP JUMPDEST DUP10 MLOAD RETURNDATASIZE DUP6 DUP3 RETURNDATACOPY RETURNDATASIZE SWAP1 REVERT JUMPDEST DUP3 DUP1 REVERT JUMPDEST PUSH2 0x3C2 SWAP1 DUP14 DUP1 RETURNDATASIZE LT PUSH2 0x3C9 JUMPI JUMPDEST PUSH2 0x3BA DUP2 DUP4 PUSH2 0xA4B JUMP JUMPDEST DUP2 ADD SWAP1 PUSH2 0xA6D JUMP JUMPDEST POP DUP13 PUSH2 0x1E0 JUMP JUMPDEST POP RETURNDATASIZE PUSH2 0x3B0 JUMP JUMPDEST DUP12 MLOAD RETURNDATASIZE DUP8 DUP3 RETURNDATACOPY RETURNDATASIZE SWAP1 REVERT JUMPDEST DUP9 MLOAD PUSH4 0x1F2A2005 PUSH1 0xE0 SHL DUP2 MSTORE DUP6 SWAP1 REVERT JUMPDEST DUP9 MLOAD PUSH4 0xC1AB6DC1 PUSH1 0xE0 SHL DUP2 MSTORE DUP6 SWAP1 REVERT JUMPDEST PUSH2 0x411 SWAP2 POP DUP13 DUP14 RETURNDATASIZE LT PUSH2 0x3C9 JUMPI PUSH2 0x3BA DUP2 DUP4 PUSH2 0xA4B JUMP JUMPDEST DUP13 PUSH2 0x137 JUMP JUMPDEST DUP11 MLOAD RETURNDATASIZE DUP7 DUP3 RETURNDATACOPY RETURNDATASIZE SWAP1 REVERT JUMPDEST POP POP POP CALLVALUE PUSH2 0xB7 JUMPI DUP2 PUSH1 0x3 NOT CALLDATASIZE ADD SLT PUSH2 0xB7 JUMPI MLOAD PUSH32 0x0 PUSH1 0x1 PUSH1 0x1 PUSH1 0xA0 SHL SUB AND DUP2 MSTORE PUSH1 0x20 SWAP1 RETURN JUMPDEST SWAP2 POP SWAP2 SWAP3 CALLVALUE PUSH2 0x571 JUMPI DUP4 PUSH1 0x3 NOT CALLDATASIZE ADD SLT PUSH2 0x571 JUMPI PUSH2 0x482 PUSH2 0x9DC JUMP JUMPDEST PUSH1 0x24 CALLDATALOAD SWAP4 PUSH1 0x28 DUP6 MUL SWAP4 DUP6 DUP6 DIV PUSH1 0x28 EQ DUP7 ISZERO OR ISZERO PUSH2 0x55E JUMPI DUP7 MLOAD PUSH4 0x1F69565F PUSH1 0xE0 SHL DUP2 MSTORE PUSH1 0x1 PUSH1 0x1 PUSH1 0xA0 SHL SUB SWAP4 DUP5 AND SWAP2 DUP2 ADD SWAP2 SWAP1 SWAP2 MSTORE SWAP2 DUP2 SWAP1 DUP4 SWAP1 PUSH1 0x24 SWAP1 DUP3 SWAP1 PUSH32 0x0 AND GAS STATICCALL SWAP3 DUP4 ISZERO PUSH2 0x553 JUMPI PUSH2 0x514 PUSH2 0x51D SWAP5 PUSH2 0x295 SWAP5 PUSH2 0x523 SWAP8 SWAP5 PUSH2 0x290 SWAP5 SWAP3 PUSH2 0x52F JUMPI JUMPDEST POP POP PUSH2 0x2710 SWAP2 DUP3 SWAP2 DUP10 PUSH2 0xA85 JUMP JUMPDEST DIV SWAP3 DIV DUP7 PUSH2 0xB0A JUMP JUMPDEST SWAP2 PUSH2 0xCEA JUMP JUMPDEST DUP3 MLOAD SWAP2 DUP3 MSTORE PUSH1 0x20 DUP3 ADD MSTORE RETURN JUMPDEST PUSH2 0x545 SWAP3 POP DUP1 RETURNDATASIZE LT PUSH2 0x35C JUMPI PUSH2 0x346 DUP2 DUP4 PUSH2 0xA4B JUMP JUMPDEST POP SWAP5 POP POP POP POP POP CODESIZE DUP1 PUSH2 0x506 JUMP JUMPDEST DUP7 MLOAD SWAP1 RETURNDATASIZE SWAP1 DUP3 RETURNDATACOPY RETURNDATASIZE SWAP1 REVERT JUMPDEST PUSH4 0x4E487B71 PUSH1 0xE0 SHL DUP5 MSTORE PUSH1 0x11 SWAP1 MSTORE PUSH1 0x24 DUP4 REVERT JUMPDEST DUP1 REVERT JUMPDEST SWAP1 SWAP3 SWAP2 POP CALLVALUE PUSH2 0x8A5 JUMPI PUSH2 0x586 CALLDATASIZE PUSH2 0x9F7 JUMP JUMPDEST SWAP5 SWAP2 SWAP1 SWAP3 PUSH2 0x592 PUSH2 0xC05 JUMP JUMPDEST DUP5 MLOAD PUSH4 0x48C52F9D PUSH1 0xE1 SHL DUP2 MSTORE PUSH1 0x1 PUSH1 0x1 PUSH1 0xA0 SHL SUB DUP4 DUP2 AND DUP3 DUP5 ADD DUP2 SWAP1 MSTORE PUSH1 0x20 SWAP10 SWAP1 SWAP6 SWAP2 SWAP4 SWAP3 PUSH32 0x0 DUP6 AND SWAP3 SWAP1 DUP12 DUP2 PUSH1 0x24 DUP2 DUP8 GAS STATICCALL SWAP1 DUP2 ISZERO PUSH2 0x89B JUMPI DUP4 SWAP2 PUSH2 0x87E JUMPI JUMPDEST POP ISZERO PUSH2 0x86E JUMPI DUP8 ISZERO PUSH2 0x85E JUMPI PUSH2 0x60A DUP9 ADDRESS CALLER DUP11 PUSH2 0xB98 JUMP JUMPDEST DUP9 MLOAD PUSH4 0x95EA7B3 PUSH1 0xE0 SHL DUP2 MSTORE PUSH32 0x0 PUSH1 0x1 PUSH1 0x1 PUSH1 0xA0 SHL SUB DUP2 AND DUP7 DUP4 ADD SWAP1 DUP2 MSTORE PUSH2 0x3E8 DUP12 DIV PUSH1 0x20 DUP3 ADD DUP2 SWAP1 MSTORE PUSH32 0x0 DUP10 AND SWAP9 SWAP1 SWAP6 SWAP4 SWAP1 SWAP3 SWAP2 DUP16 SWAP1 DUP3 SWAP1 DUP2 SWAP1 PUSH1 0x40 ADD SUB DUP2 DUP8 DUP14 GAS CALL DUP1 ISZERO PUSH2 0x854 JUMPI SWAP1 DUP16 SWAP2 PUSH2 0x836 JUMPI JUMPDEST POP POP AND DUP1 EXTCODESIZE ISZERO PUSH2 0xB7 JUMPI DUP11 MLOAD PUSH4 0x280CFF35 PUSH1 0xE2 SHL DUP2 MSTORE PUSH1 0x1 PUSH1 0x1 PUSH1 0xA0 SHL SUB DUP10 AND DUP2 DUP9 ADD SWAP1 DUP2 MSTORE PUSH1 0x20 DUP2 ADD DUP7 SWAP1 MSTORE SWAP1 SWAP2 DUP4 SWAP2 DUP4 SWAP2 SWAP1 DUP3 SWAP1 DUP5 SWAP1 DUP3 SWAP1 PUSH1 0x40 ADD SUB SWAP3 GAS CALL DUP1 ISZERO PUSH2 0x82C JUMPI PUSH2 0x81D JUMPI JUMPDEST POP SWAP1 PUSH1 0x28 DUP4 MUL SWAP4 DUP4 DUP6 DIV PUSH1 0x28 EQ DUP5 ISZERO OR ISZERO PUSH2 0x80A JUMPI SWAP1 DUP1 PUSH1 0x24 SWAP3 DUP13 MLOAD SWAP4 DUP5 DUP1 SWAP3 PUSH4 0x1F69565F PUSH1 0xE0 SHL DUP3 MSTORE DUP14 DUP12 DUP4 ADD MSTORE GAS STATICCALL SWAP3 DUP4 ISZERO PUSH2 0x7FF JUMPI SWAP3 PUSH2 0x74A SWAP6 SWAP5 SWAP3 PUSH2 0x741 SWAP3 PUSH2 0x290 SWAP6 SWAP3 PUSH2 0x7DB JUMPI JUMPDEST POP POP PUSH2 0x2710 SWAP2 DUP3 SWAP2 DUP5 PUSH2 0xA85 JUMP JUMPDEST DIV SWAP4 DIV SWAP1 PUSH2 0xB0A JUMP JUMPDEST SWAP7 DUP8 LT PUSH2 0x7CD JUMPI POP SWAP1 PUSH2 0x2B1 DUP7 PUSH2 0x762 SWAP4 CALLER SWAP1 PUSH2 0xB17 JUMP JUMPDEST DUP4 MLOAD SWAP3 PUSH1 0x0 DUP5 MSTORE DUP7 DUP5 ADD MSTORE DUP5 DUP5 DUP5 ADD MSTORE PUSH1 0x60 DUP4 ADD MSTORE TIMESTAMP PUSH1 0x80 DUP4 ADD MSTORE PUSH32 0x9ADCF0AD0CDA63C4D50F26A48925CF6405DF27D422A39C456B5F03F661C82982 PUSH1 0xA0 CALLER SWAP4 LOG3 PUSH1 0x1 PUSH32 0x9B779B17422D0DF92223018B32B4D1FA46E071723D6817E2486D003BECC55F00 SSTORE MLOAD SWAP1 DUP2 MSTORE RETURN JUMPDEST DUP6 MLOAD PUSH4 0x8199F5F3 PUSH1 0xE0 SHL DUP2 MSTORE REVERT JUMPDEST PUSH2 0x7F1 SWAP3 POP DUP1 RETURNDATASIZE LT PUSH2 0x35C JUMPI PUSH2 0x346 DUP2 DUP4 PUSH2 0xA4B JUMP JUMPDEST POP SWAP5 POP POP POP POP POP CODESIZE DUP1 PUSH2 0x733 JUMP JUMPDEST DUP12 MLOAD SWAP1 RETURNDATASIZE SWAP1 DUP3 RETURNDATACOPY RETURNDATASIZE SWAP1 REVERT JUMPDEST PUSH4 0x4E487B71 PUSH1 0xE0 SHL DUP4 MSTORE PUSH1 0x11 DUP7 MSTORE PUSH1 0x24 DUP4 REVERT JUMPDEST PUSH2 0x826 SWAP1 PUSH2 0xA21 JUMP JUMPDEST CODESIZE PUSH2 0x6E6 JUMP JUMPDEST DUP12 MLOAD RETURNDATASIZE DUP5 DUP3 RETURNDATACOPY RETURNDATASIZE SWAP1 REVERT JUMPDEST DUP2 PUSH2 0x84C SWAP3 SWAP1 RETURNDATASIZE LT PUSH2 0x3C9 JUMPI PUSH2 0x3BA DUP2 DUP4 PUSH2 0xA4B JUMP JUMPDEST POP DUP14 CODESIZE PUSH2 0x69A JUMP JUMPDEST DUP14 MLOAD RETURNDATASIZE DUP7 DUP3 RETURNDATACOPY RETURNDATASIZE SWAP1 REVERT JUMPDEST DUP9 MLOAD PUSH4 0x1F2A2005 PUSH1 0xE0 SHL DUP2 MSTORE DUP5 SWAP1 REVERT JUMPDEST DUP9 MLOAD PUSH4 0xC1AB6DC1 PUSH1 0xE0 SHL DUP2 MSTORE DUP5 SWAP1 REVERT JUMPDEST PUSH2 0x895 SWAP2 POP DUP13 DUP14 RETURNDATASIZE LT PUSH2 0x3C9 JUMPI PUSH2 0x3BA DUP2 DUP4 PUSH2 0xA4B JUMP JUMPDEST CODESIZE PUSH2 0x5F2 JUMP JUMPDEST DUP11 MLOAD RETURNDATASIZE DUP6 DUP3 RETURNDATACOPY RETURNDATASIZE SWAP1 REVERT JUMPDEST DUP4 DUP1 REVERT JUMPDEST POP POP POP CALLVALUE PUSH2 0xB7 JUMPI DUP2 PUSH1 0x3 NOT CALLDATASIZE ADD SLT PUSH2 0xB7 JUMPI MLOAD PUSH32 0x0 PUSH1 0x1 PUSH1 0x1 PUSH1 0xA0 SHL SUB AND DUP2 MSTORE PUSH1 0x20 SWAP1 RETURN JUMPDEST DUP5 SWAP4 POP DUP6 CALLVALUE PUSH2 0x571 JUMPI DUP5 PUSH1 0x3 NOT CALLDATASIZE ADD SLT PUSH2 0x571 JUMPI PUSH2 0x90A PUSH2 0x9DC JUMP JUMPDEST SWAP2 PUSH1 0x24 CALLDATALOAD SWAP5 PUSH2 0x3E8 DUP7 DIV SWAP4 PUSH1 0x28 DUP6 MUL SWAP6 DUP6 DUP8 DIV PUSH1 0x28 EQ DUP7 ISZERO OR ISZERO PUSH2 0x9C9 JUMPI PUSH4 0x1F69565F PUSH1 0xE0 SHL DUP5 MSTORE PUSH1 0x1 PUSH1 0x1 PUSH1 0xA0 SHL SUB SWAP2 DUP3 AND SWAP1 DUP5 ADD MSTORE DUP2 SWAP1 DUP4 SWAP1 PUSH1 0x24 SWAP1 DUP3 SWAP1 PUSH32 0x0 AND GAS STATICCALL SWAP3 DUP4 ISZERO PUSH2 0x9BE JUMPI PUSH2 0x523 SWAP6 SWAP4 PUSH2 0x290 SWAP4 PUSH2 0x51D SWAP7 SWAP4 PUSH2 0x741 SWAP4 SWAP3 PUSH2 0x99A JUMPI POP POP PUSH2 0x2710 SWAP2 DUP3 SWAP2 DUP5 PUSH2 0xA85 JUMP JUMPDEST PUSH2 0x9B0 SWAP3 POP DUP1 RETURNDATASIZE LT PUSH2 0x35C JUMPI PUSH2 0x346 DUP2 DUP4 PUSH2 0xA4B JUMP JUMPDEST POP SWAP5 POP POP POP POP POP DUP10 DUP1 PUSH2 0x733 JUMP JUMPDEST DUP8 MLOAD SWAP1 RETURNDATASIZE SWAP1 DUP3 RETURNDATACOPY RETURNDATASIZE SWAP1 REVERT JUMPDEST PUSH4 0x4E487B71 PUSH1 0xE0 SHL DUP6 MSTORE PUSH1 0x11 SWAP1 MSTORE PUSH1 0x24 DUP5 REVERT JUMPDEST PUSH1 0x4 CALLDATALOAD SWAP1 PUSH1 0x1 PUSH1 0x1 PUSH1 0xA0 SHL SUB DUP3 AND DUP3 SUB PUSH2 0x9F2 JUMPI JUMP JUMPDEST PUSH1 0x0 DUP1 REVERT JUMPDEST PUSH1 0x60 SWAP1 PUSH1 0x3 NOT ADD SLT PUSH2 0x9F2 JUMPI PUSH1 0x4 CALLDATALOAD PUSH1 0x1 PUSH1 0x1 PUSH1 0xA0 SHL SUB DUP2 AND DUP2 SUB PUSH2 0x9F2 JUMPI SWAP1 PUSH1 0x24 CALLDATALOAD SWAP1 PUSH1 0x44 CALLDATALOAD SWAP1 JUMP JUMPDEST PUSH8 0xFFFFFFFFFFFFFFFF DUP2 GT PUSH2 0xA35 JUMPI PUSH1 0x40 MSTORE JUMP JUMPDEST PUSH4 0x4E487B71 PUSH1 0xE0 SHL PUSH1 0x0 MSTORE PUSH1 0x41 PUSH1 0x4 MSTORE PUSH1 0x24 PUSH1 0x0 REVERT JUMPDEST SWAP1 PUSH1 0x1F DUP1 NOT SWAP2 ADD AND DUP2 ADD SWAP1 DUP2 LT PUSH8 0xFFFFFFFFFFFFFFFF DUP3 GT OR PUSH2 0xA35 JUMPI PUSH1 0x40 MSTORE JUMP JUMPDEST SWAP1 DUP2 PUSH1 0x20 SWAP2 SUB SLT PUSH2 0x9F2 JUMPI MLOAD DUP1 ISZERO ISZERO DUP2 SUB PUSH2 0x9F2 JUMPI SWAP1 JUMP JUMPDEST DUP2 DUP2 MUL SWAP3 SWAP2 DUP2 ISZERO SWAP2 DUP5 DIV EQ OR ISZERO PUSH2 0xA98 JUMPI JUMP JUMPDEST PUSH4 0x4E487B71 PUSH1 0xE0 SHL PUSH1 0x0 MSTORE PUSH1 0x11 PUSH1 0x4 MSTORE PUSH1 0x24 PUSH1 0x0 REVERT JUMPDEST MLOAD SWAP1 PUSH1 0x1 PUSH1 0x1 PUSH1 0xA0 SHL SUB DUP3 AND DUP3 SUB PUSH2 0x9F2 JUMPI JUMP JUMPDEST SWAP1 DUP2 PUSH1 0xE0 SWAP2 SUB SLT PUSH2 0x9F2 JUMPI PUSH2 0xAD6 DUP2 PUSH2 0xAAE JUMP JUMPDEST SWAP2 PUSH2 0xAE3 PUSH1 0x20 DUP4 ADD PUSH2 0xAAE JUMP JUMPDEST SWAP2 PUSH2 0xAF0 PUSH1 0x40 DUP3 ADD PUSH2 0xAAE JUMP JUMPDEST SWAP2 PUSH1 0x60 DUP3 ADD MLOAD SWAP2 PUSH1 0x80 DUP2 ADD MLOAD SWAP2 PUSH1 0xC0 PUSH1 0xA0 DUP4 ADD MLOAD SWAP3 ADD MLOAD SWAP1 JUMP JUMPDEST SWAP2 SWAP1 DUP3 SUB SWAP2 DUP3 GT PUSH2 0xA98 JUMPI JUMP JUMPDEST PUSH1 0x40 MLOAD PUSH4 0xA9059CBB PUSH1 0xE0 SHL PUSH1 0x0 SWAP1 DUP2 MSTORE PUSH1 0x1 PUSH1 0x1 PUSH1 0xA0 SHL SUB SWAP4 DUP5 AND PUSH1 0x4 MSTORE PUSH1 0x24 SWAP5 SWAP1 SWAP5 MSTORE SWAP3 PUSH1 0x20 SWAP1 PUSH1 0x44 DUP2 DUP1 DUP6 GAS CALL PUSH1 0x1 PUSH1 0x0 MLOAD EQ DUP2 AND ISZERO PUSH2 0xB78 JUMPI JUMPDEST DUP4 PUSH1 0x40 MSTORE ISZERO PUSH2 0xB62 JUMPI POP POP POP JUMP JUMPDEST PUSH4 0x5274AFE7 PUSH1 0xE0 SHL DUP4 MSTORE AND PUSH1 0x4 DUP3 ADD MSTORE PUSH1 0x24 SWAP2 POP REVERT JUMPDEST PUSH1 0x1 DUP2 ISZERO AND PUSH2 0xB8E JUMPI DUP2 EXTCODESIZE ISZERO ISZERO RETURNDATASIZE ISZERO AND AND PUSH2 0xB54 JUMP JUMPDEST DUP4 RETURNDATASIZE PUSH1 0x0 DUP3 RETURNDATACOPY RETURNDATASIZE SWAP1 REVERT JUMPDEST PUSH1 0x40 MLOAD PUSH4 0x23B872DD PUSH1 0xE0 SHL PUSH1 0x0 SWAP1 DUP2 MSTORE PUSH1 0x1 PUSH1 0x1 PUSH1 0xA0 SHL SUB SWAP4 DUP5 AND PUSH1 0x4 MSTORE SWAP4 DUP4 AND PUSH1 0x24 MSTORE PUSH1 0x44 SWAP5 SWAP1 SWAP5 MSTORE SWAP1 SWAP2 PUSH1 0x20 SWAP1 PUSH1 0x64 DUP2 DUP1 DUP6 GAS CALL PUSH1 0x1 PUSH1 0x0 MLOAD EQ DUP2 AND ISZERO PUSH2 0xBEF JUMPI JUMPDEST DUP4 PUSH1 0x40 MSTORE PUSH1 0x0 PUSH1 0x60 MSTORE ISZERO PUSH2 0xB62 JUMPI POP POP POP JUMP JUMPDEST PUSH1 0x1 DUP2 ISZERO AND PUSH2 0xB8E JUMPI DUP2 EXTCODESIZE ISZERO ISZERO RETURNDATASIZE ISZERO AND AND PUSH2 0xBDC JUMP JUMPDEST PUSH32 0x9B779B17422D0DF92223018B32B4D1FA46E071723D6817E2486D003BECC55F00 PUSH1 0x2 DUP2 SLOAD EQ PUSH2 0xC35 JUMPI PUSH1 0x2 SWAP1 SSTORE JUMP JUMPDEST PUSH1 0x40 MLOAD PUSH4 0x3EE5AEB5 PUSH1 0xE0 SHL DUP2 MSTORE PUSH1 0x4 SWAP1 REVERT JUMPDEST PUSH2 0x3E8 SWAP1 DUP2 DUP2 MUL SWAP2 DUP2 DUP4 DIV EQ SWAP1 ISZERO OR ISZERO PUSH2 0xA98 JUMPI SWAP1 JUMP JUMPDEST PUSH1 0x40 MLOAD PUSH4 0x1F69565F PUSH1 0xE0 SHL DUP2 MSTORE PUSH1 0x1 PUSH1 0x1 PUSH1 0xA0 SHL SUB SWAP2 DUP3 AND PUSH1 0x4 DUP3 ADD MSTORE SWAP1 PUSH1 0xE0 SWAP1 DUP3 SWAP1 PUSH1 0x24 SWAP1 DUP3 SWAP1 PUSH32 0x0 AND GAS STATICCALL SWAP1 DUP2 ISZERO PUSH2 0xCDE JUMPI PUSH1 0x0 SWAP2 PUSH2 0xCBC JUMPI POP SWAP1 JUMP JUMPDEST PUSH2 0xCD4 SWAP2 POP PUSH1 0xE0 RETURNDATASIZE DUP2 GT PUSH2 0x35C JUMPI PUSH2 0x346 DUP2 DUP4 PUSH2 0xA4B JUMP JUMPDEST POP POP POP SWAP3 POP POP POP SWAP1 JUMP JUMPDEST PUSH1 0x40 MLOAD RETURNDATASIZE PUSH1 0x0 DUP3 RETURNDATACOPY RETURNDATASIZE SWAP1 REVERT JUMPDEST PUSH8 0xDE0B6B3A7640000 SWAP1 DIV PUSH1 0xA DUP2 MUL SWAP1 DUP1 DUP3 DIV PUSH1 0xA EQ SWAP1 ISZERO OR ISZERO PUSH2 0xA98 JUMPI SWAP1 JUMP INVALID LOG2 PUSH5 0x6970667358 0x22 SLT KECCAK256 0xB1 CREATE2 SLT DUP8 GAS BLOCKHASH 0xA5 0xCC 0xD1 0xC2 SWAP8 SWAP12 POP LOG3 0xDF 0xB9 0x2A DUP4 SLOAD 0xC0 KECCAK256 JUMPI SLT EXP 0x4D GASLIMIT LOG4 DUP4 0x4E 0xC1 0x4D CALLCODE PUSH5 0x736F6C6343 STOP ADDMOD EQ STOP CALLER "},"methodIdentifiers":{"buy(address,uint256,uint256)":"a59ac6dd","factory()":"c45a0155","feeVault()":"478222c2","getBuyQuote(address,uint256)":"8aaae305","getSellQuote(address,uint256)":"1bf6e958","sell(address,uint256,uint256)":"6a272462","wCELO()":"930c7976"}}}}}