{"src/KaboomFeeVault.sol":{"KaboomFeeVault":{"abi":[{"inputs":[{"internalType":"address","name":"feeToken_","type":"address"},{"internalType":"address","name":"platformWallet_","type":"address"},{"internalType":"address","name":"factory_","type":"address"}],"stateMutability":"nonpayable","type":"constructor"},{"inputs":[],"name":"InsufficientBalance","type":"error"},{"inputs":[],"name":"InvalidCreatorFee","type":"error"},{"inputs":[{"internalType":"address","name":"token","type":"address"}],"name":"SafeERC20FailedOperation","type":"error"},{"inputs":[],"name":"Unauthorized","type":"error"},{"inputs":[],"name":"ZeroAddress","type":"error"},{"inputs":[],"name":"ZeroAmount","type":"error"},{"anonymous":false,"inputs":[{"indexed":true,"internalType":"address","name":"token","type":"address"},{"indexed":true,"internalType":"address","name":"to","type":"address"},{"indexed":false,"internalType":"uint256","name":"amount","type":"uint256"}],"name":"CreatorFeesClaimed","type":"event"},{"anonymous":false,"inputs":[{"indexed":true,"internalType":"address","name":"token","type":"address"},{"indexed":false,"internalType":"uint256","name":"tradeAmount","type":"uint256"},{"indexed":false,"internalType":"uint256","name":"platformFee","type":"uint256"},{"indexed":false,"internalType":"uint256","name":"creatorFee","type":"uint256"}],"name":"FeesCollected","type":"event"},{"anonymous":false,"inputs":[{"indexed":true,"internalType":"address","name":"to","type":"address"},{"indexed":false,"internalType":"uint256","name":"amount","type":"uint256"}],"name":"PlatformFeesClaimed","type":"event"},{"anonymous":false,"inputs":[{"indexed":true,"internalType":"address","name":"admin","type":"address"},{"indexed":false,"internalType":"bool","name":"enabled","type":"bool"}],"name":"SetAdmin","type":"event"},{"inputs":[],"name":"BPS_DENOMINATOR","outputs":[{"internalType":"uint256","name":"","type":"uint256"}],"stateMutability":"view","type":"function"},{"inputs":[],"name":"MAX_CREATOR_FEE_BPS","outputs":[{"internalType":"uint256","name":"","type":"uint256"}],"stateMutability":"view","type":"function"},{"inputs":[],"name":"PLATFORM_FEE_BPS","outputs":[{"internalType":"uint256","name":"","type":"uint256"}],"stateMutability":"view","type":"function"},{"inputs":[{"internalType":"address","name":"token","type":"address"},{"internalType":"address","name":"to","type":"address"}],"name":"claimCreatorFees","outputs":[],"stateMutability":"nonpayable","type":"function"},{"inputs":[{"internalType":"address","name":"to","type":"address"}],"name":"claimPlatformFees","outputs":[],"stateMutability":"nonpayable","type":"function"},{"inputs":[{"internalType":"address","name":"token","type":"address"},{"internalType":"uint256","name":"amount","type":"uint256"}],"name":"collectFees","outputs":[],"stateMutability":"nonpayable","type":"function"},{"inputs":[],"name":"factory","outputs":[{"internalType":"address","name":"","type":"address"}],"stateMutability":"view","type":"function"},{"inputs":[{"internalType":"address","name":"","type":"address"}],"name":"isAdmin","outputs":[{"internalType":"bool","name":"","type":"bool"}],"stateMutability":"view","type":"function"},{"inputs":[{"internalType":"address","name":"","type":"address"}],"name":"pendingCreatorFees","outputs":[{"internalType":"uint256","name":"","type":"uint256"}],"stateMutability":"view","type":"function"},{"inputs":[],"name":"pendingPlatformFees","outputs":[{"internalType":"uint256","name":"","type":"uint256"}],"stateMutability":"view","type":"function"},{"inputs":[],"name":"platformWallet","outputs":[{"internalType":"address","name":"","type":"address"}],"stateMutability":"view","type":"function"},{"inputs":[{"internalType":"address","name":"token","type":"address"},{"internalType":"address","name":"creator","type":"address"},{"internalType":"uint256","name":"creatorFeeBps","type":"uint256"}],"name":"registerToken","outputs":[],"stateMutability":"nonpayable","type":"function"},{"inputs":[{"internalType":"address","name":"admin","type":"address"},{"internalType":"bool","name":"enabled","type":"bool"}],"name":"setAdmin","outputs":[],"stateMutability":"nonpayable","type":"function"},{"inputs":[{"internalType":"address","name":"newFactory","type":"address"}],"name":"setFactory","outputs":[],"stateMutability":"nonpayable","type":"function"},{"inputs":[{"internalType":"address","name":"newWallet","type":"address"}],"name":"setPlatformWallet","outputs":[],"stateMutability":"nonpayable","type":"function"},{"inputs":[{"internalType":"address","name":"","type":"address"}],"name":"tokenCreator","outputs":[{"internalType":"address","name":"","type":"address"}],"stateMutability":"view","type":"function"},{"inputs":[{"internalType":"address","name":"","type":"address"}],"name":"tokenCreatorFee","outputs":[{"internalType":"uint256","name":"","type":"uint256"}],"stateMutability":"view","type":"function"},{"inputs":[],"name":"wCELO","outputs":[{"internalType":"address","name":"","type":"address"}],"stateMutability":"view","type":"function"}],"evm":{"bytecode":{"linkReferences":{},"object":"60a0346100fa57601f610a5f38819003918201601f19168301916001600160401b038311848410176100ff578084926060946040528339810103126100fa5761004781610115565b61005f604061005860208501610115565b9301610115565b6001600160a01b03918083161580156100f0575b6100de576080528160018060a01b03199316836001541617600155169060005416176000553360005260026020526040600020600160ff19825416179055604051610935908161012a823960805181818161022f015281816103a70152818161051401526106390152f35b60405163d92e233d60e01b8152600490fd5b5082841615610073565b600080fd5b634e487b7160e01b600052604160045260246000fd5b51906001600160a01b03821682036100fa5756fe608060408181526004918236101561001657600080fd5b600092833560e01c91826323774af2146107f25750816324d7806c146107b45781632f98c9e8146107955781634b0bddd2146106e1578163539aa77f146106c55781635bb47808146106725781635fa65a04146105ba5781638831e9cf14610543578163930c7976146104ff5781639eff1609146104c7578163a033fcd414610336578163a844a13414610319578163b6f7134b14610286578163b947efcb14610194578163c45a01551461016c578163c598b2f91461013257508063e1a45218146101165763fa2af9da146100eb57600080fd5b3461011257816003193601126101125760015490516001600160a01b039091168152602090f35b5080fd5b5034610112578160031936011261011257602090516127108152f35b9050346101685760203660031901126101685760209282916001600160a01b0361015a61082a565b168252845220549051908152f35b8280fd5b505034610112578160031936011261011257905490516001600160a01b039091168152602090f35b919050346101685780600319360112610168576101af61082a565b916101b8610845565b6001600160a01b0393841680865260066020528386205490939190851633036102795784811694851561026a57848752836020528287205493841561025c57847faa4ecfd5324d73e3b54d038b3ae8ac8f88866d49dc334dc1f02fe36e0f93574895936020959361025493898c5287528a858120557f00000000000000000000000000000000000000000000000000000000000000001661087e565b51908152a380f35b8351631e9acf1760e31b8152fd5b50505163d92e233d60e01b8152fd5b50516282b42960e81b8152fd5b91905034610168576060366003190112610168576102a261082a565b916102ab610845565b84546044359491926001600160a01b0392918316330361030c5761012c86116102fe575081168552600660205282852091166bffffffffffffffffffffffff60a01b825416179055600560205282205580f35b8451630cba035d60e11b8152fd5b84516282b42960e81b8152fd5b5050346101125781600319360112610112576020905161012c8152f35b9190503461016857806003193601126101685761035161082a565b6024359182156104b85760288302938385046028036104a5576001600160a01b03928316808752600560205282872054909561271090819004929186810290878204036104925704936103a4858461085b565b907f0000000000000000000000000000000000000000000000000000000000000000168451916323b872dd60e01b8a523384523060245260445260208960648180855af160018a5114811615610473575b828652896060521561046157505091817facf5781f729863816d01e6d77635b13f2998b176b9a3550306ac6363f601bc2b95936104376060969460035461085b565b60035587895260205281882061044e84825461085b565b905581519384526020840152820152a280f35b602492635274afe760e01b8352820152fd5b600181151661048957813b15153d1516166103f5565b823d8b823e3d90fd5b634e487b7160e01b895260118352602489fd5b634e487b7160e01b865260119052602485fd5b51631f2a200560e01b81528390fd5b5050346101125760203660031901126101125760209181906001600160a01b036104ef61082a565b1681526005845220549051908152f35b505034610112578160031936011261011257517f00000000000000000000000000000000000000000000000000000000000000006001600160a01b03168152602090f35b9050346101685760203660031901126101685761055e61082a565b338452600260205260ff8385205416156105ac576001600160a01b031691821561059f5750506bffffffffffffffffffffffff60a01b600154161760015580f35b5163d92e233d60e01b8152fd5b5090516282b42960e81b8152fd5b905034610168576020366003190112610168576105d561082a565b91338452600260205260ff818520541615610666576001600160a01b038381169390841561026a5760035493841561025c57509161065e847f0636f1043cff5f4c437926a4412416778ddc5e970feb177685b587e81dad90959593602095896003557f00000000000000000000000000000000000000000000000000000000000000001661087e565b51908152a280f35b516282b42960e81b8152fd5b9050346101685760203660031901126101685761068d61082a565b338452600260205260ff8385205416156105ac576001600160a01b031691821561059f57505081546001600160a01b03191617815580f35b5050346101125781600319360112610112576020905160288152f35b919050346101685780600319360112610168576106fc61082a565b906024359182151580930361079157338552600260205260ff828620541615610782576001600160a01b031692831561077457507f55a5194bc0174fcaf12b2978bef43911466bf63b34db8d1dd1a0d5dcd5c41bea916020918486526002835280862060ff1981541660ff841617905551908152a280f35b905163d92e233d60e01b8152fd5b81516282b42960e81b81528490fd5b8480fd5b5050346101125781600319360112610112576020906003549051908152f35b5050346101125760203660031901126101125760209160ff9082906001600160a01b036107df61082a565b1681526002855220541690519015158152f35b84908434610168576020366003190112610168576020926001600160a01b0391908261081c61082a565b168152600685522054168152f35b600435906001600160a01b038216820361084057565b600080fd5b602435906001600160a01b038216820361084057565b9190820180921161086857565b634e487b7160e01b600052601160045260246000fd5b60405163a9059cbb60e01b60009081526001600160a01b039384166004526024949094529260209060448180855af16001600051148116156108df575b83604052156108c957505050565b635274afe760e01b835216600482015260249150fd5b60018115166108f557813b15153d1516166108bb565b833d6000823e3d90fdfea2646970667358221220927c2c850744a909fecde8646b30a177f89a5b4f3814d5ba569270df630c991e64736f6c63430008140033","opcodes":"PUSH1 0xA0 CALLVALUE PUSH2 0xFA JUMPI PUSH1 0x1F PUSH2 0xA5F CODESIZE DUP2 SWAP1 SUB SWAP2 DUP3 ADD PUSH1 0x1F NOT AND DUP4 ADD SWAP2 PUSH1 0x1 PUSH1 0x1 PUSH1 0x40 SHL SUB DUP4 GT DUP5 DUP5 LT OR PUSH2 0xFF JUMPI DUP1 DUP5 SWAP3 PUSH1 0x60 SWAP5 PUSH1 0x40 MSTORE DUP4 CODECOPY DUP2 ADD SUB SLT PUSH2 0xFA JUMPI PUSH2 0x47 DUP2 PUSH2 0x115 JUMP JUMPDEST PUSH2 0x5F PUSH1 0x40 PUSH2 0x58 PUSH1 0x20 DUP6 ADD PUSH2 0x115 JUMP JUMPDEST SWAP4 ADD PUSH2 0x115 JUMP JUMPDEST PUSH1 0x1 PUSH1 0x1 PUSH1 0xA0 SHL SUB SWAP2 DUP1 DUP4 AND ISZERO DUP1 ISZERO PUSH2 0xF0 JUMPI JUMPDEST PUSH2 0xDE JUMPI PUSH1 0x80 MSTORE DUP2 PUSH1 0x1 DUP1 PUSH1 0xA0 SHL SUB NOT SWAP4 AND DUP4 PUSH1 0x1 SLOAD AND OR PUSH1 0x1 SSTORE AND SWAP1 PUSH1 0x0 SLOAD AND OR PUSH1 0x0 SSTORE CALLER PUSH1 0x0 MSTORE PUSH1 0x2 PUSH1 0x20 MSTORE PUSH1 0x40 PUSH1 0x0 KECCAK256 PUSH1 0x1 PUSH1 0xFF NOT DUP3 SLOAD AND OR SWAP1 SSTORE PUSH1 0x40 MLOAD PUSH2 0x935 SWAP1 DUP2 PUSH2 0x12A DUP3 CODECOPY PUSH1 0x80 MLOAD DUP2 DUP2 DUP2 PUSH2 0x22F ADD MSTORE DUP2 DUP2 PUSH2 0x3A7 ADD MSTORE DUP2 DUP2 PUSH2 0x514 ADD MSTORE PUSH2 0x639 ADD MSTORE RETURN JUMPDEST PUSH1 0x40 MLOAD PUSH4 0xD92E233D PUSH1 0xE0 SHL DUP2 MSTORE PUSH1 0x4 SWAP1 REVERT JUMPDEST POP DUP3 DUP5 AND ISZERO PUSH2 0x73 JUMP JUMPDEST PUSH1 0x0 DUP1 REVERT JUMPDEST PUSH4 0x4E487B71 PUSH1 0xE0 SHL PUSH1 0x0 MSTORE PUSH1 0x41 PUSH1 0x4 MSTORE PUSH1 0x24 PUSH1 0x0 REVERT JUMPDEST MLOAD SWAP1 PUSH1 0x1 PUSH1 0x1 PUSH1 0xA0 SHL SUB DUP3 AND DUP3 SUB PUSH2 0xFA JUMPI JUMP INVALID PUSH1 0x80 PUSH1 0x40 DUP2 DUP2 MSTORE PUSH1 0x4 SWAP2 DUP3 CALLDATASIZE LT ISZERO PUSH2 0x16 JUMPI PUSH1 0x0 DUP1 REVERT JUMPDEST PUSH1 0x0 SWAP3 DUP4 CALLDATALOAD PUSH1 0xE0 SHR SWAP2 DUP3 PUSH4 0x23774AF2 EQ PUSH2 0x7F2 JUMPI POP DUP2 PUSH4 0x24D7806C EQ PUSH2 0x7B4 JUMPI DUP2 PUSH4 0x2F98C9E8 EQ PUSH2 0x795 JUMPI DUP2 PUSH4 0x4B0BDDD2 EQ PUSH2 0x6E1 JUMPI DUP2 PUSH4 0x539AA77F EQ PUSH2 0x6C5 JUMPI DUP2 PUSH4 0x5BB47808 EQ PUSH2 0x672 JUMPI DUP2 PUSH4 0x5FA65A04 EQ PUSH2 0x5BA JUMPI DUP2 PUSH4 0x8831E9CF EQ PUSH2 0x543 JUMPI DUP2 PUSH4 0x930C7976 EQ PUSH2 0x4FF JUMPI DUP2 PUSH4 0x9EFF1609 EQ PUSH2 0x4C7 JUMPI DUP2 PUSH4 0xA033FCD4 EQ PUSH2 0x336 JUMPI DUP2 PUSH4 0xA844A134 EQ PUSH2 0x319 JUMPI DUP2 PUSH4 0xB6F7134B EQ PUSH2 0x286 JUMPI DUP2 PUSH4 0xB947EFCB EQ PUSH2 0x194 JUMPI DUP2 PUSH4 0xC45A0155 EQ PUSH2 0x16C JUMPI DUP2 PUSH4 0xC598B2F9 EQ PUSH2 0x132 JUMPI POP DUP1 PUSH4 0xE1A45218 EQ PUSH2 0x116 JUMPI PUSH4 0xFA2AF9DA EQ PUSH2 0xEB JUMPI PUSH1 0x0 DUP1 REVERT JUMPDEST CALLVALUE PUSH2 0x112 JUMPI DUP2 PUSH1 0x3 NOT CALLDATASIZE ADD SLT PUSH2 0x112 JUMPI PUSH1 0x1 SLOAD SWAP1 MLOAD PUSH1 0x1 PUSH1 0x1 PUSH1 0xA0 SHL SUB SWAP1 SWAP2 AND DUP2 MSTORE PUSH1 0x20 SWAP1 RETURN JUMPDEST POP DUP1 REVERT JUMPDEST POP CALLVALUE PUSH2 0x112 JUMPI DUP2 PUSH1 0x3 NOT CALLDATASIZE ADD SLT PUSH2 0x112 JUMPI PUSH1 0x20 SWAP1 MLOAD PUSH2 0x2710 DUP2 MSTORE RETURN JUMPDEST SWAP1 POP CALLVALUE PUSH2 0x168 JUMPI PUSH1 0x20 CALLDATASIZE PUSH1 0x3 NOT ADD SLT PUSH2 0x168 JUMPI PUSH1 0x20 SWAP3 DUP3 SWAP2 PUSH1 0x1 PUSH1 0x1 PUSH1 0xA0 SHL SUB PUSH2 0x15A PUSH2 0x82A JUMP JUMPDEST AND DUP3 MSTORE DUP5 MSTORE KECCAK256 SLOAD SWAP1 MLOAD SWAP1 DUP2 MSTORE RETURN JUMPDEST DUP3 DUP1 REVERT JUMPDEST POP POP CALLVALUE PUSH2 0x112 JUMPI DUP2 PUSH1 0x3 NOT CALLDATASIZE ADD SLT PUSH2 0x112 JUMPI SWAP1 SLOAD SWAP1 MLOAD PUSH1 0x1 PUSH1 0x1 PUSH1 0xA0 SHL SUB SWAP1 SWAP2 AND DUP2 MSTORE PUSH1 0x20 SWAP1 RETURN JUMPDEST SWAP2 SWAP1 POP CALLVALUE PUSH2 0x168 JUMPI DUP1 PUSH1 0x3 NOT CALLDATASIZE ADD SLT PUSH2 0x168 JUMPI PUSH2 0x1AF PUSH2 0x82A JUMP JUMPDEST SWAP2 PUSH2 0x1B8 PUSH2 0x845 JUMP JUMPDEST PUSH1 0x1 PUSH1 0x1 PUSH1 0xA0 SHL SUB SWAP4 DUP5 AND DUP1 DUP7 MSTORE PUSH1 0x6 PUSH1 0x20 MSTORE DUP4 DUP7 KECCAK256 SLOAD SWAP1 SWAP4 SWAP2 SWAP1 DUP6 AND CALLER SUB PUSH2 0x279 JUMPI DUP5 DUP2 AND SWAP5 DUP6 ISZERO PUSH2 0x26A JUMPI DUP5 DUP8 MSTORE DUP4 PUSH1 0x20 MSTORE DUP3 DUP8 KECCAK256 SLOAD SWAP4 DUP5 ISZERO PUSH2 0x25C JUMPI DUP5 PUSH32 0xAA4ECFD5324D73E3B54D038B3AE8AC8F88866D49DC334DC1F02FE36E0F935748 SWAP6 SWAP4 PUSH1 0x20 SWAP6 SWAP4 PUSH2 0x254 SWAP4 DUP10 DUP13 MSTORE DUP8 MSTORE DUP11 DUP6 DUP2 KECCAK256 SSTORE PUSH32 0x0 AND PUSH2 0x87E JUMP JUMPDEST MLOAD SWAP1 DUP2 MSTORE LOG3 DUP1 RETURN JUMPDEST DUP4 MLOAD PUSH4 0x1E9ACF17 PUSH1 0xE3 SHL DUP2 MSTORE REVERT JUMPDEST POP POP MLOAD PUSH4 0xD92E233D PUSH1 0xE0 SHL DUP2 MSTORE REVERT JUMPDEST POP MLOAD PUSH3 0x82B429 PUSH1 0xE8 SHL DUP2 MSTORE REVERT JUMPDEST SWAP2 SWAP1 POP CALLVALUE PUSH2 0x168 JUMPI PUSH1 0x60 CALLDATASIZE PUSH1 0x3 NOT ADD SLT PUSH2 0x168 JUMPI PUSH2 0x2A2 PUSH2 0x82A JUMP JUMPDEST SWAP2 PUSH2 0x2AB PUSH2 0x845 JUMP JUMPDEST DUP5 SLOAD PUSH1 0x44 CALLDATALOAD SWAP5 SWAP2 SWAP3 PUSH1 0x1 PUSH1 0x1 PUSH1 0xA0 SHL SUB SWAP3 SWAP2 DUP4 AND CALLER SUB PUSH2 0x30C JUMPI PUSH2 0x12C DUP7 GT PUSH2 0x2FE JUMPI POP DUP2 AND DUP6 MSTORE PUSH1 0x6 PUSH1 0x20 MSTORE DUP3 DUP6 KECCAK256 SWAP2 AND PUSH12 0xFFFFFFFFFFFFFFFFFFFFFFFF PUSH1 0xA0 SHL DUP3 SLOAD AND OR SWAP1 SSTORE PUSH1 0x5 PUSH1 0x20 MSTORE DUP3 KECCAK256 SSTORE DUP1 RETURN JUMPDEST DUP5 MLOAD PUSH4 0xCBA035D PUSH1 0xE1 SHL DUP2 MSTORE REVERT JUMPDEST DUP5 MLOAD PUSH3 0x82B429 PUSH1 0xE8 SHL DUP2 MSTORE REVERT JUMPDEST POP POP CALLVALUE PUSH2 0x112 JUMPI DUP2 PUSH1 0x3 NOT CALLDATASIZE ADD SLT PUSH2 0x112 JUMPI PUSH1 0x20 SWAP1 MLOAD PUSH2 0x12C DUP2 MSTORE RETURN JUMPDEST SWAP2 SWAP1 POP CALLVALUE PUSH2 0x168 JUMPI DUP1 PUSH1 0x3 NOT CALLDATASIZE ADD SLT PUSH2 0x168 JUMPI PUSH2 0x351 PUSH2 0x82A JUMP JUMPDEST PUSH1 0x24 CALLDATALOAD SWAP2 DUP3 ISZERO PUSH2 0x4B8 JUMPI PUSH1 0x28 DUP4 MUL SWAP4 DUP4 DUP6 DIV PUSH1 0x28 SUB PUSH2 0x4A5 JUMPI PUSH1 0x1 PUSH1 0x1 PUSH1 0xA0 SHL SUB SWAP3 DUP4 AND DUP1 DUP8 MSTORE PUSH1 0x5 PUSH1 0x20 MSTORE DUP3 DUP8 KECCAK256 SLOAD SWAP1 SWAP6 PUSH2 0x2710 SWAP1 DUP2 SWAP1 DIV SWAP3 SWAP2 DUP7 DUP2 MUL SWAP1 DUP8 DUP3 DIV SUB PUSH2 0x492 JUMPI DIV SWAP4 PUSH2 0x3A4 DUP6 DUP5 PUSH2 0x85B JUMP JUMPDEST SWAP1 PUSH32 0x0 AND DUP5 MLOAD SWAP2 PUSH4 0x23B872DD PUSH1 0xE0 SHL DUP11 MSTORE CALLER DUP5 MSTORE ADDRESS PUSH1 0x24 MSTORE PUSH1 0x44 MSTORE PUSH1 0x20 DUP10 PUSH1 0x64 DUP2 DUP1 DUP6 GAS CALL PUSH1 0x1 DUP11 MLOAD EQ DUP2 AND ISZERO PUSH2 0x473 JUMPI JUMPDEST DUP3 DUP7 MSTORE DUP10 PUSH1 0x60 MSTORE ISZERO PUSH2 0x461 JUMPI POP POP SWAP2 DUP2 PUSH32 0xACF5781F729863816D01E6D77635B13F2998B176B9A3550306AC6363F601BC2B SWAP6 SWAP4 PUSH2 0x437 PUSH1 0x60 SWAP7 SWAP5 PUSH1 0x3 SLOAD PUSH2 0x85B JUMP JUMPDEST PUSH1 0x3 SSTORE DUP8 DUP10 MSTORE PUSH1 0x20 MSTORE DUP2 DUP9 KECCAK256 PUSH2 0x44E DUP5 DUP3 SLOAD PUSH2 0x85B JUMP JUMPDEST SWAP1 SSTORE DUP2 MLOAD SWAP4 DUP5 MSTORE PUSH1 0x20 DUP5 ADD MSTORE DUP3 ADD MSTORE LOG2 DUP1 RETURN JUMPDEST PUSH1 0x24 SWAP3 PUSH4 0x5274AFE7 PUSH1 0xE0 SHL DUP4 MSTORE DUP3 ADD MSTORE REVERT JUMPDEST PUSH1 0x1 DUP2 ISZERO AND PUSH2 0x489 JUMPI DUP2 EXTCODESIZE ISZERO ISZERO RETURNDATASIZE ISZERO AND AND PUSH2 0x3F5 JUMP JUMPDEST DUP3 RETURNDATASIZE DUP12 DUP3 RETURNDATACOPY RETURNDATASIZE SWAP1 REVERT JUMPDEST PUSH4 0x4E487B71 PUSH1 0xE0 SHL DUP10 MSTORE PUSH1 0x11 DUP4 MSTORE PUSH1 0x24 DUP10 REVERT JUMPDEST PUSH4 0x4E487B71 PUSH1 0xE0 SHL DUP7 MSTORE PUSH1 0x11 SWAP1 MSTORE PUSH1 0x24 DUP6 REVERT JUMPDEST MLOAD PUSH4 0x1F2A2005 PUSH1 0xE0 SHL DUP2 MSTORE DUP4 SWAP1 REVERT JUMPDEST POP POP CALLVALUE PUSH2 0x112 JUMPI PUSH1 0x20 CALLDATASIZE PUSH1 0x3 NOT ADD SLT PUSH2 0x112 JUMPI PUSH1 0x20 SWAP2 DUP2 SWAP1 PUSH1 0x1 PUSH1 0x1 PUSH1 0xA0 SHL SUB PUSH2 0x4EF PUSH2 0x82A JUMP JUMPDEST AND DUP2 MSTORE PUSH1 0x5 DUP5 MSTORE KECCAK256 SLOAD SWAP1 MLOAD SWAP1 DUP2 MSTORE RETURN JUMPDEST POP POP CALLVALUE PUSH2 0x112 JUMPI DUP2 PUSH1 0x3 NOT CALLDATASIZE ADD SLT PUSH2 0x112 JUMPI MLOAD PUSH32 0x0 PUSH1 0x1 PUSH1 0x1 PUSH1 0xA0 SHL SUB AND DUP2 MSTORE PUSH1 0x20 SWAP1 RETURN JUMPDEST SWAP1 POP CALLVALUE PUSH2 0x168 JUMPI PUSH1 0x20 CALLDATASIZE PUSH1 0x3 NOT ADD SLT PUSH2 0x168 JUMPI PUSH2 0x55E PUSH2 0x82A JUMP JUMPDEST CALLER DUP5 MSTORE PUSH1 0x2 PUSH1 0x20 MSTORE PUSH1 0xFF DUP4 DUP6 KECCAK256 SLOAD AND ISZERO PUSH2 0x5AC JUMPI PUSH1 0x1 PUSH1 0x1 PUSH1 0xA0 SHL SUB AND SWAP2 DUP3 ISZERO PUSH2 0x59F JUMPI POP POP PUSH12 0xFFFFFFFFFFFFFFFFFFFFFFFF PUSH1 0xA0 SHL PUSH1 0x1 SLOAD AND OR PUSH1 0x1 SSTORE DUP1 RETURN JUMPDEST MLOAD PUSH4 0xD92E233D PUSH1 0xE0 SHL DUP2 MSTORE REVERT JUMPDEST POP SWAP1 MLOAD PUSH3 0x82B429 PUSH1 0xE8 SHL DUP2 MSTORE REVERT JUMPDEST SWAP1 POP CALLVALUE PUSH2 0x168 JUMPI PUSH1 0x20 CALLDATASIZE PUSH1 0x3 NOT ADD SLT PUSH2 0x168 JUMPI PUSH2 0x5D5 PUSH2 0x82A JUMP JUMPDEST SWAP2 CALLER DUP5 MSTORE PUSH1 0x2 PUSH1 0x20 MSTORE PUSH1 0xFF DUP2 DUP6 KECCAK256 SLOAD AND ISZERO PUSH2 0x666 JUMPI PUSH1 0x1 PUSH1 0x1 PUSH1 0xA0 SHL SUB DUP4 DUP2 AND SWAP4 SWAP1 DUP5 ISZERO PUSH2 0x26A JUMPI PUSH1 0x3 SLOAD SWAP4 DUP5 ISZERO PUSH2 0x25C JUMPI POP SWAP2 PUSH2 0x65E DUP5 PUSH32 0x636F1043CFF5F4C437926A4412416778DDC5E970FEB177685B587E81DAD9095 SWAP6 SWAP4 PUSH1 0x20 SWAP6 DUP10 PUSH1 0x3 SSTORE PUSH32 0x0 AND PUSH2 0x87E JUMP JUMPDEST MLOAD SWAP1 DUP2 MSTORE LOG2 DUP1 RETURN JUMPDEST MLOAD PUSH3 0x82B429 PUSH1 0xE8 SHL DUP2 MSTORE REVERT JUMPDEST SWAP1 POP CALLVALUE PUSH2 0x168 JUMPI PUSH1 0x20 CALLDATASIZE PUSH1 0x3 NOT ADD SLT PUSH2 0x168 JUMPI PUSH2 0x68D PUSH2 0x82A JUMP JUMPDEST CALLER DUP5 MSTORE PUSH1 0x2 PUSH1 0x20 MSTORE PUSH1 0xFF DUP4 DUP6 KECCAK256 SLOAD AND ISZERO PUSH2 0x5AC JUMPI PUSH1 0x1 PUSH1 0x1 PUSH1 0xA0 SHL SUB AND SWAP2 DUP3 ISZERO PUSH2 0x59F JUMPI POP POP DUP2 SLOAD PUSH1 0x1 PUSH1 0x1 PUSH1 0xA0 SHL SUB NOT AND OR DUP2 SSTORE DUP1 RETURN JUMPDEST POP POP CALLVALUE PUSH2 0x112 JUMPI DUP2 PUSH1 0x3 NOT CALLDATASIZE ADD SLT PUSH2 0x112 JUMPI PUSH1 0x20 SWAP1 MLOAD PUSH1 0x28 DUP2 MSTORE RETURN JUMPDEST SWAP2 SWAP1 POP CALLVALUE PUSH2 0x168 JUMPI DUP1 PUSH1 0x3 NOT CALLDATASIZE ADD SLT PUSH2 0x168 JUMPI PUSH2 0x6FC PUSH2 0x82A JUMP JUMPDEST SWAP1 PUSH1 0x24 CALLDATALOAD SWAP2 DUP3 ISZERO ISZERO DUP1 SWAP4 SUB PUSH2 0x791 JUMPI CALLER DUP6 MSTORE PUSH1 0x2 PUSH1 0x20 MSTORE PUSH1 0xFF DUP3 DUP7 KECCAK256 SLOAD AND ISZERO PUSH2 0x782 JUMPI PUSH1 0x1 PUSH1 0x1 PUSH1 0xA0 SHL SUB AND SWAP3 DUP4 ISZERO PUSH2 0x774 JUMPI POP PUSH32 0x55A5194BC0174FCAF12B2978BEF43911466BF63B34DB8D1DD1A0D5DCD5C41BEA SWAP2 PUSH1 0x20 SWAP2 DUP5 DUP7 MSTORE PUSH1 0x2 DUP4 MSTORE DUP1 DUP7 KECCAK256 PUSH1 0xFF NOT DUP2 SLOAD AND PUSH1 0xFF DUP5 AND OR SWAP1 SSTORE MLOAD SWAP1 DUP2 MSTORE LOG2 DUP1 RETURN JUMPDEST SWAP1 MLOAD PUSH4 0xD92E233D PUSH1 0xE0 SHL DUP2 MSTORE REVERT JUMPDEST DUP2 MLOAD PUSH3 0x82B429 PUSH1 0xE8 SHL DUP2 MSTORE DUP5 SWAP1 REVERT JUMPDEST DUP5 DUP1 REVERT JUMPDEST POP POP CALLVALUE PUSH2 0x112 JUMPI DUP2 PUSH1 0x3 NOT CALLDATASIZE ADD SLT PUSH2 0x112 JUMPI PUSH1 0x20 SWAP1 PUSH1 0x3 SLOAD SWAP1 MLOAD SWAP1 DUP2 MSTORE RETURN JUMPDEST POP POP CALLVALUE PUSH2 0x112 JUMPI PUSH1 0x20 CALLDATASIZE PUSH1 0x3 NOT ADD SLT PUSH2 0x112 JUMPI PUSH1 0x20 SWAP2 PUSH1 0xFF SWAP1 DUP3 SWAP1 PUSH1 0x1 PUSH1 0x1 PUSH1 0xA0 SHL SUB PUSH2 0x7DF PUSH2 0x82A JUMP JUMPDEST AND DUP2 MSTORE PUSH1 0x2 DUP6 MSTORE KECCAK256 SLOAD AND SWAP1 MLOAD SWAP1 ISZERO ISZERO DUP2 MSTORE RETURN JUMPDEST DUP5 SWAP1 DUP5 CALLVALUE PUSH2 0x168 JUMPI PUSH1 0x20 CALLDATASIZE PUSH1 0x3 NOT ADD SLT PUSH2 0x168 JUMPI PUSH1 0x20 SWAP3 PUSH1 0x1 PUSH1 0x1 PUSH1 0xA0 SHL SUB SWAP2 SWAP1 DUP3 PUSH2 0x81C PUSH2 0x82A JUMP JUMPDEST AND DUP2 MSTORE PUSH1 0x6 DUP6 MSTORE KECCAK256 SLOAD AND DUP2 MSTORE RETURN JUMPDEST PUSH1 0x4 CALLDATALOAD SWAP1 PUSH1 0x1 PUSH1 0x1 PUSH1 0xA0 SHL SUB DUP3 AND DUP3 SUB PUSH2 0x840 JUMPI JUMP JUMPDEST PUSH1 0x0 DUP1 REVERT JUMPDEST PUSH1 0x24 CALLDATALOAD SWAP1 PUSH1 0x1 PUSH1 0x1 PUSH1 0xA0 SHL SUB DUP3 AND DUP3 SUB PUSH2 0x840 JUMPI JUMP JUMPDEST SWAP2 SWAP1 DUP3 ADD DUP1 SWAP3 GT PUSH2 0x868 JUMPI JUMP JUMPDEST PUSH4 0x4E487B71 PUSH1 0xE0 SHL PUSH1 0x0 MSTORE PUSH1 0x11 PUSH1 0x4 MSTORE PUSH1 0x24 PUSH1 0x0 REVERT JUMPDEST PUSH1 0x40 MLOAD PUSH4 0xA9059CBB PUSH1 0xE0 SHL PUSH1 0x0 SWAP1 DUP2 MSTORE PUSH1 0x1 PUSH1 0x1 PUSH1 0xA0 SHL SUB SWAP4 DUP5 AND PUSH1 0x4 MSTORE PUSH1 0x24 SWAP5 SWAP1 SWAP5 MSTORE SWAP3 PUSH1 0x20 SWAP1 PUSH1 0x44 DUP2 DUP1 DUP6 GAS CALL PUSH1 0x1 PUSH1 0x0 MLOAD EQ DUP2 AND ISZERO PUSH2 0x8DF JUMPI JUMPDEST DUP4 PUSH1 0x40 MSTORE ISZERO PUSH2 0x8C9 JUMPI POP POP POP JUMP JUMPDEST PUSH4 0x5274AFE7 PUSH1 0xE0 SHL DUP4 MSTORE AND PUSH1 0x4 DUP3 ADD MSTORE PUSH1 0x24 SWAP2 POP REVERT JUMPDEST PUSH1 0x1 DUP2 ISZERO AND PUSH2 0x8F5 JUMPI DUP2 EXTCODESIZE ISZERO ISZERO RETURNDATASIZE ISZERO AND AND PUSH2 0x8BB JUMP JUMPDEST DUP4 RETURNDATASIZE PUSH1 0x0 DUP3 RETURNDATACOPY RETURNDATASIZE SWAP1 REVERT INVALID LOG2 PUSH5 0x6970667358 0x22 SLT KECCAK256 SWAP3 PUSH29 0x2C850744A909FECDE8646B30A177F89A5B4F3814D5BA569270DF630C99 0x1E PUSH5 0x736F6C6343 STOP ADDMOD EQ STOP CALLER "},"methodIdentifiers":{"BPS_DENOMINATOR()":"e1a45218","MAX_CREATOR_FEE_BPS()":"a844a134","PLATFORM_FEE_BPS()":"539aa77f","claimCreatorFees(address,address)":"b947efcb","claimPlatformFees(address)":"5fa65a04","collectFees(address,uint256)":"a033fcd4","factory()":"c45a0155","isAdmin(address)":"24d7806c","pendingCreatorFees(address)":"c598b2f9","pendingPlatformFees()":"2f98c9e8","platformWallet()":"fa2af9da","registerToken(address,address,uint256)":"b6f7134b","setAdmin(address,bool)":"4b0bddd2","setFactory(address)":"5bb47808","setPlatformWallet(address)":"8831e9cf","tokenCreator(address)":"23774af2","tokenCreatorFee(address)":"9eff1609","wCELO()":"930c7976"}}}}}