{"src/KaboomRouter.sol":{"KaboomRouter":{"abi":[{"inputs":[{"internalType":"address","name":"factory_","type":"address"},{"internalType":"address","name":"feeVault_","type":"address"},{"internalType":"address","name":"wCELO_","type":"address"},{"internalType":"address","name":"usdc_","type":"address"}],"stateMutability":"nonpayable","type":"constructor"},{"inputs":[],"name":"InsufficientOutput","type":"error"},{"inputs":[],"name":"InvalidToken","type":"error"},{"inputs":[],"name":"ReentrancyGuardReentrantCall","type":"error"},{"inputs":[{"internalType":"address","name":"token","type":"address"}],"name":"SafeERC20FailedOperation","type":"error"},{"inputs":[],"name":"SlippageExceeded","type":"error"},{"inputs":[],"name":"ZeroAmount","type":"error"},{"anonymous":false,"inputs":[{"indexed":true,"internalType":"address","name":"token","type":"address"},{"indexed":true,"internalType":"address","name":"pool","type":"address"},{"indexed":false,"internalType":"uint256","name":"initialLiquidity","type":"uint256"},{"indexed":false,"internalType":"uint256","name":"timestamp","type":"uint256"}],"name":"PoolInitialized","type":"event"},{"anonymous":false,"inputs":[{"indexed":true,"internalType":"address","name":"token","type":"address"},{"indexed":true,"internalType":"address","name":"trader","type":"address"},{"indexed":false,"internalType":"bool","name":"isBuy","type":"bool"},{"indexed":false,"internalType":"uint256","name":"amountIn","type":"uint256"},{"indexed":false,"internalType":"uint256","name":"amountOut","type":"uint256"},{"indexed":false,"internalType":"uint256","name":"price","type":"uint256"},{"indexed":false,"internalType":"uint256","name":"timestamp","type":"uint256"}],"name":"Trade","type":"event"},{"inputs":[{"internalType":"address","name":"token","type":"address"},{"internalType":"uint256","name":"amountIn","type":"uint256"},{"internalType":"uint256","name":"minAmountOut","type":"uint256"}],"name":"buy","outputs":[{"internalType":"uint256","name":"amountOut","type":"uint256"}],"stateMutability":"nonpayable","type":"function"},{"inputs":[],"name":"factory","outputs":[{"internalType":"address","name":"","type":"address"}],"stateMutability":"view","type":"function"},{"inputs":[],"name":"feeVault","outputs":[{"internalType":"address","name":"","type":"address"}],"stateMutability":"view","type":"function"},{"inputs":[{"internalType":"address","name":"token","type":"address"},{"internalType":"uint256","name":"amountIn","type":"uint256"}],"name":"getBuyQuote","outputs":[{"internalType":"uint256","name":"amountOut","type":"uint256"},{"internalType":"uint256","name":"priceImpact","type":"uint256"}],"stateMutability":"view","type":"function"},{"inputs":[{"internalType":"address","name":"token","type":"address"},{"internalType":"uint256","name":"amountIn","type":"uint256"}],"name":"getSellQuote","outputs":[{"internalType":"uint256","name":"amountOut","type":"uint256"},{"internalType":"uint256","name":"priceImpact","type":"uint256"}],"stateMutability":"view","type":"function"},{"inputs":[{"internalType":"address","name":"token","type":"address"},{"internalType":"uint256","name":"amountIn","type":"uint256"},{"internalType":"uint256","name":"minAmountOut","type":"uint256"}],"name":"sell","outputs":[{"internalType":"uint256","name":"amountOut","type":"uint256"}],"stateMutability":"nonpayable","type":"function"},{"inputs":[],"name":"usdc","outputs":[{"internalType":"address","name":"","type":"address"}],"stateMutability":"view","type":"function"},{"inputs":[],"name":"wCELO","outputs":[{"internalType":"address","name":"","type":"address"}],"stateMutability":"view","type":"function"}],"evm":{"bytecode":{"linkReferences":{},"object":"610100346200013857601f620015e538819003918201601f19168301916001600160401b038311848410176200013d5780849260809460405283398101031262000138576200004e8162000153565b906200005d6020820162000153565b620000796060620000716040850162000153565b930162000153565b9260017f9b779b17422d0df92223018b32b4d1fa46e071723d6817e2486d003becc55f005560805260a05260c05260e05260405161147c9081620001698239608051818181608e01528181610104015281816105a001528181610d6001528181610f57015281816110a2015281816111be0152818161123e0152611369015260a051818181610183015281816106a101526109f8015260c051818181610154015281816104f901526106d9015260e05181818161029d0152610a3c0152f35b600080fd5b634e487b7160e01b600052604160045260246000fd5b51906001600160a01b0382168203620001385756fe6040608081526004908136101561001557600080fd5b600091823560e01c9081631bf6e95814610a6b5781633e413bee14610a27578163478222c2146109e35781636a2724621461055e5781638aaae30514610528578163930c7976146104e4578163a59ac6dd146100c1575063c45a01551461007b57600080fd5b346100bd57816003193601126100bd57517f00000000000000000000000000000000000000000000000000000000000000006001600160a01b03168152602090f35b5080fd5b8383346100bd576100d136610aa8565b90916100db610c38565b83516348c52f9d60e11b81526001600160a01b03828116828901819052602098909490929091907f00000000000000000000000000000000000000000000000000000000000000008216908a81602481855afa908115610450578a916104c7575b50156104b75786156104a757908391888a8c6101d3857f0000000000000000000000000000000000000000000000000000000000000000166101808d303384610bcb565b8c7f000000000000000000000000000000000000000000000000000000000000000095519485809481938963095ea7b360e01b9d8e8552840160209093929193604081019460018060a01b031681520152565b03925af1801561049d578492918e9161047f575b505016803b1561047b57895163280cff3560e21b81526001600160a01b038816818801908152602081018b905290918c9183919082908490829060400103925af18015610471578c918c9161045a575b50506024918a5192838092630956fef360e21b82528b8a8301525afa908115610450578a91610417575b508181169283156104075789519081526001600160a01b039091168582019081526020810189905290918b9183919082908d90829060400103927f0000000000000000000000000000000000000000000000000000000000000000165af180156103fd57918a918a936103d0575b5060448951809481936302ba337560e11b83528b898401528760248401525af19788156103c55797610391575b508610610383575061031890610313863385610b4a565b611194565b8351926001845286840152848484015260608301524260808301527f9adcf0ad0cda63c4d50f26a48925cf6405df27d422a39c456b5f03f661c8298260a03393a360017f9b779b17422d0df92223018b32b4d1fa46e071723d6817e2486d003becc55f005551908152f35b8451638199f5f360e01b8152fd5b9096508781813d83116103be575b6103a98183610afc565b810103126103b9575195886102fc565b600080fd5b503d61039f565b8751903d90823e3d90fd5b6103ef90833d85116103f6575b6103e78183610afc565b810190610b1e565b508b6102cf565b503d6103dd565b88513d8b823e3d90fd5b895163c1ab6dc160e01b81528690fd5b90508a81813d8311610449575b61042e8183610afc565b810103126104455761043f90610b36565b8b610261565b8980fd5b503d610424565b89513d8c823e3d90fd5b610465919250610ad2565b610445578a8a8d610237565b8a513d8d823e3d90fd5b8a80fd5b8161049592903d106103f6576103e78183610afc565b508c8e6101e7565b8b513d8e823e3d90fd5b8751631f2a200560e01b81528490fd5b875163c1ab6dc160e01b81528490fd5b6104de91508b3d8d116103f6576103e78183610afc565b8b61013c565b5050346100bd57816003193601126100bd57517f00000000000000000000000000000000000000000000000000000000000000006001600160a01b03168152602090f35b82843461055b578160031936011261055b575061054f610546610a92565b60243590610d3b565b82519182526020820152f35b80fd5b8383346100bd5761056e36610aa8565b939091610579610c38565b83516348c52f9d60e11b81526001600160a01b0382811682890181905260209890949290917f00000000000000000000000000000000000000000000000000000000000000008116918a81602481865afa9081156109d95785916109bc575b50156109ac57861561099c578751630956fef360e21b8152838101879052938a85602481865afa948515610990578195610955575b50818516918215610945576106248930338b610bcb565b895163095ea7b360e01b8082526001600160a01b03909716868201908152602081018b90528d90829081906040010381868d5af1801561093b5760448b8f938f938f9091889261091e575b50519788948593631897bcf360e01b85528c85015260248401525af19283156108bd5782936108ef575b5089519586527f00000000000000000000000000000000000000000000000000000000000000006001600160a01b038116868801908152602081018590527f0000000000000000000000000000000000000000000000000000000000000000831697908e90829081906040010381878c5af180156108e557908e916108c7575b505016803b156100bd57895163280cff3560e21b81526001600160a01b038816868201908152602081018590529091839183919082908490829060400103925af180156108bd576108ae575b5060288202928284046028148315171561089b5760e06024918b5192838092631f69565f851b82528c8a8301525afa918215610890576107c5926107ca9594926107bc929161085b575b5061271091829184610c7a565b04930490610d0b565b610d0b565b96871061084d575090610313866107e2933390610b4a565b8351926000845286840152848484015260608301524260808301527f9adcf0ad0cda63c4d50f26a48925cf6405df27d422a39c456b5f03f661c8298260a03393a360017f9b779b17422d0df92223018b32b4d1fa46e071723d6817e2486d003becc55f005551908152f35b8551638199f5f360e01b8152fd5b61087c915060e03d8111610889575b6108748183610afc565b810190610cc3565b509450505050508e6107af565b503d61086a565b8a51903d90823e3d90fd5b634e487b7160e01b825260118552602482fd5b6108b790610ad2565b8b610765565b8a513d84823e3d90fd5b816108dd92903d106103f6576103e78183610afc565b508c8e610719565b8c513d86823e3d90fd5b9092508b81813d8311610917575b6109078183610afc565b810103126100bd5751918c610699565b503d6108fd565b61093490873d89116103f6576103e78183610afc565b503861066f565b8b513d85823e3d90fd5b895163c1ab6dc160e01b81528590fd5b9094508a81813d8311610989575b61096d8183610afc565b810103126109855761097e90610b36565b938b61060d565b8480fd5b503d610963565b508851903d90823e3d90fd5b8751631f2a200560e01b81528390fd5b875163c1ab6dc160e01b81528390fd5b6109d391508b3d8d116103f6576103e78183610afc565b8b6105d8565b89513d87823e3d90fd5b5050346100bd57816003193601126100bd57517f00000000000000000000000000000000000000000000000000000000000000006001600160a01b03168152602090f35b5050346100bd57816003193601126100bd57517f00000000000000000000000000000000000000000000000000000000000000006001600160a01b03168152602090f35b82843461055b578160031936011261055b575061054f610a89610a92565b60243590610f32565b600435906001600160a01b03821682036103b957565b60609060031901126103b9576004356001600160a01b03811681036103b957906024359060443590565b67ffffffffffffffff8111610ae657604052565b634e487b7160e01b600052604160045260246000fd5b90601f8019910116810190811067ffffffffffffffff821117610ae657604052565b908160209103126103b9575180151581036103b95790565b51906001600160a01b03821682036103b957565b60405163a9059cbb60e01b60009081526001600160a01b039384166004526024949094529260209060448180855af1600160005114811615610bab575b8360405215610b9557505050565b635274afe760e01b835216600482015260249150fd5b6001811516610bc157813b15153d151616610b87565b833d6000823e3d90fd5b6040516323b872dd60e01b60009081526001600160a01b03938416600452938316602452604494909452909160209060648180855af1600160005114811615610c22575b83604052600060605215610b9557505050565b6001811516610bc157813b15153d151616610c0f565b7f9b779b17422d0df92223018b32b4d1fa46e071723d6817e2486d003becc55f006002815414610c685760029055565b604051633ee5aeb560e01b8152600490fd5b81810292918115918404141715610c8d57565b634e487b7160e01b600052601160045260246000fd5b8115610cad570490565b634e487b7160e01b600052601260045260246000fd5b908160e09103126103b957610cd781610b36565b91610ce460208301610b36565b91610cf160408201610b36565b9160608201519160808101519160c060a083015192015190565b91908203918211610c8d57565b91908260409103126103b9576020825192015190565b91908201809211610c8d57565b60408051630956fef360e21b81526001600160a01b03808416600483018190529395947f0000000000000000000000000000000000000000000000000000000000000000821694909392909190602081602481895afa908115610f2757600091610eee575b5016938415610edf57602884029184830460281485151715610c8d5760e0906024855180948193631f69565f861b835260048301525afa908115610ed4576004926107c5610e028694610e0b94600091610eaf575b506127109182918a610c7a565b04920487610d0b565b94815192838092630240bc6b60e21b82525afa908115610ea4576000928392610e73575b50506103e593848102948186041490151715610c8d57610e64610e6a92610e5e6103e8610e7097048092610c7a565b92610d2e565b90610ca3565b93611214565b90565b610e96935080919250903d10610e9d575b610e8e8183610afc565b810190610d18565b3880610e2f565b503d610e84565b82513d6000823e3d90fd5b610ec7915060e03d8111610889576108748183610afc565b5094505050505038610df5565b83513d6000823e3d90fd5b50505050509050600090600090565b906020823d8211610f1f575b81610f0760209383610afc565b8101031261055b5750610f1990610b36565b38610da0565b3d9150610efa565b84513d6000823e3d90fd5b604051630956fef360e21b81526001600160a01b0380831660048301819052929493917f000000000000000000000000000000000000000000000000000000000000000082169190602081602481865afa90811561102757600091611040575b50161561103357610fa38286611079565b92602884029084820460281485151715610c8d5760e090602460405180958193631f69565f861b835260048301525afa801561102757610e70946107bc6107c592610ffc95600091611002575061271091829184610c7a565b9361133f565b61101a915060e03d8111610889576108748183610afc565b50945050505050386107af565b6040513d6000823e3d90fd5b5050509050600090600090565b906020823d8211611071575b8161105960209383610afc565b8101031261055b575061106b90610b36565b38610f92565b3d915061104c565b60408051630956fef360e21b81526001600160a01b0392831660048201529091906020816024817f000000000000000000000000000000000000000000000000000000000000000086165afa908115610ed45760009161115b575b50169182156111535781600493815194858092630240bc6b60e21b82525afa928315610ea4576000928394611130575b50506103e590818102918183041490151715610c8d57610e7092610e5e6103e8610e6493048092610c7a565b809192945061114b9350903d10610e9d57610e8e8183610afc565b913880611104565b505050600090565b906020823d821161118c575b8161117460209383610afc565b8101031261055b575061118690610b36565b386110d4565b3d9150611167565b604051631f69565f60e01b81526001600160a01b0391821660048201529060e090829060249082907f0000000000000000000000000000000000000000000000000000000000000000165afa908115611027576000916111f2575090565b61120a915060e03d8111610889576108748183610afc565b5050509250505090565b60408051630956fef360e21b81526001600160a01b039283166004820152909291906020816024817f000000000000000000000000000000000000000000000000000000000000000086165afa908115610f2757600091611306575b501680156111535782600491815192838092630240bc6b60e21b82525afa9283156112fc576000936112db575b505081156112d4576127109182820291808304841490151715610c8d576112c391610ca3565b818111156112cf575090565b905090565b5050600090565b6112f2929350803d10610e9d57610e8e8183610afc565b905090388061129d565b513d6000823e3d90fd5b906020823d8211611337575b8161131f60209383610afc565b8101031261055b575061133190610b36565b38611270565b3d9150611312565b60408051630956fef360e21b81526001600160a01b039283166004820152909291906020816024817f000000000000000000000000000000000000000000000000000000000000000086165afa908115610f275760009161140d575b501680156111535782600491815192838092630240bc6b60e21b82525afa9283156112fc576000936113ed57505081156112d4576127109182820291808304841490151715610c8d576112c391610ca3565b611404929350803d10610e9d57610e8e8183610afc565b5090388061129d565b906020823d821161143e575b8161142660209383610afc565b8101031261055b575061143890610b36565b3861139b565b3d915061141956fea2646970667358221220b39be405b4f7cec056102b5a149a45565ea197110287a6d8071358f4dbcab42f64736f6c63430008140033","opcodes":"PUSH2 0x100 CALLVALUE PUSH3 0x138 JUMPI PUSH1 0x1F PUSH3 0x15E5 CODESIZE DUP2 SWAP1 SUB SWAP2 DUP3 ADD PUSH1 0x1F NOT AND DUP4 ADD SWAP2 PUSH1 0x1 PUSH1 0x1 PUSH1 0x40 SHL SUB DUP4 GT DUP5 DUP5 LT OR PUSH3 0x13D JUMPI DUP1 DUP5 SWAP3 PUSH1 0x80 SWAP5 PUSH1 0x40 MSTORE DUP4 CODECOPY DUP2 ADD SUB SLT PUSH3 0x138 JUMPI PUSH3 0x4E DUP2 PUSH3 0x153 JUMP JUMPDEST SWAP1 PUSH3 0x5D PUSH1 0x20 DUP3 ADD PUSH3 0x153 JUMP JUMPDEST PUSH3 0x79 PUSH1 0x60 PUSH3 0x71 PUSH1 0x40 DUP6 ADD PUSH3 0x153 JUMP JUMPDEST SWAP4 ADD PUSH3 0x153 JUMP JUMPDEST SWAP3 PUSH1 0x1 PUSH32 0x9B779B17422D0DF92223018B32B4D1FA46E071723D6817E2486D003BECC55F00 SSTORE PUSH1 0x80 MSTORE PUSH1 0xA0 MSTORE PUSH1 0xC0 MSTORE PUSH1 0xE0 MSTORE PUSH1 0x40 MLOAD PUSH2 0x147C SWAP1 DUP2 PUSH3 0x169 DUP3 CODECOPY PUSH1 0x80 MLOAD DUP2 DUP2 DUP2 PUSH1 0x8E ADD MSTORE DUP2 DUP2 PUSH2 0x104 ADD MSTORE DUP2 DUP2 PUSH2 0x5A0 ADD MSTORE DUP2 DUP2 PUSH2 0xD60 ADD MSTORE DUP2 DUP2 PUSH2 0xF57 ADD MSTORE DUP2 DUP2 PUSH2 0x10A2 ADD MSTORE DUP2 DUP2 PUSH2 0x11BE ADD MSTORE DUP2 DUP2 PUSH2 0x123E ADD MSTORE PUSH2 0x1369 ADD MSTORE PUSH1 0xA0 MLOAD DUP2 DUP2 DUP2 PUSH2 0x183 ADD MSTORE DUP2 DUP2 PUSH2 0x6A1 ADD MSTORE PUSH2 0x9F8 ADD MSTORE PUSH1 0xC0 MLOAD DUP2 DUP2 DUP2 PUSH2 0x154 ADD MSTORE DUP2 DUP2 PUSH2 0x4F9 ADD MSTORE PUSH2 0x6D9 ADD MSTORE PUSH1 0xE0 MLOAD DUP2 DUP2 DUP2 PUSH2 0x29D ADD MSTORE PUSH2 0xA3C ADD MSTORE RETURN JUMPDEST PUSH1 0x0 DUP1 REVERT JUMPDEST PUSH4 0x4E487B71 PUSH1 0xE0 SHL PUSH1 0x0 MSTORE PUSH1 0x41 PUSH1 0x4 MSTORE PUSH1 0x24 PUSH1 0x0 REVERT JUMPDEST MLOAD SWAP1 PUSH1 0x1 PUSH1 0x1 PUSH1 0xA0 SHL SUB DUP3 AND DUP3 SUB PUSH3 0x138 JUMPI JUMP INVALID PUSH1 0x40 PUSH1 0x80 DUP2 MSTORE PUSH1 0x4 SWAP1 DUP2 CALLDATASIZE LT ISZERO PUSH2 0x15 JUMPI PUSH1 0x0 DUP1 REVERT JUMPDEST PUSH1 0x0 SWAP2 DUP3 CALLDATALOAD PUSH1 0xE0 SHR SWAP1 DUP2 PUSH4 0x1BF6E958 EQ PUSH2 0xA6B JUMPI DUP2 PUSH4 0x3E413BEE EQ PUSH2 0xA27 JUMPI DUP2 PUSH4 0x478222C2 EQ PUSH2 0x9E3 JUMPI DUP2 PUSH4 0x6A272462 EQ PUSH2 0x55E JUMPI DUP2 PUSH4 0x8AAAE305 EQ PUSH2 0x528 JUMPI DUP2 PUSH4 0x930C7976 EQ PUSH2 0x4E4 JUMPI DUP2 PUSH4 0xA59AC6DD EQ PUSH2 0xC1 JUMPI POP PUSH4 0xC45A0155 EQ PUSH2 0x7B JUMPI PUSH1 0x0 DUP1 REVERT JUMPDEST CALLVALUE PUSH2 0xBD JUMPI DUP2 PUSH1 0x3 NOT CALLDATASIZE ADD SLT PUSH2 0xBD JUMPI MLOAD PUSH32 0x0 PUSH1 0x1 PUSH1 0x1 PUSH1 0xA0 SHL SUB AND DUP2 MSTORE PUSH1 0x20 SWAP1 RETURN JUMPDEST POP DUP1 REVERT JUMPDEST DUP4 DUP4 CALLVALUE PUSH2 0xBD JUMPI PUSH2 0xD1 CALLDATASIZE PUSH2 0xAA8 JUMP JUMPDEST SWAP1 SWAP2 PUSH2 0xDB PUSH2 0xC38 JUMP JUMPDEST DUP4 MLOAD PUSH4 0x48C52F9D PUSH1 0xE1 SHL DUP2 MSTORE PUSH1 0x1 PUSH1 0x1 PUSH1 0xA0 SHL SUB DUP3 DUP2 AND DUP3 DUP10 ADD DUP2 SWAP1 MSTORE PUSH1 0x20 SWAP9 SWAP1 SWAP5 SWAP1 SWAP3 SWAP1 SWAP2 SWAP1 PUSH32 0x0 DUP3 AND SWAP1 DUP11 DUP2 PUSH1 0x24 DUP2 DUP6 GAS STATICCALL SWAP1 DUP2 ISZERO PUSH2 0x450 JUMPI DUP11 SWAP2 PUSH2 0x4C7 JUMPI JUMPDEST POP ISZERO PUSH2 0x4B7 JUMPI DUP7 ISZERO PUSH2 0x4A7 JUMPI SWAP1 DUP4 SWAP2 DUP9 DUP11 DUP13 PUSH2 0x1D3 DUP6 PUSH32 0x0 AND PUSH2 0x180 DUP14 ADDRESS CALLER DUP5 PUSH2 0xBCB JUMP JUMPDEST DUP13 PUSH32 0x0 SWAP6 MLOAD SWAP5 DUP6 DUP1 SWAP5 DUP2 SWAP4 DUP10 PUSH4 0x95EA7B3 PUSH1 0xE0 SHL SWAP14 DUP15 DUP6 MSTORE DUP5 ADD PUSH1 0x20 SWAP1 SWAP4 SWAP3 SWAP2 SWAP4 PUSH1 0x40 DUP2 ADD SWAP5 PUSH1 0x1 DUP1 PUSH1 0xA0 SHL SUB AND DUP2 MSTORE ADD MSTORE JUMP JUMPDEST SUB SWAP3 GAS CALL DUP1 ISZERO PUSH2 0x49D JUMPI DUP5 SWAP3 SWAP2 DUP15 SWAP2 PUSH2 0x47F JUMPI JUMPDEST POP POP AND DUP1 EXTCODESIZE ISZERO PUSH2 0x47B JUMPI DUP10 MLOAD PUSH4 0x280CFF35 PUSH1 0xE2 SHL DUP2 MSTORE PUSH1 0x1 PUSH1 0x1 PUSH1 0xA0 SHL SUB DUP9 AND DUP2 DUP9 ADD SWAP1 DUP2 MSTORE PUSH1 0x20 DUP2 ADD DUP12 SWAP1 MSTORE SWAP1 SWAP2 DUP13 SWAP2 DUP4 SWAP2 SWAP1 DUP3 SWAP1 DUP5 SWAP1 DUP3 SWAP1 PUSH1 0x40 ADD SUB SWAP3 GAS CALL DUP1 ISZERO PUSH2 0x471 JUMPI DUP13 SWAP2 DUP13 SWAP2 PUSH2 0x45A JUMPI JUMPDEST POP POP PUSH1 0x24 SWAP2 DUP11 MLOAD SWAP3 DUP4 DUP1 SWAP3 PUSH4 0x956FEF3 PUSH1 0xE2 SHL DUP3 MSTORE DUP12 DUP11 DUP4 ADD MSTORE GAS STATICCALL SWAP1 DUP2 ISZERO PUSH2 0x450 JUMPI DUP11 SWAP2 PUSH2 0x417 JUMPI JUMPDEST POP DUP2 DUP2 AND SWAP3 DUP4 ISZERO PUSH2 0x407 JUMPI DUP10 MLOAD SWAP1 DUP2 MSTORE PUSH1 0x1 PUSH1 0x1 PUSH1 0xA0 SHL SUB SWAP1 SWAP2 AND DUP6 DUP3 ADD SWAP1 DUP2 MSTORE PUSH1 0x20 DUP2 ADD DUP10 SWAP1 MSTORE SWAP1 SWAP2 DUP12 SWAP2 DUP4 SWAP2 SWAP1 DUP3 SWAP1 DUP14 SWAP1 DUP3 SWAP1 PUSH1 0x40 ADD SUB SWAP3 PUSH32 0x0 AND GAS CALL DUP1 ISZERO PUSH2 0x3FD JUMPI SWAP2 DUP11 SWAP2 DUP11 SWAP4 PUSH2 0x3D0 JUMPI JUMPDEST POP PUSH1 0x44 DUP10 MLOAD DUP1 SWAP5 DUP2 SWAP4 PUSH4 0x2BA3375 PUSH1 0xE1 SHL DUP4 MSTORE DUP12 DUP10 DUP5 ADD MSTORE DUP8 PUSH1 0x24 DUP5 ADD MSTORE GAS CALL SWAP8 DUP9 ISZERO PUSH2 0x3C5 JUMPI SWAP8 PUSH2 0x391 JUMPI JUMPDEST POP DUP7 LT PUSH2 0x383 JUMPI POP PUSH2 0x318 SWAP1 PUSH2 0x313 DUP7 CALLER DUP6 PUSH2 0xB4A JUMP JUMPDEST PUSH2 0x1194 JUMP JUMPDEST DUP4 MLOAD SWAP3 PUSH1 0x1 DUP5 MSTORE DUP7 DUP5 ADD MSTORE DUP5 DUP5 DUP5 ADD MSTORE PUSH1 0x60 DUP4 ADD MSTORE TIMESTAMP PUSH1 0x80 DUP4 ADD MSTORE PUSH32 0x9ADCF0AD0CDA63C4D50F26A48925CF6405DF27D422A39C456B5F03F661C82982 PUSH1 0xA0 CALLER SWAP4 LOG3 PUSH1 0x1 PUSH32 0x9B779B17422D0DF92223018B32B4D1FA46E071723D6817E2486D003BECC55F00 SSTORE MLOAD SWAP1 DUP2 MSTORE RETURN JUMPDEST DUP5 MLOAD PUSH4 0x8199F5F3 PUSH1 0xE0 SHL DUP2 MSTORE REVERT JUMPDEST SWAP1 SWAP7 POP DUP8 DUP2 DUP2 RETURNDATASIZE DUP4 GT PUSH2 0x3BE JUMPI JUMPDEST PUSH2 0x3A9 DUP2 DUP4 PUSH2 0xAFC JUMP JUMPDEST DUP2 ADD SUB SLT PUSH2 0x3B9 JUMPI MLOAD SWAP6 DUP9 PUSH2 0x2FC JUMP JUMPDEST PUSH1 0x0 DUP1 REVERT JUMPDEST POP RETURNDATASIZE PUSH2 0x39F JUMP JUMPDEST DUP8 MLOAD SWAP1 RETURNDATASIZE SWAP1 DUP3 RETURNDATACOPY RETURNDATASIZE SWAP1 REVERT JUMPDEST PUSH2 0x3EF SWAP1 DUP4 RETURNDATASIZE DUP6 GT PUSH2 0x3F6 JUMPI JUMPDEST PUSH2 0x3E7 DUP2 DUP4 PUSH2 0xAFC JUMP JUMPDEST DUP2 ADD SWAP1 PUSH2 0xB1E JUMP JUMPDEST POP DUP12 PUSH2 0x2CF JUMP JUMPDEST POP RETURNDATASIZE PUSH2 0x3DD JUMP JUMPDEST DUP9 MLOAD RETURNDATASIZE DUP12 DUP3 RETURNDATACOPY RETURNDATASIZE SWAP1 REVERT JUMPDEST DUP10 MLOAD PUSH4 0xC1AB6DC1 PUSH1 0xE0 SHL DUP2 MSTORE DUP7 SWAP1 REVERT JUMPDEST SWAP1 POP DUP11 DUP2 DUP2 RETURNDATASIZE DUP4 GT PUSH2 0x449 JUMPI JUMPDEST PUSH2 0x42E DUP2 DUP4 PUSH2 0xAFC JUMP JUMPDEST DUP2 ADD SUB SLT PUSH2 0x445 JUMPI PUSH2 0x43F SWAP1 PUSH2 0xB36 JUMP JUMPDEST DUP12 PUSH2 0x261 JUMP JUMPDEST DUP10 DUP1 REVERT JUMPDEST POP RETURNDATASIZE PUSH2 0x424 JUMP JUMPDEST DUP10 MLOAD RETURNDATASIZE DUP13 DUP3 RETURNDATACOPY RETURNDATASIZE SWAP1 REVERT JUMPDEST PUSH2 0x465 SWAP2 SWAP3 POP PUSH2 0xAD2 JUMP JUMPDEST PUSH2 0x445 JUMPI DUP11 DUP11 DUP14 PUSH2 0x237 JUMP JUMPDEST DUP11 MLOAD RETURNDATASIZE DUP14 DUP3 RETURNDATACOPY RETURNDATASIZE SWAP1 REVERT JUMPDEST DUP11 DUP1 REVERT JUMPDEST DUP2 PUSH2 0x495 SWAP3 SWAP1 RETURNDATASIZE LT PUSH2 0x3F6 JUMPI PUSH2 0x3E7 DUP2 DUP4 PUSH2 0xAFC JUMP JUMPDEST POP DUP13 DUP15 PUSH2 0x1E7 JUMP JUMPDEST DUP12 MLOAD RETURNDATASIZE DUP15 DUP3 RETURNDATACOPY RETURNDATASIZE SWAP1 REVERT JUMPDEST DUP8 MLOAD PUSH4 0x1F2A2005 PUSH1 0xE0 SHL DUP2 MSTORE DUP5 SWAP1 REVERT JUMPDEST DUP8 MLOAD PUSH4 0xC1AB6DC1 PUSH1 0xE0 SHL DUP2 MSTORE DUP5 SWAP1 REVERT JUMPDEST PUSH2 0x4DE SWAP2 POP DUP12 RETURNDATASIZE DUP14 GT PUSH2 0x3F6 JUMPI PUSH2 0x3E7 DUP2 DUP4 PUSH2 0xAFC JUMP JUMPDEST DUP12 PUSH2 0x13C JUMP JUMPDEST POP POP CALLVALUE PUSH2 0xBD JUMPI DUP2 PUSH1 0x3 NOT CALLDATASIZE ADD SLT PUSH2 0xBD JUMPI MLOAD PUSH32 0x0 PUSH1 0x1 PUSH1 0x1 PUSH1 0xA0 SHL SUB AND DUP2 MSTORE PUSH1 0x20 SWAP1 RETURN JUMPDEST DUP3 DUP5 CALLVALUE PUSH2 0x55B JUMPI DUP2 PUSH1 0x3 NOT CALLDATASIZE ADD SLT PUSH2 0x55B JUMPI POP PUSH2 0x54F PUSH2 0x546 PUSH2 0xA92 JUMP JUMPDEST PUSH1 0x24 CALLDATALOAD SWAP1 PUSH2 0xD3B JUMP JUMPDEST DUP3 MLOAD SWAP2 DUP3 MSTORE PUSH1 0x20 DUP3 ADD MSTORE RETURN JUMPDEST DUP1 REVERT JUMPDEST DUP4 DUP4 CALLVALUE PUSH2 0xBD JUMPI PUSH2 0x56E CALLDATASIZE PUSH2 0xAA8 JUMP JUMPDEST SWAP4 SWAP1 SWAP2 PUSH2 0x579 PUSH2 0xC38 JUMP JUMPDEST DUP4 MLOAD PUSH4 0x48C52F9D PUSH1 0xE1 SHL DUP2 MSTORE PUSH1 0x1 PUSH1 0x1 PUSH1 0xA0 SHL SUB DUP3 DUP2 AND DUP3 DUP10 ADD DUP2 SWAP1 MSTORE PUSH1 0x20 SWAP9 SWAP1 SWAP5 SWAP3 SWAP1 SWAP2 PUSH32 0x0 DUP2 AND SWAP2 DUP11 DUP2 PUSH1 0x24 DUP2 DUP7 GAS STATICCALL SWAP1 DUP2 ISZERO PUSH2 0x9D9 JUMPI DUP6 SWAP2 PUSH2 0x9BC JUMPI JUMPDEST POP ISZERO PUSH2 0x9AC JUMPI DUP7 ISZERO PUSH2 0x99C JUMPI DUP8 MLOAD PUSH4 0x956FEF3 PUSH1 0xE2 SHL DUP2 MSTORE DUP4 DUP2 ADD DUP8 SWAP1 MSTORE SWAP4 DUP11 DUP6 PUSH1 0x24 DUP2 DUP7 GAS STATICCALL SWAP5 DUP6 ISZERO PUSH2 0x990 JUMPI DUP2 SWAP6 PUSH2 0x955 JUMPI JUMPDEST POP DUP2 DUP6 AND SWAP2 DUP3 ISZERO PUSH2 0x945 JUMPI PUSH2 0x624 DUP10 ADDRESS CALLER DUP12 PUSH2 0xBCB JUMP JUMPDEST DUP10 MLOAD PUSH4 0x95EA7B3 PUSH1 0xE0 SHL DUP1 DUP3 MSTORE PUSH1 0x1 PUSH1 0x1 PUSH1 0xA0 SHL SUB SWAP1 SWAP8 AND DUP7 DUP3 ADD SWAP1 DUP2 MSTORE PUSH1 0x20 DUP2 ADD DUP12 SWAP1 MSTORE DUP14 SWAP1 DUP3 SWAP1 DUP2 SWAP1 PUSH1 0x40 ADD SUB DUP2 DUP7 DUP14 GAS CALL DUP1 ISZERO PUSH2 0x93B JUMPI PUSH1 0x44 DUP12 DUP16 SWAP4 DUP16 SWAP4 DUP16 SWAP1 SWAP2 DUP9 SWAP3 PUSH2 0x91E JUMPI JUMPDEST POP MLOAD SWAP8 DUP9 SWAP5 DUP6 SWAP4 PUSH4 0x1897BCF3 PUSH1 0xE0 SHL DUP6 MSTORE DUP13 DUP6 ADD MSTORE PUSH1 0x24 DUP5 ADD MSTORE GAS CALL SWAP3 DUP4 ISZERO PUSH2 0x8BD JUMPI DUP3 SWAP4 PUSH2 0x8EF JUMPI JUMPDEST POP DUP10 MLOAD SWAP6 DUP7 MSTORE PUSH32 0x0 PUSH1 0x1 PUSH1 0x1 PUSH1 0xA0 SHL SUB DUP2 AND DUP7 DUP9 ADD SWAP1 DUP2 MSTORE PUSH1 0x20 DUP2 ADD DUP6 SWAP1 MSTORE PUSH32 0x0 DUP4 AND SWAP8 SWAP1 DUP15 SWAP1 DUP3 SWAP1 DUP2 SWAP1 PUSH1 0x40 ADD SUB DUP2 DUP8 DUP13 GAS CALL DUP1 ISZERO PUSH2 0x8E5 JUMPI SWAP1 DUP15 SWAP2 PUSH2 0x8C7 JUMPI JUMPDEST POP POP AND DUP1 EXTCODESIZE ISZERO PUSH2 0xBD JUMPI DUP10 MLOAD PUSH4 0x280CFF35 PUSH1 0xE2 SHL DUP2 MSTORE PUSH1 0x1 PUSH1 0x1 PUSH1 0xA0 SHL SUB DUP9 AND DUP7 DUP3 ADD SWAP1 DUP2 MSTORE PUSH1 0x20 DUP2 ADD DUP6 SWAP1 MSTORE SWAP1 SWAP2 DUP4 SWAP2 DUP4 SWAP2 SWAP1 DUP3 SWAP1 DUP5 SWAP1 DUP3 SWAP1 PUSH1 0x40 ADD SUB SWAP3 GAS CALL DUP1 ISZERO PUSH2 0x8BD JUMPI PUSH2 0x8AE JUMPI JUMPDEST POP PUSH1 0x28 DUP3 MUL SWAP3 DUP3 DUP5 DIV PUSH1 0x28 EQ DUP4 ISZERO OR ISZERO PUSH2 0x89B JUMPI PUSH1 0xE0 PUSH1 0x24 SWAP2 DUP12 MLOAD SWAP3 DUP4 DUP1 SWAP3 PUSH4 0x1F69565F DUP6 SHL DUP3 MSTORE DUP13 DUP11 DUP4 ADD MSTORE GAS STATICCALL SWAP2 DUP3 ISZERO PUSH2 0x890 JUMPI PUSH2 0x7C5 SWAP3 PUSH2 0x7CA SWAP6 SWAP5 SWAP3 PUSH2 0x7BC SWAP3 SWAP2 PUSH2 0x85B JUMPI JUMPDEST POP PUSH2 0x2710 SWAP2 DUP3 SWAP2 DUP5 PUSH2 0xC7A JUMP JUMPDEST DIV SWAP4 DIV SWAP1 PUSH2 0xD0B JUMP JUMPDEST PUSH2 0xD0B JUMP JUMPDEST SWAP7 DUP8 LT PUSH2 0x84D JUMPI POP SWAP1 PUSH2 0x313 DUP7 PUSH2 0x7E2 SWAP4 CALLER SWAP1 PUSH2 0xB4A JUMP JUMPDEST DUP4 MLOAD SWAP3 PUSH1 0x0 DUP5 MSTORE DUP7 DUP5 ADD MSTORE DUP5 DUP5 DUP5 ADD MSTORE PUSH1 0x60 DUP4 ADD MSTORE TIMESTAMP PUSH1 0x80 DUP4 ADD MSTORE PUSH32 0x9ADCF0AD0CDA63C4D50F26A48925CF6405DF27D422A39C456B5F03F661C82982 PUSH1 0xA0 CALLER SWAP4 LOG3 PUSH1 0x1 PUSH32 0x9B779B17422D0DF92223018B32B4D1FA46E071723D6817E2486D003BECC55F00 SSTORE MLOAD SWAP1 DUP2 MSTORE RETURN JUMPDEST DUP6 MLOAD PUSH4 0x8199F5F3 PUSH1 0xE0 SHL DUP2 MSTORE REVERT JUMPDEST PUSH2 0x87C SWAP2 POP PUSH1 0xE0 RETURNDATASIZE DUP2 GT PUSH2 0x889 JUMPI JUMPDEST PUSH2 0x874 DUP2 DUP4 PUSH2 0xAFC JUMP JUMPDEST DUP2 ADD SWAP1 PUSH2 0xCC3 JUMP JUMPDEST POP SWAP5 POP POP POP POP POP DUP15 PUSH2 0x7AF JUMP JUMPDEST POP RETURNDATASIZE PUSH2 0x86A JUMP JUMPDEST DUP11 MLOAD SWAP1 RETURNDATASIZE SWAP1 DUP3 RETURNDATACOPY RETURNDATASIZE SWAP1 REVERT JUMPDEST PUSH4 0x4E487B71 PUSH1 0xE0 SHL DUP3 MSTORE PUSH1 0x11 DUP6 MSTORE PUSH1 0x24 DUP3 REVERT JUMPDEST PUSH2 0x8B7 SWAP1 PUSH2 0xAD2 JUMP JUMPDEST DUP12 PUSH2 0x765 JUMP JUMPDEST DUP11 MLOAD RETURNDATASIZE DUP5 DUP3 RETURNDATACOPY RETURNDATASIZE SWAP1 REVERT JUMPDEST DUP2 PUSH2 0x8DD SWAP3 SWAP1 RETURNDATASIZE LT PUSH2 0x3F6 JUMPI PUSH2 0x3E7 DUP2 DUP4 PUSH2 0xAFC JUMP JUMPDEST POP DUP13 DUP15 PUSH2 0x719 JUMP JUMPDEST DUP13 MLOAD RETURNDATASIZE DUP7 DUP3 RETURNDATACOPY RETURNDATASIZE SWAP1 REVERT JUMPDEST SWAP1 SWAP3 POP DUP12 DUP2 DUP2 RETURNDATASIZE DUP4 GT PUSH2 0x917 JUMPI JUMPDEST PUSH2 0x907 DUP2 DUP4 PUSH2 0xAFC JUMP JUMPDEST DUP2 ADD SUB SLT PUSH2 0xBD JUMPI MLOAD SWAP2 DUP13 PUSH2 0x699 JUMP JUMPDEST POP RETURNDATASIZE PUSH2 0x8FD JUMP JUMPDEST PUSH2 0x934 SWAP1 DUP8 RETURNDATASIZE DUP10 GT PUSH2 0x3F6 JUMPI PUSH2 0x3E7 DUP2 DUP4 PUSH2 0xAFC JUMP JUMPDEST POP CODESIZE PUSH2 0x66F JUMP JUMPDEST DUP12 MLOAD RETURNDATASIZE DUP6 DUP3 RETURNDATACOPY RETURNDATASIZE SWAP1 REVERT JUMPDEST DUP10 MLOAD PUSH4 0xC1AB6DC1 PUSH1 0xE0 SHL DUP2 MSTORE DUP6 SWAP1 REVERT JUMPDEST SWAP1 SWAP5 POP DUP11 DUP2 DUP2 RETURNDATASIZE DUP4 GT PUSH2 0x989 JUMPI JUMPDEST PUSH2 0x96D DUP2 DUP4 PUSH2 0xAFC JUMP JUMPDEST DUP2 ADD SUB SLT PUSH2 0x985 JUMPI PUSH2 0x97E SWAP1 PUSH2 0xB36 JUMP JUMPDEST SWAP4 DUP12 PUSH2 0x60D JUMP JUMPDEST DUP5 DUP1 REVERT JUMPDEST POP RETURNDATASIZE PUSH2 0x963 JUMP JUMPDEST POP DUP9 MLOAD SWAP1 RETURNDATASIZE SWAP1 DUP3 RETURNDATACOPY RETURNDATASIZE SWAP1 REVERT JUMPDEST DUP8 MLOAD PUSH4 0x1F2A2005 PUSH1 0xE0 SHL DUP2 MSTORE DUP4 SWAP1 REVERT JUMPDEST DUP8 MLOAD PUSH4 0xC1AB6DC1 PUSH1 0xE0 SHL DUP2 MSTORE DUP4 SWAP1 REVERT JUMPDEST PUSH2 0x9D3 SWAP2 POP DUP12 RETURNDATASIZE DUP14 GT PUSH2 0x3F6 JUMPI PUSH2 0x3E7 DUP2 DUP4 PUSH2 0xAFC JUMP JUMPDEST DUP12 PUSH2 0x5D8 JUMP JUMPDEST DUP10 MLOAD RETURNDATASIZE DUP8 DUP3 RETURNDATACOPY RETURNDATASIZE SWAP1 REVERT JUMPDEST POP POP CALLVALUE PUSH2 0xBD JUMPI DUP2 PUSH1 0x3 NOT CALLDATASIZE ADD SLT PUSH2 0xBD JUMPI MLOAD PUSH32 0x0 PUSH1 0x1 PUSH1 0x1 PUSH1 0xA0 SHL SUB AND DUP2 MSTORE PUSH1 0x20 SWAP1 RETURN JUMPDEST POP POP CALLVALUE PUSH2 0xBD JUMPI DUP2 PUSH1 0x3 NOT CALLDATASIZE ADD SLT PUSH2 0xBD JUMPI MLOAD PUSH32 0x0 PUSH1 0x1 PUSH1 0x1 PUSH1 0xA0 SHL SUB AND DUP2 MSTORE PUSH1 0x20 SWAP1 RETURN JUMPDEST DUP3 DUP5 CALLVALUE PUSH2 0x55B JUMPI DUP2 PUSH1 0x3 NOT CALLDATASIZE ADD SLT PUSH2 0x55B JUMPI POP PUSH2 0x54F PUSH2 0xA89 PUSH2 0xA92 JUMP JUMPDEST PUSH1 0x24 CALLDATALOAD SWAP1 PUSH2 0xF32 JUMP JUMPDEST PUSH1 0x4 CALLDATALOAD SWAP1 PUSH1 0x1 PUSH1 0x1 PUSH1 0xA0 SHL SUB DUP3 AND DUP3 SUB PUSH2 0x3B9 JUMPI JUMP JUMPDEST PUSH1 0x60 SWAP1 PUSH1 0x3 NOT ADD SLT PUSH2 0x3B9 JUMPI PUSH1 0x4 CALLDATALOAD PUSH1 0x1 PUSH1 0x1 PUSH1 0xA0 SHL SUB DUP2 AND DUP2 SUB PUSH2 0x3B9 JUMPI SWAP1 PUSH1 0x24 CALLDATALOAD SWAP1 PUSH1 0x44 CALLDATALOAD SWAP1 JUMP JUMPDEST PUSH8 0xFFFFFFFFFFFFFFFF DUP2 GT PUSH2 0xAE6 JUMPI PUSH1 0x40 MSTORE JUMP JUMPDEST PUSH4 0x4E487B71 PUSH1 0xE0 SHL PUSH1 0x0 MSTORE PUSH1 0x41 PUSH1 0x4 MSTORE PUSH1 0x24 PUSH1 0x0 REVERT JUMPDEST SWAP1 PUSH1 0x1F DUP1 NOT SWAP2 ADD AND DUP2 ADD SWAP1 DUP2 LT PUSH8 0xFFFFFFFFFFFFFFFF DUP3 GT OR PUSH2 0xAE6 JUMPI PUSH1 0x40 MSTORE JUMP JUMPDEST SWAP1 DUP2 PUSH1 0x20 SWAP2 SUB SLT PUSH2 0x3B9 JUMPI MLOAD DUP1 ISZERO ISZERO DUP2 SUB PUSH2 0x3B9 JUMPI SWAP1 JUMP JUMPDEST MLOAD SWAP1 PUSH1 0x1 PUSH1 0x1 PUSH1 0xA0 SHL SUB DUP3 AND DUP3 SUB PUSH2 0x3B9 JUMPI JUMP JUMPDEST PUSH1 0x40 MLOAD PUSH4 0xA9059CBB PUSH1 0xE0 SHL PUSH1 0x0 SWAP1 DUP2 MSTORE PUSH1 0x1 PUSH1 0x1 PUSH1 0xA0 SHL SUB SWAP4 DUP5 AND PUSH1 0x4 MSTORE PUSH1 0x24 SWAP5 SWAP1 SWAP5 MSTORE SWAP3 PUSH1 0x20 SWAP1 PUSH1 0x44 DUP2 DUP1 DUP6 GAS CALL PUSH1 0x1 PUSH1 0x0 MLOAD EQ DUP2 AND ISZERO PUSH2 0xBAB JUMPI JUMPDEST DUP4 PUSH1 0x40 MSTORE ISZERO PUSH2 0xB95 JUMPI POP POP POP JUMP JUMPDEST PUSH4 0x5274AFE7 PUSH1 0xE0 SHL DUP4 MSTORE AND PUSH1 0x4 DUP3 ADD MSTORE PUSH1 0x24 SWAP2 POP REVERT JUMPDEST PUSH1 0x1 DUP2 ISZERO AND PUSH2 0xBC1 JUMPI DUP2 EXTCODESIZE ISZERO ISZERO RETURNDATASIZE ISZERO AND AND PUSH2 0xB87 JUMP JUMPDEST DUP4 RETURNDATASIZE PUSH1 0x0 DUP3 RETURNDATACOPY RETURNDATASIZE SWAP1 REVERT JUMPDEST PUSH1 0x40 MLOAD PUSH4 0x23B872DD PUSH1 0xE0 SHL PUSH1 0x0 SWAP1 DUP2 MSTORE PUSH1 0x1 PUSH1 0x1 PUSH1 0xA0 SHL SUB SWAP4 DUP5 AND PUSH1 0x4 MSTORE SWAP4 DUP4 AND PUSH1 0x24 MSTORE PUSH1 0x44 SWAP5 SWAP1 SWAP5 MSTORE SWAP1 SWAP2 PUSH1 0x20 SWAP1 PUSH1 0x64 DUP2 DUP1 DUP6 GAS CALL PUSH1 0x1 PUSH1 0x0 MLOAD EQ DUP2 AND ISZERO PUSH2 0xC22 JUMPI JUMPDEST DUP4 PUSH1 0x40 MSTORE PUSH1 0x0 PUSH1 0x60 MSTORE ISZERO PUSH2 0xB95 JUMPI POP POP POP JUMP JUMPDEST PUSH1 0x1 DUP2 ISZERO AND PUSH2 0xBC1 JUMPI DUP2 EXTCODESIZE ISZERO ISZERO RETURNDATASIZE ISZERO AND AND PUSH2 0xC0F JUMP JUMPDEST PUSH32 0x9B779B17422D0DF92223018B32B4D1FA46E071723D6817E2486D003BECC55F00 PUSH1 0x2 DUP2 SLOAD EQ PUSH2 0xC68 JUMPI PUSH1 0x2 SWAP1 SSTORE JUMP JUMPDEST PUSH1 0x40 MLOAD PUSH4 0x3EE5AEB5 PUSH1 0xE0 SHL DUP2 MSTORE PUSH1 0x4 SWAP1 REVERT JUMPDEST DUP2 DUP2 MUL SWAP3 SWAP2 DUP2 ISZERO SWAP2 DUP5 DIV EQ OR ISZERO PUSH2 0xC8D JUMPI JUMP JUMPDEST PUSH4 0x4E487B71 PUSH1 0xE0 SHL PUSH1 0x0 MSTORE PUSH1 0x11 PUSH1 0x4 MSTORE PUSH1 0x24 PUSH1 0x0 REVERT JUMPDEST DUP2 ISZERO PUSH2 0xCAD JUMPI DIV SWAP1 JUMP JUMPDEST PUSH4 0x4E487B71 PUSH1 0xE0 SHL PUSH1 0x0 MSTORE PUSH1 0x12 PUSH1 0x4 MSTORE PUSH1 0x24 PUSH1 0x0 REVERT JUMPDEST SWAP1 DUP2 PUSH1 0xE0 SWAP2 SUB SLT PUSH2 0x3B9 JUMPI PUSH2 0xCD7 DUP2 PUSH2 0xB36 JUMP JUMPDEST SWAP2 PUSH2 0xCE4 PUSH1 0x20 DUP4 ADD PUSH2 0xB36 JUMP JUMPDEST SWAP2 PUSH2 0xCF1 PUSH1 0x40 DUP3 ADD PUSH2 0xB36 JUMP JUMPDEST SWAP2 PUSH1 0x60 DUP3 ADD MLOAD SWAP2 PUSH1 0x80 DUP2 ADD MLOAD SWAP2 PUSH1 0xC0 PUSH1 0xA0 DUP4 ADD MLOAD SWAP3 ADD MLOAD SWAP1 JUMP JUMPDEST SWAP2 SWAP1 DUP3 SUB SWAP2 DUP3 GT PUSH2 0xC8D JUMPI JUMP JUMPDEST SWAP2 SWAP1 DUP3 PUSH1 0x40 SWAP2 SUB SLT PUSH2 0x3B9 JUMPI PUSH1 0x20 DUP3 MLOAD SWAP3 ADD MLOAD SWAP1 JUMP JUMPDEST SWAP2 SWAP1 DUP3 ADD DUP1 SWAP3 GT PUSH2 0xC8D JUMPI JUMP JUMPDEST PUSH1 0x40 DUP1 MLOAD PUSH4 0x956FEF3 PUSH1 0xE2 SHL DUP2 MSTORE PUSH1 0x1 PUSH1 0x1 PUSH1 0xA0 SHL SUB DUP1 DUP5 AND PUSH1 0x4 DUP4 ADD DUP2 SWAP1 MSTORE SWAP4 SWAP6 SWAP5 PUSH32 0x0 DUP3 AND SWAP5 SWAP1 SWAP4 SWAP3 SWAP1 SWAP2 SWAP1 PUSH1 0x20 DUP2 PUSH1 0x24 DUP2 DUP10 GAS STATICCALL SWAP1 DUP2 ISZERO PUSH2 0xF27 JUMPI PUSH1 0x0 SWAP2 PUSH2 0xEEE JUMPI JUMPDEST POP AND SWAP4 DUP5 ISZERO PUSH2 0xEDF JUMPI PUSH1 0x28 DUP5 MUL SWAP2 DUP5 DUP4 DIV PUSH1 0x28 EQ DUP6 ISZERO OR ISZERO PUSH2 0xC8D JUMPI PUSH1 0xE0 SWAP1 PUSH1 0x24 DUP6 MLOAD DUP1 SWAP5 DUP2 SWAP4 PUSH4 0x1F69565F DUP7 SHL DUP4 MSTORE PUSH1 0x4 DUP4 ADD MSTORE GAS STATICCALL SWAP1 DUP2 ISZERO PUSH2 0xED4 JUMPI PUSH1 0x4 SWAP3 PUSH2 0x7C5 PUSH2 0xE02 DUP7 SWAP5 PUSH2 0xE0B SWAP5 PUSH1 0x0 SWAP2 PUSH2 0xEAF JUMPI JUMPDEST POP PUSH2 0x2710 SWAP2 DUP3 SWAP2 DUP11 PUSH2 0xC7A JUMP JUMPDEST DIV SWAP3 DIV DUP8 PUSH2 0xD0B JUMP JUMPDEST SWAP5 DUP2 MLOAD SWAP3 DUP4 DUP1 SWAP3 PUSH4 0x240BC6B PUSH1 0xE2 SHL DUP3 MSTORE GAS STATICCALL SWAP1 DUP2 ISZERO PUSH2 0xEA4 JUMPI PUSH1 0x0 SWAP3 DUP4 SWAP3 PUSH2 0xE73 JUMPI JUMPDEST POP POP PUSH2 0x3E5 SWAP4 DUP5 DUP2 MUL SWAP5 DUP2 DUP7 DIV EQ SWAP1 ISZERO OR ISZERO PUSH2 0xC8D JUMPI PUSH2 0xE64 PUSH2 0xE6A SWAP3 PUSH2 0xE5E PUSH2 0x3E8 PUSH2 0xE70 SWAP8 DIV DUP1 SWAP3 PUSH2 0xC7A JUMP JUMPDEST SWAP3 PUSH2 0xD2E JUMP JUMPDEST SWAP1 PUSH2 0xCA3 JUMP JUMPDEST SWAP4 PUSH2 0x1214 JUMP JUMPDEST SWAP1 JUMP JUMPDEST PUSH2 0xE96 SWAP4 POP DUP1 SWAP2 SWAP3 POP SWAP1 RETURNDATASIZE LT PUSH2 0xE9D JUMPI JUMPDEST PUSH2 0xE8E DUP2 DUP4 PUSH2 0xAFC JUMP JUMPDEST DUP2 ADD SWAP1 PUSH2 0xD18 JUMP JUMPDEST CODESIZE DUP1 PUSH2 0xE2F JUMP JUMPDEST POP RETURNDATASIZE PUSH2 0xE84 JUMP JUMPDEST DUP3 MLOAD RETURNDATASIZE PUSH1 0x0 DUP3 RETURNDATACOPY RETURNDATASIZE SWAP1 REVERT JUMPDEST PUSH2 0xEC7 SWAP2 POP PUSH1 0xE0 RETURNDATASIZE DUP2 GT PUSH2 0x889 JUMPI PUSH2 0x874 DUP2 DUP4 PUSH2 0xAFC JUMP JUMPDEST POP SWAP5 POP POP POP POP POP CODESIZE PUSH2 0xDF5 JUMP JUMPDEST DUP4 MLOAD RETURNDATASIZE PUSH1 0x0 DUP3 RETURNDATACOPY RETURNDATASIZE SWAP1 REVERT JUMPDEST POP POP POP POP POP SWAP1 POP PUSH1 0x0 SWAP1 PUSH1 0x0 SWAP1 JUMP JUMPDEST SWAP1 PUSH1 0x20 DUP3 RETURNDATASIZE DUP3 GT PUSH2 0xF1F JUMPI JUMPDEST DUP2 PUSH2 0xF07 PUSH1 0x20 SWAP4 DUP4 PUSH2 0xAFC JUMP JUMPDEST DUP2 ADD SUB SLT PUSH2 0x55B JUMPI POP PUSH2 0xF19 SWAP1 PUSH2 0xB36 JUMP JUMPDEST CODESIZE PUSH2 0xDA0 JUMP JUMPDEST RETURNDATASIZE SWAP2 POP PUSH2 0xEFA JUMP JUMPDEST DUP5 MLOAD RETURNDATASIZE PUSH1 0x0 DUP3 RETURNDATACOPY RETURNDATASIZE SWAP1 REVERT JUMPDEST PUSH1 0x40 MLOAD PUSH4 0x956FEF3 PUSH1 0xE2 SHL DUP2 MSTORE PUSH1 0x1 PUSH1 0x1 PUSH1 0xA0 SHL SUB DUP1 DUP4 AND PUSH1 0x4 DUP4 ADD DUP2 SWAP1 MSTORE SWAP3 SWAP5 SWAP4 SWAP2 PUSH32 0x0 DUP3 AND SWAP2 SWAP1 PUSH1 0x20 DUP2 PUSH1 0x24 DUP2 DUP7 GAS STATICCALL SWAP1 DUP2 ISZERO PUSH2 0x1027 JUMPI PUSH1 0x0 SWAP2 PUSH2 0x1040 JUMPI JUMPDEST POP AND ISZERO PUSH2 0x1033 JUMPI PUSH2 0xFA3 DUP3 DUP7 PUSH2 0x1079 JUMP JUMPDEST SWAP3 PUSH1 0x28 DUP5 MUL SWAP1 DUP5 DUP3 DIV PUSH1 0x28 EQ DUP6 ISZERO OR ISZERO PUSH2 0xC8D JUMPI PUSH1 0xE0 SWAP1 PUSH1 0x24 PUSH1 0x40 MLOAD DUP1 SWAP6 DUP2 SWAP4 PUSH4 0x1F69565F DUP7 SHL DUP4 MSTORE PUSH1 0x4 DUP4 ADD MSTORE GAS STATICCALL DUP1 ISZERO PUSH2 0x1027 JUMPI PUSH2 0xE70 SWAP5 PUSH2 0x7BC PUSH2 0x7C5 SWAP3 PUSH2 0xFFC SWAP6 PUSH1 0x0 SWAP2 PUSH2 0x1002 JUMPI POP PUSH2 0x2710 SWAP2 DUP3 SWAP2 DUP5 PUSH2 0xC7A JUMP JUMPDEST SWAP4 PUSH2 0x133F JUMP JUMPDEST PUSH2 0x101A SWAP2 POP PUSH1 0xE0 RETURNDATASIZE DUP2 GT PUSH2 0x889 JUMPI PUSH2 0x874 DUP2 DUP4 PUSH2 0xAFC JUMP JUMPDEST POP SWAP5 POP POP POP POP POP CODESIZE PUSH2 0x7AF JUMP JUMPDEST PUSH1 0x40 MLOAD RETURNDATASIZE PUSH1 0x0 DUP3 RETURNDATACOPY RETURNDATASIZE SWAP1 REVERT JUMPDEST POP POP POP SWAP1 POP PUSH1 0x0 SWAP1 PUSH1 0x0 SWAP1 JUMP JUMPDEST SWAP1 PUSH1 0x20 DUP3 RETURNDATASIZE DUP3 GT PUSH2 0x1071 JUMPI JUMPDEST DUP2 PUSH2 0x1059 PUSH1 0x20 SWAP4 DUP4 PUSH2 0xAFC JUMP JUMPDEST DUP2 ADD SUB SLT PUSH2 0x55B JUMPI POP PUSH2 0x106B SWAP1 PUSH2 0xB36 JUMP JUMPDEST CODESIZE PUSH2 0xF92 JUMP JUMPDEST RETURNDATASIZE SWAP2 POP PUSH2 0x104C JUMP JUMPDEST PUSH1 0x40 DUP1 MLOAD PUSH4 0x956FEF3 PUSH1 0xE2 SHL DUP2 MSTORE PUSH1 0x1 PUSH1 0x1 PUSH1 0xA0 SHL SUB SWAP3 DUP4 AND PUSH1 0x4 DUP3 ADD MSTORE SWAP1 SWAP2 SWAP1 PUSH1 0x20 DUP2 PUSH1 0x24 DUP2 PUSH32 0x0 DUP7 AND GAS STATICCALL SWAP1 DUP2 ISZERO PUSH2 0xED4 JUMPI PUSH1 0x0 SWAP2 PUSH2 0x115B JUMPI JUMPDEST POP AND SWAP2 DUP3 ISZERO PUSH2 0x1153 JUMPI DUP2 PUSH1 0x4 SWAP4 DUP2 MLOAD SWAP5 DUP6 DUP1 SWAP3 PUSH4 0x240BC6B PUSH1 0xE2 SHL DUP3 MSTORE GAS STATICCALL SWAP3 DUP4 ISZERO PUSH2 0xEA4 JUMPI PUSH1 0x0 SWAP3 DUP4 SWAP5 PUSH2 0x1130 JUMPI JUMPDEST POP POP PUSH2 0x3E5 SWAP1 DUP2 DUP2 MUL SWAP2 DUP2 DUP4 DIV EQ SWAP1 ISZERO OR ISZERO PUSH2 0xC8D JUMPI PUSH2 0xE70 SWAP3 PUSH2 0xE5E PUSH2 0x3E8 PUSH2 0xE64 SWAP4 DIV DUP1 SWAP3 PUSH2 0xC7A JUMP JUMPDEST DUP1 SWAP2 SWAP3 SWAP5 POP PUSH2 0x114B SWAP4 POP SWAP1 RETURNDATASIZE LT PUSH2 0xE9D JUMPI PUSH2 0xE8E DUP2 DUP4 PUSH2 0xAFC JUMP JUMPDEST SWAP2 CODESIZE DUP1 PUSH2 0x1104 JUMP JUMPDEST POP POP POP PUSH1 0x0 SWAP1 JUMP JUMPDEST SWAP1 PUSH1 0x20 DUP3 RETURNDATASIZE DUP3 GT PUSH2 0x118C JUMPI JUMPDEST DUP2 PUSH2 0x1174 PUSH1 0x20 SWAP4 DUP4 PUSH2 0xAFC JUMP JUMPDEST DUP2 ADD SUB SLT PUSH2 0x55B JUMPI POP PUSH2 0x1186 SWAP1 PUSH2 0xB36 JUMP JUMPDEST CODESIZE PUSH2 0x10D4 JUMP JUMPDEST RETURNDATASIZE SWAP2 POP PUSH2 0x1167 JUMP JUMPDEST PUSH1 0x40 MLOAD PUSH4 0x1F69565F PUSH1 0xE0 SHL DUP2 MSTORE PUSH1 0x1 PUSH1 0x1 PUSH1 0xA0 SHL SUB SWAP2 DUP3 AND PUSH1 0x4 DUP3 ADD MSTORE SWAP1 PUSH1 0xE0 SWAP1 DUP3 SWAP1 PUSH1 0x24 SWAP1 DUP3 SWAP1 PUSH32 0x0 AND GAS STATICCALL SWAP1 DUP2 ISZERO PUSH2 0x1027 JUMPI PUSH1 0x0 SWAP2 PUSH2 0x11F2 JUMPI POP SWAP1 JUMP JUMPDEST PUSH2 0x120A SWAP2 POP PUSH1 0xE0 RETURNDATASIZE DUP2 GT PUSH2 0x889 JUMPI PUSH2 0x874 DUP2 DUP4 PUSH2 0xAFC JUMP JUMPDEST POP POP POP SWAP3 POP POP POP SWAP1 JUMP JUMPDEST PUSH1 0x40 DUP1 MLOAD PUSH4 0x956FEF3 PUSH1 0xE2 SHL DUP2 MSTORE PUSH1 0x1 PUSH1 0x1 PUSH1 0xA0 SHL SUB SWAP3 DUP4 AND PUSH1 0x4 DUP3 ADD MSTORE SWAP1 SWAP3 SWAP2 SWAP1 PUSH1 0x20 DUP2 PUSH1 0x24 DUP2 PUSH32 0x0 DUP7 AND GAS STATICCALL SWAP1 DUP2 ISZERO PUSH2 0xF27 JUMPI PUSH1 0x0 SWAP2 PUSH2 0x1306 JUMPI JUMPDEST POP AND DUP1 ISZERO PUSH2 0x1153 JUMPI DUP3 PUSH1 0x4 SWAP2 DUP2 MLOAD SWAP3 DUP4 DUP1 SWAP3 PUSH4 0x240BC6B PUSH1 0xE2 SHL DUP3 MSTORE GAS STATICCALL SWAP3 DUP4 ISZERO PUSH2 0x12FC JUMPI PUSH1 0x0 SWAP4 PUSH2 0x12DB JUMPI JUMPDEST POP POP DUP2 ISZERO PUSH2 0x12D4 JUMPI PUSH2 0x2710 SWAP2 DUP3 DUP3 MUL SWAP2 DUP1 DUP4 DIV DUP5 EQ SWAP1 ISZERO OR ISZERO PUSH2 0xC8D JUMPI PUSH2 0x12C3 SWAP2 PUSH2 0xCA3 JUMP JUMPDEST DUP2 DUP2 GT ISZERO PUSH2 0x12CF JUMPI POP SWAP1 JUMP JUMPDEST SWAP1 POP SWAP1 JUMP JUMPDEST POP POP PUSH1 0x0 SWAP1 JUMP JUMPDEST PUSH2 0x12F2 SWAP3 SWAP4 POP DUP1 RETURNDATASIZE LT PUSH2 0xE9D JUMPI PUSH2 0xE8E DUP2 DUP4 PUSH2 0xAFC JUMP JUMPDEST SWAP1 POP SWAP1 CODESIZE DUP1 PUSH2 0x129D JUMP JUMPDEST MLOAD RETURNDATASIZE PUSH1 0x0 DUP3 RETURNDATACOPY RETURNDATASIZE SWAP1 REVERT JUMPDEST SWAP1 PUSH1 0x20 DUP3 RETURNDATASIZE DUP3 GT PUSH2 0x1337 JUMPI JUMPDEST DUP2 PUSH2 0x131F PUSH1 0x20 SWAP4 DUP4 PUSH2 0xAFC JUMP JUMPDEST DUP2 ADD SUB SLT PUSH2 0x55B JUMPI POP PUSH2 0x1331 SWAP1 PUSH2 0xB36 JUMP JUMPDEST CODESIZE PUSH2 0x1270 JUMP JUMPDEST RETURNDATASIZE SWAP2 POP PUSH2 0x1312 JUMP JUMPDEST PUSH1 0x40 DUP1 MLOAD PUSH4 0x956FEF3 PUSH1 0xE2 SHL DUP2 MSTORE PUSH1 0x1 PUSH1 0x1 PUSH1 0xA0 SHL SUB SWAP3 DUP4 AND PUSH1 0x4 DUP3 ADD MSTORE SWAP1 SWAP3 SWAP2 SWAP1 PUSH1 0x20 DUP2 PUSH1 0x24 DUP2 PUSH32 0x0 DUP7 AND GAS STATICCALL SWAP1 DUP2 ISZERO PUSH2 0xF27 JUMPI PUSH1 0x0 SWAP2 PUSH2 0x140D JUMPI JUMPDEST POP AND DUP1 ISZERO PUSH2 0x1153 JUMPI DUP3 PUSH1 0x4 SWAP2 DUP2 MLOAD SWAP3 DUP4 DUP1 SWAP3 PUSH4 0x240BC6B PUSH1 0xE2 SHL DUP3 MSTORE GAS STATICCALL SWAP3 DUP4 ISZERO PUSH2 0x12FC JUMPI PUSH1 0x0 SWAP4 PUSH2 0x13ED JUMPI POP POP DUP2 ISZERO PUSH2 0x12D4 JUMPI PUSH2 0x2710 SWAP2 DUP3 DUP3 MUL SWAP2 DUP1 DUP4 DIV DUP5 EQ SWAP1 ISZERO OR ISZERO PUSH2 0xC8D JUMPI PUSH2 0x12C3 SWAP2 PUSH2 0xCA3 JUMP JUMPDEST PUSH2 0x1404 SWAP3 SWAP4 POP DUP1 RETURNDATASIZE LT PUSH2 0xE9D JUMPI PUSH2 0xE8E DUP2 DUP4 PUSH2 0xAFC JUMP JUMPDEST POP SWAP1 CODESIZE DUP1 PUSH2 0x129D JUMP JUMPDEST SWAP1 PUSH1 0x20 DUP3 RETURNDATASIZE DUP3 GT PUSH2 0x143E JUMPI JUMPDEST DUP2 PUSH2 0x1426 PUSH1 0x20 SWAP4 DUP4 PUSH2 0xAFC JUMP JUMPDEST DUP2 ADD SUB SLT PUSH2 0x55B JUMPI POP PUSH2 0x1438 SWAP1 PUSH2 0xB36 JUMP JUMPDEST CODESIZE PUSH2 0x139B JUMP JUMPDEST RETURNDATASIZE SWAP2 POP PUSH2 0x1419 JUMP INVALID LOG2 PUSH5 0x6970667358 0x22 SLT KECCAK256 0xB3 SWAP12 0xE4 SDIV 0xB4 0xF7 0xCE 0xC0 JUMP LT 0x2B GAS EQ SWAP11 GASLIMIT JUMP 0x5E LOG1 SWAP8 GT MUL DUP8 0xA6 0xD8 SMOD SGT PC DELEGATECALL 0xDB 0xCA 0xB4 0x2F PUSH5 0x736F6C6343 STOP ADDMOD EQ STOP CALLER "},"methodIdentifiers":{"buy(address,uint256,uint256)":"a59ac6dd","factory()":"c45a0155","feeVault()":"478222c2","getBuyQuote(address,uint256)":"8aaae305","getSellQuote(address,uint256)":"1bf6e958","sell(address,uint256,uint256)":"6a272462","usdc()":"3e413bee","wCELO()":"930c7976"}}}}}