{"src/KaboomPool.sol":{"KaboomPool":{"abi":[{"inputs":[{"internalType":"address","name":"token_","type":"address"},{"internalType":"address","name":"usdc_","type":"address"},{"internalType":"address","name":"factory_","type":"address"}],"stateMutability":"nonpayable","type":"constructor"},{"inputs":[],"name":"InsufficientLiquidity","type":"error"},{"inputs":[],"name":"ReentrancyGuardReentrantCall","type":"error"},{"inputs":[{"internalType":"address","name":"token","type":"address"}],"name":"SafeERC20FailedOperation","type":"error"},{"inputs":[],"name":"SlippageExceeded","type":"error"},{"inputs":[],"name":"Unauthorized","type":"error"},{"inputs":[],"name":"ZeroAmount","type":"error"},{"anonymous":false,"inputs":[{"indexed":true,"internalType":"address","name":"provider","type":"address"},{"indexed":false,"internalType":"uint256","name":"tokenAmount","type":"uint256"},{"indexed":false,"internalType":"uint256","name":"usdcAmount","type":"uint256"},{"indexed":false,"internalType":"uint256","name":"sharesMinted","type":"uint256"}],"name":"LiquidityAdded","type":"event"},{"anonymous":false,"inputs":[{"indexed":true,"internalType":"address","name":"provider","type":"address"},{"indexed":false,"internalType":"uint256","name":"tokenAmount","type":"uint256"},{"indexed":false,"internalType":"uint256","name":"usdcAmount","type":"uint256"},{"indexed":false,"internalType":"uint256","name":"sharesBurned","type":"uint256"}],"name":"LiquidityRemoved","type":"event"},{"anonymous":false,"inputs":[{"indexed":true,"internalType":"address","name":"trader","type":"address"},{"indexed":false,"internalType":"bool","name":"isBuy","type":"bool"},{"indexed":false,"internalType":"uint256","name":"inputAmount","type":"uint256"},{"indexed":false,"internalType":"uint256","name":"outputAmount","type":"uint256"}],"name":"Swap","type":"event"},{"inputs":[{"internalType":"uint256","name":"tokenAmount","type":"uint256"},{"internalType":"uint256","name":"usdcAmount","type":"uint256"}],"name":"addLiquidity","outputs":[{"internalType":"uint256","name":"sharesMinted","type":"uint256"}],"stateMutability":"nonpayable","type":"function"},{"inputs":[{"internalType":"uint256","name":"usdcAmount","type":"uint256"},{"internalType":"uint256","name":"minTokensOut","type":"uint256"}],"name":"buyToken","outputs":[{"internalType":"uint256","name":"tokensOut","type":"uint256"}],"stateMutability":"nonpayable","type":"function"},{"inputs":[],"name":"factory","outputs":[{"internalType":"address","name":"","type":"address"}],"stateMutability":"view","type":"function"},{"inputs":[],"name":"getReserves","outputs":[{"internalType":"uint256","name":"","type":"uint256"},{"internalType":"uint256","name":"","type":"uint256"}],"stateMutability":"view","type":"function"},{"inputs":[{"internalType":"uint256","name":"shareAmount","type":"uint256"}],"name":"removeLiquidity","outputs":[{"internalType":"uint256","name":"tokenOut","type":"uint256"},{"internalType":"uint256","name":"usdcOut","type":"uint256"}],"stateMutability":"nonpayable","type":"function"},{"inputs":[],"name":"reserveToken","outputs":[{"internalType":"uint256","name":"","type":"uint256"}],"stateMutability":"view","type":"function"},{"inputs":[],"name":"reserveUsdc","outputs":[{"internalType":"uint256","name":"","type":"uint256"}],"stateMutability":"view","type":"function"},{"inputs":[{"internalType":"uint256","name":"tokenAmount","type":"uint256"},{"internalType":"uint256","name":"minUsdcOut","type":"uint256"}],"name":"sellToken","outputs":[{"internalType":"uint256","name":"usdcOut","type":"uint256"}],"stateMutability":"nonpayable","type":"function"},{"inputs":[{"internalType":"address","name":"","type":"address"}],"name":"shares","outputs":[{"internalType":"uint256","name":"","type":"uint256"}],"stateMutability":"view","type":"function"},{"inputs":[],"name":"token","outputs":[{"internalType":"address","name":"","type":"address"}],"stateMutability":"view","type":"function"},{"inputs":[],"name":"totalShares","outputs":[{"internalType":"uint256","name":"","type":"uint256"}],"stateMutability":"view","type":"function"},{"inputs":[],"name":"usdc","outputs":[{"internalType":"address","name":"","type":"address"}],"stateMutability":"view","type":"function"}],"evm":{"bytecode":{"linkReferences":{},"object":"60e03461013057601f610b4538819003918201601f19168301916001600160401b0383118484101761013557808492606094604052833981010312610130576100478161014b565b9061006060406100596020840161014b565b920161014b565b60017f9b779b17422d0df92223018b32b4d1fa46e071723d6817e2486d003becc55f0055916001600160a01b0380821615908115610125575b811561011a575b506101085760805260a05260c0526040516109e59081610160823960805181818160ba01528181610209015281816103e1015281816105a60152610748015260a0518181816102350152818161040b015281816104d4015261071e015260c0518161015c0152f35b604051631f2a200560e01b8152600490fd5b9050831615386100a0565b838116159150610099565b600080fd5b634e487b7160e01b600052604160045260246000fd5b51906001600160a01b03821682036101305756fe6040608081526004908136101561001557600080fd5b600091823560e01c908163057466ea146106a25781630902f1ac146106805781631897bcf3146105225781633a98ef39146105035781633e413bee146104bf5781635eb94d2a146104a05781639c8f9f23146103245781639cd441da1461018b578163c45a015514610147578163ce7c2ac21461010957508063f4325d67146100ed5763fc0c546a146100a757600080fd5b346100e957816003193601126100e957517f00000000000000000000000000000000000000000000000000000000000000006001600160a01b03168152602090f35b5080fd5b50346100e957816003193601126100e957602091549051908152f35b90503461014357602036600319011261014357356001600160a01b0381169081900361014357828291602094526003845220549051908152f35b8280fd5b5050346100e957816003193601126100e957517f00000000000000000000000000000000000000000000000000000000000000006001600160a01b03168152602090f35b8284346103215761019b366107f3565b90936101a56108f1565b84158015610319575b61030b5750927f64b83944e79c3ce8d4c297411de637c3e102d064677aac0c163976ebdcd6f50e839260209560025480156000146102c75750683635c9adc5dea000009586925b61025a836001600160a01b0361022f8930337f00000000000000000000000000000000000000000000000000000000000000008516610864565b309033907f000000000000000000000000000000000000000000000000000000000000000016610864565b610265868254610857565b815561027383600154610857565b6001553381526003895220610289838254610857565b905561029782600254610857565b6002558451938452602084015260408301523391606090a260016000805160206109908339815191525551908152f35b6102f26102e96102e26102da848961080e565b865490610837565b928461080e565b60015490610837565b8082101561030457505b9586926101f5565b90506102fc565b8351631f2a200560e01b8152fd5b5081156101ae565b80fd5b90508234610321576020366003190112610321578135916103436108f1565b821561030b573382526003602052828483205410610493575061036782825461080e565b9161038a6103786002548095610837565b936103858360015461080e565b610837565b9133815260036020528481206103a1838254610921565b90556103af82600254610921565b6002556103bd848254610921565b90556103cb82600154610921565b600155610430826001600160a01b0361040786337f0000000000000000000000000000000000000000000000000000000000000000841661092e565b33907f00000000000000000000000000000000000000000000000000000000000000001661092e565b7f1dc8bb69df2b8e91fbdcbfcf93d951b3f0000f085a95fe3f7946d6161439245d84518061047233948688846040919493926060820195825260208201520152565b0390a260016000805160206109908339815191525582519182526020820152f35b83516282b42960e81b8152fd5b5050346100e957816003193601126100e9576020906001549051908152f35b5050346100e957816003193601126100e957517f00000000000000000000000000000000000000000000000000000000000000006001600160a01b03168152602090f35b5050346100e957816003193601126100e9576020906002549051908152f35b8383346100e957610532366107f3565b929061053c6108f1565b80156106705760015480158015610667575b610657576103e582026103e4198382040161064457906105816105796103e86105879404809361080e565b918554610857565b90610837565b93841061063457602094506105cc846001600160a01b036104078430337f00000000000000000000000000000000000000000000000000000000000000008516610864565b6105d7818354610857565b82556105e584600154610921565b60015582519182528482015282828201527fbfd50a04f1e6e4aee344f5d0e7f15d74d0dbb58cd1f711daa6463094ca9508cd60603392a260016000805160206109908339815191525551908152f35b8251638199f5f360e01b81528590fd5b634e487b7160e01b845260118752602484fd5b835163bb55fd2760e01b81528690fd5b5082541561054e565b8251631f2a200560e01b81528590fd5b8284346103215780600319360112610321575460015482519182526020820152f35b8383346100e9576106b2366107f3565b926106bb6108f1565b811561067057600154801580156107ea575b610657576103e583026103e419848204016107d757906105816103e86106ff93046106f981865461080e565b92610857565b938410610634576020945061076d846001600160a01b036107448530337f00000000000000000000000000000000000000000000000000000000000000008516610864565b33907f00000000000000000000000000000000000000000000000000000000000000001661092e565b61077982600154610857565b600155610787848254610921565b9055815190600182528482015282828201527fbfd50a04f1e6e4aee344f5d0e7f15d74d0dbb58cd1f711daa6463094ca9508cd60603392a260016000805160206109908339815191525551908152f35b634e487b7160e01b835260118752602483fd5b508154156106cd565b6040906003190112610809576004359060243590565b600080fd5b8181029291811591840414171561082157565b634e487b7160e01b600052601160045260246000fd5b8115610841570490565b634e487b7160e01b600052601260045260246000fd5b9190820180921161082157565b6040516323b872dd60e01b60009081526001600160a01b03938416600452938316602452604494909452909160209060648180855af16001600051148116156108d1575b836040526000606052156108bb57505050565b635274afe760e01b835216600482015260249150fd5b60018115166108e757813b15153d1516166108a8565b833d6000823e3d90fd5b600080516020610990833981519152600281541461090f5760029055565b604051633ee5aeb560e01b8152600490fd5b9190820391821161082157565b60405163a9059cbb60e01b60009081526001600160a01b039384166004526024949094529260209060448180855af1600160005114811615610979575b83604052156108bb57505050565b60018115166108e757813b15153d15161661096b56fe9b779b17422d0df92223018b32b4d1fa46e071723d6817e2486d003becc55f00a264697066735822122062f53bf7f858bbe4a2487d1a066918b521eb4bc19ffdd632818a03b13f13f5fe64736f6c63430008140033","opcodes":"PUSH1 0xE0 CALLVALUE PUSH2 0x130 JUMPI PUSH1 0x1F PUSH2 0xB45 CODESIZE DUP2 SWAP1 SUB SWAP2 DUP3 ADD PUSH1 0x1F NOT AND DUP4 ADD SWAP2 PUSH1 0x1 PUSH1 0x1 PUSH1 0x40 SHL SUB DUP4 GT DUP5 DUP5 LT OR PUSH2 0x135 JUMPI DUP1 DUP5 SWAP3 PUSH1 0x60 SWAP5 PUSH1 0x40 MSTORE DUP4 CODECOPY DUP2 ADD SUB SLT PUSH2 0x130 JUMPI PUSH2 0x47 DUP2 PUSH2 0x14B JUMP JUMPDEST SWAP1 PUSH2 0x60 PUSH1 0x40 PUSH2 0x59 PUSH1 0x20 DUP5 ADD PUSH2 0x14B JUMP JUMPDEST SWAP3 ADD PUSH2 0x14B JUMP JUMPDEST PUSH1 0x1 PUSH32 0x9B779B17422D0DF92223018B32B4D1FA46E071723D6817E2486D003BECC55F00 SSTORE SWAP2 PUSH1 0x1 PUSH1 0x1 PUSH1 0xA0 SHL SUB DUP1 DUP3 AND ISZERO SWAP1 DUP2 ISZERO PUSH2 0x125 JUMPI JUMPDEST DUP2 ISZERO PUSH2 0x11A JUMPI JUMPDEST POP PUSH2 0x108 JUMPI PUSH1 0x80 MSTORE PUSH1 0xA0 MSTORE PUSH1 0xC0 MSTORE PUSH1 0x40 MLOAD PUSH2 0x9E5 SWAP1 DUP2 PUSH2 0x160 DUP3 CODECOPY PUSH1 0x80 MLOAD DUP2 DUP2 DUP2 PUSH1 0xBA ADD MSTORE DUP2 DUP2 PUSH2 0x209 ADD MSTORE DUP2 DUP2 PUSH2 0x3E1 ADD MSTORE DUP2 DUP2 PUSH2 0x5A6 ADD MSTORE PUSH2 0x748 ADD MSTORE PUSH1 0xA0 MLOAD DUP2 DUP2 DUP2 PUSH2 0x235 ADD MSTORE DUP2 DUP2 PUSH2 0x40B ADD MSTORE DUP2 DUP2 PUSH2 0x4D4 ADD MSTORE PUSH2 0x71E ADD MSTORE PUSH1 0xC0 MLOAD DUP2 PUSH2 0x15C ADD MSTORE RETURN JUMPDEST PUSH1 0x40 MLOAD PUSH4 0x1F2A2005 PUSH1 0xE0 SHL DUP2 MSTORE PUSH1 0x4 SWAP1 REVERT JUMPDEST SWAP1 POP DUP4 AND ISZERO CODESIZE PUSH2 0xA0 JUMP JUMPDEST DUP4 DUP2 AND ISZERO SWAP2 POP PUSH2 0x99 JUMP JUMPDEST PUSH1 0x0 DUP1 REVERT JUMPDEST PUSH4 0x4E487B71 PUSH1 0xE0 SHL PUSH1 0x0 MSTORE PUSH1 0x41 PUSH1 0x4 MSTORE PUSH1 0x24 PUSH1 0x0 REVERT JUMPDEST MLOAD SWAP1 PUSH1 0x1 PUSH1 0x1 PUSH1 0xA0 SHL SUB DUP3 AND DUP3 SUB PUSH2 0x130 JUMPI JUMP INVALID PUSH1 0x40 PUSH1 0x80 DUP2 MSTORE PUSH1 0x4 SWAP1 DUP2 CALLDATASIZE LT ISZERO PUSH2 0x15 JUMPI PUSH1 0x0 DUP1 REVERT JUMPDEST PUSH1 0x0 SWAP2 DUP3 CALLDATALOAD PUSH1 0xE0 SHR SWAP1 DUP2 PUSH4 0x57466EA EQ PUSH2 0x6A2 JUMPI DUP2 PUSH4 0x902F1AC EQ PUSH2 0x680 JUMPI DUP2 PUSH4 0x1897BCF3 EQ PUSH2 0x522 JUMPI DUP2 PUSH4 0x3A98EF39 EQ PUSH2 0x503 JUMPI DUP2 PUSH4 0x3E413BEE EQ PUSH2 0x4BF JUMPI DUP2 PUSH4 0x5EB94D2A EQ PUSH2 0x4A0 JUMPI DUP2 PUSH4 0x9C8F9F23 EQ PUSH2 0x324 JUMPI DUP2 PUSH4 0x9CD441DA EQ PUSH2 0x18B JUMPI DUP2 PUSH4 0xC45A0155 EQ PUSH2 0x147 JUMPI DUP2 PUSH4 0xCE7C2AC2 EQ PUSH2 0x109 JUMPI POP DUP1 PUSH4 0xF4325D67 EQ PUSH2 0xED JUMPI PUSH4 0xFC0C546A EQ PUSH2 0xA7 JUMPI PUSH1 0x0 DUP1 REVERT JUMPDEST CALLVALUE PUSH2 0xE9 JUMPI DUP2 PUSH1 0x3 NOT CALLDATASIZE ADD SLT PUSH2 0xE9 JUMPI MLOAD PUSH32 0x0 PUSH1 0x1 PUSH1 0x1 PUSH1 0xA0 SHL SUB AND DUP2 MSTORE PUSH1 0x20 SWAP1 RETURN JUMPDEST POP DUP1 REVERT JUMPDEST POP CALLVALUE PUSH2 0xE9 JUMPI DUP2 PUSH1 0x3 NOT CALLDATASIZE ADD SLT PUSH2 0xE9 JUMPI PUSH1 0x20 SWAP2 SLOAD SWAP1 MLOAD SWAP1 DUP2 MSTORE RETURN JUMPDEST SWAP1 POP CALLVALUE PUSH2 0x143 JUMPI PUSH1 0x20 CALLDATASIZE PUSH1 0x3 NOT ADD SLT PUSH2 0x143 JUMPI CALLDATALOAD PUSH1 0x1 PUSH1 0x1 PUSH1 0xA0 SHL SUB DUP2 AND SWAP1 DUP2 SWAP1 SUB PUSH2 0x143 JUMPI DUP3 DUP3 SWAP2 PUSH1 0x20 SWAP5 MSTORE PUSH1 0x3 DUP5 MSTORE KECCAK256 SLOAD SWAP1 MLOAD SWAP1 DUP2 MSTORE RETURN JUMPDEST DUP3 DUP1 REVERT JUMPDEST POP POP CALLVALUE PUSH2 0xE9 JUMPI DUP2 PUSH1 0x3 NOT CALLDATASIZE ADD SLT PUSH2 0xE9 JUMPI MLOAD PUSH32 0x0 PUSH1 0x1 PUSH1 0x1 PUSH1 0xA0 SHL SUB AND DUP2 MSTORE PUSH1 0x20 SWAP1 RETURN JUMPDEST DUP3 DUP5 CALLVALUE PUSH2 0x321 JUMPI PUSH2 0x19B CALLDATASIZE PUSH2 0x7F3 JUMP JUMPDEST SWAP1 SWAP4 PUSH2 0x1A5 PUSH2 0x8F1 JUMP JUMPDEST DUP5 ISZERO DUP1 ISZERO PUSH2 0x319 JUMPI JUMPDEST PUSH2 0x30B JUMPI POP SWAP3 PUSH32 0x64B83944E79C3CE8D4C297411DE637C3E102D064677AAC0C163976EBDCD6F50E DUP4 SWAP3 PUSH1 0x20 SWAP6 PUSH1 0x2 SLOAD DUP1 ISZERO PUSH1 0x0 EQ PUSH2 0x2C7 JUMPI POP PUSH9 0x3635C9ADC5DEA00000 SWAP6 DUP7 SWAP3 JUMPDEST PUSH2 0x25A DUP4 PUSH1 0x1 PUSH1 0x1 PUSH1 0xA0 SHL SUB PUSH2 0x22F DUP10 ADDRESS CALLER PUSH32 0x0 DUP6 AND PUSH2 0x864 JUMP JUMPDEST ADDRESS SWAP1 CALLER SWAP1 PUSH32 0x0 AND PUSH2 0x864 JUMP JUMPDEST PUSH2 0x265 DUP7 DUP3 SLOAD PUSH2 0x857 JUMP JUMPDEST DUP2 SSTORE PUSH2 0x273 DUP4 PUSH1 0x1 SLOAD PUSH2 0x857 JUMP JUMPDEST PUSH1 0x1 SSTORE CALLER DUP2 MSTORE PUSH1 0x3 DUP10 MSTORE KECCAK256 PUSH2 0x289 DUP4 DUP3 SLOAD PUSH2 0x857 JUMP JUMPDEST SWAP1 SSTORE PUSH2 0x297 DUP3 PUSH1 0x2 SLOAD PUSH2 0x857 JUMP JUMPDEST PUSH1 0x2 SSTORE DUP5 MLOAD SWAP4 DUP5 MSTORE PUSH1 0x20 DUP5 ADD MSTORE PUSH1 0x40 DUP4 ADD MSTORE CALLER SWAP2 PUSH1 0x60 SWAP1 LOG2 PUSH1 0x1 PUSH1 0x0 DUP1 MLOAD PUSH1 0x20 PUSH2 0x990 DUP4 CODECOPY DUP2 MLOAD SWAP2 MSTORE SSTORE MLOAD SWAP1 DUP2 MSTORE RETURN JUMPDEST PUSH2 0x2F2 PUSH2 0x2E9 PUSH2 0x2E2 PUSH2 0x2DA DUP5 DUP10 PUSH2 0x80E JUMP JUMPDEST DUP7 SLOAD SWAP1 PUSH2 0x837 JUMP JUMPDEST SWAP3 DUP5 PUSH2 0x80E JUMP JUMPDEST PUSH1 0x1 SLOAD SWAP1 PUSH2 0x837 JUMP JUMPDEST DUP1 DUP3 LT ISZERO PUSH2 0x304 JUMPI POP JUMPDEST SWAP6 DUP7 SWAP3 PUSH2 0x1F5 JUMP JUMPDEST SWAP1 POP PUSH2 0x2FC JUMP JUMPDEST DUP4 MLOAD PUSH4 0x1F2A2005 PUSH1 0xE0 SHL DUP2 MSTORE REVERT JUMPDEST POP DUP2 ISZERO PUSH2 0x1AE JUMP JUMPDEST DUP1 REVERT JUMPDEST SWAP1 POP DUP3 CALLVALUE PUSH2 0x321 JUMPI PUSH1 0x20 CALLDATASIZE PUSH1 0x3 NOT ADD SLT PUSH2 0x321 JUMPI DUP2 CALLDATALOAD SWAP2 PUSH2 0x343 PUSH2 0x8F1 JUMP JUMPDEST DUP3 ISZERO PUSH2 0x30B JUMPI CALLER DUP3 MSTORE PUSH1 0x3 PUSH1 0x20 MSTORE DUP3 DUP5 DUP4 KECCAK256 SLOAD LT PUSH2 0x493 JUMPI POP PUSH2 0x367 DUP3 DUP3 SLOAD PUSH2 0x80E JUMP JUMPDEST SWAP2 PUSH2 0x38A PUSH2 0x378 PUSH1 0x2 SLOAD DUP1 SWAP6 PUSH2 0x837 JUMP JUMPDEST SWAP4 PUSH2 0x385 DUP4 PUSH1 0x1 SLOAD PUSH2 0x80E JUMP JUMPDEST PUSH2 0x837 JUMP JUMPDEST SWAP2 CALLER DUP2 MSTORE PUSH1 0x3 PUSH1 0x20 MSTORE DUP5 DUP2 KECCAK256 PUSH2 0x3A1 DUP4 DUP3 SLOAD PUSH2 0x921 JUMP JUMPDEST SWAP1 SSTORE PUSH2 0x3AF DUP3 PUSH1 0x2 SLOAD PUSH2 0x921 JUMP JUMPDEST PUSH1 0x2 SSTORE PUSH2 0x3BD DUP5 DUP3 SLOAD PUSH2 0x921 JUMP JUMPDEST SWAP1 SSTORE PUSH2 0x3CB DUP3 PUSH1 0x1 SLOAD PUSH2 0x921 JUMP JUMPDEST PUSH1 0x1 SSTORE PUSH2 0x430 DUP3 PUSH1 0x1 PUSH1 0x1 PUSH1 0xA0 SHL SUB PUSH2 0x407 DUP7 CALLER PUSH32 0x0 DUP5 AND PUSH2 0x92E JUMP JUMPDEST CALLER SWAP1 PUSH32 0x0 AND PUSH2 0x92E JUMP JUMPDEST PUSH32 0x1DC8BB69DF2B8E91FBDCBFCF93D951B3F0000F085A95FE3F7946D6161439245D DUP5 MLOAD DUP1 PUSH2 0x472 CALLER SWAP5 DUP7 DUP9 DUP5 PUSH1 0x40 SWAP2 SWAP5 SWAP4 SWAP3 PUSH1 0x60 DUP3 ADD SWAP6 DUP3 MSTORE PUSH1 0x20 DUP3 ADD MSTORE ADD MSTORE JUMP JUMPDEST SUB SWAP1 LOG2 PUSH1 0x1 PUSH1 0x0 DUP1 MLOAD PUSH1 0x20 PUSH2 0x990 DUP4 CODECOPY DUP2 MLOAD SWAP2 MSTORE SSTORE DUP3 MLOAD SWAP2 DUP3 MSTORE PUSH1 0x20 DUP3 ADD MSTORE RETURN JUMPDEST DUP4 MLOAD PUSH3 0x82B429 PUSH1 0xE8 SHL DUP2 MSTORE REVERT JUMPDEST POP POP CALLVALUE PUSH2 0xE9 JUMPI DUP2 PUSH1 0x3 NOT CALLDATASIZE ADD SLT PUSH2 0xE9 JUMPI PUSH1 0x20 SWAP1 PUSH1 0x1 SLOAD SWAP1 MLOAD SWAP1 DUP2 MSTORE RETURN JUMPDEST POP POP CALLVALUE PUSH2 0xE9 JUMPI DUP2 PUSH1 0x3 NOT CALLDATASIZE ADD SLT PUSH2 0xE9 JUMPI MLOAD PUSH32 0x0 PUSH1 0x1 PUSH1 0x1 PUSH1 0xA0 SHL SUB AND DUP2 MSTORE PUSH1 0x20 SWAP1 RETURN JUMPDEST POP POP CALLVALUE PUSH2 0xE9 JUMPI DUP2 PUSH1 0x3 NOT CALLDATASIZE ADD SLT PUSH2 0xE9 JUMPI PUSH1 0x20 SWAP1 PUSH1 0x2 SLOAD SWAP1 MLOAD SWAP1 DUP2 MSTORE RETURN JUMPDEST DUP4 DUP4 CALLVALUE PUSH2 0xE9 JUMPI PUSH2 0x532 CALLDATASIZE PUSH2 0x7F3 JUMP JUMPDEST SWAP3 SWAP1 PUSH2 0x53C PUSH2 0x8F1 JUMP JUMPDEST DUP1 ISZERO PUSH2 0x670 JUMPI PUSH1 0x1 SLOAD DUP1 ISZERO DUP1 ISZERO PUSH2 0x667 JUMPI JUMPDEST PUSH2 0x657 JUMPI PUSH2 0x3E5 DUP3 MUL PUSH2 0x3E4 NOT DUP4 DUP3 DIV ADD PUSH2 0x644 JUMPI SWAP1 PUSH2 0x581 PUSH2 0x579 PUSH2 0x3E8 PUSH2 0x587 SWAP5 DIV DUP1 SWAP4 PUSH2 0x80E JUMP JUMPDEST SWAP2 DUP6 SLOAD PUSH2 0x857 JUMP JUMPDEST SWAP1 PUSH2 0x837 JUMP JUMPDEST SWAP4 DUP5 LT PUSH2 0x634 JUMPI PUSH1 0x20 SWAP5 POP PUSH2 0x5CC DUP5 PUSH1 0x1 PUSH1 0x1 PUSH1 0xA0 SHL SUB PUSH2 0x407 DUP5 ADDRESS CALLER PUSH32 0x0 DUP6 AND PUSH2 0x864 JUMP JUMPDEST PUSH2 0x5D7 DUP2 DUP4 SLOAD PUSH2 0x857 JUMP JUMPDEST DUP3 SSTORE PUSH2 0x5E5 DUP5 PUSH1 0x1 SLOAD PUSH2 0x921 JUMP JUMPDEST PUSH1 0x1 SSTORE DUP3 MLOAD SWAP2 DUP3 MSTORE DUP5 DUP3 ADD MSTORE DUP3 DUP3 DUP3 ADD MSTORE PUSH32 0xBFD50A04F1E6E4AEE344F5D0E7F15D74D0DBB58CD1F711DAA6463094CA9508CD PUSH1 0x60 CALLER SWAP3 LOG2 PUSH1 0x1 PUSH1 0x0 DUP1 MLOAD PUSH1 0x20 PUSH2 0x990 DUP4 CODECOPY DUP2 MLOAD SWAP2 MSTORE SSTORE MLOAD SWAP1 DUP2 MSTORE RETURN JUMPDEST DUP3 MLOAD PUSH4 0x8199F5F3 PUSH1 0xE0 SHL DUP2 MSTORE DUP6 SWAP1 REVERT JUMPDEST PUSH4 0x4E487B71 PUSH1 0xE0 SHL DUP5 MSTORE PUSH1 0x11 DUP8 MSTORE PUSH1 0x24 DUP5 REVERT JUMPDEST DUP4 MLOAD PUSH4 0xBB55FD27 PUSH1 0xE0 SHL DUP2 MSTORE DUP7 SWAP1 REVERT JUMPDEST POP DUP3 SLOAD ISZERO PUSH2 0x54E JUMP JUMPDEST DUP3 MLOAD PUSH4 0x1F2A2005 PUSH1 0xE0 SHL DUP2 MSTORE DUP6 SWAP1 REVERT JUMPDEST DUP3 DUP5 CALLVALUE PUSH2 0x321 JUMPI DUP1 PUSH1 0x3 NOT CALLDATASIZE ADD SLT PUSH2 0x321 JUMPI SLOAD PUSH1 0x1 SLOAD DUP3 MLOAD SWAP2 DUP3 MSTORE PUSH1 0x20 DUP3 ADD MSTORE RETURN JUMPDEST DUP4 DUP4 CALLVALUE PUSH2 0xE9 JUMPI PUSH2 0x6B2 CALLDATASIZE PUSH2 0x7F3 JUMP JUMPDEST SWAP3 PUSH2 0x6BB PUSH2 0x8F1 JUMP JUMPDEST DUP2 ISZERO PUSH2 0x670 JUMPI PUSH1 0x1 SLOAD DUP1 ISZERO DUP1 ISZERO PUSH2 0x7EA JUMPI JUMPDEST PUSH2 0x657 JUMPI PUSH2 0x3E5 DUP4 MUL PUSH2 0x3E4 NOT DUP5 DUP3 DIV ADD PUSH2 0x7D7 JUMPI SWAP1 PUSH2 0x581 PUSH2 0x3E8 PUSH2 0x6FF SWAP4 DIV PUSH2 0x6F9 DUP2 DUP7 SLOAD PUSH2 0x80E JUMP JUMPDEST SWAP3 PUSH2 0x857 JUMP JUMPDEST SWAP4 DUP5 LT PUSH2 0x634 JUMPI PUSH1 0x20 SWAP5 POP PUSH2 0x76D DUP5 PUSH1 0x1 PUSH1 0x1 PUSH1 0xA0 SHL SUB PUSH2 0x744 DUP6 ADDRESS CALLER PUSH32 0x0 DUP6 AND PUSH2 0x864 JUMP JUMPDEST CALLER SWAP1 PUSH32 0x0 AND PUSH2 0x92E JUMP JUMPDEST PUSH2 0x779 DUP3 PUSH1 0x1 SLOAD PUSH2 0x857 JUMP JUMPDEST PUSH1 0x1 SSTORE PUSH2 0x787 DUP5 DUP3 SLOAD PUSH2 0x921 JUMP JUMPDEST SWAP1 SSTORE DUP2 MLOAD SWAP1 PUSH1 0x1 DUP3 MSTORE DUP5 DUP3 ADD MSTORE DUP3 DUP3 DUP3 ADD MSTORE PUSH32 0xBFD50A04F1E6E4AEE344F5D0E7F15D74D0DBB58CD1F711DAA6463094CA9508CD PUSH1 0x60 CALLER SWAP3 LOG2 PUSH1 0x1 PUSH1 0x0 DUP1 MLOAD PUSH1 0x20 PUSH2 0x990 DUP4 CODECOPY DUP2 MLOAD SWAP2 MSTORE SSTORE MLOAD SWAP1 DUP2 MSTORE RETURN JUMPDEST PUSH4 0x4E487B71 PUSH1 0xE0 SHL DUP4 MSTORE PUSH1 0x11 DUP8 MSTORE PUSH1 0x24 DUP4 REVERT JUMPDEST POP DUP2 SLOAD ISZERO PUSH2 0x6CD JUMP JUMPDEST PUSH1 0x40 SWAP1 PUSH1 0x3 NOT ADD SLT PUSH2 0x809 JUMPI PUSH1 0x4 CALLDATALOAD SWAP1 PUSH1 0x24 CALLDATALOAD SWAP1 JUMP JUMPDEST PUSH1 0x0 DUP1 REVERT JUMPDEST DUP2 DUP2 MUL SWAP3 SWAP2 DUP2 ISZERO SWAP2 DUP5 DIV EQ OR ISZERO PUSH2 0x821 JUMPI JUMP JUMPDEST PUSH4 0x4E487B71 PUSH1 0xE0 SHL PUSH1 0x0 MSTORE PUSH1 0x11 PUSH1 0x4 MSTORE PUSH1 0x24 PUSH1 0x0 REVERT JUMPDEST DUP2 ISZERO PUSH2 0x841 JUMPI DIV SWAP1 JUMP JUMPDEST PUSH4 0x4E487B71 PUSH1 0xE0 SHL PUSH1 0x0 MSTORE PUSH1 0x12 PUSH1 0x4 MSTORE PUSH1 0x24 PUSH1 0x0 REVERT JUMPDEST SWAP2 SWAP1 DUP3 ADD DUP1 SWAP3 GT PUSH2 0x821 JUMPI JUMP JUMPDEST PUSH1 0x40 MLOAD PUSH4 0x23B872DD PUSH1 0xE0 SHL PUSH1 0x0 SWAP1 DUP2 MSTORE PUSH1 0x1 PUSH1 0x1 PUSH1 0xA0 SHL SUB SWAP4 DUP5 AND PUSH1 0x4 MSTORE SWAP4 DUP4 AND PUSH1 0x24 MSTORE PUSH1 0x44 SWAP5 SWAP1 SWAP5 MSTORE SWAP1 SWAP2 PUSH1 0x20 SWAP1 PUSH1 0x64 DUP2 DUP1 DUP6 GAS CALL PUSH1 0x1 PUSH1 0x0 MLOAD EQ DUP2 AND ISZERO PUSH2 0x8D1 JUMPI JUMPDEST DUP4 PUSH1 0x40 MSTORE PUSH1 0x0 PUSH1 0x60 MSTORE ISZERO PUSH2 0x8BB JUMPI POP POP POP JUMP JUMPDEST PUSH4 0x5274AFE7 PUSH1 0xE0 SHL DUP4 MSTORE AND PUSH1 0x4 DUP3 ADD MSTORE PUSH1 0x24 SWAP2 POP REVERT JUMPDEST PUSH1 0x1 DUP2 ISZERO AND PUSH2 0x8E7 JUMPI DUP2 EXTCODESIZE ISZERO ISZERO RETURNDATASIZE ISZERO AND AND PUSH2 0x8A8 JUMP JUMPDEST DUP4 RETURNDATASIZE PUSH1 0x0 DUP3 RETURNDATACOPY RETURNDATASIZE SWAP1 REVERT JUMPDEST PUSH1 0x0 DUP1 MLOAD PUSH1 0x20 PUSH2 0x990 DUP4 CODECOPY DUP2 MLOAD SWAP2 MSTORE PUSH1 0x2 DUP2 SLOAD EQ PUSH2 0x90F JUMPI PUSH1 0x2 SWAP1 SSTORE JUMP JUMPDEST PUSH1 0x40 MLOAD PUSH4 0x3EE5AEB5 PUSH1 0xE0 SHL DUP2 MSTORE PUSH1 0x4 SWAP1 REVERT JUMPDEST SWAP2 SWAP1 DUP3 SUB SWAP2 DUP3 GT PUSH2 0x821 JUMPI JUMP JUMPDEST PUSH1 0x40 MLOAD PUSH4 0xA9059CBB PUSH1 0xE0 SHL PUSH1 0x0 SWAP1 DUP2 MSTORE PUSH1 0x1 PUSH1 0x1 PUSH1 0xA0 SHL SUB SWAP4 DUP5 AND PUSH1 0x4 MSTORE PUSH1 0x24 SWAP5 SWAP1 SWAP5 MSTORE SWAP3 PUSH1 0x20 SWAP1 PUSH1 0x44 DUP2 DUP1 DUP6 GAS CALL PUSH1 0x1 PUSH1 0x0 MLOAD EQ DUP2 AND ISZERO PUSH2 0x979 JUMPI JUMPDEST DUP4 PUSH1 0x40 MSTORE ISZERO PUSH2 0x8BB JUMPI POP POP POP JUMP JUMPDEST PUSH1 0x1 DUP2 ISZERO AND PUSH2 0x8E7 JUMPI DUP2 EXTCODESIZE ISZERO ISZERO RETURNDATASIZE ISZERO AND AND PUSH2 0x96B JUMP INVALID SWAP12 PUSH24 0x9B17422D0DF92223018B32B4D1FA46E071723D6817E2486D STOP EXTCODESIZE 0xEC 0xC5 PUSH0 STOP LOG2 PUSH5 0x6970667358 0x22 SLT KECCAK256 PUSH3 0xF53BF7 0xF8 PC 0xBB 0xE4 LOG2 BASEFEE PUSH30 0x1A066918B521EB4BC19FFDD632818A03B13F13F5FE64736F6C6343000814 STOP CALLER "},"methodIdentifiers":{"addLiquidity(uint256,uint256)":"9cd441da","buyToken(uint256,uint256)":"057466ea","factory()":"c45a0155","getReserves()":"0902f1ac","removeLiquidity(uint256)":"9c8f9f23","reserveToken()":"f4325d67","reserveUsdc()":"5eb94d2a","sellToken(uint256,uint256)":"1897bcf3","shares(address)":"ce7c2ac2","token()":"fc0c546a","totalShares()":"3a98ef39","usdc()":"3e413bee"}}}}}