{"src/KaboomToken.sol":{"KaboomToken":{"abi":[{"inputs":[{"internalType":"string","name":"name_","type":"string"},{"internalType":"string","name":"symbol_","type":"string"},{"internalType":"address","name":"creator_","type":"address"},{"internalType":"address","name":"lpVault_","type":"address"},{"internalType":"address","name":"creatorVault_","type":"address"}],"stateMutability":"nonpayable","type":"constructor"},{"inputs":[{"internalType":"address","name":"spender","type":"address"},{"internalType":"uint256","name":"allowance","type":"uint256"},{"internalType":"uint256","name":"needed","type":"uint256"}],"name":"ERC20InsufficientAllowance","type":"error"},{"inputs":[{"internalType":"address","name":"sender","type":"address"},{"internalType":"uint256","name":"balance","type":"uint256"},{"internalType":"uint256","name":"needed","type":"uint256"}],"name":"ERC20InsufficientBalance","type":"error"},{"inputs":[{"internalType":"address","name":"approver","type":"address"}],"name":"ERC20InvalidApprover","type":"error"},{"inputs":[{"internalType":"address","name":"receiver","type":"address"}],"name":"ERC20InvalidReceiver","type":"error"},{"inputs":[{"internalType":"address","name":"sender","type":"address"}],"name":"ERC20InvalidSender","type":"error"},{"inputs":[{"internalType":"address","name":"spender","type":"address"}],"name":"ERC20InvalidSpender","type":"error"},{"anonymous":false,"inputs":[{"indexed":true,"internalType":"address","name":"owner","type":"address"},{"indexed":true,"internalType":"address","name":"spender","type":"address"},{"indexed":false,"internalType":"uint256","name":"value","type":"uint256"}],"name":"Approval","type":"event"},{"anonymous":false,"inputs":[{"indexed":true,"internalType":"address","name":"from","type":"address"},{"indexed":true,"internalType":"address","name":"to","type":"address"},{"indexed":false,"internalType":"uint256","name":"value","type":"uint256"}],"name":"Transfer","type":"event"},{"inputs":[],"name":"CREATOR_ALLOCATION","outputs":[{"internalType":"uint256","name":"","type":"uint256"}],"stateMutability":"view","type":"function"},{"inputs":[],"name":"LP_ALLOCATION","outputs":[{"internalType":"uint256","name":"","type":"uint256"}],"stateMutability":"view","type":"function"},{"inputs":[],"name":"TOTAL_SUPPLY","outputs":[{"internalType":"uint256","name":"","type":"uint256"}],"stateMutability":"view","type":"function"},{"inputs":[{"internalType":"address","name":"owner","type":"address"},{"internalType":"address","name":"spender","type":"address"}],"name":"allowance","outputs":[{"internalType":"uint256","name":"","type":"uint256"}],"stateMutability":"view","type":"function"},{"inputs":[{"internalType":"address","name":"spender","type":"address"},{"internalType":"uint256","name":"value","type":"uint256"}],"name":"approve","outputs":[{"internalType":"bool","name":"","type":"bool"}],"stateMutability":"nonpayable","type":"function"},{"inputs":[{"internalType":"address","name":"account","type":"address"}],"name":"balanceOf","outputs":[{"internalType":"uint256","name":"","type":"uint256"}],"stateMutability":"view","type":"function"},{"inputs":[],"name":"creator","outputs":[{"internalType":"address","name":"","type":"address"}],"stateMutability":"view","type":"function"},{"inputs":[],"name":"decimals","outputs":[{"internalType":"uint8","name":"","type":"uint8"}],"stateMutability":"view","type":"function"},{"inputs":[],"name":"factory","outputs":[{"internalType":"address","name":"","type":"address"}],"stateMutability":"view","type":"function"},{"inputs":[],"name":"launchTime","outputs":[{"internalType":"uint256","name":"","type":"uint256"}],"stateMutability":"view","type":"function"},{"inputs":[],"name":"name","outputs":[{"internalType":"string","name":"","type":"string"}],"stateMutability":"view","type":"function"},{"inputs":[],"name":"symbol","outputs":[{"internalType":"string","name":"","type":"string"}],"stateMutability":"view","type":"function"},{"inputs":[],"name":"totalSupply","outputs":[{"internalType":"uint256","name":"","type":"uint256"}],"stateMutability":"view","type":"function"},{"inputs":[{"internalType":"address","name":"to","type":"address"},{"internalType":"uint256","name":"value","type":"uint256"}],"name":"transfer","outputs":[{"internalType":"bool","name":"","type":"bool"}],"stateMutability":"nonpayable","type":"function"},{"inputs":[{"internalType":"address","name":"from","type":"address"},{"internalType":"address","name":"to","type":"address"},{"internalType":"uint256","name":"value","type":"uint256"}],"name":"transferFrom","outputs":[{"internalType":"bool","name":"","type":"bool"}],"stateMutability":"nonpayable","type":"function"}],"evm":{"bytecode":{"linkReferences":{},"object":"604060e08152346200044f5762000d1a803803806200001e8162000454565b92833981019160a0828403126200044f5781516001600160401b0393908481116200044f5781620000519185016200047a565b9260209182820151908682116200044f576200006f9183016200047a565b936200007d848301620004ec565b906200009a60806200009260608601620004ec565b9401620004ec565b9681518181116200034f576003908154906001948583811c9316801562000444575b898410146200042e578190601f93848111620003d8575b508990848311600114620003715760009262000365575b505060001982851b1c191690851b1782555b88519283116200034f5760049889548581811c9116801562000344575b898210146200032f57828111620002e4575b508791841160011462000279579383949184926000956200026d575b50501b92600019911b1c19161785555b6080523360a0524260c0526001600160a01b039081169485156200025657600254956b71175249d9818853b80000009687810180911162000241578495969760009160025582825281865287822081815401905587519081527fddf252ad1be2c89b69c2b068fc378daa952ba7f163c4a11628f55a4df523b3ef958691a31691821562000256576002546b3077b58d5d378391980000009081810180911162000241576000949596506002558484528382528584208181540190558551908152a35161081890816200050282396080518161065b015260a0518161014f015260c0518161030c0152f35b601187634e487b7160e01b6000525260246000fd5b835163ec442f0560e01b8152600081870152602490fd5b01519350388062000147565b9190601f198416928a60005284896000209460005b8b89838310620002cc5750505010620002b1575b50505050811b01855562000157565b01519060f884600019921b161c1916905538808080620002a2565b8686015189559097019694850194889350016200028e565b8a600052886000208380870160051c8201928b881062000325575b0160051c019086905b828110620003185750506200012b565b6000815501869062000308565b92508192620002ff565b60228b634e487b7160e01b6000525260246000fd5b90607f169062000119565b634e487b7160e01b600052604160045260246000fd5b015190503880620000ea565b90879350601f19831691866000528b6000209260005b8d828210620003c15750508411620003a8575b505050811b018255620000fc565b015160001983871b60f8161c191690553880806200039a565b8385015186558b9790950194938401930162000387565b90915084600052896000208480850160051c8201928c861062000424575b918991869594930160051c01915b82811062000414575050620000d3565b6000815585945089910162000404565b92508192620003f6565b634e487b7160e01b600052602260045260246000fd5b92607f1692620000bc565b600080fd5b6040519190601f01601f191682016001600160401b038111838210176200034f57604052565b919080601f840112156200044f5782516001600160401b0381116200034f57602090620004b0601f8201601f1916830162000454565b928184528282870101116200044f5760005b818110620004d857508260009394955001015290565b8581018301518482018401528201620004c2565b51906001600160a01b03821682036200044f5756fe608060408181526004918236101561001657600080fd5b600092833560e01c91826302d05d3f146106475750816306fdde031461056d578163095ea7b3146104bf57816318160ddd146104a057816323b872dd146103a95781632bc7306314610382578163313ce5671461036657816370a082311461032f578163790ca413146102f4578163902d55a5146102cd57816395d89b41146101ae57508063a9059cbb1461017e578063c45a01551461013b578063dd62ed3e146100f35763ebda16eb146100ca57600080fd5b346100ef57816003193601126100ef57602090516b71175249d9818853b80000008152f35b5080fd5b50346100ef57806003193601126100ef57806020926101106106d3565b6101186106ee565b6001600160a01b0391821683526001865283832091168252845220549051908152f35b50346100ef57816003193601126100ef57517f00000000000000000000000000000000000000000000000000000000000000006001600160a01b03168152602090f35b50346100ef57806003193601126100ef576020906101a761019d6106d3565b6024359033610704565b5160018152f35b8383346100ef57816003193601126100ef57805190828454600181811c908083169283156102c3575b60209384841081146102b057838852908115610294575060011461023f575b505050829003601f01601f191682019267ffffffffffffffff84118385101761022c575082918261022892528261068a565b0390f35b634e487b7160e01b815260418552602490fd5b8787529192508591837f8a35acfbc15ff81a39ae7d344fd709f28e8600b4aa8c65c6b64bfe7fe36bd19b5b83851061028057505050508301018580806101f6565b80548886018301529301928490820161026a565b60ff1916878501525050151560051b84010190508580806101f6565b634e487b7160e01b895260228a52602489fd5b91607f16916101d7565b5050346100ef57816003193601126100ef57602090516ba18f07d736b90be5500000008152f35b5050346100ef57816003193601126100ef57602090517f00000000000000000000000000000000000000000000000000000000000000008152f35b5050346100ef5760203660031901126100ef5760209181906001600160a01b036103576106d3565b16815280845220549051908152f35b5050346100ef57816003193601126100ef576020905160128152f35b5050346100ef57816003193601126100ef57602090516b3077b58d5d378391980000008152f35b9050823461049d57606036600319011261049d576103c56106d3565b6103cd6106ee565b916044359360018060a01b038316808352600160205286832033845260205286832054916000198310610409575b6020886101a7898989610704565b86831061047157811561045a573315610443575082526001602090815286832033845281529186902090859003905582906101a7876103fb565b8751634a1406b160e11b8152908101849052602490fd5b875163e602df0560e01b8152908101849052602490fd5b8751637dc7a0d960e11b8152339181019182526020820193909352604081018790528291506060010390fd5b80fd5b5050346100ef57816003193601126100ef576020906002549051908152f35b9050346105695781600319360112610569576104d96106d3565b602435903315610552576001600160a01b031691821561053b57508083602095338152600187528181208582528752205582519081527f8c5be1e5ebec7d5bd14f71427d1e84f3dd0314c0f7b2291e5b200ac8c7c3b925843392a35160018152f35b8351634a1406b160e11b8152908101859052602490fd5b835163e602df0560e01b8152808401869052602490fd5b8280fd5b8383346100ef57816003193601126100ef5780519082600354600181811c9080831692831561063d575b60209384841081146102b05783885290811561029457506001146105e757505050829003601f01601f191682019267ffffffffffffffff84118385101761022c575082918261022892528261068a565b600387529192508591837fc2575a0e9e593c00f959f8c92f12db2869c3395a3b0502d05e2516446f71f85b5b83851061062957505050508301018580806101f6565b805488860183015293019284908201610613565b91607f1691610597565b8490346100ef57816003193601126100ef577f00000000000000000000000000000000000000000000000000000000000000006001600160a01b03168152602090f35b6020808252825181830181905290939260005b8281106106bf57505060409293506000838284010152601f8019910116010190565b81810186015184820160400152850161069d565b600435906001600160a01b03821682036106e957565b600080fd5b602435906001600160a01b03821682036106e957565b916001600160a01b038084169283156107c957169283156107b0576000908382528160205260408220549083821061077e575091604082827fddf252ad1be2c89b69c2b068fc378daa952ba7f163c4a11628f55a4df523b3ef958760209652828652038282205586815220818154019055604051908152a3565b60405163391434e360e21b81526001600160a01b03919091166004820152602481019190915260448101839052606490fd5b60405163ec442f0560e01b815260006004820152602490fd5b604051634b637e8f60e11b815260006004820152602490fdfea264697066735822122054fb941f351134ef0f0db49cfd9791664e2f634f4ecec1ab40bca0bc240b184c64736f6c63430008140033","opcodes":"PUSH1 0x40 PUSH1 0xE0 DUP2 MSTORE CALLVALUE PUSH3 0x44F JUMPI PUSH3 0xD1A DUP1 CODESIZE SUB DUP1 PUSH3 0x1E DUP2 PUSH3 0x454 JUMP JUMPDEST SWAP3 DUP4 CODECOPY DUP2 ADD SWAP2 PUSH1 0xA0 DUP3 DUP5 SUB SLT PUSH3 0x44F JUMPI DUP2 MLOAD PUSH1 0x1 PUSH1 0x1 PUSH1 0x40 SHL SUB SWAP4 SWAP1 DUP5 DUP2 GT PUSH3 0x44F JUMPI DUP2 PUSH3 0x51 SWAP2 DUP6 ADD PUSH3 0x47A JUMP JUMPDEST SWAP3 PUSH1 0x20 SWAP2 DUP3 DUP3 ADD MLOAD SWAP1 DUP7 DUP3 GT PUSH3 0x44F JUMPI PUSH3 0x6F SWAP2 DUP4 ADD PUSH3 0x47A JUMP JUMPDEST SWAP4 PUSH3 0x7D DUP5 DUP4 ADD PUSH3 0x4EC JUMP JUMPDEST SWAP1 PUSH3 0x9A PUSH1 0x80 PUSH3 0x92 PUSH1 0x60 DUP7 ADD PUSH3 0x4EC JUMP JUMPDEST SWAP5 ADD PUSH3 0x4EC JUMP JUMPDEST SWAP7 DUP2 MLOAD DUP2 DUP2 GT PUSH3 0x34F JUMPI PUSH1 0x3 SWAP1 DUP2 SLOAD SWAP1 PUSH1 0x1 SWAP5 DUP6 DUP4 DUP2 SHR SWAP4 AND DUP1 ISZERO PUSH3 0x444 JUMPI JUMPDEST DUP10 DUP5 LT EQ PUSH3 0x42E JUMPI DUP2 SWAP1 PUSH1 0x1F SWAP4 DUP5 DUP2 GT PUSH3 0x3D8 JUMPI JUMPDEST POP DUP10 SWAP1 DUP5 DUP4 GT PUSH1 0x1 EQ PUSH3 0x371 JUMPI PUSH1 0x0 SWAP3 PUSH3 0x365 JUMPI JUMPDEST POP POP PUSH1 0x0 NOT DUP3 DUP6 SHL SHR NOT AND SWAP1 DUP6 SHL OR DUP3 SSTORE JUMPDEST DUP9 MLOAD SWAP3 DUP4 GT PUSH3 0x34F JUMPI PUSH1 0x4 SWAP9 DUP10 SLOAD DUP6 DUP2 DUP2 SHR SWAP2 AND DUP1 ISZERO PUSH3 0x344 JUMPI JUMPDEST DUP10 DUP3 LT EQ PUSH3 0x32F JUMPI DUP3 DUP2 GT PUSH3 0x2E4 JUMPI JUMPDEST POP DUP8 SWAP2 DUP5 GT PUSH1 0x1 EQ PUSH3 0x279 JUMPI SWAP4 DUP4 SWAP5 SWAP2 DUP5 SWAP3 PUSH1 0x0 SWAP6 PUSH3 0x26D JUMPI JUMPDEST POP POP SHL SWAP3 PUSH1 0x0 NOT SWAP2 SHL SHR NOT AND OR DUP6 SSTORE JUMPDEST PUSH1 0x80 MSTORE CALLER PUSH1 0xA0 MSTORE TIMESTAMP PUSH1 0xC0 MSTORE PUSH1 0x1 PUSH1 0x1 PUSH1 0xA0 SHL SUB SWAP1 DUP2 AND SWAP5 DUP6 ISZERO PUSH3 0x256 JUMPI PUSH1 0x2 SLOAD SWAP6 PUSH12 0x71175249D9818853B8000000 SWAP7 DUP8 DUP2 ADD DUP1 SWAP2 GT PUSH3 0x241 JUMPI DUP5 SWAP6 SWAP7 SWAP8 PUSH1 0x0 SWAP2 PUSH1 0x2 SSTORE DUP3 DUP3 MSTORE DUP2 DUP7 MSTORE DUP8 DUP3 KECCAK256 DUP2 DUP2 SLOAD ADD SWAP1 SSTORE DUP8 MLOAD SWAP1 DUP2 MSTORE PUSH32 0xDDF252AD1BE2C89B69C2B068FC378DAA952BA7F163C4A11628F55A4DF523B3EF SWAP6 DUP7 SWAP2 LOG3 AND SWAP2 DUP3 ISZERO PUSH3 0x256 JUMPI PUSH1 0x2 SLOAD PUSH12 0x3077B58D5D37839198000000 SWAP1 DUP2 DUP2 ADD DUP1 SWAP2 GT PUSH3 0x241 JUMPI PUSH1 0x0 SWAP5 SWAP6 SWAP7 POP PUSH1 0x2 SSTORE DUP5 DUP5 MSTORE DUP4 DUP3 MSTORE DUP6 DUP5 KECCAK256 DUP2 DUP2 SLOAD ADD SWAP1 SSTORE DUP6 MLOAD SWAP1 DUP2 MSTORE LOG3 MLOAD PUSH2 0x818 SWAP1 DUP2 PUSH3 0x502 DUP3 CODECOPY PUSH1 0x80 MLOAD DUP2 PUSH2 0x65B ADD MSTORE PUSH1 0xA0 MLOAD DUP2 PUSH2 0x14F ADD MSTORE PUSH1 0xC0 MLOAD DUP2 PUSH2 0x30C ADD MSTORE RETURN JUMPDEST PUSH1 0x11 DUP8 PUSH4 0x4E487B71 PUSH1 0xE0 SHL PUSH1 0x0 MSTORE MSTORE PUSH1 0x24 PUSH1 0x0 REVERT JUMPDEST DUP4 MLOAD PUSH4 0xEC442F05 PUSH1 0xE0 SHL DUP2 MSTORE PUSH1 0x0 DUP2 DUP8 ADD MSTORE PUSH1 0x24 SWAP1 REVERT JUMPDEST ADD MLOAD SWAP4 POP CODESIZE DUP1 PUSH3 0x147 JUMP JUMPDEST SWAP2 SWAP1 PUSH1 0x1F NOT DUP5 AND SWAP3 DUP11 PUSH1 0x0 MSTORE DUP5 DUP10 PUSH1 0x0 KECCAK256 SWAP5 PUSH1 0x0 JUMPDEST DUP12 DUP10 DUP4 DUP4 LT PUSH3 0x2CC JUMPI POP POP POP LT PUSH3 0x2B1 JUMPI JUMPDEST POP POP POP POP DUP2 SHL ADD DUP6 SSTORE PUSH3 0x157 JUMP JUMPDEST ADD MLOAD SWAP1 PUSH1 0xF8 DUP5 PUSH1 0x0 NOT SWAP3 SHL AND SHR NOT AND SWAP1 SSTORE CODESIZE DUP1 DUP1 DUP1 PUSH3 0x2A2 JUMP JUMPDEST DUP7 DUP7 ADD MLOAD DUP10 SSTORE SWAP1 SWAP8 ADD SWAP7 SWAP5 DUP6 ADD SWAP5 DUP9 SWAP4 POP ADD PUSH3 0x28E JUMP JUMPDEST DUP11 PUSH1 0x0 MSTORE DUP9 PUSH1 0x0 KECCAK256 DUP4 DUP1 DUP8 ADD PUSH1 0x5 SHR DUP3 ADD SWAP3 DUP12 DUP9 LT PUSH3 0x325 JUMPI JUMPDEST ADD PUSH1 0x5 SHR ADD SWAP1 DUP7 SWAP1 JUMPDEST DUP3 DUP2 LT PUSH3 0x318 JUMPI POP POP PUSH3 0x12B JUMP JUMPDEST PUSH1 0x0 DUP2 SSTORE ADD DUP7 SWAP1 PUSH3 0x308 JUMP JUMPDEST SWAP3 POP DUP2 SWAP3 PUSH3 0x2FF JUMP JUMPDEST PUSH1 0x22 DUP12 PUSH4 0x4E487B71 PUSH1 0xE0 SHL PUSH1 0x0 MSTORE MSTORE PUSH1 0x24 PUSH1 0x0 REVERT JUMPDEST SWAP1 PUSH1 0x7F AND SWAP1 PUSH3 0x119 JUMP JUMPDEST PUSH4 0x4E487B71 PUSH1 0xE0 SHL PUSH1 0x0 MSTORE PUSH1 0x41 PUSH1 0x4 MSTORE PUSH1 0x24 PUSH1 0x0 REVERT JUMPDEST ADD MLOAD SWAP1 POP CODESIZE DUP1 PUSH3 0xEA JUMP JUMPDEST SWAP1 DUP8 SWAP4 POP PUSH1 0x1F NOT DUP4 AND SWAP2 DUP7 PUSH1 0x0 MSTORE DUP12 PUSH1 0x0 KECCAK256 SWAP3 PUSH1 0x0 JUMPDEST DUP14 DUP3 DUP3 LT PUSH3 0x3C1 JUMPI POP POP DUP5 GT PUSH3 0x3A8 JUMPI JUMPDEST POP POP POP DUP2 SHL ADD DUP3 SSTORE PUSH3 0xFC JUMP JUMPDEST ADD MLOAD PUSH1 0x0 NOT DUP4 DUP8 SHL PUSH1 0xF8 AND SHR NOT AND SWAP1 SSTORE CODESIZE DUP1 DUP1 PUSH3 0x39A JUMP JUMPDEST DUP4 DUP6 ADD MLOAD DUP7 SSTORE DUP12 SWAP8 SWAP1 SWAP6 ADD SWAP5 SWAP4 DUP5 ADD SWAP4 ADD PUSH3 0x387 JUMP JUMPDEST SWAP1 SWAP2 POP DUP5 PUSH1 0x0 MSTORE DUP10 PUSH1 0x0 KECCAK256 DUP5 DUP1 DUP6 ADD PUSH1 0x5 SHR DUP3 ADD SWAP3 DUP13 DUP7 LT PUSH3 0x424 JUMPI JUMPDEST SWAP2 DUP10 SWAP2 DUP7 SWAP6 SWAP5 SWAP4 ADD PUSH1 0x5 SHR ADD SWAP2 JUMPDEST DUP3 DUP2 LT PUSH3 0x414 JUMPI POP POP PUSH3 0xD3 JUMP JUMPDEST PUSH1 0x0 DUP2 SSTORE DUP6 SWAP5 POP DUP10 SWAP2 ADD PUSH3 0x404 JUMP JUMPDEST SWAP3 POP DUP2 SWAP3 PUSH3 0x3F6 JUMP JUMPDEST PUSH4 0x4E487B71 PUSH1 0xE0 SHL PUSH1 0x0 MSTORE PUSH1 0x22 PUSH1 0x4 MSTORE PUSH1 0x24 PUSH1 0x0 REVERT JUMPDEST SWAP3 PUSH1 0x7F AND SWAP3 PUSH3 0xBC JUMP JUMPDEST PUSH1 0x0 DUP1 REVERT JUMPDEST PUSH1 0x40 MLOAD SWAP2 SWAP1 PUSH1 0x1F ADD PUSH1 0x1F NOT AND DUP3 ADD PUSH1 0x1 PUSH1 0x1 PUSH1 0x40 SHL SUB DUP2 GT DUP4 DUP3 LT OR PUSH3 0x34F JUMPI PUSH1 0x40 MSTORE JUMP JUMPDEST SWAP2 SWAP1 DUP1 PUSH1 0x1F DUP5 ADD SLT ISZERO PUSH3 0x44F JUMPI DUP3 MLOAD PUSH1 0x1 PUSH1 0x1 PUSH1 0x40 SHL SUB DUP2 GT PUSH3 0x34F JUMPI PUSH1 0x20 SWAP1 PUSH3 0x4B0 PUSH1 0x1F DUP3 ADD PUSH1 0x1F NOT AND DUP4 ADD PUSH3 0x454 JUMP JUMPDEST SWAP3 DUP2 DUP5 MSTORE DUP3 DUP3 DUP8 ADD ADD GT PUSH3 0x44F JUMPI PUSH1 0x0 JUMPDEST DUP2 DUP2 LT PUSH3 0x4D8 JUMPI POP DUP3 PUSH1 0x0 SWAP4 SWAP5 SWAP6 POP ADD ADD MSTORE SWAP1 JUMP JUMPDEST DUP6 DUP2 ADD DUP4 ADD MLOAD DUP5 DUP3 ADD DUP5 ADD MSTORE DUP3 ADD PUSH3 0x4C2 JUMP JUMPDEST MLOAD SWAP1 PUSH1 0x1 PUSH1 0x1 PUSH1 0xA0 SHL SUB DUP3 AND DUP3 SUB PUSH3 0x44F JUMPI JUMP INVALID PUSH1 0x80 PUSH1 0x40 DUP2 DUP2 MSTORE PUSH1 0x4 SWAP2 DUP3 CALLDATASIZE LT ISZERO PUSH2 0x16 JUMPI PUSH1 0x0 DUP1 REVERT JUMPDEST PUSH1 0x0 SWAP3 DUP4 CALLDATALOAD PUSH1 0xE0 SHR SWAP2 DUP3 PUSH4 0x2D05D3F EQ PUSH2 0x647 JUMPI POP DUP2 PUSH4 0x6FDDE03 EQ PUSH2 0x56D JUMPI DUP2 PUSH4 0x95EA7B3 EQ PUSH2 0x4BF JUMPI DUP2 PUSH4 0x18160DDD EQ PUSH2 0x4A0 JUMPI DUP2 PUSH4 0x23B872DD EQ PUSH2 0x3A9 JUMPI DUP2 PUSH4 0x2BC73063 EQ PUSH2 0x382 JUMPI DUP2 PUSH4 0x313CE567 EQ PUSH2 0x366 JUMPI DUP2 PUSH4 0x70A08231 EQ PUSH2 0x32F JUMPI DUP2 PUSH4 0x790CA413 EQ PUSH2 0x2F4 JUMPI DUP2 PUSH4 0x902D55A5 EQ PUSH2 0x2CD JUMPI DUP2 PUSH4 0x95D89B41 EQ PUSH2 0x1AE JUMPI POP DUP1 PUSH4 0xA9059CBB EQ PUSH2 0x17E JUMPI DUP1 PUSH4 0xC45A0155 EQ PUSH2 0x13B JUMPI DUP1 PUSH4 0xDD62ED3E EQ PUSH2 0xF3 JUMPI PUSH4 0xEBDA16EB EQ PUSH2 0xCA JUMPI PUSH1 0x0 DUP1 REVERT JUMPDEST CALLVALUE PUSH2 0xEF JUMPI DUP2 PUSH1 0x3 NOT CALLDATASIZE ADD SLT PUSH2 0xEF JUMPI PUSH1 0x20 SWAP1 MLOAD PUSH12 0x71175249D9818853B8000000 DUP2 MSTORE RETURN JUMPDEST POP DUP1 REVERT JUMPDEST POP CALLVALUE PUSH2 0xEF JUMPI DUP1 PUSH1 0x3 NOT CALLDATASIZE ADD SLT PUSH2 0xEF JUMPI DUP1 PUSH1 0x20 SWAP3 PUSH2 0x110 PUSH2 0x6D3 JUMP JUMPDEST PUSH2 0x118 PUSH2 0x6EE JUMP JUMPDEST PUSH1 0x1 PUSH1 0x1 PUSH1 0xA0 SHL SUB SWAP2 DUP3 AND DUP4 MSTORE PUSH1 0x1 DUP7 MSTORE DUP4 DUP4 KECCAK256 SWAP2 AND DUP3 MSTORE DUP5 MSTORE KECCAK256 SLOAD SWAP1 MLOAD SWAP1 DUP2 MSTORE RETURN JUMPDEST POP CALLVALUE PUSH2 0xEF JUMPI DUP2 PUSH1 0x3 NOT CALLDATASIZE ADD SLT PUSH2 0xEF JUMPI MLOAD PUSH32 0x0 PUSH1 0x1 PUSH1 0x1 PUSH1 0xA0 SHL SUB AND DUP2 MSTORE PUSH1 0x20 SWAP1 RETURN JUMPDEST POP CALLVALUE PUSH2 0xEF JUMPI DUP1 PUSH1 0x3 NOT CALLDATASIZE ADD SLT PUSH2 0xEF JUMPI PUSH1 0x20 SWAP1 PUSH2 0x1A7 PUSH2 0x19D PUSH2 0x6D3 JUMP JUMPDEST PUSH1 0x24 CALLDATALOAD SWAP1 CALLER PUSH2 0x704 JUMP JUMPDEST MLOAD PUSH1 0x1 DUP2 MSTORE RETURN JUMPDEST DUP4 DUP4 CALLVALUE PUSH2 0xEF JUMPI DUP2 PUSH1 0x3 NOT CALLDATASIZE ADD SLT PUSH2 0xEF JUMPI DUP1 MLOAD SWAP1 DUP3 DUP5 SLOAD PUSH1 0x1 DUP2 DUP2 SHR SWAP1 DUP1 DUP4 AND SWAP3 DUP4 ISZERO PUSH2 0x2C3 JUMPI JUMPDEST PUSH1 0x20 SWAP4 DUP5 DUP5 LT DUP2 EQ PUSH2 0x2B0 JUMPI DUP4 DUP9 MSTORE SWAP1 DUP2 ISZERO PUSH2 0x294 JUMPI POP PUSH1 0x1 EQ PUSH2 0x23F JUMPI JUMPDEST POP POP POP DUP3 SWAP1 SUB PUSH1 0x1F ADD PUSH1 0x1F NOT AND DUP3 ADD SWAP3 PUSH8 0xFFFFFFFFFFFFFFFF DUP5 GT DUP4 DUP6 LT OR PUSH2 0x22C JUMPI POP DUP3 SWAP2 DUP3 PUSH2 0x228 SWAP3 MSTORE DUP3 PUSH2 0x68A JUMP JUMPDEST SUB SWAP1 RETURN JUMPDEST PUSH4 0x4E487B71 PUSH1 0xE0 SHL DUP2 MSTORE PUSH1 0x41 DUP6 MSTORE PUSH1 0x24 SWAP1 REVERT JUMPDEST DUP8 DUP8 MSTORE SWAP2 SWAP3 POP DUP6 SWAP2 DUP4 PUSH32 0x8A35ACFBC15FF81A39AE7D344FD709F28E8600B4AA8C65C6B64BFE7FE36BD19B JUMPDEST DUP4 DUP6 LT PUSH2 0x280 JUMPI POP POP POP POP DUP4 ADD ADD DUP6 DUP1 DUP1 PUSH2 0x1F6 JUMP JUMPDEST DUP1 SLOAD DUP9 DUP7 ADD DUP4 ADD MSTORE SWAP4 ADD SWAP3 DUP5 SWAP1 DUP3 ADD PUSH2 0x26A JUMP JUMPDEST PUSH1 0xFF NOT AND DUP8 DUP6 ADD MSTORE POP POP ISZERO ISZERO PUSH1 0x5 SHL DUP5 ADD ADD SWAP1 POP DUP6 DUP1 DUP1 PUSH2 0x1F6 JUMP JUMPDEST PUSH4 0x4E487B71 PUSH1 0xE0 SHL DUP10 MSTORE PUSH1 0x22 DUP11 MSTORE PUSH1 0x24 DUP10 REVERT JUMPDEST SWAP2 PUSH1 0x7F AND SWAP2 PUSH2 0x1D7 JUMP JUMPDEST POP POP CALLVALUE PUSH2 0xEF JUMPI DUP2 PUSH1 0x3 NOT CALLDATASIZE ADD SLT PUSH2 0xEF JUMPI PUSH1 0x20 SWAP1 MLOAD PUSH12 0xA18F07D736B90BE550000000 DUP2 MSTORE RETURN JUMPDEST POP POP CALLVALUE PUSH2 0xEF JUMPI DUP2 PUSH1 0x3 NOT CALLDATASIZE ADD SLT PUSH2 0xEF JUMPI PUSH1 0x20 SWAP1 MLOAD PUSH32 0x0 DUP2 MSTORE RETURN JUMPDEST POP POP CALLVALUE PUSH2 0xEF JUMPI PUSH1 0x20 CALLDATASIZE PUSH1 0x3 NOT ADD SLT PUSH2 0xEF JUMPI PUSH1 0x20 SWAP2 DUP2 SWAP1 PUSH1 0x1 PUSH1 0x1 PUSH1 0xA0 SHL SUB PUSH2 0x357 PUSH2 0x6D3 JUMP JUMPDEST AND DUP2 MSTORE DUP1 DUP5 MSTORE KECCAK256 SLOAD SWAP1 MLOAD SWAP1 DUP2 MSTORE RETURN JUMPDEST POP POP CALLVALUE PUSH2 0xEF JUMPI DUP2 PUSH1 0x3 NOT CALLDATASIZE ADD SLT PUSH2 0xEF JUMPI PUSH1 0x20 SWAP1 MLOAD PUSH1 0x12 DUP2 MSTORE RETURN JUMPDEST POP POP CALLVALUE PUSH2 0xEF JUMPI DUP2 PUSH1 0x3 NOT CALLDATASIZE ADD SLT PUSH2 0xEF JUMPI PUSH1 0x20 SWAP1 MLOAD PUSH12 0x3077B58D5D37839198000000 DUP2 MSTORE RETURN JUMPDEST SWAP1 POP DUP3 CALLVALUE PUSH2 0x49D JUMPI PUSH1 0x60 CALLDATASIZE PUSH1 0x3 NOT ADD SLT PUSH2 0x49D JUMPI PUSH2 0x3C5 PUSH2 0x6D3 JUMP JUMPDEST PUSH2 0x3CD PUSH2 0x6EE JUMP JUMPDEST SWAP2 PUSH1 0x44 CALLDATALOAD SWAP4 PUSH1 0x1 DUP1 PUSH1 0xA0 SHL SUB DUP4 AND DUP1 DUP4 MSTORE PUSH1 0x1 PUSH1 0x20 MSTORE DUP7 DUP4 KECCAK256 CALLER DUP5 MSTORE PUSH1 0x20 MSTORE DUP7 DUP4 KECCAK256 SLOAD SWAP2 PUSH1 0x0 NOT DUP4 LT PUSH2 0x409 JUMPI JUMPDEST PUSH1 0x20 DUP9 PUSH2 0x1A7 DUP10 DUP10 DUP10 PUSH2 0x704 JUMP JUMPDEST DUP7 DUP4 LT PUSH2 0x471 JUMPI DUP2 ISZERO PUSH2 0x45A JUMPI CALLER ISZERO PUSH2 0x443 JUMPI POP DUP3 MSTORE PUSH1 0x1 PUSH1 0x20 SWAP1 DUP2 MSTORE DUP7 DUP4 KECCAK256 CALLER DUP5 MSTORE DUP2 MSTORE SWAP2 DUP7 SWAP1 KECCAK256 SWAP1 DUP6 SWAP1 SUB SWAP1 SSTORE DUP3 SWAP1 PUSH2 0x1A7 DUP8 PUSH2 0x3FB JUMP JUMPDEST DUP8 MLOAD PUSH4 0x4A1406B1 PUSH1 0xE1 SHL DUP2 MSTORE SWAP1 DUP2 ADD DUP5 SWAP1 MSTORE PUSH1 0x24 SWAP1 REVERT JUMPDEST DUP8 MLOAD PUSH4 0xE602DF05 PUSH1 0xE0 SHL DUP2 MSTORE SWAP1 DUP2 ADD DUP5 SWAP1 MSTORE PUSH1 0x24 SWAP1 REVERT JUMPDEST DUP8 MLOAD PUSH4 0x7DC7A0D9 PUSH1 0xE1 SHL DUP2 MSTORE CALLER SWAP2 DUP2 ADD SWAP2 DUP3 MSTORE PUSH1 0x20 DUP3 ADD SWAP4 SWAP1 SWAP4 MSTORE PUSH1 0x40 DUP2 ADD DUP8 SWAP1 MSTORE DUP3 SWAP2 POP PUSH1 0x60 ADD SUB SWAP1 REVERT JUMPDEST DUP1 REVERT JUMPDEST POP POP CALLVALUE PUSH2 0xEF JUMPI DUP2 PUSH1 0x3 NOT CALLDATASIZE ADD SLT PUSH2 0xEF JUMPI PUSH1 0x20 SWAP1 PUSH1 0x2 SLOAD SWAP1 MLOAD SWAP1 DUP2 MSTORE RETURN JUMPDEST SWAP1 POP CALLVALUE PUSH2 0x569 JUMPI DUP2 PUSH1 0x3 NOT CALLDATASIZE ADD SLT PUSH2 0x569 JUMPI PUSH2 0x4D9 PUSH2 0x6D3 JUMP JUMPDEST PUSH1 0x24 CALLDATALOAD SWAP1 CALLER ISZERO PUSH2 0x552 JUMPI PUSH1 0x1 PUSH1 0x1 PUSH1 0xA0 SHL SUB AND SWAP2 DUP3 ISZERO PUSH2 0x53B JUMPI POP DUP1 DUP4 PUSH1 0x20 SWAP6 CALLER DUP2 MSTORE PUSH1 0x1 DUP8 MSTORE DUP2 DUP2 KECCAK256 DUP6 DUP3 MSTORE DUP8 MSTORE KECCAK256 SSTORE DUP3 MLOAD SWAP1 DUP2 MSTORE PUSH32 0x8C5BE1E5EBEC7D5BD14F71427D1E84F3DD0314C0F7B2291E5B200AC8C7C3B925 DUP5 CALLER SWAP3 LOG3 MLOAD PUSH1 0x1 DUP2 MSTORE RETURN JUMPDEST DUP4 MLOAD PUSH4 0x4A1406B1 PUSH1 0xE1 SHL DUP2 MSTORE SWAP1 DUP2 ADD DUP6 SWAP1 MSTORE PUSH1 0x24 SWAP1 REVERT JUMPDEST DUP4 MLOAD PUSH4 0xE602DF05 PUSH1 0xE0 SHL DUP2 MSTORE DUP1 DUP5 ADD DUP7 SWAP1 MSTORE PUSH1 0x24 SWAP1 REVERT JUMPDEST DUP3 DUP1 REVERT JUMPDEST DUP4 DUP4 CALLVALUE PUSH2 0xEF JUMPI DUP2 PUSH1 0x3 NOT CALLDATASIZE ADD SLT PUSH2 0xEF JUMPI DUP1 MLOAD SWAP1 DUP3 PUSH1 0x3 SLOAD PUSH1 0x1 DUP2 DUP2 SHR SWAP1 DUP1 DUP4 AND SWAP3 DUP4 ISZERO PUSH2 0x63D JUMPI JUMPDEST PUSH1 0x20 SWAP4 DUP5 DUP5 LT DUP2 EQ PUSH2 0x2B0 JUMPI DUP4 DUP9 MSTORE SWAP1 DUP2 ISZERO PUSH2 0x294 JUMPI POP PUSH1 0x1 EQ PUSH2 0x5E7 JUMPI POP POP POP DUP3 SWAP1 SUB PUSH1 0x1F ADD PUSH1 0x1F NOT AND DUP3 ADD SWAP3 PUSH8 0xFFFFFFFFFFFFFFFF DUP5 GT DUP4 DUP6 LT OR PUSH2 0x22C JUMPI POP DUP3 SWAP2 DUP3 PUSH2 0x228 SWAP3 MSTORE DUP3 PUSH2 0x68A JUMP JUMPDEST PUSH1 0x3 DUP8 MSTORE SWAP2 SWAP3 POP DUP6 SWAP2 DUP4 PUSH32 0xC2575A0E9E593C00F959F8C92F12DB2869C3395A3B0502D05E2516446F71F85B JUMPDEST DUP4 DUP6 LT PUSH2 0x629 JUMPI POP POP POP POP DUP4 ADD ADD DUP6 DUP1 DUP1 PUSH2 0x1F6 JUMP JUMPDEST DUP1 SLOAD DUP9 DUP7 ADD DUP4 ADD MSTORE SWAP4 ADD SWAP3 DUP5 SWAP1 DUP3 ADD PUSH2 0x613 JUMP JUMPDEST SWAP2 PUSH1 0x7F AND SWAP2 PUSH2 0x597 JUMP JUMPDEST DUP5 SWAP1 CALLVALUE PUSH2 0xEF JUMPI DUP2 PUSH1 0x3 NOT CALLDATASIZE ADD SLT PUSH2 0xEF JUMPI PUSH32 0x0 PUSH1 0x1 PUSH1 0x1 PUSH1 0xA0 SHL SUB AND DUP2 MSTORE PUSH1 0x20 SWAP1 RETURN JUMPDEST PUSH1 0x20 DUP1 DUP3 MSTORE DUP3 MLOAD DUP2 DUP4 ADD DUP2 SWAP1 MSTORE SWAP1 SWAP4 SWAP3 PUSH1 0x0 JUMPDEST DUP3 DUP2 LT PUSH2 0x6BF JUMPI POP POP PUSH1 0x40 SWAP3 SWAP4 POP PUSH1 0x0 DUP4 DUP3 DUP5 ADD ADD MSTORE PUSH1 0x1F DUP1 NOT SWAP2 ADD AND ADD ADD SWAP1 JUMP JUMPDEST DUP2 DUP2 ADD DUP7 ADD MLOAD DUP5 DUP3 ADD PUSH1 0x40 ADD MSTORE DUP6 ADD PUSH2 0x69D JUMP JUMPDEST PUSH1 0x4 CALLDATALOAD SWAP1 PUSH1 0x1 PUSH1 0x1 PUSH1 0xA0 SHL SUB DUP3 AND DUP3 SUB PUSH2 0x6E9 JUMPI JUMP JUMPDEST PUSH1 0x0 DUP1 REVERT JUMPDEST PUSH1 0x24 CALLDATALOAD SWAP1 PUSH1 0x1 PUSH1 0x1 PUSH1 0xA0 SHL SUB DUP3 AND DUP3 SUB PUSH2 0x6E9 JUMPI JUMP JUMPDEST SWAP2 PUSH1 0x1 PUSH1 0x1 PUSH1 0xA0 SHL SUB DUP1 DUP5 AND SWAP3 DUP4 ISZERO PUSH2 0x7C9 JUMPI AND SWAP3 DUP4 ISZERO PUSH2 0x7B0 JUMPI PUSH1 0x0 SWAP1 DUP4 DUP3 MSTORE DUP2 PUSH1 0x20 MSTORE PUSH1 0x40 DUP3 KECCAK256 SLOAD SWAP1 DUP4 DUP3 LT PUSH2 0x77E JUMPI POP SWAP2 PUSH1 0x40 DUP3 DUP3 PUSH32 0xDDF252AD1BE2C89B69C2B068FC378DAA952BA7F163C4A11628F55A4DF523B3EF SWAP6 DUP8 PUSH1 0x20 SWAP7 MSTORE DUP3 DUP7 MSTORE SUB DUP3 DUP3 KECCAK256 SSTORE DUP7 DUP2 MSTORE KECCAK256 DUP2 DUP2 SLOAD ADD SWAP1 SSTORE PUSH1 0x40 MLOAD SWAP1 DUP2 MSTORE LOG3 JUMP JUMPDEST PUSH1 0x40 MLOAD PUSH4 0x391434E3 PUSH1 0xE2 SHL DUP2 MSTORE PUSH1 0x1 PUSH1 0x1 PUSH1 0xA0 SHL SUB SWAP2 SWAP1 SWAP2 AND PUSH1 0x4 DUP3 ADD MSTORE PUSH1 0x24 DUP2 ADD SWAP2 SWAP1 SWAP2 MSTORE PUSH1 0x44 DUP2 ADD DUP4 SWAP1 MSTORE PUSH1 0x64 SWAP1 REVERT JUMPDEST PUSH1 0x40 MLOAD PUSH4 0xEC442F05 PUSH1 0xE0 SHL DUP2 MSTORE PUSH1 0x0 PUSH1 0x4 DUP3 ADD MSTORE PUSH1 0x24 SWAP1 REVERT JUMPDEST PUSH1 0x40 MLOAD PUSH4 0x4B637E8F PUSH1 0xE1 SHL DUP2 MSTORE PUSH1 0x0 PUSH1 0x4 DUP3 ADD MSTORE PUSH1 0x24 SWAP1 REVERT INVALID LOG2 PUSH5 0x6970667358 0x22 SLT KECCAK256 SLOAD 0xFB SWAP5 0x1F CALLDATALOAD GT CALLVALUE 0xEF 0xF 0xD 0xB4 SWAP13 REVERT SWAP8 SWAP2 PUSH7 0x4E2F634F4ECEC1 0xAB BLOCKHASH 0xBC LOG0 0xBC 0x24 SIGNEXTEND XOR 0x4C PUSH5 0x736F6C6343 STOP ADDMOD EQ STOP CALLER "},"methodIdentifiers":{"CREATOR_ALLOCATION()":"2bc73063","LP_ALLOCATION()":"ebda16eb","TOTAL_SUPPLY()":"902d55a5","allowance(address,address)":"dd62ed3e","approve(address,uint256)":"095ea7b3","balanceOf(address)":"70a08231","creator()":"02d05d3f","decimals()":"313ce567","factory()":"c45a0155","launchTime()":"790ca413","name()":"06fdde03","symbol()":"95d89b41","totalSupply()":"18160ddd","transfer(address,uint256)":"a9059cbb","transferFrom(address,address,uint256)":"23b872dd"}}}}}