{"src/KaboomLPVault.sol":{"KaboomLPVault":{"abi":[{"inputs":[{"internalType":"address","name":"token_","type":"address"},{"internalType":"address","name":"pool_","type":"address"},{"internalType":"address","name":"factory_","type":"address"}],"stateMutability":"nonpayable","type":"constructor"},{"inputs":[],"name":"AlreadyInitialized","type":"error"},{"inputs":[{"internalType":"address","name":"token","type":"address"}],"name":"SafeERC20FailedOperation","type":"error"},{"inputs":[],"name":"Unauthorized","type":"error"},{"inputs":[],"name":"ZeroAddress","type":"error"},{"inputs":[],"name":"ZeroAmount","type":"error"},{"anonymous":false,"inputs":[{"indexed":true,"internalType":"address","name":"token","type":"address"},{"indexed":true,"internalType":"address","name":"pool","type":"address"},{"indexed":false,"internalType":"uint256","name":"amount","type":"uint256"}],"name":"LPLocked","type":"event"},{"inputs":[],"name":"factory","outputs":[{"internalType":"address","name":"","type":"address"}],"stateMutability":"view","type":"function"},{"inputs":[],"name":"getLPBalance","outputs":[{"internalType":"uint256","name":"","type":"uint256"}],"stateMutability":"view","type":"function"},{"inputs":[{"internalType":"address","name":"token_","type":"address"},{"internalType":"address","name":"pool_","type":"address"}],"name":"initialize","outputs":[],"stateMutability":"nonpayable","type":"function"},{"inputs":[],"name":"initialized","outputs":[{"internalType":"bool","name":"","type":"bool"}],"stateMutability":"view","type":"function"},{"inputs":[],"name":"isLocked","outputs":[{"internalType":"bool","name":"","type":"bool"}],"stateMutability":"view","type":"function"},{"inputs":[{"internalType":"uint256","name":"amount","type":"uint256"}],"name":"lockLP","outputs":[],"stateMutability":"nonpayable","type":"function"},{"inputs":[],"name":"lockedBalance","outputs":[{"internalType":"uint256","name":"","type":"uint256"}],"stateMutability":"view","type":"function"},{"inputs":[],"name":"pool","outputs":[{"internalType":"address","name":"","type":"address"}],"stateMutability":"view","type":"function"},{"inputs":[],"name":"token","outputs":[{"internalType":"address","name":"","type":"address"}],"stateMutability":"view","type":"function"}],"evm":{"bytecode":{"linkReferences":{},"object":"60a0346100ae57601f61056938819003918201601f19168301916001600160401b038311848410176100b3578084926060946040528339810103126100ae57610047816100c9565b61005f6040610058602085016100c9565b93016100c9565b9160018060a01b03908160018060a01b031993168360005416176000551690600154161760015560805260405161048b90816100de823960805181818160c60152818161023a01526102ef0152f35b600080fd5b634e487b7160e01b600052604160045260246000fd5b51906001600160a01b03821682036100ae5756fe608060408181526004918236101561001657600080fd5b600092833560e01c918263158ef93e146104315750816316f0115b1461040857816340519a53146102ce578163485cc955146102015781636f43f17b14610139575080637b80889b1461011b578063a4e2d634146100f5578063c45a0155146100b25763fc0c546a1461008857600080fd5b346100ae57816003193601126100ae57905490516001600160a01b039091168152602090f35b5080fd5b50346100ae57816003193601126100ae57517f00000000000000000000000000000000000000000000000000000000000000006001600160a01b03168152602090f35b50346100ae57816003193601126100ae5760209060ff60015460a01c1690519015158152f35b50346100ae57816003193601126100ae576020906002549051908152f35b919050346101d857826003193601126101d85760015481516370a0823160e01b8152308482015290602090829060249082906001600160a01b03165afa9283156101f757849361018e575b6020848451908152f35b909192506020903d82116101ef575b601f8201601f191683019067ffffffffffffffff8211848310176101dc575060209183918552810103126101d8576020925051903880610184565b8280fd5b634e487b7160e01b865260419052602485fd5b3d915061019d565b82513d86823e3d90fd5b9050346101d857816003193601126101d8576001600160a01b0390803582811691908290036102ca57602435928084168094036102c6577f00000000000000000000000000000000000000000000000000000000000000001633036102b9576001549360ff8560a81c166102ad5782156102a057505083546001600160a01b031916178355600161ff0160a01b031990911617600160a81b1760015580f35b5163d92e233d60e01b8152fd5b5162dc149f60e41b8152fd5b83516282b42960e81b8152fd5b8580fd5b8480fd5b9050346101d85760203660031901126101d8576001600160a01b03908035907f0000000000000000000000000000000000000000000000000000000000000000831633036102b95760015460ff8160a01c166103fa5782156103eb5760ff60a01b198116600160a01b17600155600283905584516323b872dd60e01b8752338352306024526044849052919084169060208760648180865af160018851148116156103cc575b83875287606052156103b95750505060207f104290e1e459304b774d131c3ac0fa84947303c64b8ae6cce786374e13448942918386541693600154169451908152a380f35b635274afe760e01b835282015260249150fd5b60018115166103e257823b15153d151616610374565b833d89823e3d90fd5b508351631f2a200560e01b8152fd5b50835162dc149f60e41b8152fd5b5050346100ae57816003193601126100ae5760015490516001600160a01b039091168152602090f35b8490346100ae57816003193601126100ae5760209060ff60015460a81c1615158152f3fea2646970667358221220bf05ff60a61e22ec80ee1f1b6ef2835f0308df53cbba6cdbea7a37dc067b213d64736f6c63430008140033","opcodes":"PUSH1 0xA0 CALLVALUE PUSH2 0xAE JUMPI PUSH1 0x1F PUSH2 0x569 CODESIZE DUP2 SWAP1 SUB SWAP2 DUP3 ADD PUSH1 0x1F NOT AND DUP4 ADD SWAP2 PUSH1 0x1 PUSH1 0x1 PUSH1 0x40 SHL SUB DUP4 GT DUP5 DUP5 LT OR PUSH2 0xB3 JUMPI DUP1 DUP5 SWAP3 PUSH1 0x60 SWAP5 PUSH1 0x40 MSTORE DUP4 CODECOPY DUP2 ADD SUB SLT PUSH2 0xAE JUMPI PUSH2 0x47 DUP2 PUSH2 0xC9 JUMP JUMPDEST PUSH2 0x5F PUSH1 0x40 PUSH2 0x58 PUSH1 0x20 DUP6 ADD PUSH2 0xC9 JUMP JUMPDEST SWAP4 ADD PUSH2 0xC9 JUMP JUMPDEST SWAP2 PUSH1 0x1 DUP1 PUSH1 0xA0 SHL SUB SWAP1 DUP2 PUSH1 0x1 DUP1 PUSH1 0xA0 SHL SUB NOT SWAP4 AND DUP4 PUSH1 0x0 SLOAD AND OR PUSH1 0x0 SSTORE AND SWAP1 PUSH1 0x1 SLOAD AND OR PUSH1 0x1 SSTORE PUSH1 0x80 MSTORE PUSH1 0x40 MLOAD PUSH2 0x48B SWAP1 DUP2 PUSH2 0xDE DUP3 CODECOPY PUSH1 0x80 MLOAD DUP2 DUP2 DUP2 PUSH1 0xC6 ADD MSTORE DUP2 DUP2 PUSH2 0x23A ADD MSTORE PUSH2 0x2EF ADD MSTORE RETURN JUMPDEST PUSH1 0x0 DUP1 REVERT JUMPDEST PUSH4 0x4E487B71 PUSH1 0xE0 SHL PUSH1 0x0 MSTORE PUSH1 0x41 PUSH1 0x4 MSTORE PUSH1 0x24 PUSH1 0x0 REVERT JUMPDEST MLOAD SWAP1 PUSH1 0x1 PUSH1 0x1 PUSH1 0xA0 SHL SUB DUP3 AND DUP3 SUB PUSH2 0xAE JUMPI JUMP INVALID PUSH1 0x80 PUSH1 0x40 DUP2 DUP2 MSTORE PUSH1 0x4 SWAP2 DUP3 CALLDATASIZE LT ISZERO PUSH2 0x16 JUMPI PUSH1 0x0 DUP1 REVERT JUMPDEST PUSH1 0x0 SWAP3 DUP4 CALLDATALOAD PUSH1 0xE0 SHR SWAP2 DUP3 PUSH4 0x158EF93E EQ PUSH2 0x431 JUMPI POP DUP2 PUSH4 0x16F0115B EQ PUSH2 0x408 JUMPI DUP2 PUSH4 0x40519A53 EQ PUSH2 0x2CE JUMPI DUP2 PUSH4 0x485CC955 EQ PUSH2 0x201 JUMPI DUP2 PUSH4 0x6F43F17B EQ PUSH2 0x139 JUMPI POP DUP1 PUSH4 0x7B80889B EQ PUSH2 0x11B JUMPI DUP1 PUSH4 0xA4E2D634 EQ PUSH2 0xF5 JUMPI DUP1 PUSH4 0xC45A0155 EQ PUSH2 0xB2 JUMPI PUSH4 0xFC0C546A EQ PUSH2 0x88 JUMPI PUSH1 0x0 DUP1 REVERT JUMPDEST CALLVALUE PUSH2 0xAE JUMPI DUP2 PUSH1 0x3 NOT CALLDATASIZE ADD SLT PUSH2 0xAE JUMPI SWAP1 SLOAD SWAP1 MLOAD PUSH1 0x1 PUSH1 0x1 PUSH1 0xA0 SHL SUB SWAP1 SWAP2 AND DUP2 MSTORE PUSH1 0x20 SWAP1 RETURN JUMPDEST POP DUP1 REVERT JUMPDEST POP CALLVALUE PUSH2 0xAE JUMPI DUP2 PUSH1 0x3 NOT CALLDATASIZE ADD SLT PUSH2 0xAE JUMPI MLOAD PUSH32 0x0 PUSH1 0x1 PUSH1 0x1 PUSH1 0xA0 SHL SUB AND DUP2 MSTORE PUSH1 0x20 SWAP1 RETURN JUMPDEST POP CALLVALUE PUSH2 0xAE JUMPI DUP2 PUSH1 0x3 NOT CALLDATASIZE ADD SLT PUSH2 0xAE JUMPI PUSH1 0x20 SWAP1 PUSH1 0xFF PUSH1 0x1 SLOAD PUSH1 0xA0 SHR AND SWAP1 MLOAD SWAP1 ISZERO ISZERO DUP2 MSTORE RETURN JUMPDEST POP CALLVALUE PUSH2 0xAE JUMPI DUP2 PUSH1 0x3 NOT CALLDATASIZE ADD SLT PUSH2 0xAE JUMPI PUSH1 0x20 SWAP1 PUSH1 0x2 SLOAD SWAP1 MLOAD SWAP1 DUP2 MSTORE RETURN JUMPDEST SWAP2 SWAP1 POP CALLVALUE PUSH2 0x1D8 JUMPI DUP3 PUSH1 0x3 NOT CALLDATASIZE ADD SLT PUSH2 0x1D8 JUMPI PUSH1 0x1 SLOAD DUP2 MLOAD PUSH4 0x70A08231 PUSH1 0xE0 SHL DUP2 MSTORE ADDRESS DUP5 DUP3 ADD MSTORE SWAP1 PUSH1 0x20 SWAP1 DUP3 SWAP1 PUSH1 0x24 SWAP1 DUP3 SWAP1 PUSH1 0x1 PUSH1 0x1 PUSH1 0xA0 SHL SUB AND GAS STATICCALL SWAP3 DUP4 ISZERO PUSH2 0x1F7 JUMPI DUP5 SWAP4 PUSH2 0x18E JUMPI JUMPDEST PUSH1 0x20 DUP5 DUP5 MLOAD SWAP1 DUP2 MSTORE RETURN JUMPDEST SWAP1 SWAP2 SWAP3 POP PUSH1 0x20 SWAP1 RETURNDATASIZE DUP3 GT PUSH2 0x1EF JUMPI JUMPDEST PUSH1 0x1F DUP3 ADD PUSH1 0x1F NOT AND DUP4 ADD SWAP1 PUSH8 0xFFFFFFFFFFFFFFFF DUP3 GT DUP5 DUP4 LT OR PUSH2 0x1DC JUMPI POP PUSH1 0x20 SWAP2 DUP4 SWAP2 DUP6 MSTORE DUP2 ADD SUB SLT PUSH2 0x1D8 JUMPI PUSH1 0x20 SWAP3 POP MLOAD SWAP1 CODESIZE DUP1 PUSH2 0x184 JUMP JUMPDEST DUP3 DUP1 REVERT JUMPDEST PUSH4 0x4E487B71 PUSH1 0xE0 SHL DUP7 MSTORE PUSH1 0x41 SWAP1 MSTORE PUSH1 0x24 DUP6 REVERT JUMPDEST RETURNDATASIZE SWAP2 POP PUSH2 0x19D JUMP JUMPDEST DUP3 MLOAD RETURNDATASIZE DUP7 DUP3 RETURNDATACOPY RETURNDATASIZE SWAP1 REVERT JUMPDEST SWAP1 POP CALLVALUE PUSH2 0x1D8 JUMPI DUP2 PUSH1 0x3 NOT CALLDATASIZE ADD SLT PUSH2 0x1D8 JUMPI PUSH1 0x1 PUSH1 0x1 PUSH1 0xA0 SHL SUB SWAP1 DUP1 CALLDATALOAD DUP3 DUP2 AND SWAP2 SWAP1 DUP3 SWAP1 SUB PUSH2 0x2CA JUMPI PUSH1 0x24 CALLDATALOAD SWAP3 DUP1 DUP5 AND DUP1 SWAP5 SUB PUSH2 0x2C6 JUMPI PUSH32 0x0 AND CALLER SUB PUSH2 0x2B9 JUMPI PUSH1 0x1 SLOAD SWAP4 PUSH1 0xFF DUP6 PUSH1 0xA8 SHR AND PUSH2 0x2AD JUMPI DUP3 ISZERO PUSH2 0x2A0 JUMPI POP POP DUP4 SLOAD PUSH1 0x1 PUSH1 0x1 PUSH1 0xA0 SHL SUB NOT AND OR DUP4 SSTORE PUSH1 0x1 PUSH2 0xFF01 PUSH1 0xA0 SHL SUB NOT SWAP1 SWAP2 AND OR PUSH1 0x1 PUSH1 0xA8 SHL OR PUSH1 0x1 SSTORE DUP1 RETURN JUMPDEST MLOAD PUSH4 0xD92E233D PUSH1 0xE0 SHL DUP2 MSTORE REVERT JUMPDEST MLOAD PUSH3 0xDC149F PUSH1 0xE4 SHL DUP2 MSTORE REVERT JUMPDEST DUP4 MLOAD PUSH3 0x82B429 PUSH1 0xE8 SHL DUP2 MSTORE REVERT JUMPDEST DUP6 DUP1 REVERT JUMPDEST DUP5 DUP1 REVERT JUMPDEST SWAP1 POP CALLVALUE PUSH2 0x1D8 JUMPI PUSH1 0x20 CALLDATASIZE PUSH1 0x3 NOT ADD SLT PUSH2 0x1D8 JUMPI PUSH1 0x1 PUSH1 0x1 PUSH1 0xA0 SHL SUB SWAP1 DUP1 CALLDATALOAD SWAP1 PUSH32 0x0 DUP4 AND CALLER SUB PUSH2 0x2B9 JUMPI PUSH1 0x1 SLOAD PUSH1 0xFF DUP2 PUSH1 0xA0 SHR AND PUSH2 0x3FA JUMPI DUP3 ISZERO PUSH2 0x3EB JUMPI PUSH1 0xFF PUSH1 0xA0 SHL NOT DUP2 AND PUSH1 0x1 PUSH1 0xA0 SHL OR PUSH1 0x1 SSTORE PUSH1 0x2 DUP4 SWAP1 SSTORE DUP5 MLOAD PUSH4 0x23B872DD PUSH1 0xE0 SHL DUP8 MSTORE CALLER DUP4 MSTORE ADDRESS PUSH1 0x24 MSTORE PUSH1 0x44 DUP5 SWAP1 MSTORE SWAP2 SWAP1 DUP5 AND SWAP1 PUSH1 0x20 DUP8 PUSH1 0x64 DUP2 DUP1 DUP7 GAS CALL PUSH1 0x1 DUP9 MLOAD EQ DUP2 AND ISZERO PUSH2 0x3CC JUMPI JUMPDEST DUP4 DUP8 MSTORE DUP8 PUSH1 0x60 MSTORE ISZERO PUSH2 0x3B9 JUMPI POP POP POP PUSH1 0x20 PUSH32 0x104290E1E459304B774D131C3AC0FA84947303C64B8AE6CCE786374E13448942 SWAP2 DUP4 DUP7 SLOAD AND SWAP4 PUSH1 0x1 SLOAD AND SWAP5 MLOAD SWAP1 DUP2 MSTORE LOG3 DUP1 RETURN JUMPDEST PUSH4 0x5274AFE7 PUSH1 0xE0 SHL DUP4 MSTORE DUP3 ADD MSTORE PUSH1 0x24 SWAP2 POP REVERT JUMPDEST PUSH1 0x1 DUP2 ISZERO AND PUSH2 0x3E2 JUMPI DUP3 EXTCODESIZE ISZERO ISZERO RETURNDATASIZE ISZERO AND AND PUSH2 0x374 JUMP JUMPDEST DUP4 RETURNDATASIZE DUP10 DUP3 RETURNDATACOPY RETURNDATASIZE SWAP1 REVERT JUMPDEST POP DUP4 MLOAD PUSH4 0x1F2A2005 PUSH1 0xE0 SHL DUP2 MSTORE REVERT JUMPDEST POP DUP4 MLOAD PUSH3 0xDC149F PUSH1 0xE4 SHL DUP2 MSTORE REVERT JUMPDEST POP POP CALLVALUE PUSH2 0xAE JUMPI DUP2 PUSH1 0x3 NOT CALLDATASIZE ADD SLT PUSH2 0xAE JUMPI PUSH1 0x1 SLOAD SWAP1 MLOAD PUSH1 0x1 PUSH1 0x1 PUSH1 0xA0 SHL SUB SWAP1 SWAP2 AND DUP2 MSTORE PUSH1 0x20 SWAP1 RETURN JUMPDEST DUP5 SWAP1 CALLVALUE PUSH2 0xAE JUMPI DUP2 PUSH1 0x3 NOT CALLDATASIZE ADD SLT PUSH2 0xAE JUMPI PUSH1 0x20 SWAP1 PUSH1 0xFF PUSH1 0x1 SLOAD PUSH1 0xA8 SHR AND ISZERO ISZERO DUP2 MSTORE RETURN INVALID LOG2 PUSH5 0x6970667358 0x22 SLT KECCAK256 0xBF SDIV SELFDESTRUCT PUSH1 0xA6 0x1E 0x22 0xEC DUP1 0xEE 0x1F SHL PUSH15 0xF2835F0308DF53CBBA6CDBEA7A37DC MOD PUSH28 0x213D64736F6C63430008140033000000000000000000000000000000 "},"methodIdentifiers":{"factory()":"c45a0155","getLPBalance()":"6f43f17b","initialize(address,address)":"485cc955","initialized()":"158ef93e","isLocked()":"a4e2d634","lockLP(uint256)":"40519a53","lockedBalance()":"7b80889b","pool()":"16f0115b","token()":"fc0c546a"}}}}}