{
  "_format": "hh-sol-artifact-1",
  "contractName": "KaboomRouter",
  "sourceName": "src/KaboomRouter.sol",
  "abi": [
    {
      "inputs": [
        {
          "internalType": "address",
          "name": "factory_",
          "type": "address"
        },
        {
          "internalType": "address",
          "name": "feeVault_",
          "type": "address"
        },
        {
          "internalType": "address",
          "name": "wCELO_",
          "type": "address"
        },
        {
          "internalType": "address",
          "name": "usdc_",
          "type": "address"
        }
      ],
      "stateMutability": "nonpayable",
      "type": "constructor"
    },
    {
      "inputs": [],
      "name": "InsufficientOutput",
      "type": "error"
    },
    {
      "inputs": [],
      "name": "InvalidToken",
      "type": "error"
    },
    {
      "inputs": [],
      "name": "ReentrancyGuardReentrantCall",
      "type": "error"
    },
    {
      "inputs": [
        {
          "internalType": "address",
          "name": "token",
          "type": "address"
        }
      ],
      "name": "SafeERC20FailedOperation",
      "type": "error"
    },
    {
      "inputs": [],
      "name": "SlippageExceeded",
      "type": "error"
    },
    {
      "inputs": [],
      "name": "ZeroAmount",
      "type": "error"
    },
    {
      "anonymous": false,
      "inputs": [
        {
          "indexed": true,
          "internalType": "address",
          "name": "token",
          "type": "address"
        },
        {
          "indexed": true,
          "internalType": "address",
          "name": "pool",
          "type": "address"
        },
        {
          "indexed": false,
          "internalType": "uint256",
          "name": "initialLiquidity",
          "type": "uint256"
        },
        {
          "indexed": false,
          "internalType": "uint256",
          "name": "timestamp",
          "type": "uint256"
        }
      ],
      "name": "PoolInitialized",
      "type": "event"
    },
    {
      "anonymous": false,
      "inputs": [
        {
          "indexed": true,
          "internalType": "address",
          "name": "token",
          "type": "address"
        },
        {
          "indexed": true,
          "internalType": "address",
          "name": "trader",
          "type": "address"
        },
        {
          "indexed": false,
          "internalType": "bool",
          "name": "isBuy",
          "type": "bool"
        },
        {
          "indexed": false,
          "internalType": "uint256",
          "name": "amountIn",
          "type": "uint256"
        },
        {
          "indexed": false,
          "internalType": "uint256",
          "name": "amountOut",
          "type": "uint256"
        },
        {
          "indexed": false,
          "internalType": "uint256",
          "name": "price",
          "type": "uint256"
        },
        {
          "indexed": false,
          "internalType": "uint256",
          "name": "timestamp",
          "type": "uint256"
        }
      ],
      "name": "Trade",
      "type": "event"
    },
    {
      "inputs": [
        {
          "internalType": "address",
          "name": "token",
          "type": "address"
        },
        {
          "internalType": "uint256",
          "name": "amountIn",
          "type": "uint256"
        },
        {
          "internalType": "uint256",
          "name": "minAmountOut",
          "type": "uint256"
        }
      ],
      "name": "buy",
      "outputs": [
        {
          "internalType": "uint256",
          "name": "amountOut",
          "type": "uint256"
        }
      ],
      "stateMutability": "nonpayable",
      "type": "function"
    },
    {
      "inputs": [],
      "name": "factory",
      "outputs": [
        {
          "internalType": "address",
          "name": "",
          "type": "address"
        }
      ],
      "stateMutability": "view",
      "type": "function"
    },
    {
      "inputs": [],
      "name": "feeVault",
      "outputs": [
        {
          "internalType": "address",
          "name": "",
          "type": "address"
        }
      ],
      "stateMutability": "view",
      "type": "function"
    },
    {
      "inputs": [
        {
          "internalType": "address",
          "name": "token",
          "type": "address"
        },
        {
          "internalType": "uint256",
          "name": "amountIn",
          "type": "uint256"
        }
      ],
      "name": "getBuyQuote",
      "outputs": [
        {
          "internalType": "uint256",
          "name": "amountOut",
          "type": "uint256"
        },
        {
          "internalType": "uint256",
          "name": "priceImpact",
          "type": "uint256"
        }
      ],
      "stateMutability": "view",
      "type": "function"
    },
    {
      "inputs": [
        {
          "internalType": "address",
          "name": "token",
          "type": "address"
        },
        {
          "internalType": "uint256",
          "name": "amountIn",
          "type": "uint256"
        }
      ],
      "name": "getSellQuote",
      "outputs": [
        {
          "internalType": "uint256",
          "name": "amountOut",
          "type": "uint256"
        },
        {
          "internalType": "uint256",
          "name": "priceImpact",
          "type": "uint256"
        }
      ],
      "stateMutability": "view",
      "type": "function"
    },
    {
      "inputs": [
        {
          "internalType": "address",
          "name": "token",
          "type": "address"
        },
        {
          "internalType": "uint256",
          "name": "amountIn",
          "type": "uint256"
        },
        {
          "internalType": "uint256",
          "name": "minAmountOut",
          "type": "uint256"
        }
      ],
      "name": "sell",
      "outputs": [
        {
          "internalType": "uint256",
          "name": "amountOut",
          "type": "uint256"
        }
      ],
      "stateMutability": "nonpayable",
      "type": "function"
    },
    {
      "inputs": [],
      "name": "usdc",
      "outputs": [
        {
          "internalType": "address",
          "name": "",
          "type": "address"
        }
      ],
      "stateMutability": "view",
      "type": "function"
    },
    {
      "inputs": [],
      "name": "wCELO",
      "outputs": [
        {
          "internalType": "address",
          "name": "",
          "type": "address"
        }
      ],
      "stateMutability": "view",
      "type": "function"
    }
  ],
  "bytecode": "0x610100346200013857601f620015e538819003918201601f19168301916001600160401b038311848410176200013d5780849260809460405283398101031262000138576200004e8162000153565b906200005d6020820162000153565b620000796060620000716040850162000153565b930162000153565b9260017f9b779b17422d0df92223018b32b4d1fa46e071723d6817e2486d003becc55f005560805260a05260c05260e05260405161147c9081620001698239608051818181608e01528181610104015281816105a001528181610d6001528181610f57015281816110a2015281816111be0152818161123e0152611369015260a051818181610183015281816106a101526109f8015260c051818181610154015281816104f901526106d9015260e05181818161029d0152610a3c0152f35b600080fd5b634e487b7160e01b600052604160045260246000fd5b51906001600160a01b0382168203620001385756fe6040608081526004908136101561001557600080fd5b600091823560e01c9081631bf6e95814610a6b5781633e413bee14610a27578163478222c2146109e35781636a2724621461055e5781638aaae30514610528578163930c7976146104e4578163a59ac6dd146100c1575063c45a01551461007b57600080fd5b346100bd57816003193601126100bd57517f00000000000000000000000000000000000000000000000000000000000000006001600160a01b03168152602090f35b5080fd5b8383346100bd576100d136610aa8565b90916100db610c38565b83516348c52f9d60e11b81526001600160a01b03828116828901819052602098909490929091907f00000000000000000000000000000000000000000000000000000000000000008216908a81602481855afa908115610450578a916104c7575b50156104b75786156104a757908391888a8c6101d3857f0000000000000000000000000000000000000000000000000000000000000000166101808d303384610bcb565b8c7f000000000000000000000000000000000000000000000000000000000000000095519485809481938963095ea7b360e01b9d8e8552840160209093929193604081019460018060a01b031681520152565b03925af1801561049d578492918e9161047f575b505016803b1561047b57895163280cff3560e21b81526001600160a01b038816818801908152602081018b905290918c9183919082908490829060400103925af18015610471578c918c9161045a575b50506024918a5192838092630956fef360e21b82528b8a8301525afa908115610450578a91610417575b508181169283156104075789519081526001600160a01b039091168582019081526020810189905290918b9183919082908d90829060400103927f0000000000000000000000000000000000000000000000000000000000000000165af180156103fd57918a918a936103d0575b5060448951809481936302ba337560e11b83528b898401528760248401525af19788156103c55797610391575b508610610383575061031890610313863385610b4a565b611194565b8351926001845286840152848484015260608301524260808301527f9adcf0ad0cda63c4d50f26a48925cf6405df27d422a39c456b5f03f661c8298260a03393a360017f9b779b17422d0df92223018b32b4d1fa46e071723d6817e2486d003becc55f005551908152f35b8451638199f5f360e01b8152fd5b9096508781813d83116103be575b6103a98183610afc565b810103126103b9575195886102fc565b600080fd5b503d61039f565b8751903d90823e3d90fd5b6103ef90833d85116103f6575b6103e78183610afc565b810190610b1e565b508b6102cf565b503d6103dd565b88513d8b823e3d90fd5b895163c1ab6dc160e01b81528690fd5b90508a81813d8311610449575b61042e8183610afc565b810103126104455761043f90610b36565b8b610261565b8980fd5b503d610424565b89513d8c823e3d90fd5b610465919250610ad2565b610445578a8a8d610237565b8a513d8d823e3d90fd5b8a80fd5b8161049592903d106103f6576103e78183610afc565b508c8e6101e7565b8b513d8e823e3d90fd5b8751631f2a200560e01b81528490fd5b875163c1ab6dc160e01b81528490fd5b6104de91508b3d8d116103f6576103e78183610afc565b8b61013c565b5050346100bd57816003193601126100bd57517f00000000000000000000000000000000000000000000000000000000000000006001600160a01b03168152602090f35b82843461055b578160031936011261055b575061054f610546610a92565b60243590610d3b565b82519182526020820152f35b80fd5b8383346100bd5761056e36610aa8565b939091610579610c38565b83516348c52f9d60e11b81526001600160a01b0382811682890181905260209890949290917f00000000000000000000000000000000000000000000000000000000000000008116918a81602481865afa9081156109d95785916109bc575b50156109ac57861561099c578751630956fef360e21b8152838101879052938a85602481865afa948515610990578195610955575b50818516918215610945576106248930338b610bcb565b895163095ea7b360e01b8082526001600160a01b03909716868201908152602081018b90528d90829081906040010381868d5af1801561093b5760448b8f938f938f9091889261091e575b50519788948593631897bcf360e01b85528c85015260248401525af19283156108bd5782936108ef575b5089519586527f00000000000000000000000000000000000000000000000000000000000000006001600160a01b038116868801908152602081018590527f0000000000000000000000000000000000000000000000000000000000000000831697908e90829081906040010381878c5af180156108e557908e916108c7575b505016803b156100bd57895163280cff3560e21b81526001600160a01b038816868201908152602081018590529091839183919082908490829060400103925af180156108bd576108ae575b5060288202928284046028148315171561089b5760e06024918b5192838092631f69565f851b82528c8a8301525afa918215610890576107c5926107ca9594926107bc929161085b575b5061271091829184610c7a565b04930490610d0b565b610d0b565b96871061084d575090610313866107e2933390610b4a565b8351926000845286840152848484015260608301524260808301527f9adcf0ad0cda63c4d50f26a48925cf6405df27d422a39c456b5f03f661c8298260a03393a360017f9b779b17422d0df92223018b32b4d1fa46e071723d6817e2486d003becc55f005551908152f35b8551638199f5f360e01b8152fd5b61087c915060e03d8111610889575b6108748183610afc565b810190610cc3565b509450505050508e6107af565b503d61086a565b8a51903d90823e3d90fd5b634e487b7160e01b825260118552602482fd5b6108b790610ad2565b8b610765565b8a513d84823e3d90fd5b816108dd92903d106103f6576103e78183610afc565b508c8e610719565b8c513d86823e3d90fd5b9092508b81813d8311610917575b6109078183610afc565b810103126100bd5751918c610699565b503d6108fd565b61093490873d89116103f6576103e78183610afc565b503861066f565b8b513d85823e3d90fd5b895163c1ab6dc160e01b81528590fd5b9094508a81813d8311610989575b61096d8183610afc565b810103126109855761097e90610b36565b938b61060d565b8480fd5b503d610963565b508851903d90823e3d90fd5b8751631f2a200560e01b81528390fd5b875163c1ab6dc160e01b81528390fd5b6109d391508b3d8d116103f6576103e78183610afc565b8b6105d8565b89513d87823e3d90fd5b5050346100bd57816003193601126100bd57517f00000000000000000000000000000000000000000000000000000000000000006001600160a01b03168152602090f35b5050346100bd57816003193601126100bd57517f00000000000000000000000000000000000000000000000000000000000000006001600160a01b03168152602090f35b82843461055b578160031936011261055b575061054f610a89610a92565b60243590610f32565b600435906001600160a01b03821682036103b957565b60609060031901126103b9576004356001600160a01b03811681036103b957906024359060443590565b67ffffffffffffffff8111610ae657604052565b634e487b7160e01b600052604160045260246000fd5b90601f8019910116810190811067ffffffffffffffff821117610ae657604052565b908160209103126103b9575180151581036103b95790565b51906001600160a01b03821682036103b957565b60405163a9059cbb60e01b60009081526001600160a01b039384166004526024949094529260209060448180855af1600160005114811615610bab575b8360405215610b9557505050565b635274afe760e01b835216600482015260249150fd5b6001811516610bc157813b15153d151616610b87565b833d6000823e3d90fd5b6040516323b872dd60e01b60009081526001600160a01b03938416600452938316602452604494909452909160209060648180855af1600160005114811615610c22575b83604052600060605215610b9557505050565b6001811516610bc157813b15153d151616610c0f565b7f9b779b17422d0df92223018b32b4d1fa46e071723d6817e2486d003becc55f006002815414610c685760029055565b604051633ee5aeb560e01b8152600490fd5b81810292918115918404141715610c8d57565b634e487b7160e01b600052601160045260246000fd5b8115610cad570490565b634e487b7160e01b600052601260045260246000fd5b908160e09103126103b957610cd781610b36565b91610ce460208301610b36565b91610cf160408201610b36565b9160608201519160808101519160c060a083015192015190565b91908203918211610c8d57565b91908260409103126103b9576020825192015190565b91908201809211610c8d57565b60408051630956fef360e21b81526001600160a01b03808416600483018190529395947f0000000000000000000000000000000000000000000000000000000000000000821694909392909190602081602481895afa908115610f2757600091610eee575b5016938415610edf57602884029184830460281485151715610c8d5760e0906024855180948193631f69565f861b835260048301525afa908115610ed4576004926107c5610e028694610e0b94600091610eaf575b506127109182918a610c7a565b04920487610d0b565b94815192838092630240bc6b60e21b82525afa908115610ea4576000928392610e73575b50506103e593848102948186041490151715610c8d57610e64610e6a92610e5e6103e8610e7097048092610c7a565b92610d2e565b90610ca3565b93611214565b90565b610e96935080919250903d10610e9d575b610e8e8183610afc565b810190610d18565b3880610e2f565b503d610e84565b82513d6000823e3d90fd5b610ec7915060e03d8111610889576108748183610afc565b5094505050505038610df5565b83513d6000823e3d90fd5b50505050509050600090600090565b906020823d8211610f1f575b81610f0760209383610afc565b8101031261055b5750610f1990610b36565b38610da0565b3d9150610efa565b84513d6000823e3d90fd5b604051630956fef360e21b81526001600160a01b0380831660048301819052929493917f000000000000000000000000000000000000000000000000000000000000000082169190602081602481865afa90811561102757600091611040575b50161561103357610fa38286611079565b92602884029084820460281485151715610c8d5760e090602460405180958193631f69565f861b835260048301525afa801561102757610e70946107bc6107c592610ffc95600091611002575061271091829184610c7a565b9361133f565b61101a915060e03d8111610889576108748183610afc565b50945050505050386107af565b6040513d6000823e3d90fd5b5050509050600090600090565b906020823d8211611071575b8161105960209383610afc565b8101031261055b575061106b90610b36565b38610f92565b3d915061104c565b60408051630956fef360e21b81526001600160a01b0392831660048201529091906020816024817f000000000000000000000000000000000000000000000000000000000000000086165afa908115610ed45760009161115b575b50169182156111535781600493815194858092630240bc6b60e21b82525afa928315610ea4576000928394611130575b50506103e590818102918183041490151715610c8d57610e7092610e5e6103e8610e6493048092610c7a565b809192945061114b9350903d10610e9d57610e8e8183610afc565b913880611104565b505050600090565b906020823d821161118c575b8161117460209383610afc565b8101031261055b575061118690610b36565b386110d4565b3d9150611167565b604051631f69565f60e01b81526001600160a01b0391821660048201529060e090829060249082907f0000000000000000000000000000000000000000000000000000000000000000165afa908115611027576000916111f2575090565b61120a915060e03d8111610889576108748183610afc565b5050509250505090565b60408051630956fef360e21b81526001600160a01b039283166004820152909291906020816024817f000000000000000000000000000000000000000000000000000000000000000086165afa908115610f2757600091611306575b501680156111535782600491815192838092630240bc6b60e21b82525afa9283156112fc576000936112db575b505081156112d4576127109182820291808304841490151715610c8d576112c391610ca3565b818111156112cf575090565b905090565b5050600090565b6112f2929350803d10610e9d57610e8e8183610afc565b905090388061129d565b513d6000823e3d90fd5b906020823d8211611337575b8161131f60209383610afc565b8101031261055b575061133190610b36565b38611270565b3d9150611312565b60408051630956fef360e21b81526001600160a01b039283166004820152909291906020816024817f000000000000000000000000000000000000000000000000000000000000000086165afa908115610f275760009161140d575b501680156111535782600491815192838092630240bc6b60e21b82525afa9283156112fc576000936113ed57505081156112d4576127109182820291808304841490151715610c8d576112c391610ca3565b611404929350803d10610e9d57610e8e8183610afc565b5090388061129d565b906020823d821161143e575b8161142660209383610afc565b8101031261055b575061143890610b36565b3861139b565b3d915061141956fea2646970667358221220b39be405b4f7cec056102b5a149a45565ea197110287a6d8071358f4dbcab42f64736f6c63430008140033",
  "linkReferences": {},
  "deployedLinkReferences": {}
}