{
  "_format": "hh-sol-artifact-1",
  "contractName": "KaboomRouter",
  "sourceName": "src/KaboomRouter.sol",
  "abi": [
    {
      "inputs": [
        {
          "internalType": "address",
          "name": "factory_",
          "type": "address"
        },
        {
          "internalType": "address",
          "name": "feeVault_",
          "type": "address"
        },
        {
          "internalType": "address",
          "name": "wCELO_",
          "type": "address"
        }
      ],
      "stateMutability": "nonpayable",
      "type": "constructor"
    },
    {
      "inputs": [],
      "name": "InsufficientOutput",
      "type": "error"
    },
    {
      "inputs": [],
      "name": "InvalidToken",
      "type": "error"
    },
    {
      "inputs": [],
      "name": "ReentrancyGuardReentrantCall",
      "type": "error"
    },
    {
      "inputs": [
        {
          "internalType": "address",
          "name": "token",
          "type": "address"
        }
      ],
      "name": "SafeERC20FailedOperation",
      "type": "error"
    },
    {
      "inputs": [],
      "name": "SlippageExceeded",
      "type": "error"
    },
    {
      "inputs": [],
      "name": "ZeroAmount",
      "type": "error"
    },
    {
      "anonymous": false,
      "inputs": [
        {
          "indexed": true,
          "internalType": "address",
          "name": "token",
          "type": "address"
        },
        {
          "indexed": true,
          "internalType": "address",
          "name": "pool",
          "type": "address"
        },
        {
          "indexed": false,
          "internalType": "uint256",
          "name": "initialLiquidity",
          "type": "uint256"
        },
        {
          "indexed": false,
          "internalType": "uint256",
          "name": "timestamp",
          "type": "uint256"
        }
      ],
      "name": "PoolInitialized",
      "type": "event"
    },
    {
      "anonymous": false,
      "inputs": [
        {
          "indexed": true,
          "internalType": "address",
          "name": "token",
          "type": "address"
        },
        {
          "indexed": true,
          "internalType": "address",
          "name": "trader",
          "type": "address"
        },
        {
          "indexed": false,
          "internalType": "bool",
          "name": "isBuy",
          "type": "bool"
        },
        {
          "indexed": false,
          "internalType": "uint256",
          "name": "amountIn",
          "type": "uint256"
        },
        {
          "indexed": false,
          "internalType": "uint256",
          "name": "amountOut",
          "type": "uint256"
        },
        {
          "indexed": false,
          "internalType": "uint256",
          "name": "price",
          "type": "uint256"
        },
        {
          "indexed": false,
          "internalType": "uint256",
          "name": "timestamp",
          "type": "uint256"
        }
      ],
      "name": "Trade",
      "type": "event"
    },
    {
      "inputs": [
        {
          "internalType": "address",
          "name": "token",
          "type": "address"
        },
        {
          "internalType": "uint256",
          "name": "amountIn",
          "type": "uint256"
        },
        {
          "internalType": "uint256",
          "name": "minAmountOut",
          "type": "uint256"
        }
      ],
      "name": "buy",
      "outputs": [
        {
          "internalType": "uint256",
          "name": "amountOut",
          "type": "uint256"
        }
      ],
      "stateMutability": "nonpayable",
      "type": "function"
    },
    {
      "inputs": [],
      "name": "factory",
      "outputs": [
        {
          "internalType": "address",
          "name": "",
          "type": "address"
        }
      ],
      "stateMutability": "view",
      "type": "function"
    },
    {
      "inputs": [],
      "name": "feeVault",
      "outputs": [
        {
          "internalType": "address",
          "name": "",
          "type": "address"
        }
      ],
      "stateMutability": "view",
      "type": "function"
    },
    {
      "inputs": [
        {
          "internalType": "address",
          "name": "token",
          "type": "address"
        },
        {
          "internalType": "uint256",
          "name": "amountIn",
          "type": "uint256"
        }
      ],
      "name": "getBuyQuote",
      "outputs": [
        {
          "internalType": "uint256",
          "name": "amountOut",
          "type": "uint256"
        },
        {
          "internalType": "uint256",
          "name": "priceImpact",
          "type": "uint256"
        }
      ],
      "stateMutability": "view",
      "type": "function"
    },
    {
      "inputs": [
        {
          "internalType": "address",
          "name": "token",
          "type": "address"
        },
        {
          "internalType": "uint256",
          "name": "amountIn",
          "type": "uint256"
        }
      ],
      "name": "getSellQuote",
      "outputs": [
        {
          "internalType": "uint256",
          "name": "amountOut",
          "type": "uint256"
        },
        {
          "internalType": "uint256",
          "name": "priceImpact",
          "type": "uint256"
        }
      ],
      "stateMutability": "view",
      "type": "function"
    },
    {
      "inputs": [
        {
          "internalType": "address",
          "name": "token",
          "type": "address"
        },
        {
          "internalType": "uint256",
          "name": "amountIn",
          "type": "uint256"
        },
        {
          "internalType": "uint256",
          "name": "minAmountOut",
          "type": "uint256"
        }
      ],
      "name": "sell",
      "outputs": [
        {
          "internalType": "uint256",
          "name": "amountOut",
          "type": "uint256"
        }
      ],
      "stateMutability": "nonpayable",
      "type": "function"
    },
    {
      "inputs": [],
      "name": "wCELO",
      "outputs": [
        {
          "internalType": "address",
          "name": "",
          "type": "address"
        }
      ],
      "stateMutability": "view",
      "type": "function"
    }
  ],
  "bytecode": "0x60e0346100f557601f610e6638819003918201601f19168301916001600160401b038311848410176100fa578084926060946040528339810103126100f55761004781610110565b90610060604061005960208401610110565b9201610110565b9160017f9b779b17422d0df92223018b32b4d1fa46e071723d6817e2486d003becc55f005560805260a05260c052604051610d419081610125823960805181818160880152818160fc015281816104c3015281816105b90152818161094c0152610c88015260a0518181816101860152818161061801526108bf015260c05181818161014c0152818161043701526106550152f35b600080fd5b634e487b7160e01b600052604160045260246000fd5b51906001600160a01b03821682036100f55756fe608060408181526004918236101561001657600080fd5b60009260e0908435821c9283631bf6e958146108ee57508263478222c2146108a95782636a272462146105745782638aaae30514610466578263930c797614610421578263a59ac6dd146100bb57505063c45a01551461007557600080fd5b346100b757816003193601126100b757517f00000000000000000000000000000000000000000000000000000000000000006001600160a01b03168152602090f35b5080fd5b8385913461039f576100cc366109f7565b949190926100d8610c05565b84516348c52f9d60e11b81526001600160a01b0383811683830181905260209990957f00000000000000000000000000000000000000000000000000000000000000008316939092908b81602481885afa9081156104175784916103fa575b50156103ea5787156103da57846101d18c8a847f00000000000000000000000000000000000000000000000000000000000000001661017882303384610b98565b8d5163095ea7b360e01b81527f00000000000000000000000000000000000000000000000000000000000000006001600160a01b038116968201968752602087019390935291949193849283918a918391604090910190565b03925af180156103d0576103a3575b5016803b1561039f57885163280cff3560e21b81526001600160a01b038716868201908152602081018a90529091849183919082908490829060400103925af1801561039557908391610381575b5050602887029287840460280361036e5790806024928a5193848092631f69565f60e01b82528b8a8301525afa928315610363576102959361029a959361029093610287939261032f575b50506127109182918b610a85565b04920488610b0a565b610b0a565b610c47565b95861061032157506102b6906102b1863385610b17565b610c5e565b8351926001845286840152848484015260608301524260808301527f9adcf0ad0cda63c4d50f26a48925cf6405df27d422a39c456b5f03f661c8298260a03393a360017f9b779b17422d0df92223018b32b4d1fa46e071723d6817e2486d003becc55f005551908152f35b8451638199f5f360e01b8152fd5b61034e9250803d1061035c575b6103468183610a4b565b810190610ac2565b509450505050508d80610279565b503d61033c565b8951903d90823e3d90fd5b634e487b7160e01b835260118552602483fd5b61038a90610a21565b6100b757818b61022e565b89513d85823e3d90fd5b8280fd5b6103c2908d803d106103c9575b6103ba8183610a4b565b810190610a6d565b508c6101e0565b503d6103b0565b8b513d87823e3d90fd5b8851631f2a200560e01b81528590fd5b885163c1ab6dc160e01b81528590fd5b61041191508c8d3d106103c9576103ba8183610a4b565b8c610137565b8a513d86823e3d90fd5b505050346100b757816003193601126100b757517f00000000000000000000000000000000000000000000000000000000000000006001600160a01b03168152602090f35b91509192346105715783600319360112610571576104826109dc565b6024359360288502938585046028148615171561055e578651631f69565f60e01b81526001600160a01b0393841691810191909152918190839060249082907f0000000000000000000000000000000000000000000000000000000000000000165afa9283156105535761051461051d94610295946105239794610290949261052f575b505061271091829189610a85565b04920486610b0a565b91610cea565b82519182526020820152f35b6105459250803d1061035c576103468183610a4b565b509450505050503880610506565b8651903d90823e3d90fd5b634e487b7160e01b845260119052602483fd5b80fd5b90929150346108a557610586366109f7565b94919092610592610c05565b84516348c52f9d60e11b81526001600160a01b0383811682840181905260209990959193927f0000000000000000000000000000000000000000000000000000000000000000851692908b81602481875afa90811561089b57839161087e575b501561086e57871561085e5761060a8830338a610b98565b885163095ea7b360e01b81527f00000000000000000000000000000000000000000000000000000000000000006001600160a01b0381168683019081526103e88b04602082018190527f00000000000000000000000000000000000000000000000000000000000000008916989095939092918f90829081906040010381878d5af1801561085457908f91610836575b505016803b156100b7578a5163280cff3560e21b81526001600160a01b038916818801908152602081018690529091839183919082908490829060400103925af1801561082c5761081d575b509060288302938385046028148415171561080a5790806024928c5193848092631f69565f60e01b82528d8b8301525afa9283156107ff579261074a9594926107419261029095926107db575b505061271091829184610a85565b04930490610b0a565b9687106107cd5750906102b186610762933390610b17565b8351926000845286840152848484015260608301524260808301527f9adcf0ad0cda63c4d50f26a48925cf6405df27d422a39c456b5f03f661c8298260a03393a360017f9b779b17422d0df92223018b32b4d1fa46e071723d6817e2486d003becc55f005551908152f35b8551638199f5f360e01b8152fd5b6107f19250803d1061035c576103468183610a4b565b509450505050503880610733565b8b51903d90823e3d90fd5b634e487b7160e01b835260118652602483fd5b61082690610a21565b386106e6565b8b513d84823e3d90fd5b8161084c92903d106103c9576103ba8183610a4b565b508d3861069a565b8d513d86823e3d90fd5b8851631f2a200560e01b81528490fd5b885163c1ab6dc160e01b81528490fd5b61089591508c8d3d106103c9576103ba8183610a4b565b386105f2565b8a513d85823e3d90fd5b8380fd5b505050346100b757816003193601126100b757517f00000000000000000000000000000000000000000000000000000000000000006001600160a01b03168152602090f35b849350853461057157846003193601126105715761090a6109dc565b91602435946103e88604936028850295858704602814861517156109c957631f69565f60e01b84526001600160a01b03918216908401528190839060249082907f0000000000000000000000000000000000000000000000000000000000000000165afa9283156109be5761052395936102909361051d9693610741939261099a57505061271091829184610a85565b6109b09250803d1061035c576103468183610a4b565b509450505050508980610733565b8751903d90823e3d90fd5b634e487b7160e01b855260119052602484fd5b600435906001600160a01b03821682036109f257565b600080fd5b60609060031901126109f2576004356001600160a01b03811681036109f257906024359060443590565b67ffffffffffffffff8111610a3557604052565b634e487b7160e01b600052604160045260246000fd5b90601f8019910116810190811067ffffffffffffffff821117610a3557604052565b908160209103126109f2575180151581036109f25790565b81810292918115918404141715610a9857565b634e487b7160e01b600052601160045260246000fd5b51906001600160a01b03821682036109f257565b908160e09103126109f257610ad681610aae565b91610ae360208301610aae565b91610af060408201610aae565b9160608201519160808101519160c060a083015192015190565b91908203918211610a9857565b60405163a9059cbb60e01b60009081526001600160a01b039384166004526024949094529260209060448180855af1600160005114811615610b78575b8360405215610b6257505050565b635274afe760e01b835216600482015260249150fd5b6001811516610b8e57813b15153d151616610b54565b833d6000823e3d90fd5b6040516323b872dd60e01b60009081526001600160a01b03938416600452938316602452604494909452909160209060648180855af1600160005114811615610bef575b83604052600060605215610b6257505050565b6001811516610b8e57813b15153d151616610bdc565b7f9b779b17422d0df92223018b32b4d1fa46e071723d6817e2486d003becc55f006002815414610c355760029055565b604051633ee5aeb560e01b8152600490fd5b6103e890818102918183041490151715610a985790565b604051631f69565f60e01b81526001600160a01b0391821660048201529060e090829060249082907f0000000000000000000000000000000000000000000000000000000000000000165afa908115610cde57600091610cbc575090565b610cd4915060e03d811161035c576103468183610a4b565b5050509250505090565b6040513d6000823e3d90fd5b670de0b6b3a76400009004600a810290808204600a1490151715610a98579056fea2646970667358221220b1f512875a40a5ccd1c2979b50a3dfb92a8354c02057120a4d45a4834ec14df264736f6c63430008140033",
  "linkReferences": {},
  "deployedLinkReferences": {}
}