{
  "_format": "hh-sol-artifact-1",
  "contractName": "KaboomLPVault",
  "sourceName": "src/KaboomLPVault.sol",
  "abi": [
    {
      "inputs": [
        {
          "internalType": "address",
          "name": "token_",
          "type": "address"
        },
        {
          "internalType": "address",
          "name": "pool_",
          "type": "address"
        },
        {
          "internalType": "address",
          "name": "factory_",
          "type": "address"
        }
      ],
      "stateMutability": "nonpayable",
      "type": "constructor"
    },
    {
      "inputs": [],
      "name": "AlreadyInitialized",
      "type": "error"
    },
    {
      "inputs": [
        {
          "internalType": "address",
          "name": "token",
          "type": "address"
        }
      ],
      "name": "SafeERC20FailedOperation",
      "type": "error"
    },
    {
      "inputs": [],
      "name": "Unauthorized",
      "type": "error"
    },
    {
      "inputs": [],
      "name": "ZeroAddress",
      "type": "error"
    },
    {
      "inputs": [],
      "name": "ZeroAmount",
      "type": "error"
    },
    {
      "anonymous": false,
      "inputs": [
        {
          "indexed": true,
          "internalType": "address",
          "name": "token",
          "type": "address"
        },
        {
          "indexed": true,
          "internalType": "address",
          "name": "pool",
          "type": "address"
        },
        {
          "indexed": false,
          "internalType": "uint256",
          "name": "amount",
          "type": "uint256"
        }
      ],
      "name": "LPLocked",
      "type": "event"
    },
    {
      "inputs": [],
      "name": "factory",
      "outputs": [
        {
          "internalType": "address",
          "name": "",
          "type": "address"
        }
      ],
      "stateMutability": "view",
      "type": "function"
    },
    {
      "inputs": [],
      "name": "getLPBalance",
      "outputs": [
        {
          "internalType": "uint256",
          "name": "",
          "type": "uint256"
        }
      ],
      "stateMutability": "view",
      "type": "function"
    },
    {
      "inputs": [
        {
          "internalType": "address",
          "name": "token_",
          "type": "address"
        },
        {
          "internalType": "address",
          "name": "pool_",
          "type": "address"
        }
      ],
      "name": "initialize",
      "outputs": [],
      "stateMutability": "nonpayable",
      "type": "function"
    },
    {
      "inputs": [],
      "name": "initialized",
      "outputs": [
        {
          "internalType": "bool",
          "name": "",
          "type": "bool"
        }
      ],
      "stateMutability": "view",
      "type": "function"
    },
    {
      "inputs": [],
      "name": "isLocked",
      "outputs": [
        {
          "internalType": "bool",
          "name": "",
          "type": "bool"
        }
      ],
      "stateMutability": "view",
      "type": "function"
    },
    {
      "inputs": [
        {
          "internalType": "uint256",
          "name": "amount",
          "type": "uint256"
        }
      ],
      "name": "lockLP",
      "outputs": [],
      "stateMutability": "nonpayable",
      "type": "function"
    },
    {
      "inputs": [],
      "name": "lockedBalance",
      "outputs": [
        {
          "internalType": "uint256",
          "name": "",
          "type": "uint256"
        }
      ],
      "stateMutability": "view",
      "type": "function"
    },
    {
      "inputs": [],
      "name": "pool",
      "outputs": [
        {
          "internalType": "address",
          "name": "",
          "type": "address"
        }
      ],
      "stateMutability": "view",
      "type": "function"
    },
    {
      "inputs": [],
      "name": "token",
      "outputs": [
        {
          "internalType": "address",
          "name": "",
          "type": "address"
        }
      ],
      "stateMutability": "view",
      "type": "function"
    }
  ],
  "bytecode": "0x60a0346100ae57601f61056938819003918201601f19168301916001600160401b038311848410176100b3578084926060946040528339810103126100ae57610047816100c9565b61005f6040610058602085016100c9565b93016100c9565b9160018060a01b03908160018060a01b031993168360005416176000551690600154161760015560805260405161048b90816100de823960805181818160c60152818161023a01526102ef0152f35b600080fd5b634e487b7160e01b600052604160045260246000fd5b51906001600160a01b03821682036100ae5756fe608060408181526004918236101561001657600080fd5b600092833560e01c918263158ef93e146104315750816316f0115b1461040857816340519a53146102ce578163485cc955146102015781636f43f17b14610139575080637b80889b1461011b578063a4e2d634146100f5578063c45a0155146100b25763fc0c546a1461008857600080fd5b346100ae57816003193601126100ae57905490516001600160a01b039091168152602090f35b5080fd5b50346100ae57816003193601126100ae57517f00000000000000000000000000000000000000000000000000000000000000006001600160a01b03168152602090f35b50346100ae57816003193601126100ae5760209060ff60015460a01c1690519015158152f35b50346100ae57816003193601126100ae576020906002549051908152f35b919050346101d857826003193601126101d85760015481516370a0823160e01b8152308482015290602090829060249082906001600160a01b03165afa9283156101f757849361018e575b6020848451908152f35b909192506020903d82116101ef575b601f8201601f191683019067ffffffffffffffff8211848310176101dc575060209183918552810103126101d8576020925051903880610184565b8280fd5b634e487b7160e01b865260419052602485fd5b3d915061019d565b82513d86823e3d90fd5b9050346101d857816003193601126101d8576001600160a01b0390803582811691908290036102ca57602435928084168094036102c6577f00000000000000000000000000000000000000000000000000000000000000001633036102b9576001549360ff8560a81c166102ad5782156102a057505083546001600160a01b031916178355600161ff0160a01b031990911617600160a81b1760015580f35b5163d92e233d60e01b8152fd5b5162dc149f60e41b8152fd5b83516282b42960e81b8152fd5b8580fd5b8480fd5b9050346101d85760203660031901126101d8576001600160a01b03908035907f0000000000000000000000000000000000000000000000000000000000000000831633036102b95760015460ff8160a01c166103fa5782156103eb5760ff60a01b198116600160a01b17600155600283905584516323b872dd60e01b8752338352306024526044849052919084169060208760648180865af160018851148116156103cc575b83875287606052156103b95750505060207f104290e1e459304b774d131c3ac0fa84947303c64b8ae6cce786374e13448942918386541693600154169451908152a380f35b635274afe760e01b835282015260249150fd5b60018115166103e257823b15153d151616610374565b833d89823e3d90fd5b508351631f2a200560e01b8152fd5b50835162dc149f60e41b8152fd5b5050346100ae57816003193601126100ae5760015490516001600160a01b039091168152602090f35b8490346100ae57816003193601126100ae5760209060ff60015460a81c1615158152f3fea2646970667358221220bf05ff60a61e22ec80ee1f1b6ef2835f0308df53cbba6cdbea7a37dc067b213d64736f6c63430008140033",
  "linkReferences": {},
  "deployedLinkReferences": {}
}