{
  "_format": "hh-sol-artifact-1",
  "contractName": "KaboomPool",
  "sourceName": "src/KaboomPool.sol",
  "abi": [
    {
      "inputs": [
        {
          "internalType": "address",
          "name": "token_",
          "type": "address"
        },
        {
          "internalType": "address",
          "name": "usdc_",
          "type": "address"
        },
        {
          "internalType": "address",
          "name": "factory_",
          "type": "address"
        }
      ],
      "stateMutability": "nonpayable",
      "type": "constructor"
    },
    {
      "inputs": [],
      "name": "InsufficientLiquidity",
      "type": "error"
    },
    {
      "inputs": [],
      "name": "ReentrancyGuardReentrantCall",
      "type": "error"
    },
    {
      "inputs": [
        {
          "internalType": "address",
          "name": "token",
          "type": "address"
        }
      ],
      "name": "SafeERC20FailedOperation",
      "type": "error"
    },
    {
      "inputs": [],
      "name": "SlippageExceeded",
      "type": "error"
    },
    {
      "inputs": [],
      "name": "Unauthorized",
      "type": "error"
    },
    {
      "inputs": [],
      "name": "ZeroAmount",
      "type": "error"
    },
    {
      "anonymous": false,
      "inputs": [
        {
          "indexed": true,
          "internalType": "address",
          "name": "provider",
          "type": "address"
        },
        {
          "indexed": false,
          "internalType": "uint256",
          "name": "tokenAmount",
          "type": "uint256"
        },
        {
          "indexed": false,
          "internalType": "uint256",
          "name": "usdcAmount",
          "type": "uint256"
        },
        {
          "indexed": false,
          "internalType": "uint256",
          "name": "sharesMinted",
          "type": "uint256"
        }
      ],
      "name": "LiquidityAdded",
      "type": "event"
    },
    {
      "anonymous": false,
      "inputs": [
        {
          "indexed": true,
          "internalType": "address",
          "name": "provider",
          "type": "address"
        },
        {
          "indexed": false,
          "internalType": "uint256",
          "name": "tokenAmount",
          "type": "uint256"
        },
        {
          "indexed": false,
          "internalType": "uint256",
          "name": "usdcAmount",
          "type": "uint256"
        },
        {
          "indexed": false,
          "internalType": "uint256",
          "name": "sharesBurned",
          "type": "uint256"
        }
      ],
      "name": "LiquidityRemoved",
      "type": "event"
    },
    {
      "anonymous": false,
      "inputs": [
        {
          "indexed": true,
          "internalType": "address",
          "name": "trader",
          "type": "address"
        },
        {
          "indexed": false,
          "internalType": "bool",
          "name": "isBuy",
          "type": "bool"
        },
        {
          "indexed": false,
          "internalType": "uint256",
          "name": "inputAmount",
          "type": "uint256"
        },
        {
          "indexed": false,
          "internalType": "uint256",
          "name": "outputAmount",
          "type": "uint256"
        }
      ],
      "name": "Swap",
      "type": "event"
    },
    {
      "inputs": [
        {
          "internalType": "uint256",
          "name": "tokenAmount",
          "type": "uint256"
        },
        {
          "internalType": "uint256",
          "name": "usdcAmount",
          "type": "uint256"
        }
      ],
      "name": "addLiquidity",
      "outputs": [
        {
          "internalType": "uint256",
          "name": "sharesMinted",
          "type": "uint256"
        }
      ],
      "stateMutability": "nonpayable",
      "type": "function"
    },
    {
      "inputs": [
        {
          "internalType": "uint256",
          "name": "usdcAmount",
          "type": "uint256"
        },
        {
          "internalType": "uint256",
          "name": "minTokensOut",
          "type": "uint256"
        }
      ],
      "name": "buyToken",
      "outputs": [
        {
          "internalType": "uint256",
          "name": "tokensOut",
          "type": "uint256"
        }
      ],
      "stateMutability": "nonpayable",
      "type": "function"
    },
    {
      "inputs": [],
      "name": "factory",
      "outputs": [
        {
          "internalType": "address",
          "name": "",
          "type": "address"
        }
      ],
      "stateMutability": "view",
      "type": "function"
    },
    {
      "inputs": [],
      "name": "getReserves",
      "outputs": [
        {
          "internalType": "uint256",
          "name": "",
          "type": "uint256"
        },
        {
          "internalType": "uint256",
          "name": "",
          "type": "uint256"
        }
      ],
      "stateMutability": "view",
      "type": "function"
    },
    {
      "inputs": [
        {
          "internalType": "uint256",
          "name": "shareAmount",
          "type": "uint256"
        }
      ],
      "name": "removeLiquidity",
      "outputs": [
        {
          "internalType": "uint256",
          "name": "tokenOut",
          "type": "uint256"
        },
        {
          "internalType": "uint256",
          "name": "usdcOut",
          "type": "uint256"
        }
      ],
      "stateMutability": "nonpayable",
      "type": "function"
    },
    {
      "inputs": [],
      "name": "reserveToken",
      "outputs": [
        {
          "internalType": "uint256",
          "name": "",
          "type": "uint256"
        }
      ],
      "stateMutability": "view",
      "type": "function"
    },
    {
      "inputs": [],
      "name": "reserveUsdc",
      "outputs": [
        {
          "internalType": "uint256",
          "name": "",
          "type": "uint256"
        }
      ],
      "stateMutability": "view",
      "type": "function"
    },
    {
      "inputs": [
        {
          "internalType": "uint256",
          "name": "tokenAmount",
          "type": "uint256"
        },
        {
          "internalType": "uint256",
          "name": "minUsdcOut",
          "type": "uint256"
        }
      ],
      "name": "sellToken",
      "outputs": [
        {
          "internalType": "uint256",
          "name": "usdcOut",
          "type": "uint256"
        }
      ],
      "stateMutability": "nonpayable",
      "type": "function"
    },
    {
      "inputs": [
        {
          "internalType": "address",
          "name": "",
          "type": "address"
        }
      ],
      "name": "shares",
      "outputs": [
        {
          "internalType": "uint256",
          "name": "",
          "type": "uint256"
        }
      ],
      "stateMutability": "view",
      "type": "function"
    },
    {
      "inputs": [],
      "name": "token",
      "outputs": [
        {
          "internalType": "address",
          "name": "",
          "type": "address"
        }
      ],
      "stateMutability": "view",
      "type": "function"
    },
    {
      "inputs": [],
      "name": "totalShares",
      "outputs": [
        {
          "internalType": "uint256",
          "name": "",
          "type": "uint256"
        }
      ],
      "stateMutability": "view",
      "type": "function"
    },
    {
      "inputs": [],
      "name": "usdc",
      "outputs": [
        {
          "internalType": "address",
          "name": "",
          "type": "address"
        }
      ],
      "stateMutability": "view",
      "type": "function"
    }
  ],
  "bytecode": "0x60e03461013057601f610b4538819003918201601f19168301916001600160401b0383118484101761013557808492606094604052833981010312610130576100478161014b565b9061006060406100596020840161014b565b920161014b565b60017f9b779b17422d0df92223018b32b4d1fa46e071723d6817e2486d003becc55f0055916001600160a01b0380821615908115610125575b811561011a575b506101085760805260a05260c0526040516109e59081610160823960805181818160ba01528181610209015281816103e1015281816105a60152610748015260a0518181816102350152818161040b015281816104d4015261071e015260c0518161015c0152f35b604051631f2a200560e01b8152600490fd5b9050831615386100a0565b838116159150610099565b600080fd5b634e487b7160e01b600052604160045260246000fd5b51906001600160a01b03821682036101305756fe6040608081526004908136101561001557600080fd5b600091823560e01c908163057466ea146106a25781630902f1ac146106805781631897bcf3146105225781633a98ef39146105035781633e413bee146104bf5781635eb94d2a146104a05781639c8f9f23146103245781639cd441da1461018b578163c45a015514610147578163ce7c2ac21461010957508063f4325d67146100ed5763fc0c546a146100a757600080fd5b346100e957816003193601126100e957517f00000000000000000000000000000000000000000000000000000000000000006001600160a01b03168152602090f35b5080fd5b50346100e957816003193601126100e957602091549051908152f35b90503461014357602036600319011261014357356001600160a01b0381169081900361014357828291602094526003845220549051908152f35b8280fd5b5050346100e957816003193601126100e957517f00000000000000000000000000000000000000000000000000000000000000006001600160a01b03168152602090f35b8284346103215761019b366107f3565b90936101a56108f1565b84158015610319575b61030b5750927f64b83944e79c3ce8d4c297411de637c3e102d064677aac0c163976ebdcd6f50e839260209560025480156000146102c75750683635c9adc5dea000009586925b61025a836001600160a01b0361022f8930337f00000000000000000000000000000000000000000000000000000000000000008516610864565b309033907f000000000000000000000000000000000000000000000000000000000000000016610864565b610265868254610857565b815561027383600154610857565b6001553381526003895220610289838254610857565b905561029782600254610857565b6002558451938452602084015260408301523391606090a260016000805160206109908339815191525551908152f35b6102f26102e96102e26102da848961080e565b865490610837565b928461080e565b60015490610837565b8082101561030457505b9586926101f5565b90506102fc565b8351631f2a200560e01b8152fd5b5081156101ae565b80fd5b90508234610321576020366003190112610321578135916103436108f1565b821561030b573382526003602052828483205410610493575061036782825461080e565b9161038a6103786002548095610837565b936103858360015461080e565b610837565b9133815260036020528481206103a1838254610921565b90556103af82600254610921565b6002556103bd848254610921565b90556103cb82600154610921565b600155610430826001600160a01b0361040786337f0000000000000000000000000000000000000000000000000000000000000000841661092e565b33907f00000000000000000000000000000000000000000000000000000000000000001661092e565b7f1dc8bb69df2b8e91fbdcbfcf93d951b3f0000f085a95fe3f7946d6161439245d84518061047233948688846040919493926060820195825260208201520152565b0390a260016000805160206109908339815191525582519182526020820152f35b83516282b42960e81b8152fd5b5050346100e957816003193601126100e9576020906001549051908152f35b5050346100e957816003193601126100e957517f00000000000000000000000000000000000000000000000000000000000000006001600160a01b03168152602090f35b5050346100e957816003193601126100e9576020906002549051908152f35b8383346100e957610532366107f3565b929061053c6108f1565b80156106705760015480158015610667575b610657576103e582026103e4198382040161064457906105816105796103e86105879404809361080e565b918554610857565b90610837565b93841061063457602094506105cc846001600160a01b036104078430337f00000000000000000000000000000000000000000000000000000000000000008516610864565b6105d7818354610857565b82556105e584600154610921565b60015582519182528482015282828201527fbfd50a04f1e6e4aee344f5d0e7f15d74d0dbb58cd1f711daa6463094ca9508cd60603392a260016000805160206109908339815191525551908152f35b8251638199f5f360e01b81528590fd5b634e487b7160e01b845260118752602484fd5b835163bb55fd2760e01b81528690fd5b5082541561054e565b8251631f2a200560e01b81528590fd5b8284346103215780600319360112610321575460015482519182526020820152f35b8383346100e9576106b2366107f3565b926106bb6108f1565b811561067057600154801580156107ea575b610657576103e583026103e419848204016107d757906105816103e86106ff93046106f981865461080e565b92610857565b938410610634576020945061076d846001600160a01b036107448530337f00000000000000000000000000000000000000000000000000000000000000008516610864565b33907f00000000000000000000000000000000000000000000000000000000000000001661092e565b61077982600154610857565b600155610787848254610921565b9055815190600182528482015282828201527fbfd50a04f1e6e4aee344f5d0e7f15d74d0dbb58cd1f711daa6463094ca9508cd60603392a260016000805160206109908339815191525551908152f35b634e487b7160e01b835260118752602483fd5b508154156106cd565b6040906003190112610809576004359060243590565b600080fd5b8181029291811591840414171561082157565b634e487b7160e01b600052601160045260246000fd5b8115610841570490565b634e487b7160e01b600052601260045260246000fd5b9190820180921161082157565b6040516323b872dd60e01b60009081526001600160a01b03938416600452938316602452604494909452909160209060648180855af16001600051148116156108d1575b836040526000606052156108bb57505050565b635274afe760e01b835216600482015260249150fd5b60018115166108e757813b15153d1516166108a8565b833d6000823e3d90fd5b600080516020610990833981519152600281541461090f5760029055565b604051633ee5aeb560e01b8152600490fd5b9190820391821161082157565b60405163a9059cbb60e01b60009081526001600160a01b039384166004526024949094529260209060448180855af1600160005114811615610979575b83604052156108bb57505050565b60018115166108e757813b15153d15161661096b56fe9b779b17422d0df92223018b32b4d1fa46e071723d6817e2486d003becc55f00a264697066735822122062f53bf7f858bbe4a2487d1a066918b521eb4bc19ffdd632818a03b13f13f5fe64736f6c63430008140033",
  "linkReferences": {},
  "deployedLinkReferences": {}
}